1                                         High Level Assembler Option Summary                   (PTF UI64093)   Page    1
-                                                                                            HLASM R6.0  2021/03/26 12.00
0  No Overriding ASMAOPT Parameters
   No Overriding Parameters
   No Process Statements


   Options for this Assembly
0                    NOADATA
                       ALIGN
                       ASA
                       BATCH
                       CODEPAGE(047C)
                     NOCOMPAT
                     NODATAMAP
                     NODBCS
                     NODECK
                       DXREF
                       ESD
                     NOEXIT
                       FAIL(NOMSG,NOMNOTE,MAXERRS(500))
                       FLAG(0,ALIGN,CONT,EXLITW,NOIMPLEN,NOLONGER,NOPAGE0,PUSH,RECORD,NOSIGNED,NOSUBSTR,NOTRUNC,USING0)
                     NOFOLD
                     NOGOFF
                     NOINFO
                       ILMA
                       LANGUAGE(EN)
                     NOLIBMAC
                       LINECOUNT(60)
                       LIST(121)
                       MACHINE(,NOLIST)
                       MXREF(SOURCE)
                       OBJECT
                       OPTABLE(UNI,NOLIST)
                     NOPCONTROL
                     NOPESTOP
                     NOPROFILE
                     NORA2
                     NORENT
                       RLD
                       RXREF
                       SECTALGN(8)
                       SIZE(MAX)
                     NOSUPRWARN
                       SYSPARM()
                     NOTERM
                     NOTEST
                       THREAD
                     NOTRANSLATE
                       TYPECHECK(MAGNITUDE,REGISTER)
                       USING(NOLIMIT,MAP,WARN(15))
                     NOWORKFILE
                       XREF(SHORT,UNREFS)

   No Overriding DD Names
1IFTEST                                        External Symbol Dictionary                                       Page    2
-Symbol   Type   Id     Address  Length   Owner Id Flags Alias-of                            HLASM R6.0  2021/03/26 12.00
0          PC 00000001 00000000 00000000             00
 IFTEST    SD 00000002 00000000 00003D7A             00
 $$WA$$    ER 00000003
 $$WA$$    SD 00000004 00003D80 000005A8             00
1IFTEST                                                                                                         Page    3
   Active Usings: None
0  Loc  Object Code    Addr1 Addr2  Stmt   Source Statement                                  HLASM R6.0  2021/03/26 12.00
0                                      1          AGO   .SKIP                                                    00010007
                                       2 .SKIP    ANOP                                                           00200007
1IFTEST   EXAMPLES OF "IF" LOGIC MACRO INSTRUCTIONS                                                             Page    4
   Active Usings: None
0  Loc  Object Code    Addr1 Addr2  Stmt   Source Statement                                  HLASM R6.0  2021/03/26 12.00
0                                      4 *=*=*=*=*=*=*=*=*=*=*=*=*=*=*=*=*=*=*=*=*=*=*=*=*=*=*=*=*=*=*=*=*=*=*=* 00220007
                                       5 *                                                                     * 00230007
                                       6 *      THESE FOLLOWING STATEMENTS ARE NORMAL zOS INITIALIZATION       * 00240007
                                       7 *                                                                     * 00250007
                                       8 *=*=*=*=*=*=*=*=*=*=*=*=*=*=*=*=*=*=*=*=*=*=*=*=*=*=*=*=*=*=*=*=*=*=*=* 00260007
                                       9 *                                                                       00270007
                       00000          10 R0       EQU   0                                                        00280007
                       00001          11 R1       EQU   1       STANDARD                                         00290007
                       00002          12 R2       EQU   2        EQUATES                                         00300007
                       00003          13 R3       EQU   3         FOR                                            00310007
                       00004          14 R4       EQU   4          GENERAL                                       00320007
                       00005          15 R5       EQU   5           PURPOSE                                      00330007
                       00006          16 R6       EQU   6            REGISTERS.                                  00340007
                       00007          17 R7       EQU   7             YOU                                        00350007
                       00008          18 R8       EQU   8              MIGHT                                     00360007
                       00009          19 R9       EQU   9               AS                                       00370007
                       0000A          20 R10      EQU   10               WELL                                    00380007
                       0000B          21 R11      EQU   11                JUST                                   00390007
                       0000C          22 R12      EQU   12                 GET                                   00400007
                       0000D          23 R13      EQU   13                  USED                                 00410007
                       0000E          24 R14      EQU   14                   TO                                  00420007
                       0000F          25 R15      EQU   15                    IT.                                00430007
                                      26 *                                                                       00440007
 000000                00000 03D7A    27 IFTEST   CSECT                                                          00450007
                                      28 *                                                                       00460007
 000000 90EC D00C            0000C    29          STM   R14,R12,12(R13)     SAVE REGS IN CALLER'S SAVE AREA      00470007
 000004 18CF                          30          LR    R12,R15             PRIME BASE REG                       00480007
                  R:C  00000          31          USING IFTEST,R12          SET BASE REGISTER FOR PROGRAM        00490007
 000006 181D                          32          LR    R1,R13              COPY THE CALLER'S SAVEAREA POINTER   00500007
 000008 58D0 C014            00014    33          L     R13,VCON$WA$        ADDRESS OF MY SAVE/WORK AREA         00510007
                                      34          IF    (CLR,R1,R1,NE)                                           00520007
 00000C 1511                          36+         CLR   R1,R1               TWO OPERANDS                         01-IF
 00000E A784 0005            00018    40+         JE    $NEXT1              BRANCH IF CC INDICATES FAIL          01-IF
 000012 0000
 000014 00000000                      41 VCON$WA$ DC    V($$WA$$)                                                00530007
                                      42          ENDIF                                                          00540007
 000018                               44+$NEXT1   DC    0H'0'                                                    01-ENDIF
                  R:D  03D80          45          USING $$WA$$,R13          SEPARATE CSECT FOR REENTRANCY        00550007
 000018 5010 D004            03D84    46          ST    R1,SAVEAREA+4       BACK LINK TO CALLER'S SAVE AREA      00560007
 00001C 50D0 1008            00008    47          ST    R13,8(,R1)          FORWARD LINK TO MY SAVE AREA         00570007
                                      48 *                                                                       00580007
 003D80                03D80 005A8    49 $$WA$$   CSECT                                                          00590007
 003D80 0000000000000000              50 SAVEAREA DC    18F'0'              MY SAVE AREA                         00600007
 000020                00000 03D7A    51 IFTEST   CSECT                                                          00610007
                                      52 *                                                                       00620007
                                      53          OPEN  (SYSPRINT,OUTPUT)                                        00630007
 000020                               55+         CNOP  0,4                      Align list to word              01-OPEN
 000020 4D10 C028            00028    56+         BAS   1,*+8                    Load reg 1 with list address    01-OPEN
 000024 8F                            57+         DC    AL1(143)                 Option byte                     01-OPEN
 000025 0042C8                        58+         DC    AL3(SYSPRINT)            DCB or ACB address              01-OPEN
 000028 0A13                          59+         SVC   19                       Issue OPEN SVC                  01-OPEN
                                      60 *                                                                       00640007
                                      61          PRINT GEN                                                      00650007
                                      62 *=*=*=*=*=*=*=*=*=*=*=*=*=*=*=*=*=*=*=*=*=*=*=*=*=*=*=*=*=*=*=*=*=*=*=* 00660007
                                      63 *                                                                     * 00670007
1IFTEST   EXAMPLES OF "IF" LOGIC MACRO INSTRUCTIONS                                                             Page    5
   Active Usings: IFTEST,R12  $$WA$$,R13
0  Loc  Object Code    Addr1 Addr2  Stmt   Source Statement                                  HLASM R6.0  2021/03/26 12.00
0                                     64 * TEST SHOWING WHAT HAPPENS WHEN THE RESULT OF THE "IF" CREATES TRUE  * 00680007
                                      65 *                                                                     * 00690007
                                      66 *=*=*=*=*=*=*=*=*=*=*=*=*=*=*=*=*=*=*=*=*=*=*=*=*=*=*=*=*=*=*=*=*=*=*=* 00700007
                                      67 *                                                                       00710007
 00002A 92C1 D542      042C2          68          MVI   VARBL1,C'A'         SET TO PASS                          00720007
 00002E D204 D4DA D4AC 0425A 0422C    69          MVC   PREDOUT,=C'TRUE '                                        00730007
 000034 D207 D4BE D048 0423E 03DC8    70          MVC   TESTNBR,=C'TEST010A'                                     00740007
                                      71 *                                                                       00750007
                                      72 TEST010A IF    (CLI,VARBL1,C'A',E)                                      00760007
 00003A 95C1 D542      042C2          74+TEST010A CLI   VARBL1,C'A'         TWO OPERANDS                         01-IF
 00003E A774 0007            0004C    78+         JNE   $NEXT2              BRANCH IF CC INDICATES FAIL          01-IF
 000042 D204 D4F1 D4AC 04271 0422C    79            MVC   ACTOUT,=C'TRUE '                                       00770007
                                      80          ELSE                                                           00780007
 000048 A7F4 0005            00052    82+         J     $FINI3                                                   01-ELSE
 00004C                               83+$NEXT2   DC    0H'0'                                                    01-ELSE
 00004C D204 D4F1 D4B1 04271 04231    84            MVC   ACTOUT,=C'FALSE'                                       00790007
                                      85          ENDIF                                                          00800007
 000052                               87+$FINI3   DC    0H'0'                                                    01-ENDIF
                                      88          IF    (CLC,PREDOUT,ACTOUT,NE)                                  00810007
 000052 D504 D4DA D4F1 0425A 04271    90+         CLC   PREDOUT,ACTOUT      TWO OPERANDS                         01-IF
 000058 A784 0005            00062    94+         JE    $NEXT4              BRANCH IF CC INDICATES FAIL          01-IF
 00005C D209 D4F7 D498 04277 04218    95            MVC   ERROR,=C'<=== ERROR'                                   00820007
                                      96          ENDIF                                                          00830007
 000062                               98+$NEXT4   DC    0H'0'                                                    01-ENDIF
                                      99          PUT   SYSPRINT,OUTPUT                                          00840007
 000062 4110 D548            042C8   103+         LA    1,SYSPRINT                        LOAD PARAMETER REG 1   02-IHBIN
 000066 4100 D4BD            0423D   104+         LA    0,OUTPUT                          LOAD PARAMETER REG 0   02-IHBIN
 00006A 1FFF                         105+         SLR   15,15               CLEAR REGISTER FOR ICM          @L1A 01-PUT
 00006C BFF7 1031            00031   106+         ICM   15,7,49(1)          LOAD PUT ROUTINE ADDRESS        @L1C 01-PUT
 000070 0DEF                         107+         BASR  14,15               LINK TO PUT ROUTINE             @L3C 01-PUT
 000072 D209 D4F7 D4A2 04277 04222   108          MVC   ERROR,=CL10' '                                           00850007
                                     109 *=*=*=*=*=*=*=*=*=*=*=*=*=*=*=*=*=*=*=*=*=*=*=*=*=*=*=*=*=*=*=*=*=*=*=* 00860007
 000078 92E9 D542      042C2         110          MVI   VARBL1,C'Z'         SET TO FAIL                          00870007
 00007C D204 D4DA D4B1 0425A 04231   111          MVC   PREDOUT,=C'FALSE'                                        00880007
 000082 D207 D4BE D050 0423E 03DD0   112          MVC   TESTNBR,=C'TEST010B'                                     00890007
                                     113 *                                                                       00900007
                                     114 TEST010B IF    (CLI,VARBL1,C'A',E)                                      00910007
 000088 95C1 D542      042C2         116+TEST010B CLI   VARBL1,C'A'         TWO OPERANDS                         01-IF
 00008C A774 0007            0009A   120+         JNE   $NEXT5              BRANCH IF CC INDICATES FAIL          01-IF
 000090 D204 D4F1 D4AC 04271 0422C   121            MVC   ACTOUT,=C'TRUE '                                       00920007
                                     122          ELSE                                                           00930007
 000096 A7F4 0005            000A0   124+         J     $FINI6                                                   01-ELSE
 00009A                              125+$NEXT5   DC    0H'0'                                                    01-ELSE
 00009A D204 D4F1 D4B1 04271 04231   126            MVC   ACTOUT,=C'FALSE'                                       00940007
                                     127          ENDIF                                                          00950007
 0000A0                              129+$FINI6   DC    0H'0'                                                    01-ENDIF
                                     130           IF    (CLC,PREDOUT,ACTOUT,NE)                                 00960007
 0000A0 D504 D4DA D4F1 0425A 04271   132+         CLC   PREDOUT,ACTOUT      TWO OPERANDS                         01-IF
 0000A6 A784 0005            000B0   136+         JE    $NEXT7              BRANCH IF CC INDICATES FAIL          01-IF
 0000AA D209 D4F7 D498 04277 04218   137            MVC   ERROR,=C'<=== ERROR'                                   00970007
                                     138          ENDIF                                                          00980007
 0000B0                              140+$NEXT7   DC    0H'0'                                                    01-ENDIF
                                     141          PUT   SYSPRINT,OUTPUT                                          00990007
 0000B0 4110 D548            042C8   145+         LA    1,SYSPRINT                        LOAD PARAMETER REG 1   02-IHBIN
 0000B4 4100 D4BD            0423D   146+         LA    0,OUTPUT                          LOAD PARAMETER REG 0   02-IHBIN
1IFTEST   EXAMPLES OF "IF" LOGIC MACRO INSTRUCTIONS                                                             Page    6
   Active Usings: IFTEST,R12  $$WA$$,R13
0  Loc  Object Code    Addr1 Addr2  Stmt   Source Statement                                  HLASM R6.0  2021/03/26 12.00
00000B8 1FFF                         147+         SLR   15,15               CLEAR REGISTER FOR ICM          @L1A 01-PUT
 0000BA BFF7 1031            00031   148+         ICM   15,7,49(1)          LOAD PUT ROUTINE ADDRESS        @L1C 01-PUT
 0000BE 0DEF                         149+         BASR  14,15               LINK TO PUT ROUTINE             @L3C 01-PUT
 0000C0 D209 D4F7 D4A2 04277 04222   150          MVC   ERROR,=CL10' '                                           01000007
                                     151 *=*=*=*=*=*=*=*=*=*=*=*=*=*=*=*=*=*=*=*=*=*=*=*=*=*=*=*=*=*=*=*=*=*=*=* 01010007
                                     152 *                                                                     * 01020007
                                     153 * PREDICTED RESULT IS TRUE                                            * 01030007
                                     154 *                                                                     * 01040007
                                     155 *=*=*=*=*=*=*=*=*=*=*=*=*=*=*=*=*=*=*=*=*=*=*=*=*=*=*=*=*=*=*=*=*=*=*=* 01050007
                                     156 *                                                                       01060007
 0000C6 92C1 D542      042C2         157          MVI   VARBL1,C'A'         SET TO PASS                          01070007
 0000CA 92C2 D543      042C3         158          MVI   VARBL2,C'B'         SET TO PASS                          01080007
 0000CE D204 D4DA D4AC 0425A 0422C   159          MVC   PREDOUT,=C'TRUE '                                        01090007
 0000D4 D207 D4BE D058 0423E 03DD8   160          MVC   TESTNBR,=C'TEST030A'                                     01100007
                                     161 *=*=*=*=*=*=*=*=*=*=*=*=*=*=*=*=*=*=*=*=*=*=*=*=*=*=*=*=*=*=*=*=*=*=*=* 01110007
                                     162 TEST030A IF    (CLI,VARBL1,C'A',E),AND,(CLI,VARBL2,C'B',E)              01120007
 0000DA 95C1 D542      042C2         164+TEST030A CLI   VARBL1,C'A'         TWO OPERANDS                         01-IF
 0000DE A774 000B            000F4   167+         JNE   $MDF8               FALSE RESULT - POSSIBLE FAIL         01-IF
 0000E2 95C2 D543      042C3         169+         CLI   VARBL2,C'B'         TWO OPERANDS                         01-IF
 0000E6 A774 0007            000F4   173+         JNE   $MDF8               BRANCH IF CC INDICATES FAIL          01-IF
 0000EA D204 D4F1 D4AC 04271 0422C   174            MVC   ACTOUT,=C'TRUE '                                       01130007
                                     175          ELSE                                                           01140007
 0000F0 A7F4 0005            000FA   177+         J     $FINI9                                                   01-ELSE
 0000F4                              178+$MDF8    DC    0H'0'                                                    01-ELSE
 0000F4 D204 D4F1 D4B1 04271 04231   179            MVC   ACTOUT,=C'FALSE'                                       01150007
                                     180          ENDIF                                                          01160007
 0000FA                              182+$FINI9   DC    0H'0'                                                    01-ENDIF
                                     183          IF    (CLC,PREDOUT,ACTOUT,NE)                                  01170007
 0000FA D504 D4DA D4F1 0425A 04271   185+         CLC   PREDOUT,ACTOUT      TWO OPERANDS                         01-IF
 000100 A784 0005            0010A   189+         JE    $NEXT10             BRANCH IF CC INDICATES FAIL          01-IF
 000104 D209 D4F7 D498 04277 04218   190            MVC   ERROR,=C'<=== ERROR'                                   01180007
                                     191          ENDIF                                                          01190007
 00010A                              193+$NEXT10  DC    0H'0'                                                    01-ENDIF
                                     194          PUT   SYSPRINT,OUTPUT                                          01200007
 00010A 4110 D548            042C8   198+         LA    1,SYSPRINT                        LOAD PARAMETER REG 1   02-IHBIN
 00010E 4100 D4BD            0423D   199+         LA    0,OUTPUT                          LOAD PARAMETER REG 0   02-IHBIN
 000112 1FFF                         200+         SLR   15,15               CLEAR REGISTER FOR ICM          @L1A 01-PUT
 000114 BFF7 1031            00031   201+         ICM   15,7,49(1)          LOAD PUT ROUTINE ADDRESS        @L1C 01-PUT
 000118 0DEF                         202+         BASR  14,15               LINK TO PUT ROUTINE             @L3C 01-PUT
 00011A D209 D4F7 D4A2 04277 04222   203          MVC   ERROR,=CL10' '                                           01210007
                                     204 *=*=*=*=*=*=*=*=*=*=*=*=*=*=*=*=*=*=*=*=*=*=*=*=*=*=*=*=*=*=*=*=*=*=*=* 01220007
                                     205 *                                                                     * 01230007
                                     206 * PREDICTED RESULT IS FALSE                                           * 01240007
                                     207 *                                                                     * 01250007
                                     208 *=*=*=*=*=*=*=*=*=*=*=*=*=*=*=*=*=*=*=*=*=*=*=*=*=*=*=*=*=*=*=*=*=*=*=* 01260007
                                     209 *                                                                       01270007
 000120 92E9 D542      042C2         210          MVI   VARBL1,C'Z'         SET TO FAIL                          01280007
 000124 92C2 D543      042C3         211          MVI   VARBL2,C'B'         SET TO PASS                          01290007
 000128 D204 D4DA D4B1 0425A 04231   212          MVC   PREDOUT,=C'FALSE'                                        01300007
 00012E D207 D4BE D060 0423E 03DE0   213          MVC   TESTNBR,=C'TEST030B'                                     01310007
                                     214 *                                                                       01320007
                                     215 TEST030B IF    (CLI,VARBL1,C'A',E),AND,(CLI,VARBL2,C'B',E)              01330007
 000134 95C1 D542      042C2         217+TEST030B CLI   VARBL1,C'A'         TWO OPERANDS                         01-IF
 000138 A774 000B            0014E   220+         JNE   $MDF11              FALSE RESULT - POSSIBLE FAIL         01-IF
 00013C 95C2 D543      042C3         222+         CLI   VARBL2,C'B'         TWO OPERANDS                         01-IF
1IFTEST   EXAMPLES OF "IF" LOGIC MACRO INSTRUCTIONS                                                             Page    7
   Active Usings: IFTEST,R12  $$WA$$,R13
0  Loc  Object Code    Addr1 Addr2  Stmt   Source Statement                                  HLASM R6.0  2021/03/26 12.00
0000140 A774 0007            0014E   226+         JNE   $MDF11              BRANCH IF CC INDICATES FAIL          01-IF
 000144 D204 D4F1 D4AC 04271 0422C   227            MVC   ACTOUT,=C'TRUE '                                       01340007
                                     228          ELSE                                                           01350007
 00014A A7F4 0005            00154   230+         J     $FINI12                                                  01-ELSE
 00014E                              231+$MDF11   DC    0H'0'                                                    01-ELSE
 00014E D204 D4F1 D4B1 04271 04231   232            MVC   ACTOUT,=C'FALSE'                                       01360007
                                     233          ENDIF                                                          01370007
 000154                              235+$FINI12  DC    0H'0'                                                    01-ENDIF
                                     236          IF    (CLC,PREDOUT,ACTOUT,NE)                                  01380007
 000154 D504 D4DA D4F1 0425A 04271   238+         CLC   PREDOUT,ACTOUT      TWO OPERANDS                         01-IF
 00015A A784 0005            00164   242+         JE    $NEXT13             BRANCH IF CC INDICATES FAIL          01-IF
 00015E D209 D4F7 D498 04277 04218   243            MVC   ERROR,=C'<=== ERROR'                                   01390007
                                     244          ENDIF                                                          01400007
 000164                              246+$NEXT13  DC    0H'0'                                                    01-ENDIF
                                     247          PUT   SYSPRINT,OUTPUT                                          01410007
 000164 4110 D548            042C8   251+         LA    1,SYSPRINT                        LOAD PARAMETER REG 1   02-IHBIN
 000168 4100 D4BD            0423D   252+         LA    0,OUTPUT                          LOAD PARAMETER REG 0   02-IHBIN
 00016C 1FFF                         253+         SLR   15,15               CLEAR REGISTER FOR ICM          @L1A 01-PUT
 00016E BFF7 1031            00031   254+         ICM   15,7,49(1)          LOAD PUT ROUTINE ADDRESS        @L1C 01-PUT
 000172 0DEF                         255+         BASR  14,15               LINK TO PUT ROUTINE             @L3C 01-PUT
 000174 D209 D4F7 D4A2 04277 04222   256          MVC   ERROR,=CL10' '                                           01420007
                                     257 *=*=*=*=*=*=*=*=*=*=*=*=*=*=*=*=*=*=*=*=*=*=*=*=*=*=*=*=*=*=*=*=*=*=*=* 01430007
 00017A 92C1 D542      042C2         258          MVI   VARBL1,C'A'         SET TO PASS                          01440007
 00017E 92E9 D543      042C3         259          MVI   VARBL2,C'Z'         SET TO FAIL                          01450007
 000182 D204 D4DA D4B1 0425A 04231   260          MVC   PREDOUT,=C'FALSE'                                        01460007
 000188 D207 D4BE D068 0423E 03DE8   261          MVC   TESTNBR,=C'TEST030C'                                     01470007
                                     262 *                                                                       01480007
                                     263 TEST030C IF    (CLI,VARBL1,C'A',E),AND,(CLI,VARBL2,C'B',E)              01490007
 00018E 95C1 D542      042C2         265+TEST030C CLI   VARBL1,C'A'         TWO OPERANDS                         01-IF
 000192 A774 000B            001A8   268+         JNE   $MDF14              FALSE RESULT - POSSIBLE FAIL         01-IF
 000196 95C2 D543      042C3         270+         CLI   VARBL2,C'B'         TWO OPERANDS                         01-IF
 00019A A774 0007            001A8   274+         JNE   $MDF14              BRANCH IF CC INDICATES FAIL          01-IF
 00019E D204 D4F1 D4AC 04271 0422C   275            MVC   ACTOUT,=C'TRUE '                                       01500007
                                     276          ELSE                                                           01510007
 0001A4 A7F4 0005            001AE   278+         J     $FINI15                                                  01-ELSE
 0001A8                              279+$MDF14   DC    0H'0'                                                    01-ELSE
 0001A8 D204 D4F1 D4B1 04271 04231   280            MVC   ACTOUT,=C'FALSE'                                       01520007
                                     281          ENDIF                                                          01530007
 0001AE                              283+$FINI15  DC    0H'0'                                                    01-ENDIF
                                     284          IF    (CLC,PREDOUT,ACTOUT,NE)                                  01540007
 0001AE D504 D4DA D4F1 0425A 04271   286+         CLC   PREDOUT,ACTOUT      TWO OPERANDS                         01-IF
 0001B4 A784 0005            001BE   290+         JE    $NEXT16             BRANCH IF CC INDICATES FAIL          01-IF
 0001B8 D209 D4F7 D498 04277 04218   291            MVC   ERROR,=C'<=== ERROR'                                   01550007
                                     292          ENDIF                                                          01560007
 0001BE                              294+$NEXT16  DC    0H'0'                                                    01-ENDIF
                                     295          PUT   SYSPRINT,OUTPUT                                          01570007
 0001BE 4110 D548            042C8   299+         LA    1,SYSPRINT                        LOAD PARAMETER REG 1   02-IHBIN
 0001C2 4100 D4BD            0423D   300+         LA    0,OUTPUT                          LOAD PARAMETER REG 0   02-IHBIN
 0001C6 1FFF                         301+         SLR   15,15               CLEAR REGISTER FOR ICM          @L1A 01-PUT
 0001C8 BFF7 1031            00031   302+         ICM   15,7,49(1)          LOAD PUT ROUTINE ADDRESS        @L1C 01-PUT
 0001CC 0DEF                         303+         BASR  14,15               LINK TO PUT ROUTINE             @L3C 01-PUT
 0001CE D209 D4F7 D4A2 04277 04222   304          MVC   ERROR,=CL10' '                                           01580007
                                     305 *=*=*=*=*=*=*=*=*=*=*=*=*=*=*=*=*=*=*=*=*=*=*=*=*=*=*=*=*=*=*=*=*=*=*=* 01590007
 0001D4 92E9 D542      042C2         306          MVI   VARBL1,C'Z'         SET TO FAIL                          01600007
 0001D8 92E9 D543      042C3         307          MVI   VARBL2,C'Z'         SET TO FAIL                          01610007
1IFTEST   EXAMPLES OF "IF" LOGIC MACRO INSTRUCTIONS                                                             Page    8
   Active Usings: IFTEST,R12  $$WA$$,R13
0  Loc  Object Code    Addr1 Addr2  Stmt   Source Statement                                  HLASM R6.0  2021/03/26 12.00
00001DC D204 D4DA D4B1 0425A 04231   308          MVC   PREDOUT,=C'FALSE'                                        01620007
 0001E2 D207 D4BE D070 0423E 03DF0   309          MVC   TESTNBR,=C'TEST030D'                                     01630007
                                     310 *                                                                       01640007
                                     311 TEST030D IF    (CLI,VARBL1,C'A',E),AND,(CLI,VARBL2,C'B',E)              01650007
 0001E8 95C1 D542      042C2         313+TEST030D CLI   VARBL1,C'A'         TWO OPERANDS                         01-IF
 0001EC A774 000B            00202   316+         JNE   $MDF17              FALSE RESULT - POSSIBLE FAIL         01-IF
 0001F0 95C2 D543      042C3         318+         CLI   VARBL2,C'B'         TWO OPERANDS                         01-IF
 0001F4 A774 0007            00202   322+         JNE   $MDF17              BRANCH IF CC INDICATES FAIL          01-IF
 0001F8 D204 D4F1 D4AC 04271 0422C   323            MVC   ACTOUT,=C'TRUE '                                       01660007
                                     324          ELSE                                                           01670007
 0001FE A7F4 0005            00208   326+         J     $FINI18                                                  01-ELSE
 000202                              327+$MDF17   DC    0H'0'                                                    01-ELSE
 000202 D204 D4F1 D4B1 04271 04231   328            MVC   ACTOUT,=C'FALSE'                                       01680007
                                     329          ENDIF                                                          01690007
 000208                              331+$FINI18  DC    0H'0'                                                    01-ENDIF
                                     332          IF    (CLC,PREDOUT,ACTOUT,NE)                                  01700007
 000208 D504 D4DA D4F1 0425A 04271   334+         CLC   PREDOUT,ACTOUT      TWO OPERANDS                         01-IF
 00020E A784 0005            00218   338+         JE    $NEXT19             BRANCH IF CC INDICATES FAIL          01-IF
 000212 D209 D4F7 D498 04277 04218   339            MVC   ERROR,=C'<=== ERROR'                                   01710007
                                     340          ENDIF                                                          01720007
 000218                              342+$NEXT19  DC    0H'0'                                                    01-ENDIF
                                     343          PUT   SYSPRINT,OUTPUT                                          01730007
 000218 4110 D548            042C8   347+         LA    1,SYSPRINT                        LOAD PARAMETER REG 1   02-IHBIN
 00021C 4100 D4BD            0423D   348+         LA    0,OUTPUT                          LOAD PARAMETER REG 0   02-IHBIN
 000220 1FFF                         349+         SLR   15,15               CLEAR REGISTER FOR ICM          @L1A 01-PUT
 000222 BFF7 1031            00031   350+         ICM   15,7,49(1)          LOAD PUT ROUTINE ADDRESS        @L1C 01-PUT
 000226 0DEF                         351+         BASR  14,15               LINK TO PUT ROUTINE             @L3C 01-PUT
 000228 D209 D4F7 D4A2 04277 04222   352          MVC   ERROR,=CL10' '                                           01740007
                                     353 *=*=*=*=*=*=*=*=*=*=*=*=*=*=*=*=*=*=*=*=*=*=*=*=*=*=*=*=*=*=*=*=*=*=*=* 01750007
                                     354 *                                                                     * 01760007
                                     355 * TEST "IF" MACRO USING "OR" CONJUNCTION                              * 01770007
                                     356 *                                                                     * 01780007
                                     357 *=*=*=*=*=*=*=*=*=*=*=*=*=*=*=*=*=*=*=*=*=*=*=*=*=*=*=*=*=*=*=*=*=*=*=* 01790007
                                     358 *                                                                       01800007
 00022E 92C1 D542      042C2         359          MVI   VARBL1,C'A'         SET TO PASS                          01810007
 000232 92C2 D543      042C3         360          MVI   VARBL2,C'B'         SET TO PASS                          01820007
 000236 D204 D4DA D4AC 0425A 0422C   361          MVC   PREDOUT,=C'TRUE '                                        01830007
 00023C D207 D4BE D078 0423E 03DF8   362          MVC   TESTNBR,=C'TEST040A'                                     01840007
                                     363 *                                                                       01850007
                                     364 TEST040A IF    (CLI,VARBL1,C'A',E),OR,(CLI,VARBL2,C'B',E)               01860007
 000242 95C1 D542      042C2         366+TEST040A CLI   VARBL1,C'A'         TWO OPERANDS                         01-IF
 000246 A784 0006            00252   369+         JE    $MDT20              TRUE RESULT - POSSIBLE PASS          01-IF
 00024A 95C2 D543      042C3         371+         CLI   VARBL2,C'B'         TWO OPERANDS                         01-IF
 00024E A774 0007            0025C   375+         JNE   $NEXT21             BRANCH IF CC INDICATES FAIL          01-IF
 000252                              376+$MDT20   DC    0H'0'               END RESULT WAS PASS - DO THE EXECUTE 01-IF
 000252 D204 D4F1 D4AC 04271 0422C   377            MVC   ACTOUT,=C'TRUE '                                       01870007
                                     378          ELSE                                                           01880007
 000258 A7F4 0005            00262   380+         J     $FINI22                                                  01-ELSE
 00025C                              381+$NEXT21  DC    0H'0'                                                    01-ELSE
 00025C D204 D4F1 D4B1 04271 04231   382            MVC   ACTOUT,=C'FALSE'                                       01890007
                                     383          ENDIF                                                          01900007
 000262                              385+$FINI22  DC    0H'0'                                                    01-ENDIF
                                     386          IF    (CLC,PREDOUT,ACTOUT,NE)                                  01910007
 000262 D504 D4DA D4F1 0425A 04271   388+         CLC   PREDOUT,ACTOUT      TWO OPERANDS                         01-IF
 000268 A784 0005            00272   392+         JE    $NEXT23             BRANCH IF CC INDICATES FAIL          01-IF
1IFTEST   EXAMPLES OF "IF" LOGIC MACRO INSTRUCTIONS                                                             Page    9
   Active Usings: IFTEST,R12  $$WA$$,R13
0  Loc  Object Code    Addr1 Addr2  Stmt   Source Statement                                  HLASM R6.0  2021/03/26 12.00
000026C D209 D4F7 D498 04277 04218   393            MVC   ERROR,=C'<=== ERROR'                                   01920007
                                     394          ENDIF                                                          01930007
 000272                              396+$NEXT23  DC    0H'0'                                                    01-ENDIF
                                     397          PUT   SYSPRINT,OUTPUT                                          01940007
 000272 4110 D548            042C8   401+         LA    1,SYSPRINT                        LOAD PARAMETER REG 1   02-IHBIN
 000276 4100 D4BD            0423D   402+         LA    0,OUTPUT                          LOAD PARAMETER REG 0   02-IHBIN
 00027A 1FFF                         403+         SLR   15,15               CLEAR REGISTER FOR ICM          @L1A 01-PUT
 00027C BFF7 1031            00031   404+         ICM   15,7,49(1)          LOAD PUT ROUTINE ADDRESS        @L1C 01-PUT
 000280 0DEF                         405+         BASR  14,15               LINK TO PUT ROUTINE             @L3C 01-PUT
 000282 D209 D4F7 D4A2 04277 04222   406          MVC   ERROR,=CL10' '                                           01950007
                                     407 *=*=*=*=*=*=*=*=*=*=*=*=*=*=*=*=*=*=*=*=*=*=*=*=*=*=*=*=*=*=*=*=*=*=*=* 01960007
 000288 92E9 D542      042C2         408          MVI   VARBL1,C'Z'         SET TO FAIL                          01970007
 00028C 92C2 D543      042C3         409          MVI   VARBL2,C'B'         SET TO PASS                          01980007
 000290 D204 D4DA D4AC 0425A 0422C   410          MVC   PREDOUT,=C'TRUE '                                        01990007
 000296 D207 D4BE D080 0423E 03E00   411          MVC   TESTNBR,=C'TEST040B'                                     02000007
                                     412 *                                                                       02010007
                                     413 TEST040B IF    (CLI,VARBL1,C'A',E),OR,(CLI,VARBL2,C'B',E)               02020007
 00029C 95C1 D542      042C2         415+TEST040B CLI   VARBL1,C'A'         TWO OPERANDS                         01-IF
 0002A0 A784 0006            002AC   418+         JE    $MDT24              TRUE RESULT - POSSIBLE PASS          01-IF
 0002A4 95C2 D543      042C3         420+         CLI   VARBL2,C'B'         TWO OPERANDS                         01-IF
 0002A8 A774 0007            002B6   424+         JNE   $NEXT25             BRANCH IF CC INDICATES FAIL          01-IF
 0002AC                              425+$MDT24   DC    0H'0'               END RESULT WAS PASS - DO THE EXECUTE 01-IF
 0002AC D204 D4F1 D4AC 04271 0422C   426            MVC   ACTOUT,=C'TRUE '                                       02030007
                                     427          ELSE                                                           02040007
 0002B2 A7F4 0005            002BC   429+         J     $FINI26                                                  01-ELSE
 0002B6                              430+$NEXT25  DC    0H'0'                                                    01-ELSE
 0002B6 D204 D4F1 D4B1 04271 04231   431            MVC   ACTOUT,=C'FALSE'                                       02050007
                                     432          ENDIF                                                          02060007
 0002BC                              434+$FINI26  DC    0H'0'                                                    01-ENDIF
                                     435          IF    (CLC,PREDOUT,ACTOUT,NE)                                  02070007
 0002BC D504 D4DA D4F1 0425A 04271   437+         CLC   PREDOUT,ACTOUT      TWO OPERANDS                         01-IF
 0002C2 A784 0005            002CC   441+         JE    $NEXT27             BRANCH IF CC INDICATES FAIL          01-IF
 0002C6 D209 D4F7 D498 04277 04218   442            MVC   ERROR,=C'<=== ERROR'                                   02080007
                                     443          ENDIF                                                          02090007
 0002CC                              445+$NEXT27  DC    0H'0'                                                    01-ENDIF
                                     446          PUT   SYSPRINT,OUTPUT                                          02100007
 0002CC 4110 D548            042C8   450+         LA    1,SYSPRINT                        LOAD PARAMETER REG 1   02-IHBIN
 0002D0 4100 D4BD            0423D   451+         LA    0,OUTPUT                          LOAD PARAMETER REG 0   02-IHBIN
 0002D4 1FFF                         452+         SLR   15,15               CLEAR REGISTER FOR ICM          @L1A 01-PUT
 0002D6 BFF7 1031            00031   453+         ICM   15,7,49(1)          LOAD PUT ROUTINE ADDRESS        @L1C 01-PUT
 0002DA 0DEF                         454+         BASR  14,15               LINK TO PUT ROUTINE             @L3C 01-PUT
 0002DC D209 D4F7 D4A2 04277 04222   455          MVC   ERROR,=CL10' '                                           02110007
                                     456 *=*=*=*=*=*=*=*=*=*=*=*=*=*=*=*=*=*=*=*=*=*=*=*=*=*=*=*=*=*=*=*=*=*=*=* 02120007
 0002E2 92C1 D542      042C2         457          MVI   VARBL1,C'A'         SET TO PASS                          02130007
 0002E6 92E9 D543      042C3         458          MVI   VARBL2,C'Z'         SET TO FAIL                          02140007
 0002EA D204 D4DA D4AC 0425A 0422C   459          MVC   PREDOUT,=C'TRUE '                                        02150007
 0002F0 D207 D4BE D088 0423E 03E08   460          MVC   TESTNBR,=C'TEST040C'                                     02160007
                                     461 *                                                                       02170007
                                     462 TEST040C IF    (CLI,VARBL1,C'A',E),OR,(CLI,VARBL2,C'B',E)               02180007
 0002F6 95C1 D542      042C2         464+TEST040C CLI   VARBL1,C'A'         TWO OPERANDS                         01-IF
 0002FA A784 0006            00306   467+         JE    $MDT28              TRUE RESULT - POSSIBLE PASS          01-IF
 0002FE 95C2 D543      042C3         469+         CLI   VARBL2,C'B'         TWO OPERANDS                         01-IF
 000302 A774 0007            00310   473+         JNE   $NEXT29             BRANCH IF CC INDICATES FAIL          01-IF
 000306                              474+$MDT28   DC    0H'0'               END RESULT WAS PASS - DO THE EXECUTE 01-IF
 000306 D204 D4F1 D4AC 04271 0422C   475            MVC   ACTOUT,=C'TRUE '                                       02190007
1IFTEST   EXAMPLES OF "IF" LOGIC MACRO INSTRUCTIONS                                                             Page   10
   Active Usings: IFTEST,R12  $$WA$$,R13
0  Loc  Object Code    Addr1 Addr2  Stmt   Source Statement                                  HLASM R6.0  2021/03/26 12.00
0                                    476          ELSE                                                           02200007
 00030C A7F4 0005            00316   478+         J     $FINI30                                                  01-ELSE
 000310                              479+$NEXT29  DC    0H'0'                                                    01-ELSE
 000310 D204 D4F1 D4B1 04271 04231   480            MVC   ACTOUT,=C'FALSE'                                       02210007
                                     481          ENDIF                                                          02220007
 000316                              483+$FINI30  DC    0H'0'                                                    01-ENDIF
                                     484          IF    (CLC,PREDOUT,ACTOUT,NE)                                  02230007
 000316 D504 D4DA D4F1 0425A 04271   486+         CLC   PREDOUT,ACTOUT      TWO OPERANDS                         01-IF
 00031C A784 0005            00326   490+         JE    $NEXT31             BRANCH IF CC INDICATES FAIL          01-IF
 000320 D209 D4F7 D498 04277 04218   491            MVC   ERROR,=C'<=== ERROR'                                   02240007
                                     492          ENDIF                                                          02250007
 000326                              494+$NEXT31  DC    0H'0'                                                    01-ENDIF
                                     495          PUT   SYSPRINT,OUTPUT                                          02260007
 000326 4110 D548            042C8   499+         LA    1,SYSPRINT                        LOAD PARAMETER REG 1   02-IHBIN
 00032A 4100 D4BD            0423D   500+         LA    0,OUTPUT                          LOAD PARAMETER REG 0   02-IHBIN
 00032E 1FFF                         501+         SLR   15,15               CLEAR REGISTER FOR ICM          @L1A 01-PUT
 000330 BFF7 1031            00031   502+         ICM   15,7,49(1)          LOAD PUT ROUTINE ADDRESS        @L1C 01-PUT
 000334 0DEF                         503+         BASR  14,15               LINK TO PUT ROUTINE             @L3C 01-PUT
 000336 D209 D4F7 D4A2 04277 04222   504          MVC   ERROR,=CL10' '                                           02270007
                                     505 *=*=*=*=*=*=*=*=*=*=*=*=*=*=*=*=*=*=*=*=*=*=*=*=*=*=*=*=*=*=*=*=*=*=*=* 02280007
 00033C 92E9 D542      042C2         506          MVI   VARBL1,C'Z'         SET TO FAIL                          02290007
 000340 92E9 D543      042C3         507          MVI   VARBL2,C'Z'         SET TO FAIL                          02300007
 000344 D204 D4DA D4B1 0425A 04231   508          MVC   PREDOUT,=C'FALSE'                                        02310007
 00034A D207 D4BE D090 0423E 03E10   509          MVC   TESTNBR,=C'TEST040D'                                     02320007
                                     510 *                                                                       02330007
                                     511 TEST040D IF    (CLI,VARBL1,C'A',E),OR,(CLI,VARBL2,C'B',E)               02340007
 000350 95C1 D542      042C2         513+TEST040D CLI   VARBL1,C'A'         TWO OPERANDS                         01-IF
 000354 A784 0006            00360   516+         JE    $MDT32              TRUE RESULT - POSSIBLE PASS          01-IF
 000358 95C2 D543      042C3         518+         CLI   VARBL2,C'B'         TWO OPERANDS                         01-IF
 00035C A774 0007            0036A   522+         JNE   $NEXT33             BRANCH IF CC INDICATES FAIL          01-IF
 000360                              523+$MDT32   DC    0H'0'               END RESULT WAS PASS - DO THE EXECUTE 01-IF
 000360 D204 D4F1 D4AC 04271 0422C   524            MVC   ACTOUT,=C'TRUE '                                       02350007
                                     525          ELSE                                                           02360007
 000366 A7F4 0005            00370   527+         J     $FINI34                                                  01-ELSE
 00036A                              528+$NEXT33  DC    0H'0'                                                    01-ELSE
 00036A D204 D4F1 D4B1 04271 04231   529            MVC   ACTOUT,=C'FALSE'                                       02370007
                                     530          ENDIF                                                          02380007
 000370                              532+$FINI34  DC    0H'0'                                                    01-ENDIF
                                     533          IF    (CLC,PREDOUT,ACTOUT,NE)                                  02390007
 000370 D504 D4DA D4F1 0425A 04271   535+         CLC   PREDOUT,ACTOUT      TWO OPERANDS                         01-IF
 000376 A784 0005            00380   539+         JE    $NEXT35             BRANCH IF CC INDICATES FAIL          01-IF
 00037A D209 D4F7 D498 04277 04218   540            MVC   ERROR,=C'<=== ERROR'                                   02400007
                                     541          ENDIF                                                          02410007
 000380                              543+$NEXT35  DC    0H'0'                                                    01-ENDIF
                                     544          PUT   SYSPRINT,OUTPUT                                          02420007
 000380 4110 D548            042C8   548+         LA    1,SYSPRINT                        LOAD PARAMETER REG 1   02-IHBIN
 000384 4100 D4BD            0423D   549+         LA    0,OUTPUT                          LOAD PARAMETER REG 0   02-IHBIN
 000388 1FFF                         550+         SLR   15,15               CLEAR REGISTER FOR ICM          @L1A 01-PUT
 00038A BFF7 1031            00031   551+         ICM   15,7,49(1)          LOAD PUT ROUTINE ADDRESS        @L1C 01-PUT
 00038E 0DEF                         552+         BASR  14,15               LINK TO PUT ROUTINE             @L3C 01-PUT
 000390 D209 D4F7 D4A2 04277 04222   553          MVC   ERROR,=CL10' '                                           02430007
                                     554 *=*=*=*=*=*=*=*=*=*=*=*=*=*=*=*=*=*=*=*=*=*=*=*=*=*=*=*=*=*=*=*=*=*=*=* 02440007
                                     555 *                                                                     * 02450007
                                     556 * THREE "AND" CONJUNCTIONS                                            * 02460007
                                     557 *                                                                     * 02470007
1IFTEST   EXAMPLES OF "IF" LOGIC MACRO INSTRUCTIONS                                                             Page   11
   Active Usings: IFTEST,R12  $$WA$$,R13
0  Loc  Object Code    Addr1 Addr2  Stmt   Source Statement                                  HLASM R6.0  2021/03/26 12.00
0                                    558 *=*=*=*=*=*=*=*=*=*=*=*=*=*=*=*=*=*=*=*=*=*=*=*=*=*=*=*=*=*=*=*=*=*=*=* 02480007
                                     559 *                                                                       02490007
 000396 92C1 D542      042C2         560          MVI   VARBL1,C'A'         SET TO PASS                          02520007
 00039A 92C2 D543      042C3         561          MVI   VARBL2,C'B'         SET TO PASS                          02530007
 00039E 92C3 D544      042C4         562          MVI   VARBL3,C'C'         SET TO PASS                          02540007
 0003A2 D204 D4DA D4AC 0425A 0422C   563          MVC   PREDOUT,=C'TRUE '                                        02550007
 0003A8 D207 D4BE D098 0423E 03E18   564          MVC   TESTNBR,=C'TEST050A'                                     02560007
                                     565 *                                                                       02570007
                                     566 TEST050A IF    (CLI,VARBL1,C'A',E),AND,(CLI,VARBL2,C'B',E),            C02580007
                                                        AND,(CLI,VARBL3,C'C',E)                                  02590007
 0003AE 95C1 D542      042C2         568+TEST050A CLI   VARBL1,C'A'         TWO OPERANDS                         01-IF
 0003B2 A774 000F            003D0   571+         JNE   $MDF36              FALSE RESULT - POSSIBLE FAIL         01-IF
 0003B6 95C2 D543      042C3         573+         CLI   VARBL2,C'B'         TWO OPERANDS                         01-IF
 0003BA A774 000B            003D0   576+         JNE   $MDF36              FALSE RESULT - POSSIBLE FAIL         01-IF
 0003BE 95C3 D544      042C4         578+         CLI   VARBL3,C'C'         TWO OPERANDS                         01-IF
 0003C2 A774 0007            003D0   582+         JNE   $MDF36              BRANCH IF CC INDICATES FAIL          01-IF
 0003C6 D204 D4F1 D4AC 04271 0422C   583            MVC   ACTOUT,=C'TRUE '                                       02600007
                                     584          ELSE                                                           02610007
 0003CC A7F4 0005            003D6   586+         J     $FINI37                                                  01-ELSE
 0003D0                              587+$MDF36   DC    0H'0'                                                    01-ELSE
 0003D0 D204 D4F1 D4B1 04271 04231   588            MVC   ACTOUT,=C'FALSE'                                       02620007
                                     589          ENDIF                                                          02630007
 0003D6                              591+$FINI37  DC    0H'0'                                                    01-ENDIF
                                     592          IF    (CLC,PREDOUT,ACTOUT,NE)                                  02640007
 0003D6 D504 D4DA D4F1 0425A 04271   594+         CLC   PREDOUT,ACTOUT      TWO OPERANDS                         01-IF
 0003DC A784 0005            003E6   598+         JE    $NEXT38             BRANCH IF CC INDICATES FAIL          01-IF
 0003E0 D209 D4F7 D498 04277 04218   599            MVC   ERROR,=C'<=== ERROR'                                   02650007
                                     600          ENDIF                                                          02660007
 0003E6                              602+$NEXT38  DC    0H'0'                                                    01-ENDIF
                                     603          PUT   SYSPRINT,OUTPUT                                          02670007
 0003E6 4110 D548            042C8   607+         LA    1,SYSPRINT                        LOAD PARAMETER REG 1   02-IHBIN
 0003EA 4100 D4BD            0423D   608+         LA    0,OUTPUT                          LOAD PARAMETER REG 0   02-IHBIN
 0003EE 1FFF                         609+         SLR   15,15               CLEAR REGISTER FOR ICM          @L1A 01-PUT
 0003F0 BFF7 1031            00031   610+         ICM   15,7,49(1)          LOAD PUT ROUTINE ADDRESS        @L1C 01-PUT
 0003F4 0DEF                         611+         BASR  14,15               LINK TO PUT ROUTINE             @L3C 01-PUT
 0003F6 D209 D4F7 D4A2 04277 04222   612          MVC   ERROR,=CL10' '                                           02680007
                                     613 *=*=*=*=*=*=*=*=*=*=*=*=*=*=*=*=*=*=*=*=*=*=*=*=*=*=*=*=*=*=*=*=*=*=*=* 02690007
 0003FC 92E9 D542      042C2         614          MVI   VARBL1,C'Z'         SET TO FAIL                          02700007
 000400 92C2 D543      042C3         615          MVI   VARBL2,C'B'         SET TO PASS                          02710007
 000404 92C3 D544      042C4         616          MVI   VARBL3,C'C'         SET TO PASS                          02720007
 000408 D204 D4DA D4B1 0425A 04231   617          MVC   PREDOUT,=C'FALSE'                                        02730007
 00040E D207 D4BE D0A0 0423E 03E20   618          MVC   TESTNBR,=C'TEST050B'                                     02740007
                                     619 *                                                                       02750007
                                     620 TEST050B IF    (CLI,VARBL1,C'A',E),AND,(CLI,VARBL2,C'B',E),            C02760007
                                                        AND,(CLI,VARBL3,C'C',E)                                  02770007
 000414 95C1 D542      042C2         622+TEST050B CLI   VARBL1,C'A'         TWO OPERANDS                         01-IF
 000418 A774 000F            00436   625+         JNE   $MDF39              FALSE RESULT - POSSIBLE FAIL         01-IF
 00041C 95C2 D543      042C3         627+         CLI   VARBL2,C'B'         TWO OPERANDS                         01-IF
 000420 A774 000B            00436   630+         JNE   $MDF39              FALSE RESULT - POSSIBLE FAIL         01-IF
 000424 95C3 D544      042C4         632+         CLI   VARBL3,C'C'         TWO OPERANDS                         01-IF
 000428 A774 0007            00436   636+         JNE   $MDF39              BRANCH IF CC INDICATES FAIL          01-IF
 00042C D204 D4F1 D4AC 04271 0422C   637            MVC   ACTOUT,=C'TRUE '                                       02780007
                                     638          ELSE                                                           02790007
 000432 A7F4 0005            0043C   640+         J     $FINI40                                                  01-ELSE
 000436                              641+$MDF39   DC    0H'0'                                                    01-ELSE
1IFTEST   EXAMPLES OF "IF" LOGIC MACRO INSTRUCTIONS                                                             Page   12
   Active Usings: IFTEST,R12  $$WA$$,R13
0  Loc  Object Code    Addr1 Addr2  Stmt   Source Statement                                  HLASM R6.0  2021/03/26 12.00
0000436 D204 D4F1 D4B1 04271 04231   642            MVC   ACTOUT,=C'FALSE'                                       02800007
                                     643          ENDIF                                                          02810007
 00043C                              645+$FINI40  DC    0H'0'                                                    01-ENDIF
                                     646          IF    (CLC,PREDOUT,ACTOUT,NE)                                  02820007
 00043C D504 D4DA D4F1 0425A 04271   648+         CLC   PREDOUT,ACTOUT      TWO OPERANDS                         01-IF
 000442 A784 0005            0044C   652+         JE    $NEXT41             BRANCH IF CC INDICATES FAIL          01-IF
 000446 D209 D4F7 D498 04277 04218   653            MVC   ERROR,=C'<=== ERROR'                                   02830007
                                     654          ENDIF                                                          02840007
 00044C                              656+$NEXT41  DC    0H'0'                                                    01-ENDIF
                                     657          PUT   SYSPRINT,OUTPUT                                          02850007
 00044C 4110 D548            042C8   661+         LA    1,SYSPRINT                        LOAD PARAMETER REG 1   02-IHBIN
 000450 4100 D4BD            0423D   662+         LA    0,OUTPUT                          LOAD PARAMETER REG 0   02-IHBIN
 000454 1FFF                         663+         SLR   15,15               CLEAR REGISTER FOR ICM          @L1A 01-PUT
 000456 BFF7 1031            00031   664+         ICM   15,7,49(1)          LOAD PUT ROUTINE ADDRESS        @L1C 01-PUT
 00045A 0DEF                         665+         BASR  14,15               LINK TO PUT ROUTINE             @L3C 01-PUT
 00045C D209 D4F7 D4A2 04277 04222   666          MVC   ERROR,=CL10' '                                           02860007
                                     667 *=*=*=*=*=*=*=*=*=*=*=*=*=*=*=*=*=*=*=*=*=*=*=*=*=*=*=*=*=*=*=*=*=*=*=* 02870007
 000462 92C1 D542      042C2         668          MVI   VARBL1,C'A'         SET TO PASS                          02880007
 000466 92E9 D543      042C3         669          MVI   VARBL2,C'Z'         SET TO FAIL                          02890007
 00046A 92C3 D544      042C4         670          MVI   VARBL3,C'C'         SET TO PASS                          02900007
 00046E D204 D4DA D4B1 0425A 04231   671          MVC   PREDOUT,=C'FALSE'                                        02910007
 000474 D207 D4BE D0A8 0423E 03E28   672          MVC   TESTNBR,=C'TEST050C'                                     02920007
                                     673 *                                                                       02930007
                                     674 TEST050C IF    (CLI,VARBL1,C'A',E),AND,(CLI,VARBL2,C'B',E),            C02940007
                                                        AND,(CLI,VARBL3,C'C',E)                                  02950007
 00047A 95C1 D542      042C2         676+TEST050C CLI   VARBL1,C'A'         TWO OPERANDS                         01-IF
 00047E A774 000F            0049C   679+         JNE   $MDF42              FALSE RESULT - POSSIBLE FAIL         01-IF
 000482 95C2 D543      042C3         681+         CLI   VARBL2,C'B'         TWO OPERANDS                         01-IF
 000486 A774 000B            0049C   684+         JNE   $MDF42              FALSE RESULT - POSSIBLE FAIL         01-IF
 00048A 95C3 D544      042C4         686+         CLI   VARBL3,C'C'         TWO OPERANDS                         01-IF
 00048E A774 0007            0049C   690+         JNE   $MDF42              BRANCH IF CC INDICATES FAIL          01-IF
 000492 D204 D4F1 D4AC 04271 0422C   691            MVC   ACTOUT,=C'TRUE '                                       02960007
                                     692          ELSE                                                           02970007
 000498 A7F4 0005            004A2   694+         J     $FINI43                                                  01-ELSE
 00049C                              695+$MDF42   DC    0H'0'                                                    01-ELSE
 00049C D204 D4F1 D4B1 04271 04231   696            MVC   ACTOUT,=C'FALSE'                                       02980007
                                     697          ENDIF                                                          02990007
 0004A2                              699+$FINI43  DC    0H'0'                                                    01-ENDIF
                                     700          IF    (CLC,PREDOUT,ACTOUT,NE)                                  03000007
 0004A2 D504 D4DA D4F1 0425A 04271   702+         CLC   PREDOUT,ACTOUT      TWO OPERANDS                         01-IF
 0004A8 A784 0005            004B2   706+         JE    $NEXT44             BRANCH IF CC INDICATES FAIL          01-IF
 0004AC D209 D4F7 D498 04277 04218   707            MVC   ERROR,=C'<=== ERROR'                                   03010007
                                     708          ENDIF                                                          03020007
 0004B2                              710+$NEXT44  DC    0H'0'                                                    01-ENDIF
                                     711          PUT   SYSPRINT,OUTPUT                                          03030007
 0004B2 4110 D548            042C8   715+         LA    1,SYSPRINT                        LOAD PARAMETER REG 1   02-IHBIN
 0004B6 4100 D4BD            0423D   716+         LA    0,OUTPUT                          LOAD PARAMETER REG 0   02-IHBIN
 0004BA 1FFF                         717+         SLR   15,15               CLEAR REGISTER FOR ICM          @L1A 01-PUT
 0004BC BFF7 1031            00031   718+         ICM   15,7,49(1)          LOAD PUT ROUTINE ADDRESS        @L1C 01-PUT
 0004C0 0DEF                         719+         BASR  14,15               LINK TO PUT ROUTINE             @L3C 01-PUT
 0004C2 D209 D4F7 D4A2 04277 04222   720          MVC   ERROR,=CL10' '                                           03040007
                                     721 *=*=*=*=*=*=*=*=*=*=*=*=*=*=*=*=*=*=*=*=*=*=*=*=*=*=*=*=*=*=*=*=*=*=*=* 03050007
 0004C8 92E9 D542      042C2         722          MVI   VARBL1,C'Z'         SET TO FAIL                          03060007
 0004CC 92E9 D543      042C3         723          MVI   VARBL2,C'Z'         SET TO FAIL                          03070007
 0004D0 92C3 D544      042C4         724          MVI   VARBL3,C'C'         SET TO PASS                          03080007
1IFTEST   EXAMPLES OF "IF" LOGIC MACRO INSTRUCTIONS                                                             Page   13
   Active Usings: IFTEST,R12  $$WA$$,R13
0  Loc  Object Code    Addr1 Addr2  Stmt   Source Statement                                  HLASM R6.0  2021/03/26 12.00
00004D4 D204 D4DA D4B1 0425A 04231   725          MVC   PREDOUT,=C'FALSE'                                        03090007
 0004DA D207 D4BE D0B0 0423E 03E30   726          MVC   TESTNBR,=C'TEST050D'                                     03100007
                                     727 *                                                                       03110007
                                     728 TEST050D IF    (CLI,VARBL1,C'A',E),AND,(CLI,VARBL2,C'B',E),            C03120007
                                                        AND,(CLI,VARBL3,C'C',E)                                  03130007
 0004E0 95C1 D542      042C2         730+TEST050D CLI   VARBL1,C'A'         TWO OPERANDS                         01-IF
 0004E4 A774 000F            00502   733+         JNE   $MDF45              FALSE RESULT - POSSIBLE FAIL         01-IF
 0004E8 95C2 D543      042C3         735+         CLI   VARBL2,C'B'         TWO OPERANDS                         01-IF
 0004EC A774 000B            00502   738+         JNE   $MDF45              FALSE RESULT - POSSIBLE FAIL         01-IF
 0004F0 95C3 D544      042C4         740+         CLI   VARBL3,C'C'         TWO OPERANDS                         01-IF
 0004F4 A774 0007            00502   744+         JNE   $MDF45              BRANCH IF CC INDICATES FAIL          01-IF
 0004F8 D204 D4F1 D4AC 04271 0422C   745            MVC   ACTOUT,=C'TRUE '                                       03140007
                                     746          ELSE                                                           03150007
 0004FE A7F4 0005            00508   748+         J     $FINI46                                                  01-ELSE
 000502                              749+$MDF45   DC    0H'0'                                                    01-ELSE
 000502 D204 D4F1 D4B1 04271 04231   750            MVC   ACTOUT,=C'FALSE'                                       03160007
                                     751          ENDIF                                                          03170007
 000508                              753+$FINI46  DC    0H'0'                                                    01-ENDIF
                                     754          IF    (CLC,PREDOUT,ACTOUT,NE)                                  03180007
 000508 D504 D4DA D4F1 0425A 04271   756+         CLC   PREDOUT,ACTOUT      TWO OPERANDS                         01-IF
 00050E A784 0005            00518   760+         JE    $NEXT47             BRANCH IF CC INDICATES FAIL          01-IF
 000512 D209 D4F7 D498 04277 04218   761            MVC   ERROR,=C'<=== ERROR'                                   03190007
                                     762          ENDIF                                                          03200007
 000518                              764+$NEXT47  DC    0H'0'                                                    01-ENDIF
                                     765          PUT   SYSPRINT,OUTPUT                                          03210007
 000518 4110 D548            042C8   769+         LA    1,SYSPRINT                        LOAD PARAMETER REG 1   02-IHBIN
 00051C 4100 D4BD            0423D   770+         LA    0,OUTPUT                          LOAD PARAMETER REG 0   02-IHBIN
 000520 1FFF                         771+         SLR   15,15               CLEAR REGISTER FOR ICM          @L1A 01-PUT
 000522 BFF7 1031            00031   772+         ICM   15,7,49(1)          LOAD PUT ROUTINE ADDRESS        @L1C 01-PUT
 000526 0DEF                         773+         BASR  14,15               LINK TO PUT ROUTINE             @L3C 01-PUT
 000528 D209 D4F7 D4A2 04277 04222   774          MVC   ERROR,=CL10' '                                           03220007
                                     775 *=*=*=*=*=*=*=*=*=*=*=*=*=*=*=*=*=*=*=*=*=*=*=*=*=*=*=*=*=*=*=*=*=*=*=* 03230007
 00052E 92C1 D542      042C2         776          MVI   VARBL1,C'A'         SET TO PASS                          03240007
 000532 92C2 D543      042C3         777          MVI   VARBL2,C'B'         SET TO PASS                          03250007
 000536 92E9 D544      042C4         778          MVI   VARBL3,C'Z'         SET TO FAIL                          03260007
 00053A D204 D4DA D4B1 0425A 04231   779          MVC   PREDOUT,=C'FALSE'                                        03270007
 000540 D207 D4BE D0B8 0423E 03E38   780          MVC   TESTNBR,=C'TEST050E'                                     03280007
                                     781 *                                                                       03290007
                                     782 TEST050E IF    (CLI,VARBL1,C'A',E),AND,(CLI,VARBL2,C'B',E),            C03300007
                                                        AND,(CLI,VARBL3,C'C',E)                                  03310007
 000546 95C1 D542      042C2         784+TEST050E CLI   VARBL1,C'A'         TWO OPERANDS                         01-IF
 00054A A774 000F            00568   787+         JNE   $MDF48              FALSE RESULT - POSSIBLE FAIL         01-IF
 00054E 95C2 D543      042C3         789+         CLI   VARBL2,C'B'         TWO OPERANDS                         01-IF
 000552 A774 000B            00568   792+         JNE   $MDF48              FALSE RESULT - POSSIBLE FAIL         01-IF
 000556 95C3 D544      042C4         794+         CLI   VARBL3,C'C'         TWO OPERANDS                         01-IF
 00055A A774 0007            00568   798+         JNE   $MDF48              BRANCH IF CC INDICATES FAIL          01-IF
 00055E D204 D4F1 D4AC 04271 0422C   799            MVC   ACTOUT,=C'TRUE '                                       03320007
                                     800          ELSE                                                           03330007
 000564 A7F4 0005            0056E   802+         J     $FINI49                                                  01-ELSE
 000568                              803+$MDF48   DC    0H'0'                                                    01-ELSE
 000568 D204 D4F1 D4B1 04271 04231   804            MVC   ACTOUT,=C'FALSE'                                       03340007
                                     805          ENDIF                                                          03350007
 00056E                              807+$FINI49  DC    0H'0'                                                    01-ENDIF
                                     808          IF    (CLC,PREDOUT,ACTOUT,NE)                                  03360007
 00056E D504 D4DA D4F1 0425A 04271   810+         CLC   PREDOUT,ACTOUT      TWO OPERANDS                         01-IF
1IFTEST   EXAMPLES OF "IF" LOGIC MACRO INSTRUCTIONS                                                             Page   14
   Active Usings: IFTEST,R12  $$WA$$,R13
0  Loc  Object Code    Addr1 Addr2  Stmt   Source Statement                                  HLASM R6.0  2021/03/26 12.00
0000574 A784 0005            0057E   814+         JE    $NEXT50             BRANCH IF CC INDICATES FAIL          01-IF
 000578 D209 D4F7 D498 04277 04218   815            MVC   ERROR,=C'<=== ERROR'                                   03370007
                                     816          ENDIF                                                          03380007
 00057E                              818+$NEXT50  DC    0H'0'                                                    01-ENDIF
                                     819          PUT   SYSPRINT,OUTPUT                                          03390007
 00057E 4110 D548            042C8   823+         LA    1,SYSPRINT                        LOAD PARAMETER REG 1   02-IHBIN
 000582 4100 D4BD            0423D   824+         LA    0,OUTPUT                          LOAD PARAMETER REG 0   02-IHBIN
 000586 1FFF                         825+         SLR   15,15               CLEAR REGISTER FOR ICM          @L1A 01-PUT
 000588 BFF7 1031            00031   826+         ICM   15,7,49(1)          LOAD PUT ROUTINE ADDRESS        @L1C 01-PUT
 00058C 0DEF                         827+         BASR  14,15               LINK TO PUT ROUTINE             @L3C 01-PUT
 00058E D209 D4F7 D4A2 04277 04222   828          MVC   ERROR,=CL10' '                                           03400007
                                     829 *=*=*=*=*=*=*=*=*=*=*=*=*=*=*=*=*=*=*=*=*=*=*=*=*=*=*=*=*=*=*=*=*=*=*=* 03410007
 000594 92E9 D542      042C2         830          MVI   VARBL1,C'Z'         SET TO FAIL                          03420007
 000598 92C2 D543      042C3         831          MVI   VARBL2,C'B'         SET TO PASS                          03430007
 00059C 92E9 D544      042C4         832          MVI   VARBL3,C'Z'         SET TO FAIL                          03440007
 0005A0 D204 D4DA D4B1 0425A 04231   833          MVC   PREDOUT,=C'FALSE'                                        03450007
 0005A6 D207 D4BE D0C0 0423E 03E40   834          MVC   TESTNBR,=C'TEST050F'                                     03460007
                                     835 *                                                                       03470007
                                     836 TEST050F IF    (CLI,VARBL1,C'A',E),AND,(CLI,VARBL2,C'B',E),            C03480007
                                                        AND,(CLI,VARBL3,C'C',E)                                  03490007
 0005AC 95C1 D542      042C2         838+TEST050F CLI   VARBL1,C'A'         TWO OPERANDS                         01-IF
 0005B0 A774 000F            005CE   841+         JNE   $MDF51              FALSE RESULT - POSSIBLE FAIL         01-IF
 0005B4 95C2 D543      042C3         843+         CLI   VARBL2,C'B'         TWO OPERANDS                         01-IF
 0005B8 A774 000B            005CE   846+         JNE   $MDF51              FALSE RESULT - POSSIBLE FAIL         01-IF
 0005BC 95C3 D544      042C4         848+         CLI   VARBL3,C'C'         TWO OPERANDS                         01-IF
 0005C0 A774 0007            005CE   852+         JNE   $MDF51              BRANCH IF CC INDICATES FAIL          01-IF
 0005C4 D204 D4F1 D4AC 04271 0422C   853            MVC   ACTOUT,=C'TRUE '                                       03500007
                                     854          ELSE                                                           03510007
 0005CA A7F4 0005            005D4   856+         J     $FINI52                                                  01-ELSE
 0005CE                              857+$MDF51   DC    0H'0'                                                    01-ELSE
 0005CE D204 D4F1 D4B1 04271 04231   858            MVC   ACTOUT,=C'FALSE'                                       03520007
                                     859          ENDIF                                                          03530007
 0005D4                              861+$FINI52  DC    0H'0'                                                    01-ENDIF
                                     862          IF    (CLC,PREDOUT,ACTOUT,NE)                                  03540007
 0005D4 D504 D4DA D4F1 0425A 04271   864+         CLC   PREDOUT,ACTOUT      TWO OPERANDS                         01-IF
 0005DA A784 0005            005E4   868+         JE    $NEXT53             BRANCH IF CC INDICATES FAIL          01-IF
 0005DE D209 D4F7 D498 04277 04218   869            MVC   ERROR,=C'<=== ERROR'                                   03550007
                                     870          ENDIF                                                          03560007
 0005E4                              872+$NEXT53  DC    0H'0'                                                    01-ENDIF
                                     873          PUT   SYSPRINT,OUTPUT                                          03570007
 0005E4 4110 D548            042C8   877+         LA    1,SYSPRINT                        LOAD PARAMETER REG 1   02-IHBIN
 0005E8 4100 D4BD            0423D   878+         LA    0,OUTPUT                          LOAD PARAMETER REG 0   02-IHBIN
 0005EC 1FFF                         879+         SLR   15,15               CLEAR REGISTER FOR ICM          @L1A 01-PUT
 0005EE BFF7 1031            00031   880+         ICM   15,7,49(1)          LOAD PUT ROUTINE ADDRESS        @L1C 01-PUT
 0005F2 0DEF                         881+         BASR  14,15               LINK TO PUT ROUTINE             @L3C 01-PUT
 0005F4 D209 D4F7 D4A2 04277 04222   882          MVC   ERROR,=CL10' '                                           03580007
                                     883 *=*=*=*=*=*=*=*=*=*=*=*=*=*=*=*=*=*=*=*=*=*=*=*=*=*=*=*=*=*=*=*=*=*=*=* 03590007
 0005FA 92C1 D542      042C2         884          MVI   VARBL1,C'A'         SET TO PASS                          03600007
 0005FE 92E9 D543      042C3         885          MVI   VARBL2,C'Z'         SET TO FAIL                          03610007
 000602 92E9 D544      042C4         886          MVI   VARBL3,C'Z'         SET TO FAIL                          03620007
 000606 D204 D4DA D4B1 0425A 04231   887          MVC   PREDOUT,=C'FALSE'                                        03630007
 00060C D207 D4BE D0C8 0423E 03E48   888          MVC   TESTNBR,=C'TEST050G'                                     03640007
                                     889 *                                                                       03650007
                                     890 TEST050G IF    (CLI,VARBL1,C'A',E),AND,(CLI,VARBL2,C'B',E),            C03660007
                                                        AND,(CLI,VARBL3,C'C',E)                                  03670007
1IFTEST   EXAMPLES OF "IF" LOGIC MACRO INSTRUCTIONS                                                             Page   15
   Active Usings: IFTEST,R12  $$WA$$,R13
0  Loc  Object Code    Addr1 Addr2  Stmt   Source Statement                                  HLASM R6.0  2021/03/26 12.00
0000612 95C1 D542      042C2         892+TEST050G CLI   VARBL1,C'A'         TWO OPERANDS                         01-IF
 000616 A774 000F            00634   895+         JNE   $MDF54              FALSE RESULT - POSSIBLE FAIL         01-IF
 00061A 95C2 D543      042C3         897+         CLI   VARBL2,C'B'         TWO OPERANDS                         01-IF
 00061E A774 000B            00634   900+         JNE   $MDF54              FALSE RESULT - POSSIBLE FAIL         01-IF
 000622 95C3 D544      042C4         902+         CLI   VARBL3,C'C'         TWO OPERANDS                         01-IF
 000626 A774 0007            00634   906+         JNE   $MDF54              BRANCH IF CC INDICATES FAIL          01-IF
 00062A D204 D4F1 D4AC 04271 0422C   907            MVC   ACTOUT,=C'TRUE '                                       03680007
                                     908          ELSE                                                           03690007
 000630 A7F4 0005            0063A   910+         J     $FINI55                                                  01-ELSE
 000634                              911+$MDF54   DC    0H'0'                                                    01-ELSE
 000634 D204 D4F1 D4B1 04271 04231   912            MVC   ACTOUT,=C'FALSE'                                       03700007
                                     913          ENDIF                                                          03710007
 00063A                              915+$FINI55  DC    0H'0'                                                    01-ENDIF
                                     916          IF    (CLC,PREDOUT,ACTOUT,NE)                                  03720007
 00063A D504 D4DA D4F1 0425A 04271   918+         CLC   PREDOUT,ACTOUT      TWO OPERANDS                         01-IF
 000640 A784 0005            0064A   922+         JE    $NEXT56             BRANCH IF CC INDICATES FAIL          01-IF
 000644 D209 D4F7 D498 04277 04218   923            MVC   ERROR,=C'<=== ERROR'                                   03730007
                                     924          ENDIF                                                          03740007
 00064A                              926+$NEXT56  DC    0H'0'                                                    01-ENDIF
                                     927          PUT   SYSPRINT,OUTPUT                                          03750007
 00064A 4110 D548            042C8   931+         LA    1,SYSPRINT                        LOAD PARAMETER REG 1   02-IHBIN
 00064E 4100 D4BD            0423D   932+         LA    0,OUTPUT                          LOAD PARAMETER REG 0   02-IHBIN
 000652 1FFF                         933+         SLR   15,15               CLEAR REGISTER FOR ICM          @L1A 01-PUT
 000654 BFF7 1031            00031   934+         ICM   15,7,49(1)          LOAD PUT ROUTINE ADDRESS        @L1C 01-PUT
 000658 0DEF                         935+         BASR  14,15               LINK TO PUT ROUTINE             @L3C 01-PUT
 00065A D209 D4F7 D4A2 04277 04222   936          MVC   ERROR,=CL10' '                                           03760007
                                     937 *=*=*=*=*=*=*=*=*=*=*=*=*=*=*=*=*=*=*=*=*=*=*=*=*=*=*=*=*=*=*=*=*=*=*=* 03770007
 000660 92E9 D542      042C2         938          MVI   VARBL1,C'Z'         SET TO FAIL                          03780007
 000664 92E9 D543      042C3         939          MVI   VARBL2,C'Z'         SET TO FAIL                          03790007
 000668 92E9 D544      042C4         940          MVI   VARBL3,C'Z'         SET TO FAIL                          03800007
 00066C D204 D4DA D4B1 0425A 04231   941          MVC   PREDOUT,=C'FALSE'                                        03810007
 000672 D207 D4BE D0D0 0423E 03E50   942          MVC   TESTNBR,=C'TEST050H'                                     03820007
                                     943 *                                                                       03830007
                                     944 TEST050H IF    (CLI,VARBL1,C'A',E),AND,(CLI,VARBL2,C'B',E),            C03840007
                                                        AND,(CLI,VARBL3,C'C',E)                                  03850007
 000678 95C1 D542      042C2         946+TEST050H CLI   VARBL1,C'A'         TWO OPERANDS                         01-IF
 00067C A774 000F            0069A   949+         JNE   $MDF57              FALSE RESULT - POSSIBLE FAIL         01-IF
 000680 95C2 D543      042C3         951+         CLI   VARBL2,C'B'         TWO OPERANDS                         01-IF
 000684 A774 000B            0069A   954+         JNE   $MDF57              FALSE RESULT - POSSIBLE FAIL         01-IF
 000688 95C3 D544      042C4         956+         CLI   VARBL3,C'C'         TWO OPERANDS                         01-IF
 00068C A774 0007            0069A   960+         JNE   $MDF57              BRANCH IF CC INDICATES FAIL          01-IF
 000690 D204 D4F1 D4AC 04271 0422C   961            MVC   ACTOUT,=C'TRUE '                                       03860007
                                     962          ELSE                                                           03870007
 000696 A7F4 0005            006A0   964+         J     $FINI58                                                  01-ELSE
 00069A                              965+$MDF57   DC    0H'0'                                                    01-ELSE
 00069A D204 D4F1 D4B1 04271 04231   966            MVC   ACTOUT,=C'FALSE'                                       03880007
                                     967          ENDIF                                                          03890007
 0006A0                              969+$FINI58  DC    0H'0'                                                    01-ENDIF
                                     970          IF    (CLC,PREDOUT,ACTOUT,NE)                                  03900007
 0006A0 D504 D4DA D4F1 0425A 04271   972+         CLC   PREDOUT,ACTOUT      TWO OPERANDS                         01-IF
 0006A6 A784 0005            006B0   976+         JE    $NEXT59             BRANCH IF CC INDICATES FAIL          01-IF
 0006AA D209 D4F7 D498 04277 04218   977            MVC   ERROR,=C'<=== ERROR'                                   03910007
                                     978          ENDIF                                                          03920007
 0006B0                              980+$NEXT59  DC    0H'0'                                                    01-ENDIF
                                     981          PUT   SYSPRINT,OUTPUT                                          03930007
1IFTEST   EXAMPLES OF "IF" LOGIC MACRO INSTRUCTIONS                                                             Page   16
   Active Usings: IFTEST,R12  $$WA$$,R13
0  Loc  Object Code    Addr1 Addr2  Stmt   Source Statement                                  HLASM R6.0  2021/03/26 12.00
00006B0 4110 D548            042C8   985+         LA    1,SYSPRINT                        LOAD PARAMETER REG 1   02-IHBIN
 0006B4 4100 D4BD            0423D   986+         LA    0,OUTPUT                          LOAD PARAMETER REG 0   02-IHBIN
 0006B8 1FFF                         987+         SLR   15,15               CLEAR REGISTER FOR ICM          @L1A 01-PUT
 0006BA BFF7 1031            00031   988+         ICM   15,7,49(1)          LOAD PUT ROUTINE ADDRESS        @L1C 01-PUT
 0006BE 0DEF                         989+         BASR  14,15               LINK TO PUT ROUTINE             @L3C 01-PUT
 0006C0 D209 D4F7 D4A2 04277 04222   990          MVC   ERROR,=CL10' '                                           03940007
                                     991 *=*=*=*=*=*=*=*=*=*=*=*=*=*=*=*=*=*=*=*=*=*=*=*=*=*=*=*=*=*=*=*=*=*=*=* 03950007
                                     992 *                                                                     * 03960007
                                     993 * THREE "OR" CONJUNCTIONS                                             * 03970007
                                     994 *                                                                     * 03980007
                                     995 *=*=*=*=*=*=*=*=*=*=*=*=*=*=*=*=*=*=*=*=*=*=*=*=*=*=*=*=*=*=*=*=*=*=*=* 03990007
                                     996 *                                                                       04000007
 0006C6 92C1 D542      042C2         997          MVI   VARBL1,C'A'         SET TO PASS                          04030007
 0006CA 92C2 D543      042C3         998          MVI   VARBL2,C'B'         SET TO PASS                          04040007
 0006CE 92C3 D544      042C4         999          MVI   VARBL3,C'C'         SET TO PASS                          04050007
 0006D2 D204 D4DA D4AC 0425A 0422C  1000          MVC   PREDOUT,=C'TRUE '                                        04060007
 0006D8 D207 D4BE D0D8 0423E 03E58  1001          MVC   TESTNBR,=C'TEST060A'                                     04070007
                                    1002 *                                                                       04080007
                                    1003 TEST060A IF    (CLI,VARBL1,C'A',E),OR,(CLI,VARBL2,C'B',E),             C04090007
                                                        OR,(CLI,VARBL3,C'C',E)                                   04100007
 0006DE 95C1 D542      042C2        1005+TEST060A CLI   VARBL1,C'A'         TWO OPERANDS                         01-IF
 0006E2 A784 000A            006F6  1008+         JE    $MDT60              TRUE RESULT - POSSIBLE PASS          01-IF
 0006E6 95C2 D543      042C3        1010+         CLI   VARBL2,C'B'         TWO OPERANDS                         01-IF
 0006EA A784 0006            006F6  1013+         JE    $MDT60              TRUE RESULT - POSSIBLE PASS          01-IF
 0006EE 95C3 D544      042C4        1015+         CLI   VARBL3,C'C'         TWO OPERANDS                         01-IF
 0006F2 A774 0007            00700  1019+         JNE   $NEXT61             BRANCH IF CC INDICATES FAIL          01-IF
 0006F6                             1020+$MDT60   DC    0H'0'               END RESULT WAS PASS - DO THE EXECUTE 01-IF
 0006F6 D204 D4F1 D4AC 04271 0422C  1021            MVC   ACTOUT,=C'TRUE '                                       04110007
                                    1022          ELSE                                                           04120007
 0006FC A7F4 0005            00706  1024+         J     $FINI62                                                  01-ELSE
 000700                             1025+$NEXT61  DC    0H'0'                                                    01-ELSE
 000700 D204 D4F1 D4B1 04271 04231  1026            MVC   ACTOUT,=C'FALSE'                                       04130007
                                    1027          ENDIF                                                          04140007
 000706                             1029+$FINI62  DC    0H'0'                                                    01-ENDIF
                                    1030          IF    (CLC,PREDOUT,ACTOUT,NE)                                  04150007
 000706 D504 D4DA D4F1 0425A 04271  1032+         CLC   PREDOUT,ACTOUT      TWO OPERANDS                         01-IF
 00070C A784 0005            00716  1036+         JE    $NEXT63             BRANCH IF CC INDICATES FAIL          01-IF
 000710 D209 D4F7 D498 04277 04218  1037            MVC   ERROR,=C'<=== ERROR'                                   04160007
                                    1038          ENDIF                                                          04170007
 000716                             1040+$NEXT63  DC    0H'0'                                                    01-ENDIF
                                    1041          PUT   SYSPRINT,OUTPUT                                          04180007
 000716 4110 D548            042C8  1045+         LA    1,SYSPRINT                        LOAD PARAMETER REG 1   02-IHBIN
 00071A 4100 D4BD            0423D  1046+         LA    0,OUTPUT                          LOAD PARAMETER REG 0   02-IHBIN
 00071E 1FFF                        1047+         SLR   15,15               CLEAR REGISTER FOR ICM          @L1A 01-PUT
 000720 BFF7 1031            00031  1048+         ICM   15,7,49(1)          LOAD PUT ROUTINE ADDRESS        @L1C 01-PUT
 000724 0DEF                        1049+         BASR  14,15               LINK TO PUT ROUTINE             @L3C 01-PUT
 000726 D209 D4F7 D4A2 04277 04222  1050          MVC   ERROR,=CL10' '                                           04190007
                                    1051 *=*=*=*=*=*=*=*=*=*=*=*=*=*=*=*=*=*=*=*=*=*=*=*=*=*=*=*=*=*=*=*=*=*=*=* 04200007
 00072C 92E9 D542      042C2        1052          MVI   VARBL1,C'Z'         SET TO FAIL                          04210007
 000730 92C2 D543      042C3        1053          MVI   VARBL2,C'B'         SET TO PASS                          04220007
 000734 92C3 D544      042C4        1054          MVI   VARBL3,C'C'         SET TO PASS                          04230007
 000738 D204 D4DA D4AC 0425A 0422C  1055          MVC   PREDOUT,=C'TRUE '                                        04240007
 00073E D207 D4BE D0E0 0423E 03E60  1056          MVC   TESTNBR,=C'TEST060B'                                     04250007
                                    1057 *                                                                       04260007
                                    1058 TEST060B IF    (CLI,VARBL1,C'A',E),OR,(CLI,VARBL2,C'B',E),             C04270007
1IFTEST   EXAMPLES OF "IF" LOGIC MACRO INSTRUCTIONS                                                             Page   17
   Active Usings: IFTEST,R12  $$WA$$,R13
0  Loc  Object Code    Addr1 Addr2  Stmt   Source Statement                                  HLASM R6.0  2021/03/26 12.00
0                                                       OR,(CLI,VARBL3,C'C',E)                                   04280007
 000744 95C1 D542      042C2        1060+TEST060B CLI   VARBL1,C'A'         TWO OPERANDS                         01-IF
 000748 A784 000A            0075C  1063+         JE    $MDT64              TRUE RESULT - POSSIBLE PASS          01-IF
 00074C 95C2 D543      042C3        1065+         CLI   VARBL2,C'B'         TWO OPERANDS                         01-IF
 000750 A784 0006            0075C  1068+         JE    $MDT64              TRUE RESULT - POSSIBLE PASS          01-IF
 000754 95C3 D544      042C4        1070+         CLI   VARBL3,C'C'         TWO OPERANDS                         01-IF
 000758 A774 0007            00766  1074+         JNE   $NEXT65             BRANCH IF CC INDICATES FAIL          01-IF
 00075C                             1075+$MDT64   DC    0H'0'               END RESULT WAS PASS - DO THE EXECUTE 01-IF
 00075C D204 D4F1 D4AC 04271 0422C  1076            MVC   ACTOUT,=C'TRUE '                                       04290007
                                    1077          ELSE                                                           04300007
 000762 A7F4 0005            0076C  1079+         J     $FINI66                                                  01-ELSE
 000766                             1080+$NEXT65  DC    0H'0'                                                    01-ELSE
 000766 D204 D4F1 D4B1 04271 04231  1081            MVC   ACTOUT,=C'FALSE'                                       04310007
                                    1082          ENDIF                                                          04320007
 00076C                             1084+$FINI66  DC    0H'0'                                                    01-ENDIF
                                    1085          IF    (CLC,PREDOUT,ACTOUT,NE)                                  04330007
 00076C D504 D4DA D4F1 0425A 04271  1087+         CLC   PREDOUT,ACTOUT      TWO OPERANDS                         01-IF
 000772 A784 0005            0077C  1091+         JE    $NEXT67             BRANCH IF CC INDICATES FAIL          01-IF
 000776 D209 D4F7 D498 04277 04218  1092            MVC   ERROR,=C'<=== ERROR'                                   04340007
                                    1093          ENDIF                                                          04350007
 00077C                             1095+$NEXT67  DC    0H'0'                                                    01-ENDIF
                                    1096          PUT   SYSPRINT,OUTPUT                                          04360007
 00077C 4110 D548            042C8  1100+         LA    1,SYSPRINT                        LOAD PARAMETER REG 1   02-IHBIN
 000780 4100 D4BD            0423D  1101+         LA    0,OUTPUT                          LOAD PARAMETER REG 0   02-IHBIN
 000784 1FFF                        1102+         SLR   15,15               CLEAR REGISTER FOR ICM          @L1A 01-PUT
 000786 BFF7 1031            00031  1103+         ICM   15,7,49(1)          LOAD PUT ROUTINE ADDRESS        @L1C 01-PUT
 00078A 0DEF                        1104+         BASR  14,15               LINK TO PUT ROUTINE             @L3C 01-PUT
 00078C D209 D4F7 D4A2 04277 04222  1105          MVC   ERROR,=CL10' '                                           04370007
                                    1106 *=*=*=*=*=*=*=*=*=*=*=*=*=*=*=*=*=*=*=*=*=*=*=*=*=*=*=*=*=*=*=*=*=*=*=* 04380007
 000792 92C1 D542      042C2        1107          MVI   VARBL1,C'A'         SET TO PASS                          04390007
 000796 92E9 D543      042C3        1108          MVI   VARBL2,C'Z'         SET TO FAIL                          04400007
 00079A 92C3 D544      042C4        1109          MVI   VARBL3,C'C'         SET TO PASS                          04410007
 00079E D204 D4DA D4AC 0425A 0422C  1110          MVC   PREDOUT,=C'TRUE '                                        04420007
 0007A4 D207 D4BE D0E8 0423E 03E68  1111          MVC   TESTNBR,=C'TEST060C'                                     04430007
                                    1112 *                                                                       04440007
                                    1113 TEST060C IF    (CLI,VARBL1,C'A',E),OR,(CLI,VARBL2,C'B',E),             C04450007
                                                        OR,(CLI,VARBL3,C'C',E)                                   04460007
 0007AA 95C1 D542      042C2        1115+TEST060C CLI   VARBL1,C'A'         TWO OPERANDS                         01-IF
 0007AE A784 000A            007C2  1118+         JE    $MDT68              TRUE RESULT - POSSIBLE PASS          01-IF
 0007B2 95C2 D543      042C3        1120+         CLI   VARBL2,C'B'         TWO OPERANDS                         01-IF
 0007B6 A784 0006            007C2  1123+         JE    $MDT68              TRUE RESULT - POSSIBLE PASS          01-IF
 0007BA 95C3 D544      042C4        1125+         CLI   VARBL3,C'C'         TWO OPERANDS                         01-IF
 0007BE A774 0007            007CC  1129+         JNE   $NEXT69             BRANCH IF CC INDICATES FAIL          01-IF
 0007C2                             1130+$MDT68   DC    0H'0'               END RESULT WAS PASS - DO THE EXECUTE 01-IF
 0007C2 D204 D4F1 D4AC 04271 0422C  1131            MVC   ACTOUT,=C'TRUE '                                       04470007
                                    1132          ELSE                                                           04480007
 0007C8 A7F4 0005            007D2  1134+         J     $FINI70                                                  01-ELSE
 0007CC                             1135+$NEXT69  DC    0H'0'                                                    01-ELSE
 0007CC D204 D4F1 D4B1 04271 04231  1136            MVC   ACTOUT,=C'FALSE'                                       04490007
                                    1137          ENDIF                                                          04500007
 0007D2                             1139+$FINI70  DC    0H'0'                                                    01-ENDIF
                                    1140          IF    (CLC,PREDOUT,ACTOUT,NE)                                  04510007
 0007D2 D504 D4DA D4F1 0425A 04271  1142+         CLC   PREDOUT,ACTOUT      TWO OPERANDS                         01-IF
 0007D8 A784 0005            007E2  1146+         JE    $NEXT71             BRANCH IF CC INDICATES FAIL          01-IF
 0007DC D209 D4F7 D498 04277 04218  1147            MVC   ERROR,=C'<=== ERROR'                                   04520007
1IFTEST   EXAMPLES OF "IF" LOGIC MACRO INSTRUCTIONS                                                             Page   18
   Active Usings: IFTEST,R12  $$WA$$,R13
0  Loc  Object Code    Addr1 Addr2  Stmt   Source Statement                                  HLASM R6.0  2021/03/26 12.00
0                                   1148          ENDIF                                                          04530007
 0007E2                             1150+$NEXT71  DC    0H'0'                                                    01-ENDIF
                                    1151          PUT   SYSPRINT,OUTPUT                                          04540007
 0007E2 4110 D548            042C8  1155+         LA    1,SYSPRINT                        LOAD PARAMETER REG 1   02-IHBIN
 0007E6 4100 D4BD            0423D  1156+         LA    0,OUTPUT                          LOAD PARAMETER REG 0   02-IHBIN
 0007EA 1FFF                        1157+         SLR   15,15               CLEAR REGISTER FOR ICM          @L1A 01-PUT
 0007EC BFF7 1031            00031  1158+         ICM   15,7,49(1)          LOAD PUT ROUTINE ADDRESS        @L1C 01-PUT
 0007F0 0DEF                        1159+         BASR  14,15               LINK TO PUT ROUTINE             @L3C 01-PUT
 0007F2 D209 D4F7 D4A2 04277 04222  1160          MVC   ERROR,=CL10' '                                           04550007
                                    1161 *=*=*=*=*=*=*=*=*=*=*=*=*=*=*=*=*=*=*=*=*=*=*=*=*=*=*=*=*=*=*=*=*=*=*=* 04560007
 0007F8 92E9 D542      042C2        1162          MVI   VARBL1,C'Z'         SET TO FAIL                          04570007
 0007FC 92E9 D543      042C3        1163          MVI   VARBL2,C'Z'         SET TO FAIL                          04580007
 000800 92C3 D544      042C4        1164          MVI   VARBL3,C'C'         SET TO PASS                          04590007
 000804 D204 D4DA D4AC 0425A 0422C  1165          MVC   PREDOUT,=C'TRUE '                                        04600007
 00080A D207 D4BE D0F0 0423E 03E70  1166          MVC   TESTNBR,=C'TEST060D'                                     04610007
                                    1167 *                                                                       04620007
                                    1168 TEST060D IF    (CLI,VARBL1,C'A',E),OR,(CLI,VARBL2,C'B',E),             C04630007
                                                        OR,(CLI,VARBL3,C'C',E)                                   04640007
 000810 95C1 D542      042C2        1170+TEST060D CLI   VARBL1,C'A'         TWO OPERANDS                         01-IF
 000814 A784 000A            00828  1173+         JE    $MDT72              TRUE RESULT - POSSIBLE PASS          01-IF
 000818 95C2 D543      042C3        1175+         CLI   VARBL2,C'B'         TWO OPERANDS                         01-IF
 00081C A784 0006            00828  1178+         JE    $MDT72              TRUE RESULT - POSSIBLE PASS          01-IF
 000820 95C3 D544      042C4        1180+         CLI   VARBL3,C'C'         TWO OPERANDS                         01-IF
 000824 A774 0007            00832  1184+         JNE   $NEXT73             BRANCH IF CC INDICATES FAIL          01-IF
 000828                             1185+$MDT72   DC    0H'0'               END RESULT WAS PASS - DO THE EXECUTE 01-IF
 000828 D204 D4F1 D4AC 04271 0422C  1186            MVC   ACTOUT,=C'TRUE '                                       04650007
                                    1187          ELSE                                                           04660007
 00082E A7F4 0005            00838  1189+         J     $FINI74                                                  01-ELSE
 000832                             1190+$NEXT73  DC    0H'0'                                                    01-ELSE
 000832 D204 D4F1 D4B1 04271 04231  1191            MVC   ACTOUT,=C'FALSE'                                       04670007
                                    1192          ENDIF                                                          04680007
 000838                             1194+$FINI74  DC    0H'0'                                                    01-ENDIF
                                    1195          IF    (CLC,PREDOUT,ACTOUT,NE)                                  04690007
 000838 D504 D4DA D4F1 0425A 04271  1197+         CLC   PREDOUT,ACTOUT      TWO OPERANDS                         01-IF
 00083E A784 0005            00848  1201+         JE    $NEXT75             BRANCH IF CC INDICATES FAIL          01-IF
 000842 D209 D4F7 D498 04277 04218  1202            MVC   ERROR,=C'<=== ERROR'                                   04700007
                                    1203          ENDIF                                                          04710007
 000848                             1205+$NEXT75  DC    0H'0'                                                    01-ENDIF
                                    1206          PUT   SYSPRINT,OUTPUT                                          04720007
 000848 4110 D548            042C8  1210+         LA    1,SYSPRINT                        LOAD PARAMETER REG 1   02-IHBIN
 00084C 4100 D4BD            0423D  1211+         LA    0,OUTPUT                          LOAD PARAMETER REG 0   02-IHBIN
 000850 1FFF                        1212+         SLR   15,15               CLEAR REGISTER FOR ICM          @L1A 01-PUT
 000852 BFF7 1031            00031  1213+         ICM   15,7,49(1)          LOAD PUT ROUTINE ADDRESS        @L1C 01-PUT
 000856 0DEF                        1214+         BASR  14,15               LINK TO PUT ROUTINE             @L3C 01-PUT
 000858 D209 D4F7 D4A2 04277 04222  1215          MVC   ERROR,=CL10' '                                           04730007
                                    1216 *=*=*=*=*=*=*=*=*=*=*=*=*=*=*=*=*=*=*=*=*=*=*=*=*=*=*=*=*=*=*=*=*=*=*=* 04740007
 00085E 92C1 D542      042C2        1217          MVI   VARBL1,C'A'         SET TO PASS                          04750007
 000862 92C2 D543      042C3        1218          MVI   VARBL2,C'B'         SET TO PASS                          04760007
 000866 92E9 D544      042C4        1219          MVI   VARBL3,C'Z'         SET TO FAIL                          04770007
 00086A D204 D4DA D4AC 0425A 0422C  1220          MVC   PREDOUT,=C'TRUE '                                        04780007
 000870 D207 D4BE D0F8 0423E 03E78  1221          MVC   TESTNBR,=C'TEST060E'                                     04790007
                                    1222 *                                                                       04800007
                                    1223 TEST060E IF    (CLI,VARBL1,C'A',E),OR,(CLI,VARBL2,C'B',E),             C04810007
                                                        OR,(CLI,VARBL3,C'C',E)                                   04820007
 000876 95C1 D542      042C2        1225+TEST060E CLI   VARBL1,C'A'         TWO OPERANDS                         01-IF
1IFTEST   EXAMPLES OF "IF" LOGIC MACRO INSTRUCTIONS                                                             Page   19
   Active Usings: IFTEST,R12  $$WA$$,R13
0  Loc  Object Code    Addr1 Addr2  Stmt   Source Statement                                  HLASM R6.0  2021/03/26 12.00
000087A A784 000A            0088E  1228+         JE    $MDT76              TRUE RESULT - POSSIBLE PASS          01-IF
 00087E 95C2 D543      042C3        1230+         CLI   VARBL2,C'B'         TWO OPERANDS                         01-IF
 000882 A784 0006            0088E  1233+         JE    $MDT76              TRUE RESULT - POSSIBLE PASS          01-IF
 000886 95C3 D544      042C4        1235+         CLI   VARBL3,C'C'         TWO OPERANDS                         01-IF
 00088A A774 0007            00898  1239+         JNE   $NEXT77             BRANCH IF CC INDICATES FAIL          01-IF
 00088E                             1240+$MDT76   DC    0H'0'               END RESULT WAS PASS - DO THE EXECUTE 01-IF
 00088E D204 D4F1 D4AC 04271 0422C  1241            MVC   ACTOUT,=C'TRUE '                                       04830007
                                    1242          ELSE                                                           04840007
 000894 A7F4 0005            0089E  1244+         J     $FINI78                                                  01-ELSE
 000898                             1245+$NEXT77  DC    0H'0'                                                    01-ELSE
 000898 D204 D4F1 D4B1 04271 04231  1246            MVC   ACTOUT,=C'FALSE'                                       04850007
                                    1247          ENDIF                                                          04860007
 00089E                             1249+$FINI78  DC    0H'0'                                                    01-ENDIF
                                    1250          IF    (CLC,PREDOUT,ACTOUT,NE)                                  04870007
 00089E D504 D4DA D4F1 0425A 04271  1252+         CLC   PREDOUT,ACTOUT      TWO OPERANDS                         01-IF
 0008A4 A784 0005            008AE  1256+         JE    $NEXT79             BRANCH IF CC INDICATES FAIL          01-IF
 0008A8 D209 D4F7 D498 04277 04218  1257            MVC   ERROR,=C'<=== ERROR'                                   04880007
                                    1258          ENDIF                                                          04890007
 0008AE                             1260+$NEXT79  DC    0H'0'                                                    01-ENDIF
                                    1261          PUT   SYSPRINT,OUTPUT                                          04900007
 0008AE 4110 D548            042C8  1265+         LA    1,SYSPRINT                        LOAD PARAMETER REG 1   02-IHBIN
 0008B2 4100 D4BD            0423D  1266+         LA    0,OUTPUT                          LOAD PARAMETER REG 0   02-IHBIN
 0008B6 1FFF                        1267+         SLR   15,15               CLEAR REGISTER FOR ICM          @L1A 01-PUT
 0008B8 BFF7 1031            00031  1268+         ICM   15,7,49(1)          LOAD PUT ROUTINE ADDRESS        @L1C 01-PUT
 0008BC 0DEF                        1269+         BASR  14,15               LINK TO PUT ROUTINE             @L3C 01-PUT
 0008BE D209 D4F7 D4A2 04277 04222  1270          MVC   ERROR,=CL10' '                                           04910007
                                    1271 *=*=*=*=*=*=*=*=*=*=*=*=*=*=*=*=*=*=*=*=*=*=*=*=*=*=*=*=*=*=*=*=*=*=*=* 04920007
 0008C4 92E9 D542      042C2        1272          MVI   VARBL1,C'Z'         SET TO FAIL                          04930007
 0008C8 92C2 D543      042C3        1273          MVI   VARBL2,C'B'         SET TO PASS                          04940007
 0008CC 92E9 D544      042C4        1274          MVI   VARBL3,C'Z'         SET TO FAIL                          04950007
 0008D0 D204 D4DA D4AC 0425A 0422C  1275          MVC   PREDOUT,=C'TRUE '                                        04960007
 0008D6 D207 D4BE D100 0423E 03E80  1276          MVC   TESTNBR,=C'TEST060F'                                     04970007
                                    1277 *                                                                       04980007
                                    1278 TEST060F IF    (CLI,VARBL1,C'A',E),OR,(CLI,VARBL2,C'B',E),             C04990007
                                                        OR,(CLI,VARBL3,C'C',E)                                   05000007
 0008DC 95C1 D542      042C2        1280+TEST060F CLI   VARBL1,C'A'         TWO OPERANDS                         01-IF
 0008E0 A784 000A            008F4  1283+         JE    $MDT80              TRUE RESULT - POSSIBLE PASS          01-IF
 0008E4 95C2 D543      042C3        1285+         CLI   VARBL2,C'B'         TWO OPERANDS                         01-IF
 0008E8 A784 0006            008F4  1288+         JE    $MDT80              TRUE RESULT - POSSIBLE PASS          01-IF
 0008EC 95C3 D544      042C4        1290+         CLI   VARBL3,C'C'         TWO OPERANDS                         01-IF
 0008F0 A774 0007            008FE  1294+         JNE   $NEXT81             BRANCH IF CC INDICATES FAIL          01-IF
 0008F4                             1295+$MDT80   DC    0H'0'               END RESULT WAS PASS - DO THE EXECUTE 01-IF
 0008F4 D204 D4F1 D4AC 04271 0422C  1296            MVC   ACTOUT,=C'TRUE '                                       05010007
                                    1297          ELSE                                                           05020007
 0008FA A7F4 0005            00904  1299+         J     $FINI82                                                  01-ELSE
 0008FE                             1300+$NEXT81  DC    0H'0'                                                    01-ELSE
 0008FE D204 D4F1 D4B1 04271 04231  1301            MVC   ACTOUT,=C'FALSE'                                       05030007
                                    1302          ENDIF                                                          05040007
 000904                             1304+$FINI82  DC    0H'0'                                                    01-ENDIF
                                    1305          IF    (CLC,PREDOUT,ACTOUT,NE)                                  05050007
 000904 D504 D4DA D4F1 0425A 04271  1307+         CLC   PREDOUT,ACTOUT      TWO OPERANDS                         01-IF
 00090A A784 0005            00914  1311+         JE    $NEXT83             BRANCH IF CC INDICATES FAIL          01-IF
 00090E D209 D4F7 D498 04277 04218  1312            MVC   ERROR,=C'<=== ERROR'                                   05060007
                                    1313          ENDIF                                                          05070007
 000914                             1315+$NEXT83  DC    0H'0'                                                    01-ENDIF
1IFTEST   EXAMPLES OF "IF" LOGIC MACRO INSTRUCTIONS                                                             Page   20
   Active Usings: IFTEST,R12  $$WA$$,R13
0  Loc  Object Code    Addr1 Addr2  Stmt   Source Statement                                  HLASM R6.0  2021/03/26 12.00
0                                   1316          PUT   SYSPRINT,OUTPUT                                          05080007
 000914 4110 D548            042C8  1320+         LA    1,SYSPRINT                        LOAD PARAMETER REG 1   02-IHBIN
 000918 4100 D4BD            0423D  1321+         LA    0,OUTPUT                          LOAD PARAMETER REG 0   02-IHBIN
 00091C 1FFF                        1322+         SLR   15,15               CLEAR REGISTER FOR ICM          @L1A 01-PUT
 00091E BFF7 1031            00031  1323+         ICM   15,7,49(1)          LOAD PUT ROUTINE ADDRESS        @L1C 01-PUT
 000922 0DEF                        1324+         BASR  14,15               LINK TO PUT ROUTINE             @L3C 01-PUT
 000924 D209 D4F7 D4A2 04277 04222  1325          MVC   ERROR,=CL10' '                                           05090007
                                    1326 *=*=*=*=*=*=*=*=*=*=*=*=*=*=*=*=*=*=*=*=*=*=*=*=*=*=*=*=*=*=*=*=*=*=*=* 05100007
 00092A 92C1 D542      042C2        1327          MVI   VARBL1,C'A'         SET TO PASS                          05110007
 00092E 92E9 D543      042C3        1328          MVI   VARBL2,C'Z'         SET TO FAIL                          05120007
 000932 92E9 D544      042C4        1329          MVI   VARBL3,C'Z'         SET TO FAIL                          05130007
 000936 D204 D4DA D4AC 0425A 0422C  1330          MVC   PREDOUT,=C'TRUE '                                        05140007
 00093C D207 D4BE D108 0423E 03E88  1331          MVC   TESTNBR,=C'TEST060G'                                     05150007
                                    1332 *                                                                       05160007
                                    1333 TEST060G IF    (CLI,VARBL1,C'A',E),OR,(CLI,VARBL2,C'B',E),             C05170007
                                                        OR,(CLI,VARBL3,C'C',E)                                   05180007
 000942 95C1 D542      042C2        1335+TEST060G CLI   VARBL1,C'A'         TWO OPERANDS                         01-IF
 000946 A784 000A            0095A  1338+         JE    $MDT84              TRUE RESULT - POSSIBLE PASS          01-IF
 00094A 95C2 D543      042C3        1340+         CLI   VARBL2,C'B'         TWO OPERANDS                         01-IF
 00094E A784 0006            0095A  1343+         JE    $MDT84              TRUE RESULT - POSSIBLE PASS          01-IF
 000952 95C3 D544      042C4        1345+         CLI   VARBL3,C'C'         TWO OPERANDS                         01-IF
 000956 A774 0007            00964  1349+         JNE   $NEXT85             BRANCH IF CC INDICATES FAIL          01-IF
 00095A                             1350+$MDT84   DC    0H'0'               END RESULT WAS PASS - DO THE EXECUTE 01-IF
 00095A D204 D4F1 D4AC 04271 0422C  1351            MVC   ACTOUT,=C'TRUE '                                       05190007
                                    1352          ELSE                                                           05200007
 000960 A7F4 0005            0096A  1354+         J     $FINI86                                                  01-ELSE
 000964                             1355+$NEXT85  DC    0H'0'                                                    01-ELSE
 000964 D204 D4F1 D4B1 04271 04231  1356            MVC   ACTOUT,=C'FALSE'                                       05210007
                                    1357          ENDIF                                                          05220007
 00096A                             1359+$FINI86  DC    0H'0'                                                    01-ENDIF
                                    1360          IF    (CLC,PREDOUT,ACTOUT,NE)                                  05230007
 00096A D504 D4DA D4F1 0425A 04271  1362+         CLC   PREDOUT,ACTOUT      TWO OPERANDS                         01-IF
 000970 A784 0005            0097A  1366+         JE    $NEXT87             BRANCH IF CC INDICATES FAIL          01-IF
 000974 D209 D4F7 D498 04277 04218  1367            MVC   ERROR,=C'<=== ERROR'                                   05240007
                                    1368          ENDIF                                                          05250007
 00097A                             1370+$NEXT87  DC    0H'0'                                                    01-ENDIF
                                    1371          PUT   SYSPRINT,OUTPUT                                          05260007
 00097A 4110 D548            042C8  1375+         LA    1,SYSPRINT                        LOAD PARAMETER REG 1   02-IHBIN
 00097E 4100 D4BD            0423D  1376+         LA    0,OUTPUT                          LOAD PARAMETER REG 0   02-IHBIN
 000982 1FFF                        1377+         SLR   15,15               CLEAR REGISTER FOR ICM          @L1A 01-PUT
 000984 BFF7 1031            00031  1378+         ICM   15,7,49(1)          LOAD PUT ROUTINE ADDRESS        @L1C 01-PUT
 000988 0DEF                        1379+         BASR  14,15               LINK TO PUT ROUTINE             @L3C 01-PUT
 00098A D209 D4F7 D4A2 04277 04222  1380          MVC   ERROR,=CL10' '                                           05270007
                                    1381 *=*=*=*=*=*=*=*=*=*=*=*=*=*=*=*=*=*=*=*=*=*=*=*=*=*=*=*=*=*=*=*=*=*=*=* 05280007
 000990 92E9 D542      042C2        1382          MVI   VARBL1,C'Z'         SET TO FAIL                          05290007
 000994 92E9 D543      042C3        1383          MVI   VARBL2,C'Z'         SET TO FAIL                          05300007
 000998 92E9 D544      042C4        1384          MVI   VARBL3,C'Z'         SET TO FAIL                          05310007
 00099C D204 D4DA D4B1 0425A 04231  1385          MVC   PREDOUT,=C'FALSE'                                        05320007
 0009A2 D207 D4BE D110 0423E 03E90  1386          MVC   TESTNBR,=C'TEST060H'                                     05330007
                                    1387 *                                                                       05340007
                                    1388 TEST060H IF    (CLI,VARBL1,C'A',E),OR,(CLI,VARBL2,C'B',E),             C05350007
                                                        OR,(CLI,VARBL3,C'C',E)                                   05360007
 0009A8 95C1 D542      042C2        1390+TEST060H CLI   VARBL1,C'A'         TWO OPERANDS                         01-IF
 0009AC A784 000A            009C0  1393+         JE    $MDT88              TRUE RESULT - POSSIBLE PASS          01-IF
 0009B0 95C2 D543      042C3        1395+         CLI   VARBL2,C'B'         TWO OPERANDS                         01-IF
1IFTEST   EXAMPLES OF "IF" LOGIC MACRO INSTRUCTIONS                                                             Page   21
   Active Usings: IFTEST,R12  $$WA$$,R13
0  Loc  Object Code    Addr1 Addr2  Stmt   Source Statement                                  HLASM R6.0  2021/03/26 12.00
00009B4 A784 0006            009C0  1398+         JE    $MDT88              TRUE RESULT - POSSIBLE PASS          01-IF
 0009B8 95C3 D544      042C4        1400+         CLI   VARBL3,C'C'         TWO OPERANDS                         01-IF
 0009BC A774 0007            009CA  1404+         JNE   $NEXT89             BRANCH IF CC INDICATES FAIL          01-IF
 0009C0                             1405+$MDT88   DC    0H'0'               END RESULT WAS PASS - DO THE EXECUTE 01-IF
 0009C0 D204 D4F1 D4AC 04271 0422C  1406            MVC   ACTOUT,=C'TRUE '                                       05370007
                                    1407          ELSE                                                           05380007
 0009C6 A7F4 0005            009D0  1409+         J     $FINI90                                                  01-ELSE
 0009CA                             1410+$NEXT89  DC    0H'0'                                                    01-ELSE
 0009CA D204 D4F1 D4B1 04271 04231  1411            MVC   ACTOUT,=C'FALSE'                                       05390007
                                    1412          ENDIF                                                          05400007
 0009D0                             1414+$FINI90  DC    0H'0'                                                    01-ENDIF
                                    1415          IF    (CLC,PREDOUT,ACTOUT,NE)                                  05410007
 0009D0 D504 D4DA D4F1 0425A 04271  1417+         CLC   PREDOUT,ACTOUT      TWO OPERANDS                         01-IF
 0009D6 A784 0005            009E0  1421+         JE    $NEXT91             BRANCH IF CC INDICATES FAIL          01-IF
 0009DA D209 D4F7 D498 04277 04218  1422            MVC   ERROR,=C'<=== ERROR'                                   05420007
                                    1423          ENDIF                                                          05430007
 0009E0                             1425+$NEXT91  DC    0H'0'                                                    01-ENDIF
                                    1426          PUT   SYSPRINT,OUTPUT                                          05440007
 0009E0 4110 D548            042C8  1430+         LA    1,SYSPRINT                        LOAD PARAMETER REG 1   02-IHBIN
 0009E4 4100 D4BD            0423D  1431+         LA    0,OUTPUT                          LOAD PARAMETER REG 0   02-IHBIN
 0009E8 1FFF                        1432+         SLR   15,15               CLEAR REGISTER FOR ICM          @L1A 01-PUT
 0009EA BFF7 1031            00031  1433+         ICM   15,7,49(1)          LOAD PUT ROUTINE ADDRESS        @L1C 01-PUT
 0009EE 0DEF                        1434+         BASR  14,15               LINK TO PUT ROUTINE             @L3C 01-PUT
 0009F0 D209 D4F7 D4A2 04277 04222  1435          MVC   ERROR,=CL10' '                                           05450007
                                    1436 *=*=*=*=*=*=*=*=*=*=*=*=*=*=*=*=*=*=*=*=*=*=*=*=*=*=*=*=*=*=*=*=*=*=*=* 05460007
                                    1437 *                                                                     * 05470007
                                    1438 * IF (A) AND (B) OR (C)                                               * 05480007
                                    1439 *                                                                     * 05490007
                                    1440 *=*=*=*=*=*=*=*=*=*=*=*=*=*=*=*=*=*=*=*=*=*=*=*=*=*=*=*=*=*=*=*=*=*=*=* 05500007
                                    1441 *                                                                       05510007
 0009F6 92C1 D542      042C2        1442          MVI   VARBL1,C'A'         SET TO PASS                          05540007
 0009FA 92C2 D543      042C3        1443          MVI   VARBL2,C'B'         SET TO PASS                          05550007
 0009FE 92C3 D544      042C4        1444          MVI   VARBL3,C'C'         SET TO PASS                          05560007
 000A02 D204 D4DA D4AC 0425A 0422C  1445          MVC   PREDOUT,=C'TRUE '                                        05570007
 000A08 D207 D4BE D118 0423E 03E98  1446          MVC   TESTNBR,=C'TEST070A'                                     05580007
                                    1447 *                                                                       05590007
                                    1448 TEST070A IF    (CLI,VARBL1,C'A',E),AND,(CLI,VARBL2,C'B',E),            C05600007
                                                        OR,(CLI,VARBL3,C'C',E)                                   05610007
 000A0E 95C1 D542      042C2        1450+TEST070A CLI   VARBL1,C'A'         TWO OPERANDS                         01-IF
 000A12 A774 0006            00A1E  1453+         JNE   $MDF92              FALSE RESULT - POSSIBLE FAIL         01-IF
 000A16 95C2 D543      042C3        1455+         CLI   VARBL2,C'B'         TWO OPERANDS                         01-IF
 000A1A A784 0006            00A26  1458+         JE    $MDT93              TRUE RESULT - POSSIBLE PASS          01-IF
 000A1E 95C3 D544      042C4        1460+$MDF92   CLI   VARBL3,C'C'         TWO OPERANDS                         01-IF
 000A22 A774 0007            00A30  1464+         JNE   $NEXT94             BRANCH IF CC INDICATES FAIL          01-IF
 000A26                             1465+$MDT93   DC    0H'0'               END RESULT WAS PASS - DO THE EXECUTE 01-IF
 000A26 D204 D4F1 D4AC 04271 0422C  1466            MVC   ACTOUT,=C'TRUE '                                       05620007
                                    1467          ELSE                                                           05630007
 000A2C A7F4 0005            00A36  1469+         J     $FINI95                                                  01-ELSE
 000A30                             1470+$NEXT94  DC    0H'0'                                                    01-ELSE
 000A30 D204 D4F1 D4B1 04271 04231  1471            MVC   ACTOUT,=C'FALSE'                                       05640007
                                    1472          ENDIF                                                          05650007
 000A36                             1474+$FINI95  DC    0H'0'                                                    01-ENDIF
                                    1475          IF    (CLC,PREDOUT,ACTOUT,NE)                                  05660007
 000A36 D504 D4DA D4F1 0425A 04271  1477+         CLC   PREDOUT,ACTOUT      TWO OPERANDS                         01-IF
 000A3C A784 0005            00A46  1481+         JE    $NEXT96             BRANCH IF CC INDICATES FAIL          01-IF
1IFTEST   EXAMPLES OF "IF" LOGIC MACRO INSTRUCTIONS                                                             Page   22
   Active Usings: IFTEST,R12  $$WA$$,R13
0  Loc  Object Code    Addr1 Addr2  Stmt   Source Statement                                  HLASM R6.0  2021/03/26 12.00
0000A40 D209 D4F7 D498 04277 04218  1482            MVC   ERROR,=C'<=== ERROR'                                   05670007
                                    1483          ENDIF                                                          05680007
 000A46                             1485+$NEXT96  DC    0H'0'                                                    01-ENDIF
                                    1486          PUT   SYSPRINT,OUTPUT                                          05690007
 000A46 4110 D548            042C8  1490+         LA    1,SYSPRINT                        LOAD PARAMETER REG 1   02-IHBIN
 000A4A 4100 D4BD            0423D  1491+         LA    0,OUTPUT                          LOAD PARAMETER REG 0   02-IHBIN
 000A4E 1FFF                        1492+         SLR   15,15               CLEAR REGISTER FOR ICM          @L1A 01-PUT
 000A50 BFF7 1031            00031  1493+         ICM   15,7,49(1)          LOAD PUT ROUTINE ADDRESS        @L1C 01-PUT
 000A54 0DEF                        1494+         BASR  14,15               LINK TO PUT ROUTINE             @L3C 01-PUT
 000A56 D209 D4F7 D4A2 04277 04222  1495          MVC   ERROR,=CL10' '                                           05700007
                                    1496 *=*=*=*=*=*=*=*=*=*=*=*=*=*=*=*=*=*=*=*=*=*=*=*=*=*=*=*=*=*=*=*=*=*=*=* 05710007
 000A5C 92E9 D542      042C2        1497          MVI   VARBL1,C'Z'         SET TO FAIL                          05720007
 000A60 92C2 D543      042C3        1498          MVI   VARBL2,C'B'         SET TO PASS                          05730007
 000A64 92C3 D544      042C4        1499          MVI   VARBL3,C'C'         SET TO PASS                          05740007
 000A68 D204 D4DA D4AC 0425A 0422C  1500          MVC   PREDOUT,=C'TRUE '                                        05750007
 000A6E D207 D4BE D120 0423E 03EA0  1501          MVC   TESTNBR,=C'TEST070B'                                     05760007
                                    1502 *                                                                       05770007
                                    1503 TEST070B IF    (CLI,VARBL1,C'A',E),AND,(CLI,VARBL2,C'B',E),            C05780007
                                                        OR,(CLI,VARBL3,C'C',E)                                   05790007
 000A74 95C1 D542      042C2        1505+TEST070B CLI   VARBL1,C'A'         TWO OPERANDS                         01-IF
 000A78 A774 0006            00A84  1508+         JNE   $MDF97              FALSE RESULT - POSSIBLE FAIL         01-IF
 000A7C 95C2 D543      042C3        1510+         CLI   VARBL2,C'B'         TWO OPERANDS                         01-IF
 000A80 A784 0006            00A8C  1513+         JE    $MDT98              TRUE RESULT - POSSIBLE PASS          01-IF
 000A84 95C3 D544      042C4        1515+$MDF97   CLI   VARBL3,C'C'         TWO OPERANDS                         01-IF
 000A88 A774 0007            00A96  1519+         JNE   $NEXT99             BRANCH IF CC INDICATES FAIL          01-IF
 000A8C                             1520+$MDT98   DC    0H'0'               END RESULT WAS PASS - DO THE EXECUTE 01-IF
 000A8C D204 D4F1 D4AC 04271 0422C  1521            MVC   ACTOUT,=C'TRUE '                                       05800007
                                    1522          ELSE                                                           05810007
 000A92 A7F4 0005            00A9C  1524+         J     $FINI100                                                 01-ELSE
 000A96                             1525+$NEXT99  DC    0H'0'                                                    01-ELSE
 000A96 D204 D4F1 D4B1 04271 04231  1526            MVC   ACTOUT,=C'FALSE'                                       05820007
                                    1527          ENDIF                                                          05830007
 000A9C                             1529+$FINI100 DC    0H'0'                                                    01-ENDIF
                                    1530          IF    (CLC,PREDOUT,ACTOUT,NE)                                  05840007
 000A9C D504 D4DA D4F1 0425A 04271  1532+         CLC   PREDOUT,ACTOUT      TWO OPERANDS                         01-IF
 000AA2 A784 0005            00AAC  1536+         JE    $NEXT101            BRANCH IF CC INDICATES FAIL          01-IF
 000AA6 D209 D4F7 D498 04277 04218  1537            MVC   ERROR,=C'<=== ERROR'                                   05850007
                                    1538          ENDIF                                                          05860007
 000AAC                             1540+$NEXT101 DC    0H'0'                                                    01-ENDIF
                                    1541          PUT   SYSPRINT,OUTPUT                                          05870007
 000AAC 4110 D548            042C8  1545+         LA    1,SYSPRINT                        LOAD PARAMETER REG 1   02-IHBIN
 000AB0 4100 D4BD            0423D  1546+         LA    0,OUTPUT                          LOAD PARAMETER REG 0   02-IHBIN
 000AB4 1FFF                        1547+         SLR   15,15               CLEAR REGISTER FOR ICM          @L1A 01-PUT
 000AB6 BFF7 1031            00031  1548+         ICM   15,7,49(1)          LOAD PUT ROUTINE ADDRESS        @L1C 01-PUT
 000ABA 0DEF                        1549+         BASR  14,15               LINK TO PUT ROUTINE             @L3C 01-PUT
 000ABC D209 D4F7 D4A2 04277 04222  1550          MVC   ERROR,=CL10' '                                           05880007
                                    1551 *=*=*=*=*=*=*=*=*=*=*=*=*=*=*=*=*=*=*=*=*=*=*=*=*=*=*=*=*=*=*=*=*=*=*=* 05890007
 000AC2 92C1 D542      042C2        1552          MVI   VARBL1,C'A'         SET TO PASS                          05900007
 000AC6 92E9 D543      042C3        1553          MVI   VARBL2,C'Z'         SET TO FAIL                          05910007
 000ACA 92C3 D544      042C4        1554          MVI   VARBL3,C'C'         SET TO PASS                          05920007
 000ACE D204 D4DA D4AC 0425A 0422C  1555          MVC   PREDOUT,=C'TRUE '                                        05930007
 000AD4 D207 D4BE D128 0423E 03EA8  1556          MVC   TESTNBR,=C'TEST070C'                                     05940007
                                    1557 *                                                                       05950007
                                    1558 TEST070C IF    (CLI,VARBL1,C'A',E),AND,(CLI,VARBL2,C'B',E),            C05960007
                                                        OR,(CLI,VARBL3,C'C',E)                                   05970007
1IFTEST   EXAMPLES OF "IF" LOGIC MACRO INSTRUCTIONS                                                             Page   23
   Active Usings: IFTEST,R12  $$WA$$,R13
0  Loc  Object Code    Addr1 Addr2  Stmt   Source Statement                                  HLASM R6.0  2021/03/26 12.00
0000ADA 95C1 D542      042C2        1560+TEST070C CLI   VARBL1,C'A'         TWO OPERANDS                         01-IF
 000ADE A774 0006            00AEA  1563+         JNE   $MDF102             FALSE RESULT - POSSIBLE FAIL         01-IF
 000AE2 95C2 D543      042C3        1565+         CLI   VARBL2,C'B'         TWO OPERANDS                         01-IF
 000AE6 A784 0006            00AF2  1568+         JE    $MDT103             TRUE RESULT - POSSIBLE PASS          01-IF
 000AEA 95C3 D544      042C4        1570+$MDF102  CLI   VARBL3,C'C'         TWO OPERANDS                         01-IF
 000AEE A774 0007            00AFC  1574+         JNE   $NEXT104            BRANCH IF CC INDICATES FAIL          01-IF
 000AF2                             1575+$MDT103  DC    0H'0'               END RESULT WAS PASS - DO THE EXECUTE 01-IF
 000AF2 D204 D4F1 D4AC 04271 0422C  1576            MVC   ACTOUT,=C'TRUE '                                       05980007
                                    1577          ELSE                                                           05990007
 000AF8 A7F4 0005            00B02  1579+         J     $FINI105                                                 01-ELSE
 000AFC                             1580+$NEXT104 DC    0H'0'                                                    01-ELSE
 000AFC D204 D4F1 D4B1 04271 04231  1581            MVC   ACTOUT,=C'FALSE'                                       06000007
                                    1582          ENDIF                                                          06010007
 000B02                             1584+$FINI105 DC    0H'0'                                                    01-ENDIF
                                    1585          IF    (CLC,PREDOUT,ACTOUT,NE)                                  06020007
 000B02 D504 D4DA D4F1 0425A 04271  1587+         CLC   PREDOUT,ACTOUT      TWO OPERANDS                         01-IF
 000B08 A784 0005            00B12  1591+         JE    $NEXT106            BRANCH IF CC INDICATES FAIL          01-IF
 000B0C D209 D4F7 D498 04277 04218  1592            MVC   ERROR,=C'<=== ERROR'                                   06030007
                                    1593          ENDIF                                                          06040007
 000B12                             1595+$NEXT106 DC    0H'0'                                                    01-ENDIF
                                    1596          PUT   SYSPRINT,OUTPUT                                          06050007
 000B12 4110 D548            042C8  1600+         LA    1,SYSPRINT                        LOAD PARAMETER REG 1   02-IHBIN
 000B16 4100 D4BD            0423D  1601+         LA    0,OUTPUT                          LOAD PARAMETER REG 0   02-IHBIN
 000B1A 1FFF                        1602+         SLR   15,15               CLEAR REGISTER FOR ICM          @L1A 01-PUT
 000B1C BFF7 1031            00031  1603+         ICM   15,7,49(1)          LOAD PUT ROUTINE ADDRESS        @L1C 01-PUT
 000B20 0DEF                        1604+         BASR  14,15               LINK TO PUT ROUTINE             @L3C 01-PUT
 000B22 D209 D4F7 D4A2 04277 04222  1605          MVC   ERROR,=CL10' '                                           06060007
                                    1606 *=*=*=*=*=*=*=*=*=*=*=*=*=*=*=*=*=*=*=*=*=*=*=*=*=*=*=*=*=*=*=*=*=*=*=* 06070007
 000B28 05C0                        1607          BALR  R12,0                                                    06071016
                  R:C  00B2A        1608          USING *,R12                                                    06072016
 000B2A 92E9 D542      042C2        1609          MVI   VARBL1,C'Z'         SET TO FAIL                          06080007
 000B2E 92E9 D543      042C3        1610          MVI   VARBL2,C'Z'         SET TO FAIL                          06090007
 000B32 92C3 D544      042C4        1611          MVI   VARBL3,C'C'         SET TO PASS                          06100007
 000B36 D204 D4DA D4AC 0425A 0422C  1612          MVC   PREDOUT,=C'TRUE '                                        06110007
 000B3C D207 D4BE D130 0423E 03EB0  1613          MVC   TESTNBR,=C'TEST070D'                                     06120007
                                    1614 *                                                                       06130007
                                    1615 TEST070D IF    (CLI,VARBL1,C'A',E),AND,(CLI,VARBL2,C'B',E),            C06140007
                                                        OR,(CLI,VARBL3,C'C',E)                                   06150007
 000B42 95C1 D542      042C2        1617+TEST070D CLI   VARBL1,C'A'         TWO OPERANDS                         01-IF
 000B46 A774 0006            00B52  1620+         JNE   $MDF107             FALSE RESULT - POSSIBLE FAIL         01-IF
 000B4A 95C2 D543      042C3        1622+         CLI   VARBL2,C'B'         TWO OPERANDS                         01-IF
 000B4E A784 0006            00B5A  1625+         JE    $MDT108             TRUE RESULT - POSSIBLE PASS          01-IF
 000B52 95C3 D544      042C4        1627+$MDF107  CLI   VARBL3,C'C'         TWO OPERANDS                         01-IF
 000B56 A774 0007            00B64  1631+         JNE   $NEXT109            BRANCH IF CC INDICATES FAIL          01-IF
 000B5A                             1632+$MDT108  DC    0H'0'               END RESULT WAS PASS - DO THE EXECUTE 01-IF
 000B5A D204 D4F1 D4AC 04271 0422C  1633            MVC   ACTOUT,=C'TRUE '                                       06160007
                                    1634          ELSE                                                           06170007
 000B60 A7F4 0005            00B6A  1636+         J     $FINI110                                                 01-ELSE
 000B64                             1637+$NEXT109 DC    0H'0'                                                    01-ELSE
 000B64 D204 D4F1 D4B1 04271 04231  1638            MVC   ACTOUT,=C'FALSE'                                       06180007
                                    1639          ENDIF                                                          06190007
 000B6A                             1641+$FINI110 DC    0H'0'                                                    01-ENDIF
                                    1642          IF    (CLC,PREDOUT,ACTOUT,NE)                                  06200007
 000B6A D504 D4DA D4F1 0425A 04271  1644+         CLC   PREDOUT,ACTOUT      TWO OPERANDS                         01-IF
 000B70 A784 0005            00B7A  1648+         JE    $NEXT111            BRANCH IF CC INDICATES FAIL          01-IF
1IFTEST   EXAMPLES OF "IF" LOGIC MACRO INSTRUCTIONS                                                             Page   24
   Active Usings: IFTEST+X'B2A',R12  $$WA$$,R13
0  Loc  Object Code    Addr1 Addr2  Stmt   Source Statement                                  HLASM R6.0  2021/03/26 12.00
0000B74 D209 D4F7 D498 04277 04218  1649            MVC   ERROR,=C'<=== ERROR'                                   06210007
                                    1650          ENDIF                                                          06220007
 000B7A                             1652+$NEXT111 DC    0H'0'                                                    01-ENDIF
                                    1653          PUT   SYSPRINT,OUTPUT                                          06230007
 000B7A 4110 D548            042C8  1657+         LA    1,SYSPRINT                        LOAD PARAMETER REG 1   02-IHBIN
 000B7E 4100 D4BD            0423D  1658+         LA    0,OUTPUT                          LOAD PARAMETER REG 0   02-IHBIN
 000B82 1FFF                        1659+         SLR   15,15               CLEAR REGISTER FOR ICM          @L1A 01-PUT
 000B84 BFF7 1031            00031  1660+         ICM   15,7,49(1)          LOAD PUT ROUTINE ADDRESS        @L1C 01-PUT
 000B88 0DEF                        1661+         BASR  14,15               LINK TO PUT ROUTINE             @L3C 01-PUT
 000B8A D209 D4F7 D4A2 04277 04222  1662          MVC   ERROR,=CL10' '                                           06240007
                                    1663 *=*=*=*=*=*=*=*=*=*=*=*=*=*=*=*=*=*=*=*=*=*=*=*=*=*=*=*=*=*=*=*=*=*=*=* 06250007
 000B90 92C1 D542      042C2        1664          MVI   VARBL1,C'A'         SET TO PASS                          06260007
 000B94 92C2 D543      042C3        1665          MVI   VARBL2,C'B'         SET TO PASS                          06270007
 000B98 92E9 D544      042C4        1666          MVI   VARBL3,C'Z'         SET TO FAIL                          06280007
 000B9C D204 D4DA D4AC 0425A 0422C  1667          MVC   PREDOUT,=C'TRUE '                                        06290007
 000BA2 D207 D4BE D138 0423E 03EB8  1668          MVC   TESTNBR,=C'TEST070E'                                     06300007
                                    1669 *                                                                       06310007
                                    1670 TEST070E IF    (CLI,VARBL1,C'A',E),AND,(CLI,VARBL2,C'B',E),            C06320007
                                                        OR,(CLI,VARBL3,C'C',E)                                   06330007
 000BA8 95C1 D542      042C2        1672+TEST070E CLI   VARBL1,C'A'         TWO OPERANDS                         01-IF
 000BAC A774 0006            00BB8  1675+         JNE   $MDF112             FALSE RESULT - POSSIBLE FAIL         01-IF
 000BB0 95C2 D543      042C3        1677+         CLI   VARBL2,C'B'         TWO OPERANDS                         01-IF
 000BB4 A784 0006            00BC0  1680+         JE    $MDT113             TRUE RESULT - POSSIBLE PASS          01-IF
 000BB8 95C3 D544      042C4        1682+$MDF112  CLI   VARBL3,C'C'         TWO OPERANDS                         01-IF
 000BBC A774 0007            00BCA  1686+         JNE   $NEXT114            BRANCH IF CC INDICATES FAIL          01-IF
 000BC0                             1687+$MDT113  DC    0H'0'               END RESULT WAS PASS - DO THE EXECUTE 01-IF
 000BC0 D204 D4F1 D4AC 04271 0422C  1688            MVC   ACTOUT,=C'TRUE '                                       06340007
                                    1689          ELSE                                                           06350007
 000BC6 A7F4 0005            00BD0  1691+         J     $FINI115                                                 01-ELSE
 000BCA                             1692+$NEXT114 DC    0H'0'                                                    01-ELSE
 000BCA D204 D4F1 D4B1 04271 04231  1693            MVC   ACTOUT,=C'FALSE'                                       06360007
                                    1694          ENDIF                                                          06370007
 000BD0                             1696+$FINI115 DC    0H'0'                                                    01-ENDIF
                                    1697          IF    (CLC,PREDOUT,ACTOUT,NE)                                  06380007
 000BD0 D504 D4DA D4F1 0425A 04271  1699+         CLC   PREDOUT,ACTOUT      TWO OPERANDS                         01-IF
 000BD6 A784 0005            00BE0  1703+         JE    $NEXT116            BRANCH IF CC INDICATES FAIL          01-IF
 000BDA D209 D4F7 D498 04277 04218  1704            MVC   ERROR,=C'<=== ERROR'                                   06390007
                                    1705          ENDIF                                                          06400007
 000BE0                             1707+$NEXT116 DC    0H'0'                                                    01-ENDIF
                                    1708          PUT   SYSPRINT,OUTPUT                                          06410007
 000BE0 4110 D548            042C8  1712+         LA    1,SYSPRINT                        LOAD PARAMETER REG 1   02-IHBIN
 000BE4 4100 D4BD            0423D  1713+         LA    0,OUTPUT                          LOAD PARAMETER REG 0   02-IHBIN
 000BE8 1FFF                        1714+         SLR   15,15               CLEAR REGISTER FOR ICM          @L1A 01-PUT
 000BEA BFF7 1031            00031  1715+         ICM   15,7,49(1)          LOAD PUT ROUTINE ADDRESS        @L1C 01-PUT
 000BEE 0DEF                        1716+         BASR  14,15               LINK TO PUT ROUTINE             @L3C 01-PUT
 000BF0 D209 D4F7 D4A2 04277 04222  1717          MVC   ERROR,=CL10' '                                           06420007
                                    1718 *=*=*=*=*=*=*=*=*=*=*=*=*=*=*=*=*=*=*=*=*=*=*=*=*=*=*=*=*=*=*=*=*=*=*=* 06430007
 000BF6 92E9 D542      042C2        1719          MVI   VARBL1,C'Z'         SET TO FAIL                          06440007
 000BFA 92C2 D543      042C3        1720          MVI   VARBL2,C'B'         SET TO PASS                          06450007
 000BFE 92E9 D544      042C4        1721          MVI   VARBL3,C'Z'         SET TO FAIL                          06460007
 000C02 D204 D4DA D4B1 0425A 04231  1722          MVC   PREDOUT,=C'FALSE'                                        06470007
 000C08 D207 D4BE D140 0423E 03EC0  1723          MVC   TESTNBR,=C'TEST070F'                                     06480007
                                    1724 *                                                                       06490007
                                    1725 TEST070F IF    (CLI,VARBL1,C'A',E),AND,(CLI,VARBL2,C'B',E),            C06500007
                                                        OR,(CLI,VARBL3,C'C',E)                                   06510007
1IFTEST   EXAMPLES OF "IF" LOGIC MACRO INSTRUCTIONS                                                             Page   25
   Active Usings: IFTEST+X'B2A',R12  $$WA$$,R13
0  Loc  Object Code    Addr1 Addr2  Stmt   Source Statement                                  HLASM R6.0  2021/03/26 12.00
0000C0E 95C1 D542      042C2        1727+TEST070F CLI   VARBL1,C'A'         TWO OPERANDS                         01-IF
 000C12 A774 0006            00C1E  1730+         JNE   $MDF117             FALSE RESULT - POSSIBLE FAIL         01-IF
 000C16 95C2 D543      042C3        1732+         CLI   VARBL2,C'B'         TWO OPERANDS                         01-IF
 000C1A A784 0006            00C26  1735+         JE    $MDT118             TRUE RESULT - POSSIBLE PASS          01-IF
 000C1E 95C3 D544      042C4        1737+$MDF117  CLI   VARBL3,C'C'         TWO OPERANDS                         01-IF
 000C22 A774 0007            00C30  1741+         JNE   $NEXT119            BRANCH IF CC INDICATES FAIL          01-IF
 000C26                             1742+$MDT118  DC    0H'0'               END RESULT WAS PASS - DO THE EXECUTE 01-IF
 000C26 D204 D4F1 D4AC 04271 0422C  1743            MVC   ACTOUT,=C'TRUE '                                       06520007
                                    1744          ELSE                                                           06530007
 000C2C A7F4 0005            00C36  1746+         J     $FINI120                                                 01-ELSE
 000C30                             1747+$NEXT119 DC    0H'0'                                                    01-ELSE
 000C30 D204 D4F1 D4B1 04271 04231  1748            MVC   ACTOUT,=C'FALSE'                                       06540007
                                    1749          ENDIF                                                          06550007
 000C36                             1751+$FINI120 DC    0H'0'                                                    01-ENDIF
                                    1752          IF    (CLC,PREDOUT,ACTOUT,NE)                                  06560007
 000C36 D504 D4DA D4F1 0425A 04271  1754+         CLC   PREDOUT,ACTOUT      TWO OPERANDS                         01-IF
 000C3C A784 0005            00C46  1758+         JE    $NEXT121            BRANCH IF CC INDICATES FAIL          01-IF
 000C40 D209 D4F7 D498 04277 04218  1759            MVC   ERROR,=C'<=== ERROR'                                   06570007
                                    1760          ENDIF                                                          06580007
 000C46                             1762+$NEXT121 DC    0H'0'                                                    01-ENDIF
                                    1763          PUT   SYSPRINT,OUTPUT                                          06590007
 000C46 4110 D548            042C8  1767+         LA    1,SYSPRINT                        LOAD PARAMETER REG 1   02-IHBIN
 000C4A 4100 D4BD            0423D  1768+         LA    0,OUTPUT                          LOAD PARAMETER REG 0   02-IHBIN
 000C4E 1FFF                        1769+         SLR   15,15               CLEAR REGISTER FOR ICM          @L1A 01-PUT
 000C50 BFF7 1031            00031  1770+         ICM   15,7,49(1)          LOAD PUT ROUTINE ADDRESS        @L1C 01-PUT
 000C54 0DEF                        1771+         BASR  14,15               LINK TO PUT ROUTINE             @L3C 01-PUT
 000C56 D209 D4F7 D4A2 04277 04222  1772          MVC   ERROR,=CL10' '                                           06600007
                                    1773 *=*=*=*=*=*=*=*=*=*=*=*=*=*=*=*=*=*=*=*=*=*=*=*=*=*=*=*=*=*=*=*=*=*=*=* 06610007
 000C5C 92C1 D542      042C2        1774          MVI   VARBL1,C'A'         SET TO PASS                          06620007
 000C60 92E9 D543      042C3        1775          MVI   VARBL2,C'Z'         SET TO FAIL                          06630007
 000C64 92E9 D544      042C4        1776          MVI   VARBL3,C'Z'         SET TO FAIL                          06640007
 000C68 D204 D4DA D4B1 0425A 04231  1777          MVC   PREDOUT,=C'FALSE'                                        06650007
 000C6E D207 D4BE D148 0423E 03EC8  1778          MVC   TESTNBR,=C'TEST070G'                                     06660007
                                    1779 *                                                                       06670007
                                    1780 TEST070G IF    (CLI,VARBL1,C'A',E),AND,(CLI,VARBL2,C'B',E),            C06680007
                                                        OR,(CLI,VARBL3,C'C',E)                                   06690007
 000C74 95C1 D542      042C2        1782+TEST070G CLI   VARBL1,C'A'         TWO OPERANDS                         01-IF
 000C78 A774 0006            00C84  1785+         JNE   $MDF122             FALSE RESULT - POSSIBLE FAIL         01-IF
 000C7C 95C2 D543      042C3        1787+         CLI   VARBL2,C'B'         TWO OPERANDS                         01-IF
 000C80 A784 0006            00C8C  1790+         JE    $MDT123             TRUE RESULT - POSSIBLE PASS          01-IF
 000C84 95C3 D544      042C4        1792+$MDF122  CLI   VARBL3,C'C'         TWO OPERANDS                         01-IF
 000C88 A774 0007            00C96  1796+         JNE   $NEXT124            BRANCH IF CC INDICATES FAIL          01-IF
 000C8C                             1797+$MDT123  DC    0H'0'               END RESULT WAS PASS - DO THE EXECUTE 01-IF
 000C8C D204 D4F1 D4AC 04271 0422C  1798            MVC   ACTOUT,=C'TRUE '                                       06700007
                                    1799          ELSE                                                           06710007
 000C92 A7F4 0005            00C9C  1801+         J     $FINI125                                                 01-ELSE
 000C96                             1802+$NEXT124 DC    0H'0'                                                    01-ELSE
 000C96 D204 D4F1 D4B1 04271 04231  1803            MVC   ACTOUT,=C'FALSE'                                       06720007
                                    1804          ENDIF                                                          06730007
 000C9C                             1806+$FINI125 DC    0H'0'                                                    01-ENDIF
                                    1807          IF    (CLC,PREDOUT,ACTOUT,NE)                                  06740007
 000C9C D504 D4DA D4F1 0425A 04271  1809+         CLC   PREDOUT,ACTOUT      TWO OPERANDS                         01-IF
 000CA2 A784 0005            00CAC  1813+         JE    $NEXT126            BRANCH IF CC INDICATES FAIL          01-IF
 000CA6 D209 D4F7 D498 04277 04218  1814            MVC   ERROR,=C'<=== ERROR'                                   06750007
                                    1815          ENDIF                                                          06760007
1IFTEST   EXAMPLES OF "IF" LOGIC MACRO INSTRUCTIONS                                                             Page   26
   Active Usings: IFTEST+X'B2A',R12  $$WA$$,R13
0  Loc  Object Code    Addr1 Addr2  Stmt   Source Statement                                  HLASM R6.0  2021/03/26 12.00
0000CAC                             1817+$NEXT126 DC    0H'0'                                                    01-ENDIF
                                    1818          PUT   SYSPRINT,OUTPUT                                          06770007
 000CAC 4110 D548            042C8  1822+         LA    1,SYSPRINT                        LOAD PARAMETER REG 1   02-IHBIN
 000CB0 4100 D4BD            0423D  1823+         LA    0,OUTPUT                          LOAD PARAMETER REG 0   02-IHBIN
 000CB4 1FFF                        1824+         SLR   15,15               CLEAR REGISTER FOR ICM          @L1A 01-PUT
 000CB6 BFF7 1031            00031  1825+         ICM   15,7,49(1)          LOAD PUT ROUTINE ADDRESS        @L1C 01-PUT
 000CBA 0DEF                        1826+         BASR  14,15               LINK TO PUT ROUTINE             @L3C 01-PUT
 000CBC D209 D4F7 D4A2 04277 04222  1827          MVC   ERROR,=CL10' '                                           06780007
                                    1828 *=*=*=*=*=*=*=*=*=*=*=*=*=*=*=*=*=*=*=*=*=*=*=*=*=*=*=*=*=*=*=*=*=*=*=* 06790007
 000CC2 92E9 D542      042C2        1829          MVI   VARBL1,C'Z'         SET TO FAIL                          06800007
 000CC6 92E9 D543      042C3        1830          MVI   VARBL2,C'Z'         SET TO FAIL                          06810007
 000CCA 92E9 D544      042C4        1831          MVI   VARBL3,C'Z'         SET TO FAIL                          06820007
 000CCE D204 D4DA D4B1 0425A 04231  1832          MVC   PREDOUT,=C'FALSE'                                        06830007
 000CD4 D207 D4BE D150 0423E 03ED0  1833          MVC   TESTNBR,=C'TEST070H'                                     06840007
                                    1834 *                                                                       06850007
                                    1835 TEST070H IF    (CLI,VARBL1,C'A',E),AND,(CLI,VARBL2,C'B',E),            C06860007
                                                        OR,(CLI,VARBL3,C'C',E)                                   06870007
 000CDA 95C1 D542      042C2        1837+TEST070H CLI   VARBL1,C'A'         TWO OPERANDS                         01-IF
 000CDE A774 0006            00CEA  1840+         JNE   $MDF127             FALSE RESULT - POSSIBLE FAIL         01-IF
 000CE2 95C2 D543      042C3        1842+         CLI   VARBL2,C'B'         TWO OPERANDS                         01-IF
 000CE6 A784 0006            00CF2  1845+         JE    $MDT128             TRUE RESULT - POSSIBLE PASS          01-IF
 000CEA 95C3 D544      042C4        1847+$MDF127  CLI   VARBL3,C'C'         TWO OPERANDS                         01-IF
 000CEE A774 0007            00CFC  1851+         JNE   $NEXT129            BRANCH IF CC INDICATES FAIL          01-IF
 000CF2                             1852+$MDT128  DC    0H'0'               END RESULT WAS PASS - DO THE EXECUTE 01-IF
 000CF2 D204 D4F1 D4AC 04271 0422C  1853            MVC   ACTOUT,=C'TRUE '                                       06880007
                                    1854          ELSE                                                           06890007
 000CF8 A7F4 0005            00D02  1856+         J     $FINI130                                                 01-ELSE
 000CFC                             1857+$NEXT129 DC    0H'0'                                                    01-ELSE
 000CFC D204 D4F1 D4B1 04271 04231  1858            MVC   ACTOUT,=C'FALSE'                                       06900007
                                    1859          ENDIF                                                          06910007
 000D02                             1861+$FINI130 DC    0H'0'                                                    01-ENDIF
                                    1862          IF    (CLC,PREDOUT,ACTOUT,NE)                                  06920007
 000D02 D504 D4DA D4F1 0425A 04271  1864+         CLC   PREDOUT,ACTOUT      TWO OPERANDS                         01-IF
 000D08 A784 0005            00D12  1868+         JE    $NEXT131            BRANCH IF CC INDICATES FAIL          01-IF
 000D0C D209 D4F7 D498 04277 04218  1869            MVC   ERROR,=C'<=== ERROR'                                   06930007
                                    1870          ENDIF                                                          06940007
 000D12                             1872+$NEXT131 DC    0H'0'                                                    01-ENDIF
                                    1873          PUT   SYSPRINT,OUTPUT                                          06950007
 000D12 4110 D548            042C8  1877+         LA    1,SYSPRINT                        LOAD PARAMETER REG 1   02-IHBIN
 000D16 4100 D4BD            0423D  1878+         LA    0,OUTPUT                          LOAD PARAMETER REG 0   02-IHBIN
 000D1A 1FFF                        1879+         SLR   15,15               CLEAR REGISTER FOR ICM          @L1A 01-PUT
 000D1C BFF7 1031            00031  1880+         ICM   15,7,49(1)          LOAD PUT ROUTINE ADDRESS        @L1C 01-PUT
 000D20 0DEF                        1881+         BASR  14,15               LINK TO PUT ROUTINE             @L3C 01-PUT
 000D22 D209 D4F7 D4A2 04277 04222  1882          MVC   ERROR,=CL10' '                                           06960007
                                    1883 *=*=*=*=*=*=*=*=*=*=*=*=*=*=*=*=*=*=*=*=*=*=*=*=*=*=*=*=*=*=*=*=*=*=*=* 06970007
                                    1884 *                                                                     * 06980007
                                    1885 * IF (A) AND ((B) OR (C))                                             * 06990007
                                    1886 *                                                                     * 07000007
                                    1887 *=*=*=*=*=*=*=*=*=*=*=*=*=*=*=*=*=*=*=*=*=*=*=*=*=*=*=*=*=*=*=*=*=*=*=* 07010007
                                    1888 *                                                                       07020007
 000D28 92C1 D542      042C2        1889          MVI   VARBL1,C'A'         SET TO PASS                          07050007
 000D2C 92C2 D543      042C3        1890          MVI   VARBL2,C'B'         SET TO PASS                          07060007
 000D30 92C3 D544      042C4        1891          MVI   VARBL3,C'C'         SET TO PASS                          07070007
 000D34 D204 D4DA D4AC 0425A 0422C  1892          MVC   PREDOUT,=C'TRUE '                                        07080007
 000D3A D207 D4BE D158 0423E 03ED8  1893          MVC   TESTNBR,=C'TEST080A'                                     07090007
1IFTEST   EXAMPLES OF "IF" LOGIC MACRO INSTRUCTIONS                                                             Page   27
   Active Usings: IFTEST+X'B2A',R12  $$WA$$,R13
0  Loc  Object Code    Addr1 Addr2  Stmt   Source Statement                                  HLASM R6.0  2021/03/26 12.00
0                                   1894 *                                                                       07100007
                                    1895 TEST080A IF    (CLI,VARBL1,C'A',E),AND,                                C07110007
                                                        ((CLI,VARBL2,C'B',E),OR,(CLI,VARBL3,C'C',E))             07120007
 000D40 95C1 D542      042C2        1897+TEST080A CLI   VARBL1,C'A'         TWO OPERANDS                         01-IF
 000D44 A774 000F            00D62  1900+         JNE   $MDF132             FALSE RESULT - POSSIBLE FAIL         01-IF
 000D48 95C2 D543      042C3        1905+         CLI   VARBL2,C'B'         TWO OPERANDS                         02-IF2
 000D4C A784 0006            00D58  1908+         JE    $MDT133             TRUE RESULT - POSSIBLE PASS          02-IF2
 000D50 95C3 D544      042C4        1910+         CLI   VARBL3,C'C'         TWO OPERANDS                         02-IF2
 000D54 A774 0007            00D62  1916+         JNE   $MDF132             BRANCH IF CC INDICATES FAIL          01-IF
 000D58                             1917+$MDT133  DC    0H'0'               END RESULT WAS PASS - DO THE EXECUTE 01-IF
 000D58 D204 D4F1 D4AC 04271 0422C  1918            MVC   ACTOUT,=C'TRUE '                                       07130007
                                    1919          ELSE                                                           07140007
 000D5E A7F4 0005            00D68  1921+         J     $FINI134                                                 01-ELSE
 000D62                             1922+$MDF132  DC    0H'0'                                                    01-ELSE
 000D62 D204 D4F1 D4B1 04271 04231  1923            MVC   ACTOUT,=C'FALSE'                                       07150007
                                    1924          ENDIF                                                          07160007
 000D68                             1926+$FINI134 DC    0H'0'                                                    01-ENDIF
                                    1927          IF    (CLC,PREDOUT,ACTOUT,NE)                                  07170007
 000D68 D504 D4DA D4F1 0425A 04271  1929+         CLC   PREDOUT,ACTOUT      TWO OPERANDS                         01-IF
 000D6E A784 0005            00D78  1933+         JE    $NEXT135            BRANCH IF CC INDICATES FAIL          01-IF
 000D72 D209 D4F7 D498 04277 04218  1934            MVC   ERROR,=C'<=== ERROR'                                   07180007
                                    1935          ENDIF                                                          07190007
 000D78                             1937+$NEXT135 DC    0H'0'                                                    01-ENDIF
                                    1938          PUT   SYSPRINT,OUTPUT                                          07200007
 000D78 4110 D548            042C8  1942+         LA    1,SYSPRINT                        LOAD PARAMETER REG 1   02-IHBIN
 000D7C 4100 D4BD            0423D  1943+         LA    0,OUTPUT                          LOAD PARAMETER REG 0   02-IHBIN
 000D80 1FFF                        1944+         SLR   15,15               CLEAR REGISTER FOR ICM          @L1A 01-PUT
 000D82 BFF7 1031            00031  1945+         ICM   15,7,49(1)          LOAD PUT ROUTINE ADDRESS        @L1C 01-PUT
 000D86 0DEF                        1946+         BASR  14,15               LINK TO PUT ROUTINE             @L3C 01-PUT
 000D88 D209 D4F7 D4A2 04277 04222  1947          MVC   ERROR,=CL10' '                                           07210007
                                    1948 *=*=*=*=*=*=*=*=*=*=*=*=*=*=*=*=*=*=*=*=*=*=*=*=*=*=*=*=*=*=*=*=*=*=*=* 07220007
 000D8E 92E9 D542      042C2        1949          MVI   VARBL1,C'Z'         SET TO FAIL                          07230007
 000D92 92C2 D543      042C3        1950          MVI   VARBL2,C'B'         SET TO PASS                          07240007
 000D96 92C3 D544      042C4        1951          MVI   VARBL3,C'C'         SET TO PASS                          07250007
 000D9A D204 D4DA D4B1 0425A 04231  1952          MVC   PREDOUT,=C'FALSE'                                        07260007
 000DA0 D207 D4BE D160 0423E 03EE0  1953          MVC   TESTNBR,=C'TEST080B'                                     07270007
                                    1954 *                                                                       07280007
                                    1955 TEST080B IF    (CLI,VARBL1,C'A',E),AND,                                C07290007
                                                        ((CLI,VARBL2,C'B',E),OR,(CLI,VARBL3,C'C',E))             07300007
 000DA6 95C1 D542      042C2        1957+TEST080B CLI   VARBL1,C'A'         TWO OPERANDS                         01-IF
 000DAA A774 000F            00DC8  1960+         JNE   $MDF136             FALSE RESULT - POSSIBLE FAIL         01-IF
 000DAE 95C2 D543      042C3        1965+         CLI   VARBL2,C'B'         TWO OPERANDS                         02-IF2
 000DB2 A784 0006            00DBE  1968+         JE    $MDT137             TRUE RESULT - POSSIBLE PASS          02-IF2
 000DB6 95C3 D544      042C4        1970+         CLI   VARBL3,C'C'         TWO OPERANDS                         02-IF2
 000DBA A774 0007            00DC8  1976+         JNE   $MDF136             BRANCH IF CC INDICATES FAIL          01-IF
 000DBE                             1977+$MDT137  DC    0H'0'               END RESULT WAS PASS - DO THE EXECUTE 01-IF
 000DBE D204 D4F1 D4AC 04271 0422C  1978            MVC   ACTOUT,=C'TRUE '                                       07310007
                                    1979          ELSE                                                           07320007
 000DC4 A7F4 0005            00DCE  1981+         J     $FINI138                                                 01-ELSE
 000DC8                             1982+$MDF136  DC    0H'0'                                                    01-ELSE
 000DC8 D204 D4F1 D4B1 04271 04231  1983            MVC   ACTOUT,=C'FALSE'                                       07330007
                                    1984          ENDIF                                                          07340007
 000DCE                             1986+$FINI138 DC    0H'0'                                                    01-ENDIF
                                    1987          IF    (CLC,PREDOUT,ACTOUT,NE)                                  07350007
 000DCE D504 D4DA D4F1 0425A 04271  1989+         CLC   PREDOUT,ACTOUT      TWO OPERANDS                         01-IF
1IFTEST   EXAMPLES OF "IF" LOGIC MACRO INSTRUCTIONS                                                             Page   28
   Active Usings: IFTEST+X'B2A',R12  $$WA$$,R13
0  Loc  Object Code    Addr1 Addr2  Stmt   Source Statement                                  HLASM R6.0  2021/03/26 12.00
0000DD4 A784 0005            00DDE  1993+         JE    $NEXT139            BRANCH IF CC INDICATES FAIL          01-IF
 000DD8 D209 D4F7 D498 04277 04218  1994            MVC   ERROR,=C'<=== ERROR'                                   07360007
                                    1995          ENDIF                                                          07370007
 000DDE                             1997+$NEXT139 DC    0H'0'                                                    01-ENDIF
                                    1998          PUT   SYSPRINT,OUTPUT                                          07380007
 000DDE 4110 D548            042C8  2002+         LA    1,SYSPRINT                        LOAD PARAMETER REG 1   02-IHBIN
 000DE2 4100 D4BD            0423D  2003+         LA    0,OUTPUT                          LOAD PARAMETER REG 0   02-IHBIN
 000DE6 1FFF                        2004+         SLR   15,15               CLEAR REGISTER FOR ICM          @L1A 01-PUT
 000DE8 BFF7 1031            00031  2005+         ICM   15,7,49(1)          LOAD PUT ROUTINE ADDRESS        @L1C 01-PUT
 000DEC 0DEF                        2006+         BASR  14,15               LINK TO PUT ROUTINE             @L3C 01-PUT
 000DEE D209 D4F7 D4A2 04277 04222  2007          MVC   ERROR,=CL10' '                                           07390007
                                    2008 *=*=*=*=*=*=*=*=*=*=*=*=*=*=*=*=*=*=*=*=*=*=*=*=*=*=*=*=*=*=*=*=*=*=*=* 07400007
 000DF4 92C1 D542      042C2        2009          MVI   VARBL1,C'A'         SET TO PASS                          07410007
 000DF8 92E9 D543      042C3        2010          MVI   VARBL2,C'Z'         SET TO FAIL                          07420007
 000DFC 92C3 D544      042C4        2011          MVI   VARBL3,C'C'         SET TO PASS                          07430007
 000E00 D204 D4DA D4AC 0425A 0422C  2012          MVC   PREDOUT,=C'TRUE '                                        07440007
 000E06 D207 D4BE D168 0423E 03EE8  2013          MVC   TESTNBR,=C'TEST080C'                                     07450007
                                    2014 *                                                                       07460007
                                    2015 TEST080C IF    (CLI,VARBL1,C'A',E),AND,                                C07470007
                                                        ((CLI,VARBL2,C'B',E),OR,(CLI,VARBL3,C'C',E))             07480007
 000E0C 95C1 D542      042C2        2017+TEST080C CLI   VARBL1,C'A'         TWO OPERANDS                         01-IF
 000E10 A774 000F            00E2E  2020+         JNE   $MDF140             FALSE RESULT - POSSIBLE FAIL         01-IF
 000E14 95C2 D543      042C3        2025+         CLI   VARBL2,C'B'         TWO OPERANDS                         02-IF2
 000E18 A784 0006            00E24  2028+         JE    $MDT141             TRUE RESULT - POSSIBLE PASS          02-IF2
 000E1C 95C3 D544      042C4        2030+         CLI   VARBL3,C'C'         TWO OPERANDS                         02-IF2
 000E20 A774 0007            00E2E  2036+         JNE   $MDF140             BRANCH IF CC INDICATES FAIL          01-IF
 000E24                             2037+$MDT141  DC    0H'0'               END RESULT WAS PASS - DO THE EXECUTE 01-IF
 000E24 D204 D4F1 D4AC 04271 0422C  2038            MVC   ACTOUT,=C'TRUE '                                       07490007
                                    2039          ELSE                                                           07500007
 000E2A A7F4 0005            00E34  2041+         J     $FINI142                                                 01-ELSE
 000E2E                             2042+$MDF140  DC    0H'0'                                                    01-ELSE
 000E2E D204 D4F1 D4B1 04271 04231  2043            MVC   ACTOUT,=C'FALSE'                                       07510007
                                    2044          ENDIF                                                          07520007
 000E34                             2046+$FINI142 DC    0H'0'                                                    01-ENDIF
                                    2047          IF    (CLC,PREDOUT,ACTOUT,NE)                                  07530007
 000E34 D504 D4DA D4F1 0425A 04271  2049+         CLC   PREDOUT,ACTOUT      TWO OPERANDS                         01-IF
 000E3A A784 0005            00E44  2053+         JE    $NEXT143            BRANCH IF CC INDICATES FAIL          01-IF
 000E3E D209 D4F7 D498 04277 04218  2054            MVC   ERROR,=C'<=== ERROR'                                   07540007
                                    2055          ENDIF                                                          07550007
 000E44                             2057+$NEXT143 DC    0H'0'                                                    01-ENDIF
                                    2058          PUT   SYSPRINT,OUTPUT                                          07560007
 000E44 4110 D548            042C8  2062+         LA    1,SYSPRINT                        LOAD PARAMETER REG 1   02-IHBIN
 000E48 4100 D4BD            0423D  2063+         LA    0,OUTPUT                          LOAD PARAMETER REG 0   02-IHBIN
 000E4C 1FFF                        2064+         SLR   15,15               CLEAR REGISTER FOR ICM          @L1A 01-PUT
 000E4E BFF7 1031            00031  2065+         ICM   15,7,49(1)          LOAD PUT ROUTINE ADDRESS        @L1C 01-PUT
 000E52 0DEF                        2066+         BASR  14,15               LINK TO PUT ROUTINE             @L3C 01-PUT
 000E54 D209 D4F7 D4A2 04277 04222  2067          MVC   ERROR,=CL10' '                                           07570007
                                    2068 *=*=*=*=*=*=*=*=*=*=*=*=*=*=*=*=*=*=*=*=*=*=*=*=*=*=*=*=*=*=*=*=*=*=*=* 07580007
 000E5A 92E9 D542      042C2        2069          MVI   VARBL1,C'Z'         SET TO FAIL                          07590007
 000E5E 92E9 D543      042C3        2070          MVI   VARBL2,C'Z'         SET TO FAIL                          07600007
 000E62 92C3 D544      042C4        2071          MVI   VARBL3,C'C'         SET TO PASS                          07610007
 000E66 D204 D4DA D4B1 0425A 04231  2072          MVC   PREDOUT,=C'FALSE'                                        07620007
 000E6C D207 D4BE D170 0423E 03EF0  2073          MVC   TESTNBR,=C'TEST080D'                                     07630007
                                    2074 *                                                                       07640007
                                    2075 TEST080D IF    (CLI,VARBL1,C'A',E),AND,                                C07650007
1IFTEST   EXAMPLES OF "IF" LOGIC MACRO INSTRUCTIONS                                                             Page   29
   Active Usings: IFTEST+X'B2A',R12  $$WA$$,R13
0  Loc  Object Code    Addr1 Addr2  Stmt   Source Statement                                  HLASM R6.0  2021/03/26 12.00
0                                                       ((CLI,VARBL2,C'B',E),OR,(CLI,VARBL3,C'C',E))             07660007
 000E72 95C1 D542      042C2        2077+TEST080D CLI   VARBL1,C'A'         TWO OPERANDS                         01-IF
 000E76 A774 000F            00E94  2080+         JNE   $MDF144             FALSE RESULT - POSSIBLE FAIL         01-IF
 000E7A 95C2 D543      042C3        2085+         CLI   VARBL2,C'B'         TWO OPERANDS                         02-IF2
 000E7E A784 0006            00E8A  2088+         JE    $MDT145             TRUE RESULT - POSSIBLE PASS          02-IF2
 000E82 95C3 D544      042C4        2090+         CLI   VARBL3,C'C'         TWO OPERANDS                         02-IF2
 000E86 A774 0007            00E94  2096+         JNE   $MDF144             BRANCH IF CC INDICATES FAIL          01-IF
 000E8A                             2097+$MDT145  DC    0H'0'               END RESULT WAS PASS - DO THE EXECUTE 01-IF
 000E8A D204 D4F1 D4AC 04271 0422C  2098            MVC   ACTOUT,=C'TRUE '                                       07670007
                                    2099          ELSE                                                           07680007
 000E90 A7F4 0005            00E9A  2101+         J     $FINI146                                                 01-ELSE
 000E94                             2102+$MDF144  DC    0H'0'                                                    01-ELSE
 000E94 D204 D4F1 D4B1 04271 04231  2103            MVC   ACTOUT,=C'FALSE'                                       07690007
                                    2104          ENDIF                                                          07700007
 000E9A                             2106+$FINI146 DC    0H'0'                                                    01-ENDIF
                                    2107          IF    (CLC,PREDOUT,ACTOUT,NE)                                  07710007
 000E9A D504 D4DA D4F1 0425A 04271  2109+         CLC   PREDOUT,ACTOUT      TWO OPERANDS                         01-IF
 000EA0 A784 0005            00EAA  2113+         JE    $NEXT147            BRANCH IF CC INDICATES FAIL          01-IF
 000EA4 D209 D4F7 D498 04277 04218  2114            MVC   ERROR,=C'<=== ERROR'                                   07720007
                                    2115          ENDIF                                                          07730007
 000EAA                             2117+$NEXT147 DC    0H'0'                                                    01-ENDIF
                                    2118          PUT   SYSPRINT,OUTPUT                                          07740007
 000EAA 4110 D548            042C8  2122+         LA    1,SYSPRINT                        LOAD PARAMETER REG 1   02-IHBIN
 000EAE 4100 D4BD            0423D  2123+         LA    0,OUTPUT                          LOAD PARAMETER REG 0   02-IHBIN
 000EB2 1FFF                        2124+         SLR   15,15               CLEAR REGISTER FOR ICM          @L1A 01-PUT
 000EB4 BFF7 1031            00031  2125+         ICM   15,7,49(1)          LOAD PUT ROUTINE ADDRESS        @L1C 01-PUT
 000EB8 0DEF                        2126+         BASR  14,15               LINK TO PUT ROUTINE             @L3C 01-PUT
 000EBA D209 D4F7 D4A2 04277 04222  2127          MVC   ERROR,=CL10' '                                           07750007
                                    2128 *=*=*=*=*=*=*=*=*=*=*=*=*=*=*=*=*=*=*=*=*=*=*=*=*=*=*=*=*=*=*=*=*=*=*=* 07760007
 000EC0 92C1 D542      042C2        2129          MVI   VARBL1,C'A'         SET TO PASS                          07770007
 000EC4 92C2 D543      042C3        2130          MVI   VARBL2,C'B'         SET TO PASS                          07780007
 000EC8 92E9 D544      042C4        2131          MVI   VARBL3,C'Z'         SET TO FAIL                          07790007
 000ECC D204 D4DA D4AC 0425A 0422C  2132          MVC   PREDOUT,=C'TRUE '                                        07800007
 000ED2 D207 D4BE D178 0423E 03EF8  2133          MVC   TESTNBR,=C'TEST080E'                                     07810007
                                    2134 *                                                                       07820007
                                    2135 TEST080E IF    (CLI,VARBL1,C'A',E),AND,                                C07830007
                                                        ((CLI,VARBL2,C'B',E),OR,(CLI,VARBL3,C'C',E))             07840007
 000ED8 95C1 D542      042C2        2137+TEST080E CLI   VARBL1,C'A'         TWO OPERANDS                         01-IF
 000EDC A774 000F            00EFA  2140+         JNE   $MDF148             FALSE RESULT - POSSIBLE FAIL         01-IF
 000EE0 95C2 D543      042C3        2145+         CLI   VARBL2,C'B'         TWO OPERANDS                         02-IF2
 000EE4 A784 0006            00EF0  2148+         JE    $MDT149             TRUE RESULT - POSSIBLE PASS          02-IF2
 000EE8 95C3 D544      042C4        2150+         CLI   VARBL3,C'C'         TWO OPERANDS                         02-IF2
 000EEC A774 0007            00EFA  2156+         JNE   $MDF148             BRANCH IF CC INDICATES FAIL          01-IF
 000EF0                             2157+$MDT149  DC    0H'0'               END RESULT WAS PASS - DO THE EXECUTE 01-IF
 000EF0 D204 D4F1 D4AC 04271 0422C  2158            MVC   ACTOUT,=C'TRUE '                                       07850007
                                    2159          ELSE                                                           07860007
 000EF6 A7F4 0005            00F00  2161+         J     $FINI150                                                 01-ELSE
 000EFA                             2162+$MDF148  DC    0H'0'                                                    01-ELSE
 000EFA D204 D4F1 D4B1 04271 04231  2163            MVC   ACTOUT,=C'FALSE'                                       07870007
                                    2164          ENDIF                                                          07880007
 000F00                             2166+$FINI150 DC    0H'0'                                                    01-ENDIF
                                    2167          IF    (CLC,PREDOUT,ACTOUT,NE)                                  07890007
 000F00 D504 D4DA D4F1 0425A 04271  2169+         CLC   PREDOUT,ACTOUT      TWO OPERANDS                         01-IF
 000F06 A784 0005            00F10  2173+         JE    $NEXT151            BRANCH IF CC INDICATES FAIL          01-IF
 000F0A D209 D4F7 D498 04277 04218  2174            MVC   ERROR,=C'<=== ERROR'                                   07900007
1IFTEST   EXAMPLES OF "IF" LOGIC MACRO INSTRUCTIONS                                                             Page   30
   Active Usings: IFTEST+X'B2A',R12  $$WA$$,R13
0  Loc  Object Code    Addr1 Addr2  Stmt   Source Statement                                  HLASM R6.0  2021/03/26 12.00
0                                   2175          ENDIF                                                          07910007
 000F10                             2177+$NEXT151 DC    0H'0'                                                    01-ENDIF
                                    2178          PUT   SYSPRINT,OUTPUT                                          07920007
 000F10 4110 D548            042C8  2182+         LA    1,SYSPRINT                        LOAD PARAMETER REG 1   02-IHBIN
 000F14 4100 D4BD            0423D  2183+         LA    0,OUTPUT                          LOAD PARAMETER REG 0   02-IHBIN
 000F18 1FFF                        2184+         SLR   15,15               CLEAR REGISTER FOR ICM          @L1A 01-PUT
 000F1A BFF7 1031            00031  2185+         ICM   15,7,49(1)          LOAD PUT ROUTINE ADDRESS        @L1C 01-PUT
 000F1E 0DEF                        2186+         BASR  14,15               LINK TO PUT ROUTINE             @L3C 01-PUT
 000F20 D209 D4F7 D4A2 04277 04222  2187          MVC   ERROR,=CL10' '                                           07930007
                                    2188 *=*=*=*=*=*=*=*=*=*=*=*=*=*=*=*=*=*=*=*=*=*=*=*=*=*=*=*=*=*=*=*=*=*=*=* 07940007
 000F26 92E9 D542      042C2        2189          MVI   VARBL1,C'Z'         SET TO FAIL                          07950007
 000F2A 92C2 D543      042C3        2190          MVI   VARBL2,C'B'         SET TO PASS                          07960007
 000F2E 92E9 D544      042C4        2191          MVI   VARBL3,C'Z'         SET TO FAIL                          07970007
 000F32 D204 D4DA D4B1 0425A 04231  2192          MVC   PREDOUT,=C'FALSE'                                        07980007
 000F38 D207 D4BE D180 0423E 03F00  2193          MVC   TESTNBR,=C'TEST080F'                                     07990007
                                    2194 *                                                                       08000007
                                    2195 TEST080F IF    (CLI,VARBL1,C'A',E),AND,                                C08010007
                                                        ((CLI,VARBL2,C'B',E),OR,(CLI,VARBL3,C'C',E))             08020007
 000F3E 95C1 D542      042C2        2197+TEST080F CLI   VARBL1,C'A'         TWO OPERANDS                         01-IF
 000F42 A774 000F            00F60  2200+         JNE   $MDF152             FALSE RESULT - POSSIBLE FAIL         01-IF
 000F46 95C2 D543      042C3        2205+         CLI   VARBL2,C'B'         TWO OPERANDS                         02-IF2
 000F4A A784 0006            00F56  2208+         JE    $MDT153             TRUE RESULT - POSSIBLE PASS          02-IF2
 000F4E 95C3 D544      042C4        2210+         CLI   VARBL3,C'C'         TWO OPERANDS                         02-IF2
 000F52 A774 0007            00F60  2216+         JNE   $MDF152             BRANCH IF CC INDICATES FAIL          01-IF
 000F56                             2217+$MDT153  DC    0H'0'               END RESULT WAS PASS - DO THE EXECUTE 01-IF
 000F56 D204 D4F1 D4AC 04271 0422C  2218            MVC   ACTOUT,=C'TRUE '                                       08030007
                                    2219          ELSE                                                           08040007
 000F5C A7F4 0005            00F66  2221+         J     $FINI154                                                 01-ELSE
 000F60                             2222+$MDF152  DC    0H'0'                                                    01-ELSE
 000F60 D204 D4F1 D4B1 04271 04231  2223            MVC   ACTOUT,=C'FALSE'                                       08050007
                                    2224          ENDIF                                                          08060007
 000F66                             2226+$FINI154 DC    0H'0'                                                    01-ENDIF
                                    2227          IF    (CLC,PREDOUT,ACTOUT,NE)                                  08070007
 000F66 D504 D4DA D4F1 0425A 04271  2229+         CLC   PREDOUT,ACTOUT      TWO OPERANDS                         01-IF
 000F6C A784 0005            00F76  2233+         JE    $NEXT155            BRANCH IF CC INDICATES FAIL          01-IF
 000F70 D209 D4F7 D498 04277 04218  2234            MVC   ERROR,=C'<=== ERROR'                                   08080007
                                    2235          ENDIF                                                          08090007
 000F76                             2237+$NEXT155 DC    0H'0'                                                    01-ENDIF
                                    2238          PUT   SYSPRINT,OUTPUT                                          08100007
 000F76 4110 D548            042C8  2242+         LA    1,SYSPRINT                        LOAD PARAMETER REG 1   02-IHBIN
 000F7A 4100 D4BD            0423D  2243+         LA    0,OUTPUT                          LOAD PARAMETER REG 0   02-IHBIN
 000F7E 1FFF                        2244+         SLR   15,15               CLEAR REGISTER FOR ICM          @L1A 01-PUT
 000F80 BFF7 1031            00031  2245+         ICM   15,7,49(1)          LOAD PUT ROUTINE ADDRESS        @L1C 01-PUT
 000F84 0DEF                        2246+         BASR  14,15               LINK TO PUT ROUTINE             @L3C 01-PUT
 000F86 D209 D4F7 D4A2 04277 04222  2247          MVC   ERROR,=CL10' '                                           08110007
                                    2248 *=*=*=*=*=*=*=*=*=*=*=*=*=*=*=*=*=*=*=*=*=*=*=*=*=*=*=*=*=*=*=*=*=*=*=* 08120007
 000F8C 92C1 D542      042C2        2249          MVI   VARBL1,C'A'         SET TO PASS                          08130007
 000F90 92E9 D543      042C3        2250          MVI   VARBL2,C'Z'         SET TO FAIL                          08140007
 000F94 92E9 D544      042C4        2251          MVI   VARBL3,C'Z'         SET TO FAIL                          08150007
 000F98 D204 D4DA D4B1 0425A 04231  2252          MVC   PREDOUT,=C'FALSE'                                        08160007
 000F9E D207 D4BE D188 0423E 03F08  2253          MVC   TESTNBR,=C'TEST080G'                                     08170007
                                    2254 *                                                                       08180007
                                    2255 TEST080G IF    (CLI,VARBL1,C'A',E),AND,                                C08190007
                                                        ((CLI,VARBL2,C'B',E),OR,(CLI,VARBL3,C'C',E))             08200007
 000FA4 95C1 D542      042C2        2257+TEST080G CLI   VARBL1,C'A'         TWO OPERANDS                         01-IF
1IFTEST   EXAMPLES OF "IF" LOGIC MACRO INSTRUCTIONS                                                             Page   31
   Active Usings: IFTEST+X'B2A',R12  $$WA$$,R13
0  Loc  Object Code    Addr1 Addr2  Stmt   Source Statement                                  HLASM R6.0  2021/03/26 12.00
0000FA8 A774 000F            00FC6  2260+         JNE   $MDF156             FALSE RESULT - POSSIBLE FAIL         01-IF
 000FAC 95C2 D543      042C3        2265+         CLI   VARBL2,C'B'         TWO OPERANDS                         02-IF2
 000FB0 A784 0006            00FBC  2268+         JE    $MDT157             TRUE RESULT - POSSIBLE PASS          02-IF2
 000FB4 95C3 D544      042C4        2270+         CLI   VARBL3,C'C'         TWO OPERANDS                         02-IF2
 000FB8 A774 0007            00FC6  2276+         JNE   $MDF156             BRANCH IF CC INDICATES FAIL          01-IF
 000FBC                             2277+$MDT157  DC    0H'0'               END RESULT WAS PASS - DO THE EXECUTE 01-IF
 000FBC D204 D4F1 D4AC 04271 0422C  2278            MVC   ACTOUT,=C'TRUE '                                       08210007
                                    2279          ELSE                                                           08220007
 000FC2 A7F4 0005            00FCC  2281+         J     $FINI158                                                 01-ELSE
 000FC6                             2282+$MDF156  DC    0H'0'                                                    01-ELSE
 000FC6 D204 D4F1 D4B1 04271 04231  2283            MVC   ACTOUT,=C'FALSE'                                       08230007
                                    2284          ENDIF                                                          08240007
 000FCC                             2286+$FINI158 DC    0H'0'                                                    01-ENDIF
                                    2287          IF    (CLC,PREDOUT,ACTOUT,NE)                                  08250007
 000FCC D504 D4DA D4F1 0425A 04271  2289+         CLC   PREDOUT,ACTOUT      TWO OPERANDS                         01-IF
 000FD2 A784 0005            00FDC  2293+         JE    $NEXT159            BRANCH IF CC INDICATES FAIL          01-IF
 000FD6 D209 D4F7 D498 04277 04218  2294            MVC   ERROR,=C'<=== ERROR'                                   08260007
                                    2295          ENDIF                                                          08270007
 000FDC                             2297+$NEXT159 DC    0H'0'                                                    01-ENDIF
                                    2298          PUT   SYSPRINT,OUTPUT                                          08280007
 000FDC 4110 D548            042C8  2302+         LA    1,SYSPRINT                        LOAD PARAMETER REG 1   02-IHBIN
 000FE0 4100 D4BD            0423D  2303+         LA    0,OUTPUT                          LOAD PARAMETER REG 0   02-IHBIN
 000FE4 1FFF                        2304+         SLR   15,15               CLEAR REGISTER FOR ICM          @L1A 01-PUT
 000FE6 BFF7 1031            00031  2305+         ICM   15,7,49(1)          LOAD PUT ROUTINE ADDRESS        @L1C 01-PUT
 000FEA 0DEF                        2306+         BASR  14,15               LINK TO PUT ROUTINE             @L3C 01-PUT
 000FEC D209 D4F7 D4A2 04277 04222  2307          MVC   ERROR,=CL10' '                                           08290007
                                    2308 *=*=*=*=*=*=*=*=*=*=*=*=*=*=*=*=*=*=*=*=*=*=*=*=*=*=*=*=*=*=*=*=*=*=*=* 08300007
 000FF2 92E9 D542      042C2        2309          MVI   VARBL1,C'Z'         SET TO FAIL                          08310007
 000FF6 92E9 D543      042C3        2310          MVI   VARBL2,C'Z'         SET TO FAIL                          08320007
 000FFA 92E9 D544      042C4        2311          MVI   VARBL3,C'Z'         SET TO FAIL                          08330007
 000FFE D204 D4DA D4B1 0425A 04231  2312          MVC   PREDOUT,=C'FALSE'                                        08340007
 001004 D207 D4BE D190 0423E 03F10  2313          MVC   TESTNBR,=C'TEST080H'                                     08350007
                                    2314 *                                                                       08360007
                                    2315 TEST080H IF    (CLI,VARBL1,C'A',E),AND,                                C08370007
                                                        ((CLI,VARBL2,C'B',E),OR,(CLI,VARBL3,C'C',E))             08380007
 00100A 95C1 D542      042C2        2317+TEST080H CLI   VARBL1,C'A'         TWO OPERANDS                         01-IF
 00100E A774 000F            0102C  2320+         JNE   $MDF160             FALSE RESULT - POSSIBLE FAIL         01-IF
 001012 95C2 D543      042C3        2325+         CLI   VARBL2,C'B'         TWO OPERANDS                         02-IF2
 001016 A784 0006            01022  2328+         JE    $MDT161             TRUE RESULT - POSSIBLE PASS          02-IF2
 00101A 95C3 D544      042C4        2330+         CLI   VARBL3,C'C'         TWO OPERANDS                         02-IF2
 00101E A774 0007            0102C  2336+         JNE   $MDF160             BRANCH IF CC INDICATES FAIL          01-IF
 001022                             2337+$MDT161  DC    0H'0'               END RESULT WAS PASS - DO THE EXECUTE 01-IF
 001022 D204 D4F1 D4AC 04271 0422C  2338            MVC   ACTOUT,=C'TRUE '                                       08390007
                                    2339          ELSE                                                           08400007
 001028 A7F4 0005            01032  2341+         J     $FINI162                                                 01-ELSE
 00102C                             2342+$MDF160  DC    0H'0'                                                    01-ELSE
 00102C D204 D4F1 D4B1 04271 04231  2343            MVC   ACTOUT,=C'FALSE'                                       08410007
                                    2344          ENDIF                                                          08420007
 001032                             2346+$FINI162 DC    0H'0'                                                    01-ENDIF
                                    2347          IF    (CLC,PREDOUT,ACTOUT,NE)                                  08430007
 001032 D504 D4DA D4F1 0425A 04271  2349+         CLC   PREDOUT,ACTOUT      TWO OPERANDS                         01-IF
 001038 A784 0005            01042  2353+         JE    $NEXT163            BRANCH IF CC INDICATES FAIL          01-IF
 00103C D209 D4F7 D498 04277 04218  2354            MVC   ERROR,=C'<=== ERROR'                                   08440007
                                    2355          ENDIF                                                          08450007
 001042                             2357+$NEXT163 DC    0H'0'                                                    01-ENDIF
1IFTEST   EXAMPLES OF "IF" LOGIC MACRO INSTRUCTIONS                                                             Page   32
   Active Usings: IFTEST+X'B2A',R12  $$WA$$,R13
0  Loc  Object Code    Addr1 Addr2  Stmt   Source Statement                                  HLASM R6.0  2021/03/26 12.00
0                                   2358          PUT   SYSPRINT,OUTPUT                                          08460007
 001042 4110 D548            042C8  2362+         LA    1,SYSPRINT                        LOAD PARAMETER REG 1   02-IHBIN
 001046 4100 D4BD            0423D  2363+         LA    0,OUTPUT                          LOAD PARAMETER REG 0   02-IHBIN
 00104A 1FFF                        2364+         SLR   15,15               CLEAR REGISTER FOR ICM          @L1A 01-PUT
 00104C BFF7 1031            00031  2365+         ICM   15,7,49(1)          LOAD PUT ROUTINE ADDRESS        @L1C 01-PUT
 001050 0DEF                        2366+         BASR  14,15               LINK TO PUT ROUTINE             @L3C 01-PUT
 001052 D209 D4F7 D4A2 04277 04222  2367          MVC   ERROR,=CL10' '                                           08470007
                                    2368 *                                                                       08480007
                                    2369 *=*=*=*=*=*=*=*=*=*=*=*=*=*=*=*=*=*=*=*=*=*=*=*=*=*=*=*=*=*=*=*=*=*=*=* 08490007
                                    2370 *                                                                     * 08500007
                                    2371 * IF (A) AND (B) OR (C) AND (D)                                       * 08510007
                                    2372 *                                                                     * 08520007
                                    2373 *=*=*=*=*=*=*=*=*=*=*=*=*=*=*=*=*=*=*=*=*=*=*=*=*=*=*=*=*=*=*=*=*=*=*=* 08530007
                                    2374 *                                                                       08540007
 001058 05C0                        2375          BALR  R12,0                                                    08550016
                  R:C  0105A        2376          USING *,R12                                                    08560016
 00105A 92C1 D542      042C2        2377          MVI   VARBL1,C'A'         SET TO PASS                          08570007
 00105E 41F0 0000            00000  2378          LA    R15,0               SET TO PASS                          08580007
 001062 9200 D544      042C4        2379          MVI   VARBL3,X'00'        SET TO PASS                          08590007
 001066 F230 D4B9 D4B6 04239 04236  2380          PACK  PACK1,=Z'1'         SET TO PASS                          08600007
 00106C D204 D4DA D4AC 0425A 0422C  2381          MVC   PREDOUT,=C'TRUE '                                        08610007
 001072 D207 D4BE D198 0423E 03F18  2382          MVC   TESTNBR,=C'TEST090A'                                     08620007
                                    2383 *                                                                       08630007
                                    2384 TEST090A IF    (CLI,VARBL1,C'A',E),AND,(LTR,R15,R15,Z),OR,             C08640007
                                                        (TM,VARBL3,X'01',Z),AND,(SP,PACK1,=P'1',Z)               08650007
 001078 95C1 D542      042C2        2386+TEST090A CLI   VARBL1,C'A'         TWO OPERANDS                         01-IF
 00107C A774 0005            01086  2389+         JNE   $MDF164             FALSE RESULT - POSSIBLE FAIL         01-IF
 001080 12FF                        2391+         LTR   R15,R15             TWO OPERANDS                         01-IF
 001082 A784 000B            01098  2394+         JZ    $MDT165             TRUE RESULT - POSSIBLE PASS          01-IF
 001086 9101 D544      042C4        2396+$MDF164  TM    VARBL3,X'01'        TWO OPERANDS                         01-IF
 00108A A774 000C            010A2  2399+         JNZ   $MDF166             FALSE RESULT - POSSIBLE FAIL         01-IF
 00108E FB30 D4B9 D4B7 04239 04237  2401+         SP    PACK1,=P'1'         TWO OPERANDS                         01-IF
 001094 A774 0007            010A2  2405+         JNZ   $MDF166             BRANCH IF CC INDICATES FAIL          01-IF
 001098                             2406+$MDT165  DC    0H'0'               END RESULT WAS PASS - DO THE EXECUTE 01-IF
 001098 D204 D4F1 D4AC 04271 0422C  2407            MVC   ACTOUT,=C'TRUE '                                       08660007
                                    2408          ELSE                                                           08670007
 00109E A7F4 0005            010A8  2410+         J     $FINI167                                                 01-ELSE
 0010A2                             2411+$MDF166  DC    0H'0'                                                    01-ELSE
 0010A2 D204 D4F1 D4B1 04271 04231  2412            MVC   ACTOUT,=C'FALSE'                                       08680007
                                    2413          ENDIF                                                          08690007
 0010A8                             2415+$FINI167 DC    0H'0'                                                    01-ENDIF
                                    2416          IF    (CLC,PREDOUT,ACTOUT,NE)                                  08700007
 0010A8 D504 D4DA D4F1 0425A 04271  2418+         CLC   PREDOUT,ACTOUT      TWO OPERANDS                         01-IF
 0010AE A784 0005            010B8  2422+         JE    $NEXT168            BRANCH IF CC INDICATES FAIL          01-IF
 0010B2 D209 D4F7 D498 04277 04218  2423            MVC   ERROR,=C'<=== ERROR'                                   08710007
                                    2424          ENDIF                                                          08720007
 0010B8                             2426+$NEXT168 DC    0H'0'                                                    01-ENDIF
                                    2427          PUT   SYSPRINT,OUTPUT                                          08730007
 0010B8 4110 D548            042C8  2431+         LA    1,SYSPRINT                        LOAD PARAMETER REG 1   02-IHBIN
 0010BC 4100 D4BD            0423D  2432+         LA    0,OUTPUT                          LOAD PARAMETER REG 0   02-IHBIN
 0010C0 1FFF                        2433+         SLR   15,15               CLEAR REGISTER FOR ICM          @L1A 01-PUT
 0010C2 BFF7 1031            00031  2434+         ICM   15,7,49(1)          LOAD PUT ROUTINE ADDRESS        @L1C 01-PUT
 0010C6 0DEF                        2435+         BASR  14,15               LINK TO PUT ROUTINE             @L3C 01-PUT
 0010C8 D209 D4F7 D4A2 04277 04222  2436          MVC   ERROR,=CL10' '                                           08740007
                                    2437 *=*=*=*=*=*=*=*=*=*=*=*=*=*=*=*=*=*=*=*=*=*=*=*=*=*=*=*=*=*=*=*=*=*=*=* 08750007
1IFTEST   EXAMPLES OF "IF" LOGIC MACRO INSTRUCTIONS                                                             Page   33
   Active Usings: IFTEST+X'105A',R12  $$WA$$,R13
0  Loc  Object Code    Addr1 Addr2  Stmt   Source Statement                                  HLASM R6.0  2021/03/26 12.00
00010CE 92E9 D542      042C2        2438          MVI   VARBL1,C'Z'         SET TO FAIL                          08760007
 0010D2 41F0 0000            00000  2439          LA    R15,0               SET TO PASS                          08770007
 0010D6 9200 D544      042C4        2440          MVI   VARBL3,X'00'        SET TO PASS                          08780007
 0010DA F230 D4B9 D4B6 04239 04236  2441          PACK  PACK1,=Z'1'         SET TO PASS                          08790007
 0010E0 D204 D4DA D4AC 0425A 0422C  2442          MVC   PREDOUT,=C'TRUE '                                        08800007
 0010E6 D207 D4BE D1A0 0423E 03F20  2443          MVC   TESTNBR,=C'TEST090B'                                     08810007
                                    2444 *                                                                       08820007
                                    2445 TEST090B IF    (CLI,VARBL1,C'A',E),AND,(LTR,R15,R15,Z),OR,             C08830007
                                                        (TM,VARBL3,X'01',Z),AND,(SP,PACK1,=P'1',Z)               08840007
 0010EC 95C1 D542      042C2        2447+TEST090B CLI   VARBL1,C'A'         TWO OPERANDS                         01-IF
 0010F0 A774 0005            010FA  2450+         JNE   $MDF169             FALSE RESULT - POSSIBLE FAIL         01-IF
 0010F4 12FF                        2452+         LTR   R15,R15             TWO OPERANDS                         01-IF
 0010F6 A784 000B            0110C  2455+         JZ    $MDT170             TRUE RESULT - POSSIBLE PASS          01-IF
 0010FA 9101 D544      042C4        2457+$MDF169  TM    VARBL3,X'01'        TWO OPERANDS                         01-IF
 0010FE A774 000C            01116  2460+         JNZ   $MDF171             FALSE RESULT - POSSIBLE FAIL         01-IF
 001102 FB30 D4B9 D4B7 04239 04237  2462+         SP    PACK1,=P'1'         TWO OPERANDS                         01-IF
 001108 A774 0007            01116  2466+         JNZ   $MDF171             BRANCH IF CC INDICATES FAIL          01-IF
 00110C                             2467+$MDT170  DC    0H'0'               END RESULT WAS PASS - DO THE EXECUTE 01-IF
 00110C D204 D4F1 D4AC 04271 0422C  2468            MVC   ACTOUT,=C'TRUE '                                       08850007
                                    2469          ELSE                                                           08860007
 001112 A7F4 0005            0111C  2471+         J     $FINI172                                                 01-ELSE
 001116                             2472+$MDF171  DC    0H'0'                                                    01-ELSE
 001116 D204 D4F1 D4B1 04271 04231  2473            MVC   ACTOUT,=C'FALSE'                                       08870007
                                    2474          ENDIF                                                          08880007
 00111C                             2476+$FINI172 DC    0H'0'                                                    01-ENDIF
                                    2477          IF    (CLC,PREDOUT,ACTOUT,NE)                                  08890007
 00111C D504 D4DA D4F1 0425A 04271  2479+         CLC   PREDOUT,ACTOUT      TWO OPERANDS                         01-IF
 001122 A784 0005            0112C  2483+         JE    $NEXT173            BRANCH IF CC INDICATES FAIL          01-IF
 001126 D209 D4F7 D498 04277 04218  2484            MVC   ERROR,=C'<=== ERROR'                                   08900007
                                    2485          ENDIF                                                          08910007
 00112C                             2487+$NEXT173 DC    0H'0'                                                    01-ENDIF
                                    2488          PUT   SYSPRINT,OUTPUT                                          08920007
 00112C 4110 D548            042C8  2492+         LA    1,SYSPRINT                        LOAD PARAMETER REG 1   02-IHBIN
 001130 4100 D4BD            0423D  2493+         LA    0,OUTPUT                          LOAD PARAMETER REG 0   02-IHBIN
 001134 1FFF                        2494+         SLR   15,15               CLEAR REGISTER FOR ICM          @L1A 01-PUT
 001136 BFF7 1031            00031  2495+         ICM   15,7,49(1)          LOAD PUT ROUTINE ADDRESS        @L1C 01-PUT
 00113A 0DEF                        2496+         BASR  14,15               LINK TO PUT ROUTINE             @L3C 01-PUT
 00113C D209 D4F7 D4A2 04277 04222  2497          MVC   ERROR,=CL10' '                                           08930007
                                    2498 *=*=*=*=*=*=*=*=*=*=*=*=*=*=*=*=*=*=*=*=*=*=*=*=*=*=*=*=*=*=*=*=*=*=*=* 08940007
 001142 92C1 D542      042C2        2499          MVI   VARBL1,C'A'         SET TO PASS                          08950007
 001146 41F0 0004            00004  2500          LA    R15,4               SET TO FAIL                          08960007
 00114A 9200 D544      042C4        2501          MVI   VARBL3,X'00'        SET TO PASS                          08970007
 00114E F230 D4B9 D4B6 04239 04236  2502          PACK  PACK1,=Z'1'         SET TO PASS                          08980007
 001154 D204 D4DA D4AC 0425A 0422C  2503          MVC   PREDOUT,=C'TRUE '                                        08990007
 00115A D207 D4BE D1A8 0423E 03F28  2504          MVC   TESTNBR,=C'TEST090C'                                     09000007
                                    2505 *                                                                       09010007
                                    2506 TEST090C IF    (CLI,VARBL1,C'A',E),AND,(LTR,R15,R15,Z),OR,             C09020007
                                                        (TM,VARBL3,X'01',Z),AND,(SP,PACK1,=P'1',Z)               09030007
 001160 95C1 D542      042C2        2508+TEST090C CLI   VARBL1,C'A'         TWO OPERANDS                         01-IF
 001164 A774 0005            0116E  2511+         JNE   $MDF174             FALSE RESULT - POSSIBLE FAIL         01-IF
 001168 12FF                        2513+         LTR   R15,R15             TWO OPERANDS                         01-IF
 00116A A784 000B            01180  2516+         JZ    $MDT175             TRUE RESULT - POSSIBLE PASS          01-IF
 00116E 9101 D544      042C4        2518+$MDF174  TM    VARBL3,X'01'        TWO OPERANDS                         01-IF
 001172 A774 000C            0118A  2521+         JNZ   $MDF176             FALSE RESULT - POSSIBLE FAIL         01-IF
 001176 FB30 D4B9 D4B7 04239 04237  2523+         SP    PACK1,=P'1'         TWO OPERANDS                         01-IF
1IFTEST   EXAMPLES OF "IF" LOGIC MACRO INSTRUCTIONS                                                             Page   34
   Active Usings: IFTEST+X'105A',R12  $$WA$$,R13
0  Loc  Object Code    Addr1 Addr2  Stmt   Source Statement                                  HLASM R6.0  2021/03/26 12.00
000117C A774 0007            0118A  2527+         JNZ   $MDF176             BRANCH IF CC INDICATES FAIL          01-IF
 001180                             2528+$MDT175  DC    0H'0'               END RESULT WAS PASS - DO THE EXECUTE 01-IF
 001180 D204 D4F1 D4AC 04271 0422C  2529            MVC   ACTOUT,=C'TRUE '                                       09040007
                                    2530          ELSE                                                           09050007
 001186 A7F4 0005            01190  2532+         J     $FINI177                                                 01-ELSE
 00118A                             2533+$MDF176  DC    0H'0'                                                    01-ELSE
 00118A D204 D4F1 D4B1 04271 04231  2534            MVC   ACTOUT,=C'FALSE'                                       09060007
                                    2535          ENDIF                                                          09070007
 001190                             2537+$FINI177 DC    0H'0'                                                    01-ENDIF
                                    2538          IF    (CLC,PREDOUT,ACTOUT,NE)                                  09080007
 001190 D504 D4DA D4F1 0425A 04271  2540+         CLC   PREDOUT,ACTOUT      TWO OPERANDS                         01-IF
 001196 A784 0005            011A0  2544+         JE    $NEXT178            BRANCH IF CC INDICATES FAIL          01-IF
 00119A D209 D4F7 D498 04277 04218  2545            MVC   ERROR,=C'<=== ERROR'                                   09090007
                                    2546          ENDIF                                                          09100007
 0011A0                             2548+$NEXT178 DC    0H'0'                                                    01-ENDIF
                                    2549          PUT   SYSPRINT,OUTPUT                                          09110007
 0011A0 4110 D548            042C8  2553+         LA    1,SYSPRINT                        LOAD PARAMETER REG 1   02-IHBIN
 0011A4 4100 D4BD            0423D  2554+         LA    0,OUTPUT                          LOAD PARAMETER REG 0   02-IHBIN
 0011A8 1FFF                        2555+         SLR   15,15               CLEAR REGISTER FOR ICM          @L1A 01-PUT
 0011AA BFF7 1031            00031  2556+         ICM   15,7,49(1)          LOAD PUT ROUTINE ADDRESS        @L1C 01-PUT
 0011AE 0DEF                        2557+         BASR  14,15               LINK TO PUT ROUTINE             @L3C 01-PUT
 0011B0 D209 D4F7 D4A2 04277 04222  2558          MVC   ERROR,=CL10' '                                           09120007
                                    2559 *=*=*=*=*=*=*=*=*=*=*=*=*=*=*=*=*=*=*=*=*=*=*=*=*=*=*=*=*=*=*=*=*=*=*=* 09130007
 0011B6 92E9 D542      042C2        2560          MVI   VARBL1,C'Z'         SET TO FAIL                          09140007
 0011BA 41F0 0004            00004  2561          LA    R15,4               SET TO FAIL                          09150007
 0011BE 9200 D544      042C4        2562          MVI   VARBL3,X'00'        SET TO PASS                          09160007
 0011C2 F230 D4B9 D4B6 04239 04236  2563          PACK  PACK1,=Z'1'         SET TO PASS                          09170007
 0011C8 D204 D4DA D4AC 0425A 0422C  2564          MVC   PREDOUT,=C'TRUE '                                        09180007
 0011CE D207 D4BE D1B0 0423E 03F30  2565          MVC   TESTNBR,=C'TEST090D'                                     09190007
                                    2566 *                                                                       09200007
                                    2567 TEST090D IF    (CLI,VARBL1,C'A',E),AND,(LTR,R15,R15,Z),OR,             C09210007
                                                        (TM,VARBL3,X'01',Z),AND,(SP,PACK1,=P'1',Z)               09220007
 0011D4 95C1 D542      042C2        2569+TEST090D CLI   VARBL1,C'A'         TWO OPERANDS                         01-IF
 0011D8 A774 0005            011E2  2572+         JNE   $MDF179             FALSE RESULT - POSSIBLE FAIL         01-IF
 0011DC 12FF                        2574+         LTR   R15,R15             TWO OPERANDS                         01-IF
 0011DE A784 000B            011F4  2577+         JZ    $MDT180             TRUE RESULT - POSSIBLE PASS          01-IF
 0011E2 9101 D544      042C4        2579+$MDF179  TM    VARBL3,X'01'        TWO OPERANDS                         01-IF
 0011E6 A774 000C            011FE  2582+         JNZ   $MDF181             FALSE RESULT - POSSIBLE FAIL         01-IF
 0011EA FB30 D4B9 D4B7 04239 04237  2584+         SP    PACK1,=P'1'         TWO OPERANDS                         01-IF
 0011F0 A774 0007            011FE  2588+         JNZ   $MDF181             BRANCH IF CC INDICATES FAIL          01-IF
 0011F4                             2589+$MDT180  DC    0H'0'               END RESULT WAS PASS - DO THE EXECUTE 01-IF
 0011F4 D204 D4F1 D4AC 04271 0422C  2590            MVC   ACTOUT,=C'TRUE '                                       09230007
                                    2591          ELSE                                                           09240007
 0011FA A7F4 0005            01204  2593+         J     $FINI182                                                 01-ELSE
 0011FE                             2594+$MDF181  DC    0H'0'                                                    01-ELSE
 0011FE D204 D4F1 D4B1 04271 04231  2595            MVC   ACTOUT,=C'FALSE'                                       09250007
                                    2596          ENDIF                                                          09260007
 001204                             2598+$FINI182 DC    0H'0'                                                    01-ENDIF
                                    2599          IF    (CLC,PREDOUT,ACTOUT,NE)                                  09270007
 001204 D504 D4DA D4F1 0425A 04271  2601+         CLC   PREDOUT,ACTOUT      TWO OPERANDS                         01-IF
 00120A A784 0005            01214  2605+         JE    $NEXT183            BRANCH IF CC INDICATES FAIL          01-IF
 00120E D209 D4F7 D498 04277 04218  2606            MVC   ERROR,=C'<=== ERROR'                                   09280007
                                    2607          ENDIF                                                          09290007
 001214                             2609+$NEXT183 DC    0H'0'                                                    01-ENDIF
                                    2610          PUT   SYSPRINT,OUTPUT                                          09300007
1IFTEST   EXAMPLES OF "IF" LOGIC MACRO INSTRUCTIONS                                                             Page   35
   Active Usings: IFTEST+X'105A',R12  $$WA$$,R13
0  Loc  Object Code    Addr1 Addr2  Stmt   Source Statement                                  HLASM R6.0  2021/03/26 12.00
0001214 4110 D548            042C8  2614+         LA    1,SYSPRINT                        LOAD PARAMETER REG 1   02-IHBIN
 001218 4100 D4BD            0423D  2615+         LA    0,OUTPUT                          LOAD PARAMETER REG 0   02-IHBIN
 00121C 1FFF                        2616+         SLR   15,15               CLEAR REGISTER FOR ICM          @L1A 01-PUT
 00121E BFF7 1031            00031  2617+         ICM   15,7,49(1)          LOAD PUT ROUTINE ADDRESS        @L1C 01-PUT
 001222 0DEF                        2618+         BASR  14,15               LINK TO PUT ROUTINE             @L3C 01-PUT
 001224 D209 D4F7 D4A2 04277 04222  2619          MVC   ERROR,=CL10' '                                           09310007
                                    2620 *=*=*=*=*=*=*=*=*=*=*=*=*=*=*=*=*=*=*=*=*=*=*=*=*=*=*=*=*=*=*=*=*=*=*=* 09320007
 00122A 92C1 D542      042C2        2621          MVI   VARBL1,C'A'         SET TO PASS                          09330007
 00122E 41F0 0000            00000  2622          LA    R15,0               SET TO PASS                          09340007
 001232 9201 D544      042C4        2623          MVI   VARBL3,X'01'        SET TO FAIL                          09350007
 001236 F230 D4B9 D4B6 04239 04236  2624          PACK  PACK1,=Z'1'         SET TO PASS                          09360007
 00123C D204 D4DA D4AC 0425A 0422C  2625          MVC   PREDOUT,=C'TRUE '                                        09370007
 001242 D207 D4BE D1B8 0423E 03F38  2626          MVC   TESTNBR,=C'TEST090E'                                     09380007
                                    2627 *                                                                       09390007
                                    2628 TEST090E IF    (CLI,VARBL1,C'A',E),AND,(LTR,R15,R15,Z),OR,             C09400007
                                                        (TM,VARBL3,X'01',Z),AND,(SP,PACK1,=P'1',Z)               09410007
 001248 95C1 D542      042C2        2630+TEST090E CLI   VARBL1,C'A'         TWO OPERANDS                         01-IF
 00124C A774 0005            01256  2633+         JNE   $MDF184             FALSE RESULT - POSSIBLE FAIL         01-IF
 001250 12FF                        2635+         LTR   R15,R15             TWO OPERANDS                         01-IF
 001252 A784 000B            01268  2638+         JZ    $MDT185             TRUE RESULT - POSSIBLE PASS          01-IF
 001256 9101 D544      042C4        2640+$MDF184  TM    VARBL3,X'01'        TWO OPERANDS                         01-IF
 00125A A774 000C            01272  2643+         JNZ   $MDF186             FALSE RESULT - POSSIBLE FAIL         01-IF
 00125E FB30 D4B9 D4B7 04239 04237  2645+         SP    PACK1,=P'1'         TWO OPERANDS                         01-IF
 001264 A774 0007            01272  2649+         JNZ   $MDF186             BRANCH IF CC INDICATES FAIL          01-IF
 001268                             2650+$MDT185  DC    0H'0'               END RESULT WAS PASS - DO THE EXECUTE 01-IF
 001268 D204 D4F1 D4AC 04271 0422C  2651            MVC   ACTOUT,=C'TRUE '                                       09420007
                                    2652          ELSE                                                           09430007
 00126E A7F4 0005            01278  2654+         J     $FINI187                                                 01-ELSE
 001272                             2655+$MDF186  DC    0H'0'                                                    01-ELSE
 001272 D204 D4F1 D4B1 04271 04231  2656            MVC   ACTOUT,=C'FALSE'                                       09440007
                                    2657          ENDIF                                                          09450007
 001278                             2659+$FINI187 DC    0H'0'                                                    01-ENDIF
                                    2660          IF    (CLC,PREDOUT,ACTOUT,NE)                                  09460007
 001278 D504 D4DA D4F1 0425A 04271  2662+         CLC   PREDOUT,ACTOUT      TWO OPERANDS                         01-IF
 00127E A784 0005            01288  2666+         JE    $NEXT188            BRANCH IF CC INDICATES FAIL          01-IF
 001282 D209 D4F7 D498 04277 04218  2667            MVC   ERROR,=C'<=== ERROR'                                   09470007
                                    2668          ENDIF                                                          09480007
 001288                             2670+$NEXT188 DC    0H'0'                                                    01-ENDIF
                                    2671          PUT   SYSPRINT,OUTPUT                                          09490007
 001288 4110 D548            042C8  2675+         LA    1,SYSPRINT                        LOAD PARAMETER REG 1   02-IHBIN
 00128C 4100 D4BD            0423D  2676+         LA    0,OUTPUT                          LOAD PARAMETER REG 0   02-IHBIN
 001290 1FFF                        2677+         SLR   15,15               CLEAR REGISTER FOR ICM          @L1A 01-PUT
 001292 BFF7 1031            00031  2678+         ICM   15,7,49(1)          LOAD PUT ROUTINE ADDRESS        @L1C 01-PUT
 001296 0DEF                        2679+         BASR  14,15               LINK TO PUT ROUTINE             @L3C 01-PUT
 001298 D209 D4F7 D4A2 04277 04222  2680          MVC   ERROR,=CL10' '                                           09500007
                                    2681 *=*=*=*=*=*=*=*=*=*=*=*=*=*=*=*=*=*=*=*=*=*=*=*=*=*=*=*=*=*=*=*=*=*=*=* 09510007
 00129E 92E9 D542      042C2        2682          MVI   VARBL1,C'Z'         SET TO FAIL                          09520007
 0012A2 41F0 0000            00000  2683          LA    R15,0               SET TO PASS                          09530007
 0012A6 9201 D544      042C4        2684          MVI   VARBL3,X'01'        SET TO FAIL                          09540007
 0012AA F230 D4B9 D4B6 04239 04236  2685          PACK  PACK1,=Z'1'         SET TO PASS                          09550007
 0012B0 D204 D4DA D4B1 0425A 04231  2686          MVC   PREDOUT,=C'FALSE'                                        09560007
 0012B6 D207 D4BE D1C0 0423E 03F40  2687          MVC   TESTNBR,=C'TEST090F'                                     09570007
                                    2688 *                                                                       09580007
                                    2689 TEST090F IF    (CLI,VARBL1,C'A',E),AND,(LTR,R15,R15,Z),OR,             C09590007
                                                        (TM,VARBL3,X'01',Z),AND,(SP,PACK1,=P'1',Z)               09600007
1IFTEST   EXAMPLES OF "IF" LOGIC MACRO INSTRUCTIONS                                                             Page   36
   Active Usings: IFTEST+X'105A',R12  $$WA$$,R13
0  Loc  Object Code    Addr1 Addr2  Stmt   Source Statement                                  HLASM R6.0  2021/03/26 12.00
00012BC 95C1 D542      042C2        2691+TEST090F CLI   VARBL1,C'A'         TWO OPERANDS                         01-IF
 0012C0 A774 0005            012CA  2694+         JNE   $MDF189             FALSE RESULT - POSSIBLE FAIL         01-IF
 0012C4 12FF                        2696+         LTR   R15,R15             TWO OPERANDS                         01-IF
 0012C6 A784 000B            012DC  2699+         JZ    $MDT190             TRUE RESULT - POSSIBLE PASS          01-IF
 0012CA 9101 D544      042C4        2701+$MDF189  TM    VARBL3,X'01'        TWO OPERANDS                         01-IF
 0012CE A774 000C            012E6  2704+         JNZ   $MDF191             FALSE RESULT - POSSIBLE FAIL         01-IF
 0012D2 FB30 D4B9 D4B7 04239 04237  2706+         SP    PACK1,=P'1'         TWO OPERANDS                         01-IF
 0012D8 A774 0007            012E6  2710+         JNZ   $MDF191             BRANCH IF CC INDICATES FAIL          01-IF
 0012DC                             2711+$MDT190  DC    0H'0'               END RESULT WAS PASS - DO THE EXECUTE 01-IF
 0012DC D204 D4F1 D4AC 04271 0422C  2712            MVC   ACTOUT,=C'TRUE '                                       09610007
                                    2713          ELSE                                                           09620007
 0012E2 A7F4 0005            012EC  2715+         J     $FINI192                                                 01-ELSE
 0012E6                             2716+$MDF191  DC    0H'0'                                                    01-ELSE
 0012E6 D204 D4F1 D4B1 04271 04231  2717            MVC   ACTOUT,=C'FALSE'                                       09630007
                                    2718          ENDIF                                                          09640007
 0012EC                             2720+$FINI192 DC    0H'0'                                                    01-ENDIF
                                    2721          IF    (CLC,PREDOUT,ACTOUT,NE)                                  09650007
 0012EC D504 D4DA D4F1 0425A 04271  2723+         CLC   PREDOUT,ACTOUT      TWO OPERANDS                         01-IF
 0012F2 A784 0005            012FC  2727+         JE    $NEXT193            BRANCH IF CC INDICATES FAIL          01-IF
 0012F6 D209 D4F7 D498 04277 04218  2728            MVC   ERROR,=C'<=== ERROR'                                   09660007
                                    2729          ENDIF                                                          09670007
 0012FC                             2731+$NEXT193 DC    0H'0'                                                    01-ENDIF
                                    2732          PUT   SYSPRINT,OUTPUT                                          09680007
 0012FC 4110 D548            042C8  2736+         LA    1,SYSPRINT                        LOAD PARAMETER REG 1   02-IHBIN
 001300 4100 D4BD            0423D  2737+         LA    0,OUTPUT                          LOAD PARAMETER REG 0   02-IHBIN
 001304 1FFF                        2738+         SLR   15,15               CLEAR REGISTER FOR ICM          @L1A 01-PUT
 001306 BFF7 1031            00031  2739+         ICM   15,7,49(1)          LOAD PUT ROUTINE ADDRESS        @L1C 01-PUT
 00130A 0DEF                        2740+         BASR  14,15               LINK TO PUT ROUTINE             @L3C 01-PUT
 00130C D209 D4F7 D4A2 04277 04222  2741          MVC   ERROR,=CL10' '                                           09690007
                                    2742 *=*=*=*=*=*=*=*=*=*=*=*=*=*=*=*=*=*=*=*=*=*=*=*=*=*=*=*=*=*=*=*=*=*=*=* 09700007
 001312 92C1 D542      042C2        2743          MVI   VARBL1,C'A'         SET TO PASS                          09710007
 001316 41F0 0004            00004  2744          LA    R15,4               SET TO FAIL                          09720007
 00131A 9201 D544      042C4        2745          MVI   VARBL3,X'01'        SET TO FAIL                          09730007
 00131E F230 D4B9 D4B6 04239 04236  2746          PACK  PACK1,=Z'1'         SET TO PASS                          09740007
 001324 D204 D4DA D4B1 0425A 04231  2747          MVC   PREDOUT,=C'FALSE'                                        09750007
 00132A D207 D4BE D1C8 0423E 03F48  2748          MVC   TESTNBR,=C'TEST090G'                                     09760007
                                    2749 *                                                                       09770007
                                    2750 TEST090G IF    (CLI,VARBL1,C'A',E),AND,(LTR,R15,R15,Z),OR,             C09780007
                                                        (TM,VARBL3,X'01',Z),AND,(SP,PACK1,=P'1',Z)               09790007
 001330 95C1 D542      042C2        2752+TEST090G CLI   VARBL1,C'A'         TWO OPERANDS                         01-IF
 001334 A774 0005            0133E  2755+         JNE   $MDF194             FALSE RESULT - POSSIBLE FAIL         01-IF
 001338 12FF                        2757+         LTR   R15,R15             TWO OPERANDS                         01-IF
 00133A A784 000B            01350  2760+         JZ    $MDT195             TRUE RESULT - POSSIBLE PASS          01-IF
 00133E 9101 D544      042C4        2762+$MDF194  TM    VARBL3,X'01'        TWO OPERANDS                         01-IF
 001342 A774 000C            0135A  2765+         JNZ   $MDF196             FALSE RESULT - POSSIBLE FAIL         01-IF
 001346 FB30 D4B9 D4B7 04239 04237  2767+         SP    PACK1,=P'1'         TWO OPERANDS                         01-IF
 00134C A774 0007            0135A  2771+         JNZ   $MDF196             BRANCH IF CC INDICATES FAIL          01-IF
 001350                             2772+$MDT195  DC    0H'0'               END RESULT WAS PASS - DO THE EXECUTE 01-IF
 001350 D204 D4F1 D4AC 04271 0422C  2773            MVC   ACTOUT,=C'TRUE '                                       09800007
                                    2774          ELSE                                                           09810007
 001356 A7F4 0005            01360  2776+         J     $FINI197                                                 01-ELSE
 00135A                             2777+$MDF196  DC    0H'0'                                                    01-ELSE
 00135A D204 D4F1 D4B1 04271 04231  2778            MVC   ACTOUT,=C'FALSE'                                       09820007
                                    2779          ENDIF                                                          09830007
 001360                             2781+$FINI197 DC    0H'0'                                                    01-ENDIF
1IFTEST   EXAMPLES OF "IF" LOGIC MACRO INSTRUCTIONS                                                             Page   37
   Active Usings: IFTEST+X'105A',R12  $$WA$$,R13
0  Loc  Object Code    Addr1 Addr2  Stmt   Source Statement                                  HLASM R6.0  2021/03/26 12.00
0                                   2782          IF    (CLC,PREDOUT,ACTOUT,NE)                                  09840007
 001360 D504 D4DA D4F1 0425A 04271  2784+         CLC   PREDOUT,ACTOUT      TWO OPERANDS                         01-IF
 001366 A784 0005            01370  2788+         JE    $NEXT198            BRANCH IF CC INDICATES FAIL          01-IF
 00136A D209 D4F7 D498 04277 04218  2789            MVC   ERROR,=C'<=== ERROR'                                   09850007
                                    2790          ENDIF                                                          09860007
 001370                             2792+$NEXT198 DC    0H'0'                                                    01-ENDIF
                                    2793          PUT   SYSPRINT,OUTPUT                                          09870007
 001370 4110 D548            042C8  2797+         LA    1,SYSPRINT                        LOAD PARAMETER REG 1   02-IHBIN
 001374 4100 D4BD            0423D  2798+         LA    0,OUTPUT                          LOAD PARAMETER REG 0   02-IHBIN
 001378 1FFF                        2799+         SLR   15,15               CLEAR REGISTER FOR ICM          @L1A 01-PUT
 00137A BFF7 1031            00031  2800+         ICM   15,7,49(1)          LOAD PUT ROUTINE ADDRESS        @L1C 01-PUT
 00137E 0DEF                        2801+         BASR  14,15               LINK TO PUT ROUTINE             @L3C 01-PUT
 001380 D209 D4F7 D4A2 04277 04222  2802          MVC   ERROR,=CL10' '                                           09880007
                                    2803 *=*=*=*=*=*=*=*=*=*=*=*=*=*=*=*=*=*=*=*=*=*=*=*=*=*=*=*=*=*=*=*=*=*=*=* 09890007
 001386 92E9 D542      042C2        2804          MVI   VARBL1,C'Z'         SET TO FAIL                          09900007
 00138A 41F0 0004            00004  2805          LA    R15,4               SET TO FAIL                          09910007
 00138E 9201 D544      042C4        2806          MVI   VARBL3,X'01'        SET TO FAIL                          09920007
 001392 F230 D4B9 D4B6 04239 04236  2807          PACK  PACK1,=Z'1'         SET TO PASS                          09930007
 001398 D204 D4DA D4B1 0425A 04231  2808          MVC   PREDOUT,=C'FALSE'                                        09940007
 00139E D207 D4BE D1D0 0423E 03F50  2809          MVC   TESTNBR,=C'TEST090H'                                     09950007
                                    2810 *                                                                       09960007
                                    2811 TEST090H IF    (CLI,VARBL1,C'A',E),AND,(LTR,R15,R15,Z),OR,             C09970007
                                                        (TM,VARBL3,X'01',Z),AND,(SP,PACK1,=P'1',Z)               09980007
 0013A4 95C1 D542      042C2        2813+TEST090H CLI   VARBL1,C'A'         TWO OPERANDS                         01-IF
 0013A8 A774 0005            013B2  2816+         JNE   $MDF199             FALSE RESULT - POSSIBLE FAIL         01-IF
 0013AC 12FF                        2818+         LTR   R15,R15             TWO OPERANDS                         01-IF
 0013AE A784 000B            013C4  2821+         JZ    $MDT200             TRUE RESULT - POSSIBLE PASS          01-IF
 0013B2 9101 D544      042C4        2823+$MDF199  TM    VARBL3,X'01'        TWO OPERANDS                         01-IF
 0013B6 A774 000C            013CE  2826+         JNZ   $MDF201             FALSE RESULT - POSSIBLE FAIL         01-IF
 0013BA FB30 D4B9 D4B7 04239 04237  2828+         SP    PACK1,=P'1'         TWO OPERANDS                         01-IF
 0013C0 A774 0007            013CE  2832+         JNZ   $MDF201             BRANCH IF CC INDICATES FAIL          01-IF
 0013C4                             2833+$MDT200  DC    0H'0'               END RESULT WAS PASS - DO THE EXECUTE 01-IF
 0013C4 D204 D4F1 D4AC 04271 0422C  2834            MVC   ACTOUT,=C'TRUE '                                       09990007
                                    2835          ELSE                                                           10000007
 0013CA A7F4 0005            013D4  2837+         J     $FINI202                                                 01-ELSE
 0013CE                             2838+$MDF201  DC    0H'0'                                                    01-ELSE
 0013CE D204 D4F1 D4B1 04271 04231  2839            MVC   ACTOUT,=C'FALSE'                                       10010007
                                    2840          ENDIF                                                          10020007
 0013D4                             2842+$FINI202 DC    0H'0'                                                    01-ENDIF
                                    2843          IF    (CLC,PREDOUT,ACTOUT,NE)                                  10030007
 0013D4 D504 D4DA D4F1 0425A 04271  2845+         CLC   PREDOUT,ACTOUT      TWO OPERANDS                         01-IF
 0013DA A784 0005            013E4  2849+         JE    $NEXT203            BRANCH IF CC INDICATES FAIL          01-IF
 0013DE D209 D4F7 D498 04277 04218  2850            MVC   ERROR,=C'<=== ERROR'                                   10040007
                                    2851          ENDIF                                                          10050007
 0013E4                             2853+$NEXT203 DC    0H'0'                                                    01-ENDIF
                                    2854          PUT   SYSPRINT,OUTPUT                                          10060007
 0013E4 4110 D548            042C8  2858+         LA    1,SYSPRINT                        LOAD PARAMETER REG 1   02-IHBIN
 0013E8 4100 D4BD            0423D  2859+         LA    0,OUTPUT                          LOAD PARAMETER REG 0   02-IHBIN
 0013EC 1FFF                        2860+         SLR   15,15               CLEAR REGISTER FOR ICM          @L1A 01-PUT
 0013EE BFF7 1031            00031  2861+         ICM   15,7,49(1)          LOAD PUT ROUTINE ADDRESS        @L1C 01-PUT
 0013F2 0DEF                        2862+         BASR  14,15               LINK TO PUT ROUTINE             @L3C 01-PUT
 0013F4 D209 D4F7 D4A2 04277 04222  2863          MVC   ERROR,=CL10' '                                           10070007
                                    2864 *=*=*=*=*=*=*=*=*=*=*=*=*=*=*=*=*=*=*=*=*=*=*=*=*=*=*=*=*=*=*=*=*=*=*=* 10080007
 0013FA 92C1 D542      042C2        2865          MVI   VARBL1,C'A'         SET TO PASS                          10090007
 0013FE 41F0 0000            00000  2866          LA    R15,0               SET TO PASS                          10100007
1IFTEST   EXAMPLES OF "IF" LOGIC MACRO INSTRUCTIONS                                                             Page   38
   Active Usings: IFTEST+X'105A',R12  $$WA$$,R13
0  Loc  Object Code    Addr1 Addr2  Stmt   Source Statement                                  HLASM R6.0  2021/03/26 12.00
0001402 9200 D544      042C4        2867          MVI   VARBL3,X'00'        SET TO PASS                          10110007
 001406 F230 D4B9 D4B8 04239 04238  2868          PACK  PACK1,=Z'2'         SET TO FAIL                          10120007
 00140C D204 D4DA D4AC 0425A 0422C  2869          MVC   PREDOUT,=C'TRUE '                                        10130007
 001412 D207 D4BE D1D8 0423E 03F58  2870          MVC   TESTNBR,=C'TEST090I'                                     10140007
                                    2871 *                                                                       10150007
                                    2872 TEST090I IF    (CLI,VARBL1,C'A',E),AND,(LTR,R15,R15,Z),OR,             C10160007
                                                        (TM,VARBL3,X'01',Z),AND,(SP,PACK1,=P'1',Z)               10170007
 001418 95C1 D542      042C2        2874+TEST090I CLI   VARBL1,C'A'         TWO OPERANDS                         01-IF
 00141C A774 0005            01426  2877+         JNE   $MDF204             FALSE RESULT - POSSIBLE FAIL         01-IF
 001420 12FF                        2879+         LTR   R15,R15             TWO OPERANDS                         01-IF
 001422 A784 000B            01438  2882+         JZ    $MDT205             TRUE RESULT - POSSIBLE PASS          01-IF
 001426 9101 D544      042C4        2884+$MDF204  TM    VARBL3,X'01'        TWO OPERANDS                         01-IF
 00142A A774 000C            01442  2887+         JNZ   $MDF206             FALSE RESULT - POSSIBLE FAIL         01-IF
 00142E FB30 D4B9 D4B7 04239 04237  2889+         SP    PACK1,=P'1'         TWO OPERANDS                         01-IF
 001434 A774 0007            01442  2893+         JNZ   $MDF206             BRANCH IF CC INDICATES FAIL          01-IF
 001438                             2894+$MDT205  DC    0H'0'               END RESULT WAS PASS - DO THE EXECUTE 01-IF
 001438 D204 D4F1 D4AC 04271 0422C  2895            MVC   ACTOUT,=C'TRUE '                                       10180007
                                    2896          ELSE                                                           10190007
 00143E A7F4 0005            01448  2898+         J     $FINI207                                                 01-ELSE
 001442                             2899+$MDF206  DC    0H'0'                                                    01-ELSE
 001442 D204 D4F1 D4B1 04271 04231  2900            MVC   ACTOUT,=C'FALSE'                                       10200007
                                    2901          ENDIF                                                          10210007
 001448                             2903+$FINI207 DC    0H'0'                                                    01-ENDIF
                                    2904          IF    (CLC,PREDOUT,ACTOUT,NE)                                  10220007
 001448 D504 D4DA D4F1 0425A 04271  2906+         CLC   PREDOUT,ACTOUT      TWO OPERANDS                         01-IF
 00144E A784 0005            01458  2910+         JE    $NEXT208            BRANCH IF CC INDICATES FAIL          01-IF
 001452 D209 D4F7 D498 04277 04218  2911            MVC   ERROR,=C'<=== ERROR'                                   10230007
                                    2912          ENDIF                                                          10240007
 001458                             2914+$NEXT208 DC    0H'0'                                                    01-ENDIF
                                    2915          PUT   SYSPRINT,OUTPUT                                          10250007
 001458 4110 D548            042C8  2919+         LA    1,SYSPRINT                        LOAD PARAMETER REG 1   02-IHBIN
 00145C 4100 D4BD            0423D  2920+         LA    0,OUTPUT                          LOAD PARAMETER REG 0   02-IHBIN
 001460 1FFF                        2921+         SLR   15,15               CLEAR REGISTER FOR ICM          @L1A 01-PUT
 001462 BFF7 1031            00031  2922+         ICM   15,7,49(1)          LOAD PUT ROUTINE ADDRESS        @L1C 01-PUT
 001466 0DEF                        2923+         BASR  14,15               LINK TO PUT ROUTINE             @L3C 01-PUT
 001468 D209 D4F7 D4A2 04277 04222  2924          MVC   ERROR,=CL10' '                                           10260007
                                    2925 *=*=*=*=*=*=*=*=*=*=*=*=*=*=*=*=*=*=*=*=*=*=*=*=*=*=*=*=*=*=*=*=*=*=*=* 10270007
 00146E 92E9 D542      042C2        2926          MVI   VARBL1,C'Z'         SET TO FAIL                          10280007
 001472 41F0 0000            00000  2927          LA    R15,0               SET TO PASS                          10290007
 001476 9200 D544      042C4        2928          MVI   VARBL3,X'00'        SET TO PASS                          10300007
 00147A F230 D4B9 D4B8 04239 04238  2929          PACK  PACK1,=Z'2'         SET TO FAIL                          10310007
 001480 D204 D4DA D4B1 0425A 04231  2930          MVC   PREDOUT,=C'FALSE'                                        10320007
 001486 D207 D4BE D1E0 0423E 03F60  2931          MVC   TESTNBR,=C'TEST090J'                                     10330007
                                    2932 *                                                                       10340007
                                    2933 TEST090J IF    (CLI,VARBL1,C'A',E),AND,(LTR,R15,R15,Z),OR,             C10350007
                                                        (TM,VARBL3,X'01',Z),AND,(SP,PACK1,=P'1',Z)               10360007
 00148C 95C1 D542      042C2        2935+TEST090J CLI   VARBL1,C'A'         TWO OPERANDS                         01-IF
 001490 A774 0005            0149A  2938+         JNE   $MDF209             FALSE RESULT - POSSIBLE FAIL         01-IF
 001494 12FF                        2940+         LTR   R15,R15             TWO OPERANDS                         01-IF
 001496 A784 000B            014AC  2943+         JZ    $MDT210             TRUE RESULT - POSSIBLE PASS          01-IF
 00149A 9101 D544      042C4        2945+$MDF209  TM    VARBL3,X'01'        TWO OPERANDS                         01-IF
 00149E A774 000C            014B6  2948+         JNZ   $MDF211             FALSE RESULT - POSSIBLE FAIL         01-IF
 0014A2 FB30 D4B9 D4B7 04239 04237  2950+         SP    PACK1,=P'1'         TWO OPERANDS                         01-IF
 0014A8 A774 0007            014B6  2954+         JNZ   $MDF211             BRANCH IF CC INDICATES FAIL          01-IF
 0014AC                             2955+$MDT210  DC    0H'0'               END RESULT WAS PASS - DO THE EXECUTE 01-IF
1IFTEST   EXAMPLES OF "IF" LOGIC MACRO INSTRUCTIONS                                                             Page   39
   Active Usings: IFTEST+X'105A',R12  $$WA$$,R13
0  Loc  Object Code    Addr1 Addr2  Stmt   Source Statement                                  HLASM R6.0  2021/03/26 12.00
00014AC D204 D4F1 D4AC 04271 0422C  2956            MVC   ACTOUT,=C'TRUE '                                       10370007
                                    2957          ELSE                                                           10380007
 0014B2 A7F4 0005            014BC  2959+         J     $FINI212                                                 01-ELSE
 0014B6                             2960+$MDF211  DC    0H'0'                                                    01-ELSE
 0014B6 D204 D4F1 D4B1 04271 04231  2961            MVC   ACTOUT,=C'FALSE'                                       10390007
                                    2962          ENDIF                                                          10400007
 0014BC                             2964+$FINI212 DC    0H'0'                                                    01-ENDIF
                                    2965          IF    (CLC,PREDOUT,ACTOUT,NE)                                  10410007
 0014BC D504 D4DA D4F1 0425A 04271  2967+         CLC   PREDOUT,ACTOUT      TWO OPERANDS                         01-IF
 0014C2 A784 0005            014CC  2971+         JE    $NEXT213            BRANCH IF CC INDICATES FAIL          01-IF
 0014C6 D209 D4F7 D498 04277 04218  2972            MVC   ERROR,=C'<=== ERROR'                                   10420007
                                    2973          ENDIF                                                          10430007
 0014CC                             2975+$NEXT213 DC    0H'0'                                                    01-ENDIF
                                    2976          PUT   SYSPRINT,OUTPUT                                          10440007
 0014CC 4110 D548            042C8  2980+         LA    1,SYSPRINT                        LOAD PARAMETER REG 1   02-IHBIN
 0014D0 4100 D4BD            0423D  2981+         LA    0,OUTPUT                          LOAD PARAMETER REG 0   02-IHBIN
 0014D4 1FFF                        2982+         SLR   15,15               CLEAR REGISTER FOR ICM          @L1A 01-PUT
 0014D6 BFF7 1031            00031  2983+         ICM   15,7,49(1)          LOAD PUT ROUTINE ADDRESS        @L1C 01-PUT
 0014DA 0DEF                        2984+         BASR  14,15               LINK TO PUT ROUTINE             @L3C 01-PUT
 0014DC D209 D4F7 D4A2 04277 04222  2985          MVC   ERROR,=CL10' '                                           10450007
                                    2986 *=*=*=*=*=*=*=*=*=*=*=*=*=*=*=*=*=*=*=*=*=*=*=*=*=*=*=*=*=*=*=*=*=*=*=* 10460007
 0014E2 92C1 D542      042C2        2987          MVI   VARBL1,C'A'         SET TO PASS                          10470007
 0014E6 41F0 0004            00004  2988          LA    R15,4               SET TO FAIL                          10480007
 0014EA 9200 D544      042C4        2989          MVI   VARBL3,X'00'        SET TO PASS                          10490007
 0014EE F230 D4B9 D4B8 04239 04238  2990          PACK  PACK1,=Z'2'         SET TO FAIL                          10500007
 0014F4 D204 D4DA D4B1 0425A 04231  2991          MVC   PREDOUT,=C'FALSE'                                        10510007
 0014FA D207 D4BE D1E8 0423E 03F68  2992          MVC   TESTNBR,=C'TEST090K'                                     10520007
                                    2993 *                                                                       10530007
                                    2994 TEST090K IF    (CLI,VARBL1,C'A',E),AND,(LTR,R15,R15,Z),OR,             C10540007
                                                        (TM,VARBL3,X'01',Z),AND,(SP,PACK1,=P'1',Z)               10550007
 001500 95C1 D542      042C2        2996+TEST090K CLI   VARBL1,C'A'         TWO OPERANDS                         01-IF
 001504 A774 0005            0150E  2999+         JNE   $MDF214             FALSE RESULT - POSSIBLE FAIL         01-IF
 001508 12FF                        3001+         LTR   R15,R15             TWO OPERANDS                         01-IF
 00150A A784 000B            01520  3004+         JZ    $MDT215             TRUE RESULT - POSSIBLE PASS          01-IF
 00150E 9101 D544      042C4        3006+$MDF214  TM    VARBL3,X'01'        TWO OPERANDS                         01-IF
 001512 A774 000C            0152A  3009+         JNZ   $MDF216             FALSE RESULT - POSSIBLE FAIL         01-IF
 001516 FB30 D4B9 D4B7 04239 04237  3011+         SP    PACK1,=P'1'         TWO OPERANDS                         01-IF
 00151C A774 0007            0152A  3015+         JNZ   $MDF216             BRANCH IF CC INDICATES FAIL          01-IF
 001520                             3016+$MDT215  DC    0H'0'               END RESULT WAS PASS - DO THE EXECUTE 01-IF
 001520 D204 D4F1 D4AC 04271 0422C  3017            MVC   ACTOUT,=C'TRUE '                                       10560007
                                    3018          ELSE                                                           10570007
 001526 A7F4 0005            01530  3020+         J     $FINI217                                                 01-ELSE
 00152A                             3021+$MDF216  DC    0H'0'                                                    01-ELSE
 00152A D204 D4F1 D4B1 04271 04231  3022            MVC   ACTOUT,=C'FALSE'                                       10580007
                                    3023          ENDIF                                                          10590007
 001530                             3025+$FINI217 DC    0H'0'                                                    01-ENDIF
                                    3026          IF    (CLC,PREDOUT,ACTOUT,NE)                                  10600007
 001530 D504 D4DA D4F1 0425A 04271  3028+         CLC   PREDOUT,ACTOUT      TWO OPERANDS                         01-IF
 001536 A784 0005            01540  3032+         JE    $NEXT218            BRANCH IF CC INDICATES FAIL          01-IF
 00153A D209 D4F7 D498 04277 04218  3033            MVC   ERROR,=C'<=== ERROR'                                   10610007
                                    3034          ENDIF                                                          10620007
 001540                             3036+$NEXT218 DC    0H'0'                                                    01-ENDIF
                                    3037          PUT   SYSPRINT,OUTPUT                                          10630007
 001540 4110 D548            042C8  3041+         LA    1,SYSPRINT                        LOAD PARAMETER REG 1   02-IHBIN
 001544 4100 D4BD            0423D  3042+         LA    0,OUTPUT                          LOAD PARAMETER REG 0   02-IHBIN
1IFTEST   EXAMPLES OF "IF" LOGIC MACRO INSTRUCTIONS                                                             Page   40
   Active Usings: IFTEST+X'105A',R12  $$WA$$,R13
0  Loc  Object Code    Addr1 Addr2  Stmt   Source Statement                                  HLASM R6.0  2021/03/26 12.00
0001548 1FFF                        3043+         SLR   15,15               CLEAR REGISTER FOR ICM          @L1A 01-PUT
 00154A BFF7 1031            00031  3044+         ICM   15,7,49(1)          LOAD PUT ROUTINE ADDRESS        @L1C 01-PUT
 00154E 0DEF                        3045+         BASR  14,15               LINK TO PUT ROUTINE             @L3C 01-PUT
 001550 D209 D4F7 D4A2 04277 04222  3046          MVC   ERROR,=CL10' '                                           10640007
                                    3047 *=*=*=*=*=*=*=*=*=*=*=*=*=*=*=*=*=*=*=*=*=*=*=*=*=*=*=*=*=*=*=*=*=*=*=* 10650007
 001556 92E9 D542      042C2        3048          MVI   VARBL1,C'Z'         SET TO FAIL                          10660007
 00155A 41F0 0004            00004  3049          LA    R15,4               SET TO FAIL                          10670007
 00155E 9200 D544      042C4        3050          MVI   VARBL3,X'00'        SET TO PASS                          10680007
 001562 F230 D4B9 D4B8 04239 04238  3051          PACK  PACK1,=Z'2'         SET TO FAIL                          10690007
 001568 D204 D4DA D4B1 0425A 04231  3052          MVC   PREDOUT,=C'FALSE'                                        10700007
 00156E D207 D4BE D1F0 0423E 03F70  3053          MVC   TESTNBR,=C'TEST090L'                                     10710007
                                    3054 *                                                                       10720007
                                    3055 TEST090L IF    (CLI,VARBL1,C'A',E),AND,(LTR,R15,R15,Z),OR,             C10730007
                                                        (TM,VARBL3,X'01',Z),AND,(SP,PACK1,=P'1',Z)               10740007
 001574 95C1 D542      042C2        3057+TEST090L CLI   VARBL1,C'A'         TWO OPERANDS                         01-IF
 001578 A774 0005            01582  3060+         JNE   $MDF219             FALSE RESULT - POSSIBLE FAIL         01-IF
 00157C 12FF                        3062+         LTR   R15,R15             TWO OPERANDS                         01-IF
 00157E A784 000B            01594  3065+         JZ    $MDT220             TRUE RESULT - POSSIBLE PASS          01-IF
 001582 9101 D544      042C4        3067+$MDF219  TM    VARBL3,X'01'        TWO OPERANDS                         01-IF
 001586 A774 000C            0159E  3070+         JNZ   $MDF221             FALSE RESULT - POSSIBLE FAIL         01-IF
 00158A FB30 D4B9 D4B7 04239 04237  3072+         SP    PACK1,=P'1'         TWO OPERANDS                         01-IF
 001590 A774 0007            0159E  3076+         JNZ   $MDF221             BRANCH IF CC INDICATES FAIL          01-IF
 001594                             3077+$MDT220  DC    0H'0'               END RESULT WAS PASS - DO THE EXECUTE 01-IF
 001594 D204 D4F1 D4AC 04271 0422C  3078            MVC   ACTOUT,=C'TRUE '                                       10750007
                                    3079          ELSE                                                           10760007
 00159A A7F4 0005            015A4  3081+         J     $FINI222                                                 01-ELSE
 00159E                             3082+$MDF221  DC    0H'0'                                                    01-ELSE
 00159E D204 D4F1 D4B1 04271 04231  3083            MVC   ACTOUT,=C'FALSE'                                       10770007
                                    3084          ENDIF                                                          10780007
 0015A4                             3086+$FINI222 DC    0H'0'                                                    01-ENDIF
                                    3087          IF    (CLC,PREDOUT,ACTOUT,NE)                                  10790007
 0015A4 D504 D4DA D4F1 0425A 04271  3089+         CLC   PREDOUT,ACTOUT      TWO OPERANDS                         01-IF
 0015AA A784 0005            015B4  3093+         JE    $NEXT223            BRANCH IF CC INDICATES FAIL          01-IF
 0015AE D209 D4F7 D498 04277 04218  3094            MVC   ERROR,=C'<=== ERROR'                                   10800007
                                    3095          ENDIF                                                          10810007
 0015B4                             3097+$NEXT223 DC    0H'0'                                                    01-ENDIF
                                    3098          PUT   SYSPRINT,OUTPUT                                          10820007
 0015B4 4110 D548            042C8  3102+         LA    1,SYSPRINT                        LOAD PARAMETER REG 1   02-IHBIN
 0015B8 4100 D4BD            0423D  3103+         LA    0,OUTPUT                          LOAD PARAMETER REG 0   02-IHBIN
 0015BC 1FFF                        3104+         SLR   15,15               CLEAR REGISTER FOR ICM          @L1A 01-PUT
 0015BE BFF7 1031            00031  3105+         ICM   15,7,49(1)          LOAD PUT ROUTINE ADDRESS        @L1C 01-PUT
 0015C2 0DEF                        3106+         BASR  14,15               LINK TO PUT ROUTINE             @L3C 01-PUT
 0015C4 D209 D4F7 D4A2 04277 04222  3107          MVC   ERROR,=CL10' '                                           10830007
                                    3108 *=*=*=*=*=*=*=*=*=*=*=*=*=*=*=*=*=*=*=*=*=*=*=*=*=*=*=*=*=*=*=*=*=*=*=* 10840007
 0015CA 92C1 D542      042C2        3109          MVI   VARBL1,C'A'         SET TO PASS                          10850007
 0015CE 41F0 0000            00000  3110          LA    R15,0               SET TO PASS                          10860007
 0015D2 9201 D544      042C4        3111          MVI   VARBL3,X'01'        SET TO FAIL                          10870007
 0015D6 F230 D4B9 D4B8 04239 04238  3112          PACK  PACK1,=Z'2'         SET TO FAIL                          10880007
 0015DC D204 D4DA D4AC 0425A 0422C  3113          MVC   PREDOUT,=C'TRUE '                                        10890007
 0015E2 D207 D4BE D1F8 0423E 03F78  3114          MVC   TESTNBR,=C'TEST090M'                                     10900007
                                    3115 *                                                                       10910007
                                    3116 TEST090M IF    (CLI,VARBL1,C'A',E),AND,(LTR,R15,R15,Z),OR,             C10920007
                                                        (TM,VARBL3,X'01',Z),AND,(SP,PACK1,=P'1',Z)               10930007
 0015E8 95C1 D542      042C2        3118+TEST090M CLI   VARBL1,C'A'         TWO OPERANDS                         01-IF
 0015EC A774 0005            015F6  3121+         JNE   $MDF224             FALSE RESULT - POSSIBLE FAIL         01-IF
1IFTEST   EXAMPLES OF "IF" LOGIC MACRO INSTRUCTIONS                                                             Page   41
   Active Usings: IFTEST+X'105A',R12  $$WA$$,R13
0  Loc  Object Code    Addr1 Addr2  Stmt   Source Statement                                  HLASM R6.0  2021/03/26 12.00
00015F0 12FF                        3123+         LTR   R15,R15             TWO OPERANDS                         01-IF
 0015F2 A784 000B            01608  3126+         JZ    $MDT225             TRUE RESULT - POSSIBLE PASS          01-IF
 0015F6 9101 D544      042C4        3128+$MDF224  TM    VARBL3,X'01'        TWO OPERANDS                         01-IF
 0015FA A774 000C            01612  3131+         JNZ   $MDF226             FALSE RESULT - POSSIBLE FAIL         01-IF
 0015FE FB30 D4B9 D4B7 04239 04237  3133+         SP    PACK1,=P'1'         TWO OPERANDS                         01-IF
 001604 A774 0007            01612  3137+         JNZ   $MDF226             BRANCH IF CC INDICATES FAIL          01-IF
 001608                             3138+$MDT225  DC    0H'0'               END RESULT WAS PASS - DO THE EXECUTE 01-IF
 001608 D204 D4F1 D4AC 04271 0422C  3139            MVC   ACTOUT,=C'TRUE '                                       10940007
                                    3140          ELSE                                                           10950007
 00160E A7F4 0005            01618  3142+         J     $FINI227                                                 01-ELSE
 001612                             3143+$MDF226  DC    0H'0'                                                    01-ELSE
 001612 D204 D4F1 D4B1 04271 04231  3144            MVC   ACTOUT,=C'FALSE'                                       10960007
                                    3145          ENDIF                                                          10970007
 001618                             3147+$FINI227 DC    0H'0'                                                    01-ENDIF
                                    3148          IF    (CLC,PREDOUT,ACTOUT,NE)                                  10980007
 001618 D504 D4DA D4F1 0425A 04271  3150+         CLC   PREDOUT,ACTOUT      TWO OPERANDS                         01-IF
 00161E A784 0005            01628  3154+         JE    $NEXT228            BRANCH IF CC INDICATES FAIL          01-IF
 001622 D209 D4F7 D498 04277 04218  3155            MVC   ERROR,=C'<=== ERROR'                                   10990007
                                    3156          ENDIF                                                          11000007
 001628                             3158+$NEXT228 DC    0H'0'                                                    01-ENDIF
                                    3159          PUT   SYSPRINT,OUTPUT                                          11010007
 001628 4110 D548            042C8  3163+         LA    1,SYSPRINT                        LOAD PARAMETER REG 1   02-IHBIN
 00162C 4100 D4BD            0423D  3164+         LA    0,OUTPUT                          LOAD PARAMETER REG 0   02-IHBIN
 001630 1FFF                        3165+         SLR   15,15               CLEAR REGISTER FOR ICM          @L1A 01-PUT
 001632 BFF7 1031            00031  3166+         ICM   15,7,49(1)          LOAD PUT ROUTINE ADDRESS        @L1C 01-PUT
 001636 0DEF                        3167+         BASR  14,15               LINK TO PUT ROUTINE             @L3C 01-PUT
 001638 D209 D4F7 D4A2 04277 04222  3168          MVC   ERROR,=CL10' '                                           11020007
                                    3169 *=*=*=*=*=*=*=*=*=*=*=*=*=*=*=*=*=*=*=*=*=*=*=*=*=*=*=*=*=*=*=*=*=*=*=* 11030007
 00163E 92E9 D542      042C2        3170          MVI   VARBL1,C'Z'         SET TO FAIL                          11040007
 001642 41F0 0000            00000  3171          LA    R15,0               SET TO PASS                          11050007
 001646 9201 D544      042C4        3172          MVI   VARBL3,X'01'        SET TO FAIL                          11060007
 00164A F230 D4B9 D4B8 04239 04238  3173          PACK  PACK1,=Z'2'         SET TO FAIL                          11070007
 001650 D204 D4DA D4B1 0425A 04231  3174          MVC   PREDOUT,=C'FALSE'                                        11080007
 001656 D207 D4BE D200 0423E 03F80  3175          MVC   TESTNBR,=C'TEST090N'                                     11090007
                                    3176 *                                                                       11100007
                                    3177 TEST090N IF    (CLI,VARBL1,C'A',E),AND,(LTR,R15,R15,Z),OR,             C11110007
                                                        (TM,VARBL3,X'01',Z),AND,(SP,PACK1,=P'1',Z)               11120007
 00165C 95C1 D542      042C2        3179+TEST090N CLI   VARBL1,C'A'         TWO OPERANDS                         01-IF
 001660 A774 0005            0166A  3182+         JNE   $MDF229             FALSE RESULT - POSSIBLE FAIL         01-IF
 001664 12FF                        3184+         LTR   R15,R15             TWO OPERANDS                         01-IF
 001666 A784 000B            0167C  3187+         JZ    $MDT230             TRUE RESULT - POSSIBLE PASS          01-IF
 00166A 9101 D544      042C4        3189+$MDF229  TM    VARBL3,X'01'        TWO OPERANDS                         01-IF
 00166E A774 000C            01686  3192+         JNZ   $MDF231             FALSE RESULT - POSSIBLE FAIL         01-IF
 001672 FB30 D4B9 D4B7 04239 04237  3194+         SP    PACK1,=P'1'         TWO OPERANDS                         01-IF
 001678 A774 0007            01686  3198+         JNZ   $MDF231             BRANCH IF CC INDICATES FAIL          01-IF
 00167C                             3199+$MDT230  DC    0H'0'               END RESULT WAS PASS - DO THE EXECUTE 01-IF
 00167C D204 D4F1 D4AC 04271 0422C  3200            MVC   ACTOUT,=C'TRUE '                                       11130007
                                    3201          ELSE                                                           11140007
 001682 A7F4 0005            0168C  3203+         J     $FINI232                                                 01-ELSE
 001686                             3204+$MDF231  DC    0H'0'                                                    01-ELSE
 001686 D204 D4F1 D4B1 04271 04231  3205            MVC   ACTOUT,=C'FALSE'                                       11150007
                                    3206          ENDIF                                                          11160007
 00168C                             3208+$FINI232 DC    0H'0'                                                    01-ENDIF
                                    3209          IF    (CLC,PREDOUT,ACTOUT,NE)                                  11170007
 00168C D504 D4DA D4F1 0425A 04271  3211+         CLC   PREDOUT,ACTOUT      TWO OPERANDS                         01-IF
1IFTEST   EXAMPLES OF "IF" LOGIC MACRO INSTRUCTIONS                                                             Page   42
   Active Usings: IFTEST+X'105A',R12  $$WA$$,R13
0  Loc  Object Code    Addr1 Addr2  Stmt   Source Statement                                  HLASM R6.0  2021/03/26 12.00
0001692 A784 0005            0169C  3215+         JE    $NEXT233            BRANCH IF CC INDICATES FAIL          01-IF
 001696 D209 D4F7 D498 04277 04218  3216            MVC   ERROR,=C'<=== ERROR'                                   11180007
                                    3217          ENDIF                                                          11190007
 00169C                             3219+$NEXT233 DC    0H'0'                                                    01-ENDIF
                                    3220          PUT   SYSPRINT,OUTPUT                                          11200007
 00169C 4110 D548            042C8  3224+         LA    1,SYSPRINT                        LOAD PARAMETER REG 1   02-IHBIN
 0016A0 4100 D4BD            0423D  3225+         LA    0,OUTPUT                          LOAD PARAMETER REG 0   02-IHBIN
 0016A4 1FFF                        3226+         SLR   15,15               CLEAR REGISTER FOR ICM          @L1A 01-PUT
 0016A6 BFF7 1031            00031  3227+         ICM   15,7,49(1)          LOAD PUT ROUTINE ADDRESS        @L1C 01-PUT
 0016AA 0DEF                        3228+         BASR  14,15               LINK TO PUT ROUTINE             @L3C 01-PUT
 0016AC D209 D4F7 D4A2 04277 04222  3229          MVC   ERROR,=CL10' '                                           11210007
                                    3230 *=*=*=*=*=*=*=*=*=*=*=*=*=*=*=*=*=*=*=*=*=*=*=*=*=*=*=*=*=*=*=*=*=*=*=* 11220007
 0016B2 92C1 D542      042C2        3231          MVI   VARBL1,C'A'         SET TO PASS                          11230007
 0016B6 41F0 0004            00004  3232          LA    R15,4               SET TO FAIL                          11240007
 0016BA 9201 D544      042C4        3233          MVI   VARBL3,X'01'        SET TO FAIL                          11250007
 0016BE F230 D4B9 D4B8 04239 04238  3234          PACK  PACK1,=Z'2'         SET TO FAIL                          11260007
 0016C4 D204 D4DA D4B1 0425A 04231  3235          MVC   PREDOUT,=C'FALSE'                                        11270007
 0016CA D207 D4BE D208 0423E 03F88  3236          MVC   TESTNBR,=C'TEST090O'                                     11280007
                                    3237 *                                                                       11290007
                                    3238 TEST090O IF    (CLI,VARBL1,C'A',E),AND,(LTR,R15,R15,Z),OR,             C11300007
                                                        (TM,VARBL3,X'01',Z),AND,(SP,PACK1,=P'1',Z)               11310007
 0016D0 95C1 D542      042C2        3240+TEST090O CLI   VARBL1,C'A'         TWO OPERANDS                         01-IF
 0016D4 A774 0005            016DE  3243+         JNE   $MDF234             FALSE RESULT - POSSIBLE FAIL         01-IF
 0016D8 12FF                        3245+         LTR   R15,R15             TWO OPERANDS                         01-IF
 0016DA A784 000B            016F0  3248+         JZ    $MDT235             TRUE RESULT - POSSIBLE PASS          01-IF
 0016DE 9101 D544      042C4        3250+$MDF234  TM    VARBL3,X'01'        TWO OPERANDS                         01-IF
 0016E2 A774 000C            016FA  3253+         JNZ   $MDF236             FALSE RESULT - POSSIBLE FAIL         01-IF
 0016E6 FB30 D4B9 D4B7 04239 04237  3255+         SP    PACK1,=P'1'         TWO OPERANDS                         01-IF
 0016EC A774 0007            016FA  3259+         JNZ   $MDF236             BRANCH IF CC INDICATES FAIL          01-IF
 0016F0                             3260+$MDT235  DC    0H'0'               END RESULT WAS PASS - DO THE EXECUTE 01-IF
 0016F0 D204 D4F1 D4AC 04271 0422C  3261            MVC   ACTOUT,=C'TRUE '                                       11320007
                                    3262          ELSE                                                           11330007
 0016F6 A7F4 0005            01700  3264+         J     $FINI237                                                 01-ELSE
 0016FA                             3265+$MDF236  DC    0H'0'                                                    01-ELSE
 0016FA D204 D4F1 D4B1 04271 04231  3266            MVC   ACTOUT,=C'FALSE'                                       11340007
                                    3267          ENDIF                                                          11350007
 001700                             3269+$FINI237 DC    0H'0'                                                    01-ENDIF
                                    3270          IF    (CLC,PREDOUT,ACTOUT,NE)                                  11360007
 001700 D504 D4DA D4F1 0425A 04271  3272+         CLC   PREDOUT,ACTOUT      TWO OPERANDS                         01-IF
 001706 A784 0005            01710  3276+         JE    $NEXT238            BRANCH IF CC INDICATES FAIL          01-IF
 00170A D209 D4F7 D498 04277 04218  3277            MVC   ERROR,=C'<=== ERROR'                                   11370007
                                    3278          ENDIF                                                          11380007
 001710                             3280+$NEXT238 DC    0H'0'                                                    01-ENDIF
                                    3281          PUT   SYSPRINT,OUTPUT                                          11390007
 001710 4110 D548            042C8  3285+         LA    1,SYSPRINT                        LOAD PARAMETER REG 1   02-IHBIN
 001714 4100 D4BD            0423D  3286+         LA    0,OUTPUT                          LOAD PARAMETER REG 0   02-IHBIN
 001718 1FFF                        3287+         SLR   15,15               CLEAR REGISTER FOR ICM          @L1A 01-PUT
 00171A BFF7 1031            00031  3288+         ICM   15,7,49(1)          LOAD PUT ROUTINE ADDRESS        @L1C 01-PUT
 00171E 0DEF                        3289+         BASR  14,15               LINK TO PUT ROUTINE             @L3C 01-PUT
 001720 D209 D4F7 D4A2 04277 04222  3290          MVC   ERROR,=CL10' '                                           11400007
                                    3291 *=*=*=*=*=*=*=*=*=*=*=*=*=*=*=*=*=*=*=*=*=*=*=*=*=*=*=*=*=*=*=*=*=*=*=* 11410007
 001726 92E9 D542      042C2        3292          MVI   VARBL1,C'Z'         SET TO FAIL                          11420007
 00172A 41F0 0004            00004  3293          LA    R15,4               SET TO FAIL                          11430007
 00172E 9201 D544      042C4        3294          MVI   VARBL3,X'01'        SET TO FAIL                          11440007
 001732 F230 D4B9 D4B8 04239 04238  3295          PACK  PACK1,=Z'2'         SET TO FAIL                          11450007
1IFTEST   EXAMPLES OF "IF" LOGIC MACRO INSTRUCTIONS                                                             Page   43
   Active Usings: IFTEST+X'105A',R12  $$WA$$,R13
0  Loc  Object Code    Addr1 Addr2  Stmt   Source Statement                                  HLASM R6.0  2021/03/26 12.00
0001738 D204 D4DA D4B1 0425A 04231  3296          MVC   PREDOUT,=C'FALSE'                                        11460007
 00173E D207 D4BE D210 0423E 03F90  3297          MVC   TESTNBR,=C'TEST090P'                                     11470007
                                    3298 *                                                                       11480007
                                    3299 TEST090P IF    (CLI,VARBL1,C'A',E),AND,(LTR,R15,R15,Z),OR,             C11490007
                                                        (TM,VARBL3,X'01',Z),AND,(SP,PACK1,=P'1',Z)               11500007
 001744 95C1 D542      042C2        3301+TEST090P CLI   VARBL1,C'A'         TWO OPERANDS                         01-IF
 001748 A774 0005            01752  3304+         JNE   $MDF239             FALSE RESULT - POSSIBLE FAIL         01-IF
 00174C 12FF                        3306+         LTR   R15,R15             TWO OPERANDS                         01-IF
 00174E A784 000B            01764  3309+         JZ    $MDT240             TRUE RESULT - POSSIBLE PASS          01-IF
 001752 9101 D544      042C4        3311+$MDF239  TM    VARBL3,X'01'        TWO OPERANDS                         01-IF
 001756 A774 000C            0176E  3314+         JNZ   $MDF241             FALSE RESULT - POSSIBLE FAIL         01-IF
 00175A FB30 D4B9 D4B7 04239 04237  3316+         SP    PACK1,=P'1'         TWO OPERANDS                         01-IF
 001760 A774 0007            0176E  3320+         JNZ   $MDF241             BRANCH IF CC INDICATES FAIL          01-IF
 001764                             3321+$MDT240  DC    0H'0'               END RESULT WAS PASS - DO THE EXECUTE 01-IF
 001764 D204 D4F1 D4AC 04271 0422C  3322            MVC   ACTOUT,=C'TRUE '                                       11510007
                                    3323          ELSE                                                           11520007
 00176A A7F4 0005            01774  3325+         J     $FINI242                                                 01-ELSE
 00176E                             3326+$MDF241  DC    0H'0'                                                    01-ELSE
 00176E D204 D4F1 D4B1 04271 04231  3327            MVC   ACTOUT,=C'FALSE'                                       11530007
                                    3328          ENDIF                                                          11540007
 001774                             3330+$FINI242 DC    0H'0'                                                    01-ENDIF
                                    3331          IF    (CLC,PREDOUT,ACTOUT,NE)                                  11550007
 001774 D504 D4DA D4F1 0425A 04271  3333+         CLC   PREDOUT,ACTOUT      TWO OPERANDS                         01-IF
 00177A A784 0005            01784  3337+         JE    $NEXT243            BRANCH IF CC INDICATES FAIL          01-IF
 00177E D209 D4F7 D498 04277 04218  3338            MVC   ERROR,=C'<=== ERROR'                                   11560007
                                    3339          ENDIF                                                          11570007
 001784                             3341+$NEXT243 DC    0H'0'                                                    01-ENDIF
                                    3342          PUT   SYSPRINT,OUTPUT                                          11580007
 001784 4110 D548            042C8  3346+         LA    1,SYSPRINT                        LOAD PARAMETER REG 1   02-IHBIN
 001788 4100 D4BD            0423D  3347+         LA    0,OUTPUT                          LOAD PARAMETER REG 0   02-IHBIN
 00178C 1FFF                        3348+         SLR   15,15               CLEAR REGISTER FOR ICM          @L1A 01-PUT
 00178E BFF7 1031            00031  3349+         ICM   15,7,49(1)          LOAD PUT ROUTINE ADDRESS        @L1C 01-PUT
 001792 0DEF                        3350+         BASR  14,15               LINK TO PUT ROUTINE             @L3C 01-PUT
 001794 D209 D4F7 D4A2 04277 04222  3351          MVC   ERROR,=CL10' '                                           11590007
                                    3352 *=*=*=*=*=*=*=*=*=*=*=*=*=*=*=*=*=*=*=*=*=*=*=*=*=*=*=*=*=*=*=*=*=*=*=* 11600007
                                    3353 *                                                                     * 11610007
                                    3354 * IF (A) AND ((B) OR (C)) AND (D)                                     * 11620007
                                    3355 *                                                                     * 11630007
                                    3356 *=*=*=*=*=*=*=*=*=*=*=*=*=*=*=*=*=*=*=*=*=*=*=*=*=*=*=*=*=*=*=*=*=*=*=* 11640007
                                    3357 *                                                                       11650007
 00179A 05C0                        3358          BALR  R12,0                                                    11660016
                  R:C  0179C        3359          USING *,R12                                                    11670016
 00179C 92C1 D542      042C2        3360          MVI   VARBL1,C'A'         SET TO PASS                          11680007
 0017A0 41F0 0000            00000  3361          LA    R15,0               SET TO PASS                          11690007
 0017A4 9200 D544      042C4        3362          MVI   VARBL3,X'00'        SET TO PASS                          11700007
 0017A8 F230 D4B9 D4B6 04239 04236  3363          PACK  PACK1,=Z'1'         SET TO PASS                          11710007
 0017AE D204 D4DA D4AC 0425A 0422C  3364          MVC   PREDOUT,=C'TRUE '                                        11720007
 0017B4 D207 D4BE D218 0423E 03F98  3365          MVC   TESTNBR,=C'TEST100A'                                     11730007
                                    3366 *                                                                       11740007
                                    3367 TEST100A IF    (CLI,VARBL1,C'A',E),AND,                                C11750007
                                                        ((LTR,R15,R15,Z),OR,(TM,VARBL3,X'01',Z)),AND,           C11760007
                                                        (SP,PACK1,=P'1',Z)                                       11770007
 0017BA 95C1 D542      042C2        3369+TEST100A CLI   VARBL1,C'A'         TWO OPERANDS                         01-IF
 0017BE A774 0013            017E4  3372+         JNE   $MDF244             FALSE RESULT - POSSIBLE FAIL         01-IF
 0017C2 12FF                        3377+         LTR   R15,R15             TWO OPERANDS                         02-IF2
1IFTEST   EXAMPLES OF "IF" LOGIC MACRO INSTRUCTIONS                                                             Page   44
   Active Usings: IFTEST+X'179C',R12  $$WA$$,R13
0  Loc  Object Code    Addr1 Addr2  Stmt   Source Statement                                  HLASM R6.0  2021/03/26 12.00
00017C4 A784 0006            017D0  3380+         JZ    $MDT245             TRUE RESULT - POSSIBLE PASS          02-IF2
 0017C8 9101 D544      042C4        3382+         TM    VARBL3,X'01'        TWO OPERANDS                         02-IF2
 0017CC A774 000C            017E4  3387+         JNZ   $MDF244             FALSE RESULT - POSSIBLE FAIL         01-IF
 0017D0 FB30 D4B9 D4B7 04239 04237  3389+$MDT245  SP    PACK1,=P'1'         TWO OPERANDS                         01-IF
 0017D6 A774 0007            017E4  3393+         JNZ   $MDF244             BRANCH IF CC INDICATES FAIL          01-IF
 0017DA D204 D4F1 D4AC 04271 0422C  3394            MVC   ACTOUT,=C'TRUE '                                       11780007
                                    3395          ELSE                                                           11790007
 0017E0 A7F4 0005            017EA  3397+         J     $FINI246                                                 01-ELSE
 0017E4                             3398+$MDF244  DC    0H'0'                                                    01-ELSE
 0017E4 D204 D4F1 D4B1 04271 04231  3399            MVC   ACTOUT,=C'FALSE'                                       11800007
                                    3400          ENDIF                                                          11810007
 0017EA                             3402+$FINI246 DC    0H'0'                                                    01-ENDIF
                                    3403          IF    (CLC,PREDOUT,ACTOUT,NE)                                  11820007
 0017EA D504 D4DA D4F1 0425A 04271  3405+         CLC   PREDOUT,ACTOUT      TWO OPERANDS                         01-IF
 0017F0 A784 0005            017FA  3409+         JE    $NEXT247            BRANCH IF CC INDICATES FAIL          01-IF
 0017F4 D209 D4F7 D498 04277 04218  3410            MVC   ERROR,=C'<=== ERROR'                                   11830007
                                    3411          ENDIF                                                          11840007
 0017FA                             3413+$NEXT247 DC    0H'0'                                                    01-ENDIF
                                    3414          PUT   SYSPRINT,OUTPUT                                          11850007
 0017FA 4110 D548            042C8  3418+         LA    1,SYSPRINT                        LOAD PARAMETER REG 1   02-IHBIN
 0017FE 4100 D4BD            0423D  3419+         LA    0,OUTPUT                          LOAD PARAMETER REG 0   02-IHBIN
 001802 1FFF                        3420+         SLR   15,15               CLEAR REGISTER FOR ICM          @L1A 01-PUT
 001804 BFF7 1031            00031  3421+         ICM   15,7,49(1)          LOAD PUT ROUTINE ADDRESS        @L1C 01-PUT
 001808 0DEF                        3422+         BASR  14,15               LINK TO PUT ROUTINE             @L3C 01-PUT
 00180A D209 D4F7 D4A2 04277 04222  3423          MVC   ERROR,=CL10' '                                           11860007
                                    3424 *=*=*=*=*=*=*=*=*=*=*=*=*=*=*=*=*=*=*=*=*=*=*=*=*=*=*=*=*=*=*=*=*=*=*=* 11870007
 001810 92E9 D542      042C2        3425          MVI   VARBL1,C'Z'         SET TO FAIL                          11880007
 001814 41F0 0000            00000  3426          LA    R15,0               SET TO PASS                          11890007
 001818 9200 D544      042C4        3427          MVI   VARBL3,X'00'        SET TO PASS                          11900007
 00181C F230 D4B9 D4B6 04239 04236  3428          PACK  PACK1,=Z'1'         SET TO PASS                          11910007
 001822 D204 D4DA D4B1 0425A 04231  3429          MVC   PREDOUT,=C'FALSE'                                        11920007
 001828 D207 D4BE D220 0423E 03FA0  3430          MVC   TESTNBR,=C'TEST100B'                                     11930007
                                    3431 *                                                                       11940007
                                    3432 TEST100B IF    (CLI,VARBL1,C'A',E),AND,                                C11950007
                                                        ((LTR,R15,R15,Z),OR,(TM,VARBL3,X'01',Z)),AND,           C11960007
                                                        (SP,PACK1,=P'1',Z)                                       11970007
 00182E 95C1 D542      042C2        3434+TEST100B CLI   VARBL1,C'A'         TWO OPERANDS                         01-IF
 001832 A774 0013            01858  3437+         JNE   $MDF248             FALSE RESULT - POSSIBLE FAIL         01-IF
 001836 12FF                        3442+         LTR   R15,R15             TWO OPERANDS                         02-IF2
 001838 A784 0006            01844  3445+         JZ    $MDT249             TRUE RESULT - POSSIBLE PASS          02-IF2
 00183C 9101 D544      042C4        3447+         TM    VARBL3,X'01'        TWO OPERANDS                         02-IF2
 001840 A774 000C            01858  3452+         JNZ   $MDF248             FALSE RESULT - POSSIBLE FAIL         01-IF
 001844 FB30 D4B9 D4B7 04239 04237  3454+$MDT249  SP    PACK1,=P'1'         TWO OPERANDS                         01-IF
 00184A A774 0007            01858  3458+         JNZ   $MDF248             BRANCH IF CC INDICATES FAIL          01-IF
 00184E D204 D4F1 D4AC 04271 0422C  3459            MVC   ACTOUT,=C'TRUE '                                       11980007
                                    3460          ELSE                                                           11990007
 001854 A7F4 0005            0185E  3462+         J     $FINI250                                                 01-ELSE
 001858                             3463+$MDF248  DC    0H'0'                                                    01-ELSE
 001858 D204 D4F1 D4B1 04271 04231  3464            MVC   ACTOUT,=C'FALSE'                                       12000007
                                    3465          ENDIF                                                          12010007
 00185E                             3467+$FINI250 DC    0H'0'                                                    01-ENDIF
                                    3468          IF    (CLC,PREDOUT,ACTOUT,NE)                                  12020007
 00185E D504 D4DA D4F1 0425A 04271  3470+         CLC   PREDOUT,ACTOUT      TWO OPERANDS                         01-IF
 001864 A784 0005            0186E  3474+         JE    $NEXT251            BRANCH IF CC INDICATES FAIL          01-IF
 001868 D209 D4F7 D498 04277 04218  3475            MVC   ERROR,=C'<=== ERROR'                                   12030007
1IFTEST   EXAMPLES OF "IF" LOGIC MACRO INSTRUCTIONS                                                             Page   45
   Active Usings: IFTEST+X'179C',R12  $$WA$$,R13
0  Loc  Object Code    Addr1 Addr2  Stmt   Source Statement                                  HLASM R6.0  2021/03/26 12.00
0                                   3476          ENDIF                                                          12040007
 00186E                             3478+$NEXT251 DC    0H'0'                                                    01-ENDIF
                                    3479          PUT   SYSPRINT,OUTPUT                                          12050007
 00186E 4110 D548            042C8  3483+         LA    1,SYSPRINT                        LOAD PARAMETER REG 1   02-IHBIN
 001872 4100 D4BD            0423D  3484+         LA    0,OUTPUT                          LOAD PARAMETER REG 0   02-IHBIN
 001876 1FFF                        3485+         SLR   15,15               CLEAR REGISTER FOR ICM          @L1A 01-PUT
 001878 BFF7 1031            00031  3486+         ICM   15,7,49(1)          LOAD PUT ROUTINE ADDRESS        @L1C 01-PUT
 00187C 0DEF                        3487+         BASR  14,15               LINK TO PUT ROUTINE             @L3C 01-PUT
 00187E D209 D4F7 D4A2 04277 04222  3488          MVC   ERROR,=CL10' '                                           12060007
                                    3489 *=*=*=*=*=*=*=*=*=*=*=*=*=*=*=*=*=*=*=*=*=*=*=*=*=*=*=*=*=*=*=*=*=*=*=* 12070007
 001884 92C1 D542      042C2        3490          MVI   VARBL1,C'A'         SET TO PASS                          12080007
 001888 41F0 0004            00004  3491          LA    R15,4               SET TO FAIL                          12090007
 00188C 9200 D544      042C4        3492          MVI   VARBL3,X'00'        SET TO PASS                          12100007
 001890 F230 D4B9 D4B6 04239 04236  3493          PACK  PACK1,=Z'1'         SET TO PASS                          12110007
 001896 D204 D4DA D4AC 0425A 0422C  3494          MVC   PREDOUT,=C'TRUE '                                        12120007
 00189C D207 D4BE D228 0423E 03FA8  3495          MVC   TESTNBR,=C'TEST100C'                                     12130007
                                    3496 *                                                                       12140007
                                    3497 TEST100C IF    (CLI,VARBL1,C'A',E),AND,                                C12150007
                                                        ((LTR,R15,R15,Z),OR,(TM,VARBL3,X'01',Z)),AND,           C12160007
                                                        (SP,PACK1,=P'1',Z)                                       12170007
 0018A2 95C1 D542      042C2        3499+TEST100C CLI   VARBL1,C'A'         TWO OPERANDS                         01-IF
 0018A6 A774 0013            018CC  3502+         JNE   $MDF252             FALSE RESULT - POSSIBLE FAIL         01-IF
 0018AA 12FF                        3507+         LTR   R15,R15             TWO OPERANDS                         02-IF2
 0018AC A784 0006            018B8  3510+         JZ    $MDT253             TRUE RESULT - POSSIBLE PASS          02-IF2
 0018B0 9101 D544      042C4        3512+         TM    VARBL3,X'01'        TWO OPERANDS                         02-IF2
 0018B4 A774 000C            018CC  3517+         JNZ   $MDF252             FALSE RESULT - POSSIBLE FAIL         01-IF
 0018B8 FB30 D4B9 D4B7 04239 04237  3519+$MDT253  SP    PACK1,=P'1'         TWO OPERANDS                         01-IF
 0018BE A774 0007            018CC  3523+         JNZ   $MDF252             BRANCH IF CC INDICATES FAIL          01-IF
 0018C2 D204 D4F1 D4AC 04271 0422C  3524            MVC   ACTOUT,=C'TRUE '                                       12180007
                                    3525          ELSE                                                           12190007
 0018C8 A7F4 0005            018D2  3527+         J     $FINI254                                                 01-ELSE
 0018CC                             3528+$MDF252  DC    0H'0'                                                    01-ELSE
 0018CC D204 D4F1 D4B1 04271 04231  3529            MVC   ACTOUT,=C'FALSE'                                       12200007
                                    3530          ENDIF                                                          12210007
 0018D2                             3532+$FINI254 DC    0H'0'                                                    01-ENDIF
                                    3533          IF    (CLC,PREDOUT,ACTOUT,NE)                                  12220007
 0018D2 D504 D4DA D4F1 0425A 04271  3535+         CLC   PREDOUT,ACTOUT      TWO OPERANDS                         01-IF
 0018D8 A784 0005            018E2  3539+         JE    $NEXT255            BRANCH IF CC INDICATES FAIL          01-IF
 0018DC D209 D4F7 D498 04277 04218  3540            MVC   ERROR,=C'<=== ERROR'                                   12230007
                                    3541          ENDIF                                                          12240007
 0018E2                             3543+$NEXT255 DC    0H'0'                                                    01-ENDIF
                                    3544          PUT   SYSPRINT,OUTPUT                                          12250007
 0018E2 4110 D548            042C8  3548+         LA    1,SYSPRINT                        LOAD PARAMETER REG 1   02-IHBIN
 0018E6 4100 D4BD            0423D  3549+         LA    0,OUTPUT                          LOAD PARAMETER REG 0   02-IHBIN
 0018EA 1FFF                        3550+         SLR   15,15               CLEAR REGISTER FOR ICM          @L1A 01-PUT
 0018EC BFF7 1031            00031  3551+         ICM   15,7,49(1)          LOAD PUT ROUTINE ADDRESS        @L1C 01-PUT
 0018F0 0DEF                        3552+         BASR  14,15               LINK TO PUT ROUTINE             @L3C 01-PUT
 0018F2 D209 D4F7 D4A2 04277 04222  3553          MVC   ERROR,=CL10' '                                           12260007
                                    3554 *=*=*=*=*=*=*=*=*=*=*=*=*=*=*=*=*=*=*=*=*=*=*=*=*=*=*=*=*=*=*=*=*=*=*=* 12270007
 0018F8 92E9 D542      042C2        3555          MVI   VARBL1,C'Z'         SET TO FAIL                          12280007
 0018FC 41F0 0004            00004  3556          LA    R15,4               SET TO FAIL                          12290007
 001900 9200 D544      042C4        3557          MVI   VARBL3,X'00'        SET TO PASS                          12300007
 001904 F230 D4B9 D4B6 04239 04236  3558          PACK  PACK1,=Z'1'         SET TO PASS                          12310007
 00190A D204 D4DA D4B1 0425A 04231  3559          MVC   PREDOUT,=C'FALSE'                                        12320007
 001910 D207 D4BE D230 0423E 03FB0  3560          MVC   TESTNBR,=C'TEST100D'                                     12330007
1IFTEST   EXAMPLES OF "IF" LOGIC MACRO INSTRUCTIONS                                                             Page   46
   Active Usings: IFTEST+X'179C',R12  $$WA$$,R13
0  Loc  Object Code    Addr1 Addr2  Stmt   Source Statement                                  HLASM R6.0  2021/03/26 12.00
0                                   3561 *                                                                       12340007
                                    3562 TEST100D IF    (CLI,VARBL1,C'A',E),AND,                                C12350007
                                                        ((LTR,R15,R15,Z),OR,(TM,VARBL3,X'01',Z)),AND,           C12360007
                                                        (SP,PACK1,=P'1',Z)                                       12370007
 001916 95C1 D542      042C2        3564+TEST100D CLI   VARBL1,C'A'         TWO OPERANDS                         01-IF
 00191A A774 0013            01940  3567+         JNE   $MDF256             FALSE RESULT - POSSIBLE FAIL         01-IF
 00191E 12FF                        3572+         LTR   R15,R15             TWO OPERANDS                         02-IF2
 001920 A784 0006            0192C  3575+         JZ    $MDT257             TRUE RESULT - POSSIBLE PASS          02-IF2
 001924 9101 D544      042C4        3577+         TM    VARBL3,X'01'        TWO OPERANDS                         02-IF2
 001928 A774 000C            01940  3582+         JNZ   $MDF256             FALSE RESULT - POSSIBLE FAIL         01-IF
 00192C FB30 D4B9 D4B7 04239 04237  3584+$MDT257  SP    PACK1,=P'1'         TWO OPERANDS                         01-IF
 001932 A774 0007            01940  3588+         JNZ   $MDF256             BRANCH IF CC INDICATES FAIL          01-IF
 001936 D204 D4F1 D4AC 04271 0422C  3589            MVC   ACTOUT,=C'TRUE '                                       12380007
                                    3590          ELSE                                                           12390007
 00193C A7F4 0005            01946  3592+         J     $FINI258                                                 01-ELSE
 001940                             3593+$MDF256  DC    0H'0'                                                    01-ELSE
 001940 D204 D4F1 D4B1 04271 04231  3594            MVC   ACTOUT,=C'FALSE'                                       12400007
                                    3595          ENDIF                                                          12410007
 001946                             3597+$FINI258 DC    0H'0'                                                    01-ENDIF
                                    3598          IF    (CLC,PREDOUT,ACTOUT,NE)                                  12420007
 001946 D504 D4DA D4F1 0425A 04271  3600+         CLC   PREDOUT,ACTOUT      TWO OPERANDS                         01-IF
 00194C A784 0005            01956  3604+         JE    $NEXT259            BRANCH IF CC INDICATES FAIL          01-IF
 001950 D209 D4F7 D498 04277 04218  3605            MVC   ERROR,=C'<=== ERROR'                                   12430007
                                    3606          ENDIF                                                          12440007
 001956                             3608+$NEXT259 DC    0H'0'                                                    01-ENDIF
                                    3609          PUT   SYSPRINT,OUTPUT                                          12450007
 001956 4110 D548            042C8  3613+         LA    1,SYSPRINT                        LOAD PARAMETER REG 1   02-IHBIN
 00195A 4100 D4BD            0423D  3614+         LA    0,OUTPUT                          LOAD PARAMETER REG 0   02-IHBIN
 00195E 1FFF                        3615+         SLR   15,15               CLEAR REGISTER FOR ICM          @L1A 01-PUT
 001960 BFF7 1031            00031  3616+         ICM   15,7,49(1)          LOAD PUT ROUTINE ADDRESS        @L1C 01-PUT
 001964 0DEF                        3617+         BASR  14,15               LINK TO PUT ROUTINE             @L3C 01-PUT
 001966 D209 D4F7 D4A2 04277 04222  3618          MVC   ERROR,=CL10' '                                           12460007
                                    3619 *=*=*=*=*=*=*=*=*=*=*=*=*=*=*=*=*=*=*=*=*=*=*=*=*=*=*=*=*=*=*=*=*=*=*=* 12470007
 00196C 92C1 D542      042C2        3620          MVI   VARBL1,C'A'         SET TO PASS                          12480007
 001970 41F0 0000            00000  3621          LA    R15,0               SET TO PASS                          12490007
 001974 9201 D544      042C4        3622          MVI   VARBL3,X'01'        SET TO FAIL                          12500007
 001978 F230 D4B9 D4B6 04239 04236  3623          PACK  PACK1,=Z'1'         SET TO PASS                          12510007
 00197E D204 D4DA D4AC 0425A 0422C  3624          MVC   PREDOUT,=C'TRUE '                                        12520007
 001984 D207 D4BE D238 0423E 03FB8  3625          MVC   TESTNBR,=C'TEST100E'                                     12530007
                                    3626 *                                                                       12540007
                                    3627 TEST100E IF    (CLI,VARBL1,C'A',E),AND,                                C12550007
                                                        ((LTR,R15,R15,Z),OR,(TM,VARBL3,X'01',Z)),AND,           C12560007
                                                        (SP,PACK1,=P'1',Z)                                       12570007
 00198A 95C1 D542      042C2        3629+TEST100E CLI   VARBL1,C'A'         TWO OPERANDS                         01-IF
 00198E A774 0013            019B4  3632+         JNE   $MDF260             FALSE RESULT - POSSIBLE FAIL         01-IF
 001992 12FF                        3637+         LTR   R15,R15             TWO OPERANDS                         02-IF2
 001994 A784 0006            019A0  3640+         JZ    $MDT261             TRUE RESULT - POSSIBLE PASS          02-IF2
 001998 9101 D544      042C4        3642+         TM    VARBL3,X'01'        TWO OPERANDS                         02-IF2
 00199C A774 000C            019B4  3647+         JNZ   $MDF260             FALSE RESULT - POSSIBLE FAIL         01-IF
 0019A0 FB30 D4B9 D4B7 04239 04237  3649+$MDT261  SP    PACK1,=P'1'         TWO OPERANDS                         01-IF
 0019A6 A774 0007            019B4  3653+         JNZ   $MDF260             BRANCH IF CC INDICATES FAIL          01-IF
 0019AA D204 D4F1 D4AC 04271 0422C  3654            MVC   ACTOUT,=C'TRUE '                                       12580007
                                    3655          ELSE                                                           12590007
 0019B0 A7F4 0005            019BA  3657+         J     $FINI262                                                 01-ELSE
 0019B4                             3658+$MDF260  DC    0H'0'                                                    01-ELSE
1IFTEST   EXAMPLES OF "IF" LOGIC MACRO INSTRUCTIONS                                                             Page   47
   Active Usings: IFTEST+X'179C',R12  $$WA$$,R13
0  Loc  Object Code    Addr1 Addr2  Stmt   Source Statement                                  HLASM R6.0  2021/03/26 12.00
00019B4 D204 D4F1 D4B1 04271 04231  3659            MVC   ACTOUT,=C'FALSE'                                       12600007
                                    3660          ENDIF                                                          12610007
 0019BA                             3662+$FINI262 DC    0H'0'                                                    01-ENDIF
                                    3663          IF    (CLC,PREDOUT,ACTOUT,NE)                                  12620007
 0019BA D504 D4DA D4F1 0425A 04271  3665+         CLC   PREDOUT,ACTOUT      TWO OPERANDS                         01-IF
 0019C0 A784 0005            019CA  3669+         JE    $NEXT263            BRANCH IF CC INDICATES FAIL          01-IF
 0019C4 D209 D4F7 D498 04277 04218  3670            MVC   ERROR,=C'<=== ERROR'                                   12630007
                                    3671          ENDIF                                                          12640007
 0019CA                             3673+$NEXT263 DC    0H'0'                                                    01-ENDIF
                                    3674          PUT   SYSPRINT,OUTPUT                                          12650007
 0019CA 4110 D548            042C8  3678+         LA    1,SYSPRINT                        LOAD PARAMETER REG 1   02-IHBIN
 0019CE 4100 D4BD            0423D  3679+         LA    0,OUTPUT                          LOAD PARAMETER REG 0   02-IHBIN
 0019D2 1FFF                        3680+         SLR   15,15               CLEAR REGISTER FOR ICM          @L1A 01-PUT
 0019D4 BFF7 1031            00031  3681+         ICM   15,7,49(1)          LOAD PUT ROUTINE ADDRESS        @L1C 01-PUT
 0019D8 0DEF                        3682+         BASR  14,15               LINK TO PUT ROUTINE             @L3C 01-PUT
 0019DA D209 D4F7 D4A2 04277 04222  3683          MVC   ERROR,=CL10' '                                           12660007
                                    3684 *=*=*=*=*=*=*=*=*=*=*=*=*=*=*=*=*=*=*=*=*=*=*=*=*=*=*=*=*=*=*=*=*=*=*=* 12670007
 0019E0 92E9 D542      042C2        3685          MVI   VARBL1,C'Z'         SET TO FAIL                          12680007
 0019E4 41F0 0000            00000  3686          LA    R15,0               SET TO PASS                          12690007
 0019E8 9201 D544      042C4        3687          MVI   VARBL3,X'01'        SET TO FAIL                          12700007
 0019EC F230 D4B9 D4B6 04239 04236  3688          PACK  PACK1,=Z'1'         SET TO PASS                          12710007
 0019F2 D204 D4DA D4B1 0425A 04231  3689          MVC   PREDOUT,=C'FALSE'                                        12720007
 0019F8 D207 D4BE D240 0423E 03FC0  3690          MVC   TESTNBR,=C'TEST100F'                                     12730007
                                    3691 *                                                                       12740007
                                    3692 TEST100F IF    (CLI,VARBL1,C'A',E),AND,                                C12750007
                                                        ((LTR,R15,R15,Z),OR,(TM,VARBL3,X'01',Z)),AND,           C12760007
                                                        (SP,PACK1,=P'1',Z)                                       12770007
 0019FE 95C1 D542      042C2        3694+TEST100F CLI   VARBL1,C'A'         TWO OPERANDS                         01-IF
 001A02 A774 0013            01A28  3697+         JNE   $MDF264             FALSE RESULT - POSSIBLE FAIL         01-IF
 001A06 12FF                        3702+         LTR   R15,R15             TWO OPERANDS                         02-IF2
 001A08 A784 0006            01A14  3705+         JZ    $MDT265             TRUE RESULT - POSSIBLE PASS          02-IF2
 001A0C 9101 D544      042C4        3707+         TM    VARBL3,X'01'        TWO OPERANDS                         02-IF2
 001A10 A774 000C            01A28  3712+         JNZ   $MDF264             FALSE RESULT - POSSIBLE FAIL         01-IF
 001A14 FB30 D4B9 D4B7 04239 04237  3714+$MDT265  SP    PACK1,=P'1'         TWO OPERANDS                         01-IF
 001A1A A774 0007            01A28  3718+         JNZ   $MDF264             BRANCH IF CC INDICATES FAIL          01-IF
 001A1E D204 D4F1 D4AC 04271 0422C  3719            MVC   ACTOUT,=C'TRUE '                                       12780007
                                    3720          ELSE                                                           12790007
 001A24 A7F4 0005            01A2E  3722+         J     $FINI266                                                 01-ELSE
 001A28                             3723+$MDF264  DC    0H'0'                                                    01-ELSE
 001A28 D204 D4F1 D4B1 04271 04231  3724            MVC   ACTOUT,=C'FALSE'                                       12800007
                                    3725          ENDIF                                                          12810007
 001A2E                             3727+$FINI266 DC    0H'0'                                                    01-ENDIF
                                    3728          IF    (CLC,PREDOUT,ACTOUT,NE)                                  12820007
 001A2E D504 D4DA D4F1 0425A 04271  3730+         CLC   PREDOUT,ACTOUT      TWO OPERANDS                         01-IF
 001A34 A784 0005            01A3E  3734+         JE    $NEXT267            BRANCH IF CC INDICATES FAIL          01-IF
 001A38 D209 D4F7 D498 04277 04218  3735            MVC   ERROR,=C'<=== ERROR'                                   12830007
                                    3736          ENDIF                                                          12840007
 001A3E                             3738+$NEXT267 DC    0H'0'                                                    01-ENDIF
                                    3739          PUT   SYSPRINT,OUTPUT                                          12850007
 001A3E 4110 D548            042C8  3743+         LA    1,SYSPRINT                        LOAD PARAMETER REG 1   02-IHBIN
 001A42 4100 D4BD            0423D  3744+         LA    0,OUTPUT                          LOAD PARAMETER REG 0   02-IHBIN
 001A46 1FFF                        3745+         SLR   15,15               CLEAR REGISTER FOR ICM          @L1A 01-PUT
 001A48 BFF7 1031            00031  3746+         ICM   15,7,49(1)          LOAD PUT ROUTINE ADDRESS        @L1C 01-PUT
 001A4C 0DEF                        3747+         BASR  14,15               LINK TO PUT ROUTINE             @L3C 01-PUT
 001A4E D209 D4F7 D4A2 04277 04222  3748          MVC   ERROR,=CL10' '                                           12860007
1IFTEST   EXAMPLES OF "IF" LOGIC MACRO INSTRUCTIONS                                                             Page   48
   Active Usings: IFTEST+X'179C',R12  $$WA$$,R13
0  Loc  Object Code    Addr1 Addr2  Stmt   Source Statement                                  HLASM R6.0  2021/03/26 12.00
0                                   3749 *=*=*=*=*=*=*=*=*=*=*=*=*=*=*=*=*=*=*=*=*=*=*=*=*=*=*=*=*=*=*=*=*=*=*=* 12870007
 001A54 92C1 D542      042C2        3750          MVI   VARBL1,C'A'         SET TO PASS                          12880007
 001A58 41F0 0004            00004  3751          LA    R15,4               SET TO FAIL                          12890007
 001A5C 9201 D544      042C4        3752          MVI   VARBL3,X'01'        SET TO FAIL                          12900007
 001A60 F230 D4B9 D4B6 04239 04236  3753          PACK  PACK1,=Z'1'         SET TO PASS                          12910007
 001A66 D204 D4DA D4B1 0425A 04231  3754          MVC   PREDOUT,=C'FALSE'                                        12920007
 001A6C D207 D4BE D248 0423E 03FC8  3755          MVC   TESTNBR,=C'TEST100G'                                     12930007
                                    3756 *                                                                       12940007
                                    3757 TEST100G IF    (CLI,VARBL1,C'A',E),AND,                                C12950007
                                                        ((LTR,R15,R15,Z),OR,(TM,VARBL3,X'01',Z)),AND,           C12960007
                                                        (SP,PACK1,=P'1',Z)                                       12970007
 001A72 95C1 D542      042C2        3759+TEST100G CLI   VARBL1,C'A'         TWO OPERANDS                         01-IF
 001A76 A774 0013            01A9C  3762+         JNE   $MDF268             FALSE RESULT - POSSIBLE FAIL         01-IF
 001A7A 12FF                        3767+         LTR   R15,R15             TWO OPERANDS                         02-IF2
 001A7C A784 0006            01A88  3770+         JZ    $MDT269             TRUE RESULT - POSSIBLE PASS          02-IF2
 001A80 9101 D544      042C4        3772+         TM    VARBL3,X'01'        TWO OPERANDS                         02-IF2
 001A84 A774 000C            01A9C  3777+         JNZ   $MDF268             FALSE RESULT - POSSIBLE FAIL         01-IF
 001A88 FB30 D4B9 D4B7 04239 04237  3779+$MDT269  SP    PACK1,=P'1'         TWO OPERANDS                         01-IF
 001A8E A774 0007            01A9C  3783+         JNZ   $MDF268             BRANCH IF CC INDICATES FAIL          01-IF
 001A92 D204 D4F1 D4AC 04271 0422C  3784            MVC   ACTOUT,=C'TRUE '                                       12980007
                                    3785          ELSE                                                           12990007
 001A98 A7F4 0005            01AA2  3787+         J     $FINI270                                                 01-ELSE
 001A9C                             3788+$MDF268  DC    0H'0'                                                    01-ELSE
 001A9C D204 D4F1 D4B1 04271 04231  3789            MVC   ACTOUT,=C'FALSE'                                       13000007
                                    3790          ENDIF                                                          13010007
 001AA2                             3792+$FINI270 DC    0H'0'                                                    01-ENDIF
                                    3793          IF    (CLC,PREDOUT,ACTOUT,NE)                                  13020007
 001AA2 D504 D4DA D4F1 0425A 04271  3795+         CLC   PREDOUT,ACTOUT      TWO OPERANDS                         01-IF
 001AA8 A784 0005            01AB2  3799+         JE    $NEXT271            BRANCH IF CC INDICATES FAIL          01-IF
 001AAC D209 D4F7 D498 04277 04218  3800            MVC   ERROR,=C'<=== ERROR'                                   13030007
                                    3801          ENDIF                                                          13040007
 001AB2                             3803+$NEXT271 DC    0H'0'                                                    01-ENDIF
                                    3804          PUT   SYSPRINT,OUTPUT                                          13050007
 001AB2 4110 D548            042C8  3808+         LA    1,SYSPRINT                        LOAD PARAMETER REG 1   02-IHBIN
 001AB6 4100 D4BD            0423D  3809+         LA    0,OUTPUT                          LOAD PARAMETER REG 0   02-IHBIN
 001ABA 1FFF                        3810+         SLR   15,15               CLEAR REGISTER FOR ICM          @L1A 01-PUT
 001ABC BFF7 1031            00031  3811+         ICM   15,7,49(1)          LOAD PUT ROUTINE ADDRESS        @L1C 01-PUT
 001AC0 0DEF                        3812+         BASR  14,15               LINK TO PUT ROUTINE             @L3C 01-PUT
 001AC2 D209 D4F7 D4A2 04277 04222  3813          MVC   ERROR,=CL10' '                                           13060007
                                    3814 *=*=*=*=*=*=*=*=*=*=*=*=*=*=*=*=*=*=*=*=*=*=*=*=*=*=*=*=*=*=*=*=*=*=*=* 13070007
 001AC8 92E9 D542      042C2        3815          MVI   VARBL1,C'Z'         SET TO FAIL                          13080007
 001ACC 41F0 0004            00004  3816          LA    R15,4               SET TO FAIL                          13090007
 001AD0 9201 D544      042C4        3817          MVI   VARBL3,X'01'        SET TO FAIL                          13100007
 001AD4 F230 D4B9 D4B6 04239 04236  3818          PACK  PACK1,=Z'1'         SET TO PASS                          13110007
 001ADA D204 D4DA D4B1 0425A 04231  3819          MVC   PREDOUT,=C'FALSE'                                        13120007
 001AE0 D207 D4BE D250 0423E 03FD0  3820          MVC   TESTNBR,=C'TEST100H'                                     13130007
                                    3821 *                                                                       13140007
                                    3822 TEST100H IF    (CLI,VARBL1,C'A',E),AND,                                C13150007
                                                        ((LTR,R15,R15,Z),OR,(TM,VARBL3,X'01',Z)),AND,           C13160007
                                                        (SP,PACK1,=P'1',Z)                                       13170007
 001AE6 95C1 D542      042C2        3824+TEST100H CLI   VARBL1,C'A'         TWO OPERANDS                         01-IF
 001AEA A774 0013            01B10  3827+         JNE   $MDF272             FALSE RESULT - POSSIBLE FAIL         01-IF
 001AEE 12FF                        3832+         LTR   R15,R15             TWO OPERANDS                         02-IF2
 001AF0 A784 0006            01AFC  3835+         JZ    $MDT273             TRUE RESULT - POSSIBLE PASS          02-IF2
 001AF4 9101 D544      042C4        3837+         TM    VARBL3,X'01'        TWO OPERANDS                         02-IF2
1IFTEST   EXAMPLES OF "IF" LOGIC MACRO INSTRUCTIONS                                                             Page   49
   Active Usings: IFTEST+X'179C',R12  $$WA$$,R13
0  Loc  Object Code    Addr1 Addr2  Stmt   Source Statement                                  HLASM R6.0  2021/03/26 12.00
0001AF8 A774 000C            01B10  3842+         JNZ   $MDF272             FALSE RESULT - POSSIBLE FAIL         01-IF
 001AFC FB30 D4B9 D4B7 04239 04237  3844+$MDT273  SP    PACK1,=P'1'         TWO OPERANDS                         01-IF
 001B02 A774 0007            01B10  3848+         JNZ   $MDF272             BRANCH IF CC INDICATES FAIL          01-IF
 001B06 D204 D4F1 D4AC 04271 0422C  3849            MVC   ACTOUT,=C'TRUE '                                       13180007
                                    3850          ELSE                                                           13190007
 001B0C A7F4 0005            01B16  3852+         J     $FINI274                                                 01-ELSE
 001B10                             3853+$MDF272  DC    0H'0'                                                    01-ELSE
 001B10 D204 D4F1 D4B1 04271 04231  3854            MVC   ACTOUT,=C'FALSE'                                       13200007
                                    3855          ENDIF                                                          13210007
 001B16                             3857+$FINI274 DC    0H'0'                                                    01-ENDIF
                                    3858          IF    (CLC,PREDOUT,ACTOUT,NE)                                  13220007
 001B16 D504 D4DA D4F1 0425A 04271  3860+         CLC   PREDOUT,ACTOUT      TWO OPERANDS                         01-IF
 001B1C A784 0005            01B26  3864+         JE    $NEXT275            BRANCH IF CC INDICATES FAIL          01-IF
 001B20 D209 D4F7 D498 04277 04218  3865            MVC   ERROR,=C'<=== ERROR'                                   13230007
                                    3866          ENDIF                                                          13240007
 001B26                             3868+$NEXT275 DC    0H'0'                                                    01-ENDIF
                                    3869          PUT   SYSPRINT,OUTPUT                                          13250007
 001B26 4110 D548            042C8  3873+         LA    1,SYSPRINT                        LOAD PARAMETER REG 1   02-IHBIN
 001B2A 4100 D4BD            0423D  3874+         LA    0,OUTPUT                          LOAD PARAMETER REG 0   02-IHBIN
 001B2E 1FFF                        3875+         SLR   15,15               CLEAR REGISTER FOR ICM          @L1A 01-PUT
 001B30 BFF7 1031            00031  3876+         ICM   15,7,49(1)          LOAD PUT ROUTINE ADDRESS        @L1C 01-PUT
 001B34 0DEF                        3877+         BASR  14,15               LINK TO PUT ROUTINE             @L3C 01-PUT
 001B36 D209 D4F7 D4A2 04277 04222  3878          MVC   ERROR,=CL10' '                                           13260007
                                    3879 *=*=*=*=*=*=*=*=*=*=*=*=*=*=*=*=*=*=*=*=*=*=*=*=*=*=*=*=*=*=*=*=*=*=*=* 13270007
 001B3C 92C1 D542      042C2        3880          MVI   VARBL1,C'A'         SET TO PASS                          13280007
 001B40 41F0 0000            00000  3881          LA    R15,0               SET TO PASS                          13290007
 001B44 9200 D544      042C4        3882          MVI   VARBL3,X'00'        SET TO PASS                          13300007
 001B48 F230 D4B9 D4B8 04239 04238  3883          PACK  PACK1,=Z'2'         SET TO FAIL                          13310007
 001B4E D204 D4DA D4B1 0425A 04231  3884          MVC   PREDOUT,=C'FALSE'                                        13320007
 001B54 D207 D4BE D258 0423E 03FD8  3885          MVC   TESTNBR,=C'TEST100I'                                     13330007
                                    3886 *                                                                       13340007
                                    3887 TEST100I IF    (CLI,VARBL1,C'A',E),AND,                                C13350007
                                                        ((LTR,R15,R15,Z),OR,(TM,VARBL3,X'01',Z)),AND,           C13360007
                                                        (SP,PACK1,=P'1',Z)                                       13370007
 001B5A 95C1 D542      042C2        3889+TEST100I CLI   VARBL1,C'A'         TWO OPERANDS                         01-IF
 001B5E A774 0013            01B84  3892+         JNE   $MDF276             FALSE RESULT - POSSIBLE FAIL         01-IF
 001B62 12FF                        3897+         LTR   R15,R15             TWO OPERANDS                         02-IF2
 001B64 A784 0006            01B70  3900+         JZ    $MDT277             TRUE RESULT - POSSIBLE PASS          02-IF2
 001B68 9101 D544      042C4        3902+         TM    VARBL3,X'01'        TWO OPERANDS                         02-IF2
 001B6C A774 000C            01B84  3907+         JNZ   $MDF276             FALSE RESULT - POSSIBLE FAIL         01-IF
 001B70 FB30 D4B9 D4B7 04239 04237  3909+$MDT277  SP    PACK1,=P'1'         TWO OPERANDS                         01-IF
 001B76 A774 0007            01B84  3913+         JNZ   $MDF276             BRANCH IF CC INDICATES FAIL          01-IF
 001B7A D204 D4F1 D4AC 04271 0422C  3914            MVC   ACTOUT,=C'TRUE '                                       13380007
                                    3915          ELSE                                                           13390007
 001B80 A7F4 0005            01B8A  3917+         J     $FINI278                                                 01-ELSE
 001B84                             3918+$MDF276  DC    0H'0'                                                    01-ELSE
 001B84 D204 D4F1 D4B1 04271 04231  3919            MVC   ACTOUT,=C'FALSE'                                       13400007
                                    3920          ENDIF                                                          13410007
 001B8A                             3922+$FINI278 DC    0H'0'                                                    01-ENDIF
                                    3923          IF    (CLC,PREDOUT,ACTOUT,NE)                                  13420007
 001B8A D504 D4DA D4F1 0425A 04271  3925+         CLC   PREDOUT,ACTOUT      TWO OPERANDS                         01-IF
 001B90 A784 0005            01B9A  3929+         JE    $NEXT279            BRANCH IF CC INDICATES FAIL          01-IF
 001B94 D209 D4F7 D498 04277 04218  3930            MVC   ERROR,=C'<=== ERROR'                                   13430007
                                    3931          ENDIF                                                          13440007
 001B9A                             3933+$NEXT279 DC    0H'0'                                                    01-ENDIF
1IFTEST   EXAMPLES OF "IF" LOGIC MACRO INSTRUCTIONS                                                             Page   50
   Active Usings: IFTEST+X'179C',R12  $$WA$$,R13
0  Loc  Object Code    Addr1 Addr2  Stmt   Source Statement                                  HLASM R6.0  2021/03/26 12.00
0                                   3934          PUT   SYSPRINT,OUTPUT                                          13450007
 001B9A 4110 D548            042C8  3938+         LA    1,SYSPRINT                        LOAD PARAMETER REG 1   02-IHBIN
 001B9E 4100 D4BD            0423D  3939+         LA    0,OUTPUT                          LOAD PARAMETER REG 0   02-IHBIN
 001BA2 1FFF                        3940+         SLR   15,15               CLEAR REGISTER FOR ICM          @L1A 01-PUT
 001BA4 BFF7 1031            00031  3941+         ICM   15,7,49(1)          LOAD PUT ROUTINE ADDRESS        @L1C 01-PUT
 001BA8 0DEF                        3942+         BASR  14,15               LINK TO PUT ROUTINE             @L3C 01-PUT
 001BAA D209 D4F7 D4A2 04277 04222  3943          MVC   ERROR,=CL10' '                                           13460007
                                    3944 *=*=*=*=*=*=*=*=*=*=*=*=*=*=*=*=*=*=*=*=*=*=*=*=*=*=*=*=*=*=*=*=*=*=*=* 13470007
 001BB0 92E9 D542      042C2        3945          MVI   VARBL1,C'Z'         SET TO FAIL                          13480007
 001BB4 41F0 0000            00000  3946          LA    R15,0               SET TO PASS                          13490007
 001BB8 9200 D544      042C4        3947          MVI   VARBL3,X'00'        SET TO PASS                          13500007
 001BBC F230 D4B9 D4B8 04239 04238  3948          PACK  PACK1,=Z'2'         SET TO FAIL                          13510007
 001BC2 D204 D4DA D4B1 0425A 04231  3949          MVC   PREDOUT,=C'FALSE'                                        13520007
 001BC8 D207 D4BE D260 0423E 03FE0  3950          MVC   TESTNBR,=C'TEST100J'                                     13530007
                                    3951 *                                                                       13540007
                                    3952 TEST100J IF    (CLI,VARBL1,C'A',E),AND,                                C13550007
                                                        ((LTR,R15,R15,Z),OR,(TM,VARBL3,X'01',Z)),AND,           C13560007
                                                        (SP,PACK1,=P'1',Z)                                       13570007
 001BCE 95C1 D542      042C2        3954+TEST100J CLI   VARBL1,C'A'         TWO OPERANDS                         01-IF
 001BD2 A774 0013            01BF8  3957+         JNE   $MDF280             FALSE RESULT - POSSIBLE FAIL         01-IF
 001BD6 12FF                        3962+         LTR   R15,R15             TWO OPERANDS                         02-IF2
 001BD8 A784 0006            01BE4  3965+         JZ    $MDT281             TRUE RESULT - POSSIBLE PASS          02-IF2
 001BDC 9101 D544      042C4        3967+         TM    VARBL3,X'01'        TWO OPERANDS                         02-IF2
 001BE0 A774 000C            01BF8  3972+         JNZ   $MDF280             FALSE RESULT - POSSIBLE FAIL         01-IF
 001BE4 FB30 D4B9 D4B7 04239 04237  3974+$MDT281  SP    PACK1,=P'1'         TWO OPERANDS                         01-IF
 001BEA A774 0007            01BF8  3978+         JNZ   $MDF280             BRANCH IF CC INDICATES FAIL          01-IF
 001BEE D204 D4F1 D4AC 04271 0422C  3979            MVC   ACTOUT,=C'TRUE '                                       13580007
                                    3980          ELSE                                                           13590007
 001BF4 A7F4 0005            01BFE  3982+         J     $FINI282                                                 01-ELSE
 001BF8                             3983+$MDF280  DC    0H'0'                                                    01-ELSE
 001BF8 D204 D4F1 D4B1 04271 04231  3984            MVC   ACTOUT,=C'FALSE'                                       13600007
                                    3985          ENDIF                                                          13610007
 001BFE                             3987+$FINI282 DC    0H'0'                                                    01-ENDIF
                                    3988          IF    (CLC,PREDOUT,ACTOUT,NE)                                  13620007
 001BFE D504 D4DA D4F1 0425A 04271  3990+         CLC   PREDOUT,ACTOUT      TWO OPERANDS                         01-IF
 001C04 A784 0005            01C0E  3994+         JE    $NEXT283            BRANCH IF CC INDICATES FAIL          01-IF
 001C08 D209 D4F7 D498 04277 04218  3995            MVC   ERROR,=C'<=== ERROR'                                   13630007
                                    3996          ENDIF                                                          13640007
 001C0E                             3998+$NEXT283 DC    0H'0'                                                    01-ENDIF
                                    3999          PUT   SYSPRINT,OUTPUT                                          13650007
 001C0E 4110 D548            042C8  4003+         LA    1,SYSPRINT                        LOAD PARAMETER REG 1   02-IHBIN
 001C12 4100 D4BD            0423D  4004+         LA    0,OUTPUT                          LOAD PARAMETER REG 0   02-IHBIN
 001C16 1FFF                        4005+         SLR   15,15               CLEAR REGISTER FOR ICM          @L1A 01-PUT
 001C18 BFF7 1031            00031  4006+         ICM   15,7,49(1)          LOAD PUT ROUTINE ADDRESS        @L1C 01-PUT
 001C1C 0DEF                        4007+         BASR  14,15               LINK TO PUT ROUTINE             @L3C 01-PUT
 001C1E D209 D4F7 D4A2 04277 04222  4008          MVC   ERROR,=CL10' '                                           13660007
                                    4009 *=*=*=*=*=*=*=*=*=*=*=*=*=*=*=*=*=*=*=*=*=*=*=*=*=*=*=*=*=*=*=*=*=*=*=* 13670007
 001C24 92C1 D542      042C2        4010          MVI   VARBL1,C'A'         SET TO PASS                          13680007
 001C28 41F0 0004            00004  4011          LA    R15,4               SET TO FAIL                          13690007
 001C2C 9200 D544      042C4        4012          MVI   VARBL3,X'00'        SET TO PASS                          13700007
 001C30 F230 D4B9 D4B8 04239 04238  4013          PACK  PACK1,=Z'2'         SET TO FAIL                          13710007
 001C36 D204 D4DA D4B1 0425A 04231  4014          MVC   PREDOUT,=C'FALSE'                                        13720007
 001C3C D207 D4BE D268 0423E 03FE8  4015          MVC   TESTNBR,=C'TEST100K'                                     13730007
                                    4016 *                                                                       13740007
                                    4017 TEST100K IF    (CLI,VARBL1,C'A',E),AND,                                C13750007
1IFTEST   EXAMPLES OF "IF" LOGIC MACRO INSTRUCTIONS                                                             Page   51
   Active Usings: IFTEST+X'179C',R12  $$WA$$,R13
0  Loc  Object Code    Addr1 Addr2  Stmt   Source Statement                                  HLASM R6.0  2021/03/26 12.00
0                                                       ((LTR,R15,R15,Z),OR,(TM,VARBL3,X'01',Z)),AND,           C13760007
                                                        (SP,PACK1,=P'1',Z)                                       13770007
 001C42 95C1 D542      042C2        4019+TEST100K CLI   VARBL1,C'A'         TWO OPERANDS                         01-IF
 001C46 A774 0013            01C6C  4022+         JNE   $MDF284             FALSE RESULT - POSSIBLE FAIL         01-IF
 001C4A 12FF                        4027+         LTR   R15,R15             TWO OPERANDS                         02-IF2
 001C4C A784 0006            01C58  4030+         JZ    $MDT285             TRUE RESULT - POSSIBLE PASS          02-IF2
 001C50 9101 D544      042C4        4032+         TM    VARBL3,X'01'        TWO OPERANDS                         02-IF2
 001C54 A774 000C            01C6C  4037+         JNZ   $MDF284             FALSE RESULT - POSSIBLE FAIL         01-IF
 001C58 FB30 D4B9 D4B7 04239 04237  4039+$MDT285  SP    PACK1,=P'1'         TWO OPERANDS                         01-IF
 001C5E A774 0007            01C6C  4043+         JNZ   $MDF284             BRANCH IF CC INDICATES FAIL          01-IF
 001C62 D204 D4F1 D4AC 04271 0422C  4044            MVC   ACTOUT,=C'TRUE '                                       13780007
                                    4045          ELSE                                                           13790007
 001C68 A7F4 0005            01C72  4047+         J     $FINI286                                                 01-ELSE
 001C6C                             4048+$MDF284  DC    0H'0'                                                    01-ELSE
 001C6C D204 D4F1 D4B1 04271 04231  4049            MVC   ACTOUT,=C'FALSE'                                       13800007
                                    4050          ENDIF                                                          13810007
 001C72                             4052+$FINI286 DC    0H'0'                                                    01-ENDIF
                                    4053          IF    (CLC,PREDOUT,ACTOUT,NE)                                  13820007
 001C72 D504 D4DA D4F1 0425A 04271  4055+         CLC   PREDOUT,ACTOUT      TWO OPERANDS                         01-IF
 001C78 A784 0005            01C82  4059+         JE    $NEXT287            BRANCH IF CC INDICATES FAIL          01-IF
 001C7C D209 D4F7 D498 04277 04218  4060            MVC   ERROR,=C'<=== ERROR'                                   13830007
                                    4061          ENDIF                                                          13840007
 001C82                             4063+$NEXT287 DC    0H'0'                                                    01-ENDIF
                                    4064          PUT   SYSPRINT,OUTPUT                                          13850007
 001C82 4110 D548            042C8  4068+         LA    1,SYSPRINT                        LOAD PARAMETER REG 1   02-IHBIN
 001C86 4100 D4BD            0423D  4069+         LA    0,OUTPUT                          LOAD PARAMETER REG 0   02-IHBIN
 001C8A 1FFF                        4070+         SLR   15,15               CLEAR REGISTER FOR ICM          @L1A 01-PUT
 001C8C BFF7 1031            00031  4071+         ICM   15,7,49(1)          LOAD PUT ROUTINE ADDRESS        @L1C 01-PUT
 001C90 0DEF                        4072+         BASR  14,15               LINK TO PUT ROUTINE             @L3C 01-PUT
 001C92 D209 D4F7 D4A2 04277 04222  4073          MVC   ERROR,=CL10' '                                           13860007
                                    4074 *=*=*=*=*=*=*=*=*=*=*=*=*=*=*=*=*=*=*=*=*=*=*=*=*=*=*=*=*=*=*=*=*=*=*=* 13870007
 001C98 92E9 D542      042C2        4075          MVI   VARBL1,C'Z'         SET TO FAIL                          13880007
 001C9C 41F0 0004            00004  4076          LA    R15,4               SET TO FAIL                          13890007
 001CA0 9200 D544      042C4        4077          MVI   VARBL3,X'00'        SET TO PASS                          13900007
 001CA4 F230 D4B9 D4B8 04239 04238  4078          PACK  PACK1,=Z'2'         SET TO FAIL                          13910007
 001CAA D204 D4DA D4B1 0425A 04231  4079          MVC   PREDOUT,=C'FALSE'                                        13920007
 001CB0 D207 D4BE D270 0423E 03FF0  4080          MVC   TESTNBR,=C'TEST100L'                                     13930007
                                    4081 *                                                                       13940007
                                    4082 TEST100L IF    (CLI,VARBL1,C'A',E),AND,                                C13950007
                                                        ((LTR,R15,R15,Z),OR,(TM,VARBL3,X'01',Z)),AND,           C13960007
                                                        (SP,PACK1,=P'1',Z)                                       13970007
 001CB6 95C1 D542      042C2        4084+TEST100L CLI   VARBL1,C'A'         TWO OPERANDS                         01-IF
 001CBA A774 0013            01CE0  4087+         JNE   $MDF288             FALSE RESULT - POSSIBLE FAIL         01-IF
 001CBE 12FF                        4092+         LTR   R15,R15             TWO OPERANDS                         02-IF2
 001CC0 A784 0006            01CCC  4095+         JZ    $MDT289             TRUE RESULT - POSSIBLE PASS          02-IF2
 001CC4 9101 D544      042C4        4097+         TM    VARBL3,X'01'        TWO OPERANDS                         02-IF2
 001CC8 A774 000C            01CE0  4102+         JNZ   $MDF288             FALSE RESULT - POSSIBLE FAIL         01-IF
 001CCC FB30 D4B9 D4B7 04239 04237  4104+$MDT289  SP    PACK1,=P'1'         TWO OPERANDS                         01-IF
 001CD2 A774 0007            01CE0  4108+         JNZ   $MDF288             BRANCH IF CC INDICATES FAIL          01-IF
 001CD6 D204 D4F1 D4AC 04271 0422C  4109            MVC   ACTOUT,=C'TRUE '                                       13980007
                                    4110          ELSE                                                           13990007
 001CDC A7F4 0005            01CE6  4112+         J     $FINI290                                                 01-ELSE
 001CE0                             4113+$MDF288  DC    0H'0'                                                    01-ELSE
 001CE0 D204 D4F1 D4B1 04271 04231  4114            MVC   ACTOUT,=C'FALSE'                                       14000007
                                    4115          ENDIF                                                          14010007
1IFTEST   EXAMPLES OF "IF" LOGIC MACRO INSTRUCTIONS                                                             Page   52
   Active Usings: IFTEST+X'179C',R12  $$WA$$,R13
0  Loc  Object Code    Addr1 Addr2  Stmt   Source Statement                                  HLASM R6.0  2021/03/26 12.00
0001CE6                             4117+$FINI290 DC    0H'0'                                                    01-ENDIF
                                    4118          IF    (CLC,PREDOUT,ACTOUT,NE)                                  14020007
 001CE6 D504 D4DA D4F1 0425A 04271  4120+         CLC   PREDOUT,ACTOUT      TWO OPERANDS                         01-IF
 001CEC A784 0005            01CF6  4124+         JE    $NEXT291            BRANCH IF CC INDICATES FAIL          01-IF
 001CF0 D209 D4F7 D498 04277 04218  4125            MVC   ERROR,=C'<=== ERROR'                                   14030007
                                    4126          ENDIF                                                          14040007
 001CF6                             4128+$NEXT291 DC    0H'0'                                                    01-ENDIF
                                    4129          PUT   SYSPRINT,OUTPUT                                          14050007
 001CF6 4110 D548            042C8  4133+         LA    1,SYSPRINT                        LOAD PARAMETER REG 1   02-IHBIN
 001CFA 4100 D4BD            0423D  4134+         LA    0,OUTPUT                          LOAD PARAMETER REG 0   02-IHBIN
 001CFE 1FFF                        4135+         SLR   15,15               CLEAR REGISTER FOR ICM          @L1A 01-PUT
 001D00 BFF7 1031            00031  4136+         ICM   15,7,49(1)          LOAD PUT ROUTINE ADDRESS        @L1C 01-PUT
 001D04 0DEF                        4137+         BASR  14,15               LINK TO PUT ROUTINE             @L3C 01-PUT
 001D06 D209 D4F7 D4A2 04277 04222  4138          MVC   ERROR,=CL10' '                                           14060007
                                    4139 *=*=*=*=*=*=*=*=*=*=*=*=*=*=*=*=*=*=*=*=*=*=*=*=*=*=*=*=*=*=*=*=*=*=*=* 14070007
 001D0C 92C1 D542      042C2        4140          MVI   VARBL1,C'A'         SET TO PASS                          14080007
 001D10 41F0 0000            00000  4141          LA    R15,0               SET TO PASS                          14090007
 001D14 9201 D544      042C4        4142          MVI   VARBL3,X'01'        SET TO FAIL                          14100007
 001D18 F230 D4B9 D4B8 04239 04238  4143          PACK  PACK1,=Z'2'         SET TO FAIL                          14110007
 001D1E D204 D4DA D4B1 0425A 04231  4144          MVC   PREDOUT,=C'FALSE'                                        14120007
 001D24 D207 D4BE D278 0423E 03FF8  4145          MVC   TESTNBR,=C'TEST100M'                                     14130007
                                    4146 *                                                                       14140007
                                    4147 TEST100M IF    (CLI,VARBL1,C'A',E),AND,                                C14150007
                                                        ((LTR,R15,R15,Z),OR,(TM,VARBL3,X'01',Z)),AND,           C14160007
                                                        (SP,PACK1,=P'1',Z)                                       14170007
 001D2A 95C1 D542      042C2        4149+TEST100M CLI   VARBL1,C'A'         TWO OPERANDS                         01-IF
 001D2E A774 0013            01D54  4152+         JNE   $MDF292             FALSE RESULT - POSSIBLE FAIL         01-IF
 001D32 12FF                        4157+         LTR   R15,R15             TWO OPERANDS                         02-IF2
 001D34 A784 0006            01D40  4160+         JZ    $MDT293             TRUE RESULT - POSSIBLE PASS          02-IF2
 001D38 9101 D544      042C4        4162+         TM    VARBL3,X'01'        TWO OPERANDS                         02-IF2
 001D3C A774 000C            01D54  4167+         JNZ   $MDF292             FALSE RESULT - POSSIBLE FAIL         01-IF
 001D40 FB30 D4B9 D4B7 04239 04237  4169+$MDT293  SP    PACK1,=P'1'         TWO OPERANDS                         01-IF
 001D46 A774 0007            01D54  4173+         JNZ   $MDF292             BRANCH IF CC INDICATES FAIL          01-IF
 001D4A D204 D4F1 D4AC 04271 0422C  4174            MVC   ACTOUT,=C'TRUE '                                       14180007
                                    4175          ELSE                                                           14190007
 001D50 A7F4 0005            01D5A  4177+         J     $FINI294                                                 01-ELSE
 001D54                             4178+$MDF292  DC    0H'0'                                                    01-ELSE
 001D54 D204 D4F1 D4B1 04271 04231  4179            MVC   ACTOUT,=C'FALSE'                                       14200007
                                    4180          ENDIF                                                          14210007
 001D5A                             4182+$FINI294 DC    0H'0'                                                    01-ENDIF
                                    4183          IF    (CLC,PREDOUT,ACTOUT,NE)                                  14220007
 001D5A D504 D4DA D4F1 0425A 04271  4185+         CLC   PREDOUT,ACTOUT      TWO OPERANDS                         01-IF
 001D60 A784 0005            01D6A  4189+         JE    $NEXT295            BRANCH IF CC INDICATES FAIL          01-IF
 001D64 D209 D4F7 D498 04277 04218  4190            MVC   ERROR,=C'<=== ERROR'                                   14230007
                                    4191          ENDIF                                                          14240007
 001D6A                             4193+$NEXT295 DC    0H'0'                                                    01-ENDIF
                                    4194          PUT   SYSPRINT,OUTPUT                                          14250007
 001D6A 4110 D548            042C8  4198+         LA    1,SYSPRINT                        LOAD PARAMETER REG 1   02-IHBIN
 001D6E 4100 D4BD            0423D  4199+         LA    0,OUTPUT                          LOAD PARAMETER REG 0   02-IHBIN
 001D72 1FFF                        4200+         SLR   15,15               CLEAR REGISTER FOR ICM          @L1A 01-PUT
 001D74 BFF7 1031            00031  4201+         ICM   15,7,49(1)          LOAD PUT ROUTINE ADDRESS        @L1C 01-PUT
 001D78 0DEF                        4202+         BASR  14,15               LINK TO PUT ROUTINE             @L3C 01-PUT
 001D7A D209 D4F7 D4A2 04277 04222  4203          MVC   ERROR,=CL10' '                                           14260007
                                    4204 *=*=*=*=*=*=*=*=*=*=*=*=*=*=*=*=*=*=*=*=*=*=*=*=*=*=*=*=*=*=*=*=*=*=*=* 14270007
 001D80 92E9 D542      042C2        4205          MVI   VARBL1,C'Z'         SET TO FAIL                          14280007
1IFTEST   EXAMPLES OF "IF" LOGIC MACRO INSTRUCTIONS                                                             Page   53
   Active Usings: IFTEST+X'179C',R12  $$WA$$,R13
0  Loc  Object Code    Addr1 Addr2  Stmt   Source Statement                                  HLASM R6.0  2021/03/26 12.00
0001D84 41F0 0000            00000  4206          LA    R15,0               SET TO PASS                          14290007
 001D88 9201 D544      042C4        4207          MVI   VARBL3,X'01'        SET TO FAIL                          14300007
 001D8C F230 D4B9 D4B8 04239 04238  4208          PACK  PACK1,=Z'2'         SET TO FAIL                          14310007
 001D92 D204 D4DA D4B1 0425A 04231  4209          MVC   PREDOUT,=C'FALSE'                                        14320007
 001D98 D207 D4BE D280 0423E 04000  4210          MVC   TESTNBR,=C'TEST100N'                                     14330007
                                    4211 *                                                                       14340007
                                    4212 TEST100N IF    (CLI,VARBL1,C'A',E),AND,                                C14350007
                                                        ((LTR,R15,R15,Z),OR,(TM,VARBL3,X'01',Z)),AND,           C14360007
                                                        (SP,PACK1,=P'1',Z)                                       14370007
 001D9E 95C1 D542      042C2        4214+TEST100N CLI   VARBL1,C'A'         TWO OPERANDS                         01-IF
 001DA2 A774 0013            01DC8  4217+         JNE   $MDF296             FALSE RESULT - POSSIBLE FAIL         01-IF
 001DA6 12FF                        4222+         LTR   R15,R15             TWO OPERANDS                         02-IF2
 001DA8 A784 0006            01DB4  4225+         JZ    $MDT297             TRUE RESULT - POSSIBLE PASS          02-IF2
 001DAC 9101 D544      042C4        4227+         TM    VARBL3,X'01'        TWO OPERANDS                         02-IF2
 001DB0 A774 000C            01DC8  4232+         JNZ   $MDF296             FALSE RESULT - POSSIBLE FAIL         01-IF
 001DB4 FB30 D4B9 D4B7 04239 04237  4234+$MDT297  SP    PACK1,=P'1'         TWO OPERANDS                         01-IF
 001DBA A774 0007            01DC8  4238+         JNZ   $MDF296             BRANCH IF CC INDICATES FAIL          01-IF
 001DBE D204 D4F1 D4AC 04271 0422C  4239            MVC   ACTOUT,=C'TRUE '                                       14380007
                                    4240          ELSE                                                           14390007
 001DC4 A7F4 0005            01DCE  4242+         J     $FINI298                                                 01-ELSE
 001DC8                             4243+$MDF296  DC    0H'0'                                                    01-ELSE
 001DC8 D204 D4F1 D4B1 04271 04231  4244            MVC   ACTOUT,=C'FALSE'                                       14400007
                                    4245          ENDIF                                                          14410007
 001DCE                             4247+$FINI298 DC    0H'0'                                                    01-ENDIF
                                    4248          IF    (CLC,PREDOUT,ACTOUT,NE)                                  14420007
 001DCE D504 D4DA D4F1 0425A 04271  4250+         CLC   PREDOUT,ACTOUT      TWO OPERANDS                         01-IF
 001DD4 A784 0005            01DDE  4254+         JE    $NEXT299            BRANCH IF CC INDICATES FAIL          01-IF
 001DD8 D209 D4F7 D498 04277 04218  4255            MVC   ERROR,=C'<=== ERROR'                                   14430007
                                    4256          ENDIF                                                          14440007
 001DDE                             4258+$NEXT299 DC    0H'0'                                                    01-ENDIF
                                    4259          PUT   SYSPRINT,OUTPUT                                          14450007
 001DDE 4110 D548            042C8  4263+         LA    1,SYSPRINT                        LOAD PARAMETER REG 1   02-IHBIN
 001DE2 4100 D4BD            0423D  4264+         LA    0,OUTPUT                          LOAD PARAMETER REG 0   02-IHBIN
 001DE6 1FFF                        4265+         SLR   15,15               CLEAR REGISTER FOR ICM          @L1A 01-PUT
 001DE8 BFF7 1031            00031  4266+         ICM   15,7,49(1)          LOAD PUT ROUTINE ADDRESS        @L1C 01-PUT
 001DEC 0DEF                        4267+         BASR  14,15               LINK TO PUT ROUTINE             @L3C 01-PUT
 001DEE D209 D4F7 D4A2 04277 04222  4268          MVC   ERROR,=CL10' '                                           14460007
                                    4269 *=*=*=*=*=*=*=*=*=*=*=*=*=*=*=*=*=*=*=*=*=*=*=*=*=*=*=*=*=*=*=*=*=*=*=* 14470007
 001DF4 92C1 D542      042C2        4270          MVI   VARBL1,C'A'         SET TO PASS                          14480007
 001DF8 41F0 0004            00004  4271          LA    R15,4               SET TO FAIL                          14490007
 001DFC 9201 D544      042C4        4272          MVI   VARBL3,X'01'        SET TO FAIL                          14500007
 001E00 F230 D4B9 D4B8 04239 04238  4273          PACK  PACK1,=Z'2'         SET TO FAIL                          14510007
 001E06 D204 D4DA D4B1 0425A 04231  4274          MVC   PREDOUT,=C'FALSE'                                        14520007
 001E0C D207 D4BE D288 0423E 04008  4275          MVC   TESTNBR,=C'TEST100O'                                     14530007
                                    4276 *                                                                       14540007
                                    4277 TEST100O IF    (CLI,VARBL1,C'A',E),AND,                                C14550007
                                                        ((LTR,R15,R15,Z),OR,(TM,VARBL3,X'01',Z)),AND,           C14560007
                                                        (SP,PACK1,=P'1',Z)                                       14570007
 001E12 95C1 D542      042C2        4279+TEST100O CLI   VARBL1,C'A'         TWO OPERANDS                         01-IF
 001E16 A774 0013            01E3C  4282+         JNE   $MDF300             FALSE RESULT - POSSIBLE FAIL         01-IF
 001E1A 12FF                        4287+         LTR   R15,R15             TWO OPERANDS                         02-IF2
 001E1C A784 0006            01E28  4290+         JZ    $MDT301             TRUE RESULT - POSSIBLE PASS          02-IF2
 001E20 9101 D544      042C4        4292+         TM    VARBL3,X'01'        TWO OPERANDS                         02-IF2
 001E24 A774 000C            01E3C  4297+         JNZ   $MDF300             FALSE RESULT - POSSIBLE FAIL         01-IF
 001E28 FB30 D4B9 D4B7 04239 04237  4299+$MDT301  SP    PACK1,=P'1'         TWO OPERANDS                         01-IF
1IFTEST   EXAMPLES OF "IF" LOGIC MACRO INSTRUCTIONS                                                             Page   54
   Active Usings: IFTEST+X'179C',R12  $$WA$$,R13
0  Loc  Object Code    Addr1 Addr2  Stmt   Source Statement                                  HLASM R6.0  2021/03/26 12.00
0001E2E A774 0007            01E3C  4303+         JNZ   $MDF300             BRANCH IF CC INDICATES FAIL          01-IF
 001E32 D204 D4F1 D4AC 04271 0422C  4304            MVC   ACTOUT,=C'TRUE '                                       14580007
                                    4305          ELSE                                                           14590007
 001E38 A7F4 0005            01E42  4307+         J     $FINI302                                                 01-ELSE
 001E3C                             4308+$MDF300  DC    0H'0'                                                    01-ELSE
 001E3C D204 D4F1 D4B1 04271 04231  4309            MVC   ACTOUT,=C'FALSE'                                       14600007
                                    4310          ENDIF                                                          14610007
 001E42                             4312+$FINI302 DC    0H'0'                                                    01-ENDIF
                                    4313          IF    (CLC,PREDOUT,ACTOUT,NE)                                  14620007
 001E42 D504 D4DA D4F1 0425A 04271  4315+         CLC   PREDOUT,ACTOUT      TWO OPERANDS                         01-IF
 001E48 A784 0005            01E52  4319+         JE    $NEXT303            BRANCH IF CC INDICATES FAIL          01-IF
 001E4C D209 D4F7 D498 04277 04218  4320            MVC   ERROR,=C'<=== ERROR'                                   14630007
                                    4321          ENDIF                                                          14640007
 001E52                             4323+$NEXT303 DC    0H'0'                                                    01-ENDIF
                                    4324          PUT   SYSPRINT,OUTPUT                                          14650007
 001E52 4110 D548            042C8  4328+         LA    1,SYSPRINT                        LOAD PARAMETER REG 1   02-IHBIN
 001E56 4100 D4BD            0423D  4329+         LA    0,OUTPUT                          LOAD PARAMETER REG 0   02-IHBIN
 001E5A 1FFF                        4330+         SLR   15,15               CLEAR REGISTER FOR ICM          @L1A 01-PUT
 001E5C BFF7 1031            00031  4331+         ICM   15,7,49(1)          LOAD PUT ROUTINE ADDRESS        @L1C 01-PUT
 001E60 0DEF                        4332+         BASR  14,15               LINK TO PUT ROUTINE             @L3C 01-PUT
 001E62 D209 D4F7 D4A2 04277 04222  4333          MVC   ERROR,=CL10' '                                           14660007
                                    4334 *=*=*=*=*=*=*=*=*=*=*=*=*=*=*=*=*=*=*=*=*=*=*=*=*=*=*=*=*=*=*=*=*=*=*=* 14670007
 001E68 92E9 D542      042C2        4335          MVI   VARBL1,C'Z'         SET TO FAIL                          14680007
 001E6C 41F0 0004            00004  4336          LA    R15,4               SET TO FAIL                          14690007
 001E70 9201 D544      042C4        4337          MVI   VARBL3,X'01'        SET TO FAIL                          14700007
 001E74 F230 D4B9 D4B8 04239 04238  4338          PACK  PACK1,=Z'2'         SET TO FAIL                          14710007
 001E7A D204 D4DA D4B1 0425A 04231  4339          MVC   PREDOUT,=C'FALSE'                                        14720007
 001E80 D207 D4BE D290 0423E 04010  4340          MVC   TESTNBR,=C'TEST100P'                                     14730007
                                    4341 *                                                                       14740007
                                    4342 TEST100P IF    (CLI,VARBL1,C'A',E),AND,                                C14750007
                                                        ((LTR,R15,R15,Z),OR,(TM,VARBL3,X'01',Z)),AND,           C14760007
                                                        (SP,PACK1,=P'1',Z)                                       14770007
 001E86 95C1 D542      042C2        4344+TEST100P CLI   VARBL1,C'A'         TWO OPERANDS                         01-IF
 001E8A A774 0013            01EB0  4347+         JNE   $MDF304             FALSE RESULT - POSSIBLE FAIL         01-IF
 001E8E 12FF                        4352+         LTR   R15,R15             TWO OPERANDS                         02-IF2
 001E90 A784 0006            01E9C  4355+         JZ    $MDT305             TRUE RESULT - POSSIBLE PASS          02-IF2
 001E94 9101 D544      042C4        4357+         TM    VARBL3,X'01'        TWO OPERANDS                         02-IF2
 001E98 A774 000C            01EB0  4362+         JNZ   $MDF304             FALSE RESULT - POSSIBLE FAIL         01-IF
 001E9C FB30 D4B9 D4B7 04239 04237  4364+$MDT305  SP    PACK1,=P'1'         TWO OPERANDS                         01-IF
 001EA2 A774 0007            01EB0  4368+         JNZ   $MDF304             BRANCH IF CC INDICATES FAIL          01-IF
 001EA6 D204 D4F1 D4AC 04271 0422C  4369            MVC   ACTOUT,=C'TRUE '                                       14780007
                                    4370          ELSE                                                           14790007
 001EAC A7F4 0005            01EB6  4372+         J     $FINI306                                                 01-ELSE
 001EB0                             4373+$MDF304  DC    0H'0'                                                    01-ELSE
 001EB0 D204 D4F1 D4B1 04271 04231  4374            MVC   ACTOUT,=C'FALSE'                                       14800007
                                    4375          ENDIF                                                          14810007
 001EB6                             4377+$FINI306 DC    0H'0'                                                    01-ENDIF
                                    4378          IF    (CLC,PREDOUT,ACTOUT,NE)                                  14820007
 001EB6 D504 D4DA D4F1 0425A 04271  4380+         CLC   PREDOUT,ACTOUT      TWO OPERANDS                         01-IF
 001EBC A784 0005            01EC6  4384+         JE    $NEXT307            BRANCH IF CC INDICATES FAIL          01-IF
 001EC0 D209 D4F7 D498 04277 04218  4385            MVC   ERROR,=C'<=== ERROR'                                   14830007
                                    4386          ENDIF                                                          14840007
 001EC6                             4388+$NEXT307 DC    0H'0'                                                    01-ENDIF
                                    4389          PUT   SYSPRINT,OUTPUT                                          14850007
 001EC6 4110 D548            042C8  4393+         LA    1,SYSPRINT                        LOAD PARAMETER REG 1   02-IHBIN
1IFTEST   EXAMPLES OF "IF" LOGIC MACRO INSTRUCTIONS                                                             Page   55
   Active Usings: IFTEST+X'179C',R12  $$WA$$,R13
0  Loc  Object Code    Addr1 Addr2  Stmt   Source Statement                                  HLASM R6.0  2021/03/26 12.00
0001ECA 4100 D4BD            0423D  4394+         LA    0,OUTPUT                          LOAD PARAMETER REG 0   02-IHBIN
 001ECE 1FFF                        4395+         SLR   15,15               CLEAR REGISTER FOR ICM          @L1A 01-PUT
 001ED0 BFF7 1031            00031  4396+         ICM   15,7,49(1)          LOAD PUT ROUTINE ADDRESS        @L1C 01-PUT
 001ED4 0DEF                        4397+         BASR  14,15               LINK TO PUT ROUTINE             @L3C 01-PUT
 001ED6 D209 D4F7 D4A2 04277 04222  4398          MVC   ERROR,=CL10' '                                           14860007
                                    4399 *=*=*=*=*=*=*=*=*=*=*=*=*=*=*=*=*=*=*=*=*=*=*=*=*=*=*=*=*=*=*=*=*=*=*=* 14870007
                                    4400 *                                                                     * 14880007
                                    4401 * IF (A) OR (B) AND (C) OR (D)                                        * 14890007
                                    4402 *                                                                     * 14900007
                                    4403 *=*=*=*=*=*=*=*=*=*=*=*=*=*=*=*=*=*=*=*=*=*=*=*=*=*=*=*=*=*=*=*=*=*=*=* 14910007
                                    4404 *                                                                       14920007
 001EDC 05C0                        4405          BALR  R12,0                                                    14930016
                  R:C  01EDE        4406          USING *,R12                                                    14940016
 001EDE 92C1 D542      042C2        4407          MVI   VARBL1,C'A'         SET TO PASS                          14950007
 001EE2 41F0 0000            00000  4408          LA    R15,0               SET TO PASS                          14960007
 001EE6 9200 D544      042C4        4409          MVI   VARBL3,X'00'        SET TO PASS                          14970007
 001EEA F230 D4B9 D4B6 04239 04236  4410          PACK  PACK1,=Z'1'         SET TO PASS                          14980007
 001EF0 D204 D4DA D4AC 0425A 0422C  4411          MVC   PREDOUT,=C'TRUE '                                        14990007
 001EF6 D207 D4BE D298 0423E 04018  4412          MVC   TESTNBR,=C'TEST110A'                                     15000007
                                    4413 *                                                                       15010007
                                    4414 TEST110A IF    (CLI,VARBL1,C'A',E),OR,(LTR,R15,R15,Z),AND,             C15020007
                                                        (TM,VARBL3,X'01',Z),OR,(SP,PACK1,=P'1',Z)                15030007
 001EFC 95C1 D542      042C2        4416+TEST110A CLI   VARBL1,C'A'         TWO OPERANDS                         01-IF
 001F00 A784 000E            01F1C  4419+         JE    $MDT308             TRUE RESULT - POSSIBLE PASS          01-IF
 001F04 12FF                        4421+         LTR   R15,R15             TWO OPERANDS                         01-IF
 001F06 A774 0006            01F12  4424+         JNZ   $MDF309             FALSE RESULT - POSSIBLE FAIL         01-IF
 001F0A 9101 D544      042C4        4426+         TM    VARBL3,X'01'        TWO OPERANDS                         01-IF
 001F0E A784 0007            01F1C  4429+         JZ    $MDT308             TRUE RESULT - POSSIBLE PASS          01-IF
 001F12 FB30 D4B9 D4B7 04239 04237  4431+$MDF309  SP    PACK1,=P'1'         TWO OPERANDS                         01-IF
 001F18 A774 0007            01F26  4435+         JNZ   $NEXT310            BRANCH IF CC INDICATES FAIL          01-IF
 001F1C                             4436+$MDT308  DC    0H'0'               END RESULT WAS PASS - DO THE EXECUTE 01-IF
 001F1C D204 D4F1 D4AC 04271 0422C  4437            MVC   ACTOUT,=C'TRUE '                                       15040007
                                    4438          ELSE                                                           15050007
 001F22 A7F4 0005            01F2C  4440+         J     $FINI311                                                 01-ELSE
 001F26                             4441+$NEXT310 DC    0H'0'                                                    01-ELSE
 001F26 D204 D4F1 D4B1 04271 04231  4442            MVC   ACTOUT,=C'FALSE'                                       15060007
                                    4443          ENDIF                                                          15070007
 001F2C                             4445+$FINI311 DC    0H'0'                                                    01-ENDIF
                                    4446          IF    (CLC,PREDOUT,ACTOUT,NE)                                  15080007
 001F2C D504 D4DA D4F1 0425A 04271  4448+         CLC   PREDOUT,ACTOUT      TWO OPERANDS                         01-IF
 001F32 A784 0005            01F3C  4452+         JE    $NEXT312            BRANCH IF CC INDICATES FAIL          01-IF
 001F36 D209 D4F7 D498 04277 04218  4453            MVC   ERROR,=C'<=== ERROR'                                   15090007
                                    4454          ENDIF                                                          15100007
 001F3C                             4456+$NEXT312 DC    0H'0'                                                    01-ENDIF
                                    4457          PUT   SYSPRINT,OUTPUT                                          15110007
 001F3C 4110 D548            042C8  4461+         LA    1,SYSPRINT                        LOAD PARAMETER REG 1   02-IHBIN
 001F40 4100 D4BD            0423D  4462+         LA    0,OUTPUT                          LOAD PARAMETER REG 0   02-IHBIN
 001F44 1FFF                        4463+         SLR   15,15               CLEAR REGISTER FOR ICM          @L1A 01-PUT
 001F46 BFF7 1031            00031  4464+         ICM   15,7,49(1)          LOAD PUT ROUTINE ADDRESS        @L1C 01-PUT
 001F4A 0DEF                        4465+         BASR  14,15               LINK TO PUT ROUTINE             @L3C 01-PUT
 001F4C D209 D4F7 D4A2 04277 04222  4466          MVC   ERROR,=CL10' '                                           15120007
                                    4467 *=*=*=*=*=*=*=*=*=*=*=*=*=*=*=*=*=*=*=*=*=*=*=*=*=*=*=*=*=*=*=*=*=*=*=* 15130007
 001F52 92E9 D542      042C2        4468          MVI   VARBL1,C'Z'         SET TO FAIL                          15140007
 001F56 41F0 0000            00000  4469          LA    R15,0               SET TO PASS                          15150007
 001F5A 9200 D544      042C4        4470          MVI   VARBL3,X'00'        SET TO PASS                          15160007
1IFTEST   EXAMPLES OF "IF" LOGIC MACRO INSTRUCTIONS                                                             Page   56
   Active Usings: IFTEST+X'1EDE',R12  $$WA$$,R13
0  Loc  Object Code    Addr1 Addr2  Stmt   Source Statement                                  HLASM R6.0  2021/03/26 12.00
0001F5E F230 D4B9 D4B6 04239 04236  4471          PACK  PACK1,=Z'1'         SET TO PASS                          15170007
 001F64 D204 D4DA D4AC 0425A 0422C  4472          MVC   PREDOUT,=C'TRUE '                                        15180007
 001F6A D207 D4BE D2A0 0423E 04020  4473          MVC   TESTNBR,=C'TEST110B'                                     15190007
                                    4474 *                                                                       15200007
                                    4475 TEST110B IF    (CLI,VARBL1,C'A',E),OR,(LTR,R15,R15,Z),AND,             C15210007
                                                        (TM,VARBL3,X'01',Z),OR,(SP,PACK1,=P'1',Z)                15220007
 001F70 95C1 D542      042C2        4477+TEST110B CLI   VARBL1,C'A'         TWO OPERANDS                         01-IF
 001F74 A784 000E            01F90  4480+         JE    $MDT313             TRUE RESULT - POSSIBLE PASS          01-IF
 001F78 12FF                        4482+         LTR   R15,R15             TWO OPERANDS                         01-IF
 001F7A A774 0006            01F86  4485+         JNZ   $MDF314             FALSE RESULT - POSSIBLE FAIL         01-IF
 001F7E 9101 D544      042C4        4487+         TM    VARBL3,X'01'        TWO OPERANDS                         01-IF
 001F82 A784 0007            01F90  4490+         JZ    $MDT313             TRUE RESULT - POSSIBLE PASS          01-IF
 001F86 FB30 D4B9 D4B7 04239 04237  4492+$MDF314  SP    PACK1,=P'1'         TWO OPERANDS                         01-IF
 001F8C A774 0007            01F9A  4496+         JNZ   $NEXT315            BRANCH IF CC INDICATES FAIL          01-IF
 001F90                             4497+$MDT313  DC    0H'0'               END RESULT WAS PASS - DO THE EXECUTE 01-IF
 001F90 D204 D4F1 D4AC 04271 0422C  4498            MVC   ACTOUT,=C'TRUE '                                       15230007
                                    4499          ELSE                                                           15240007
 001F96 A7F4 0005            01FA0  4501+         J     $FINI316                                                 01-ELSE
 001F9A                             4502+$NEXT315 DC    0H'0'                                                    01-ELSE
 001F9A D204 D4F1 D4B1 04271 04231  4503            MVC   ACTOUT,=C'FALSE'                                       15250007
                                    4504          ENDIF                                                          15260007
 001FA0                             4506+$FINI316 DC    0H'0'                                                    01-ENDIF
                                    4507          IF    (CLC,PREDOUT,ACTOUT,NE)                                  15270007
 001FA0 D504 D4DA D4F1 0425A 04271  4509+         CLC   PREDOUT,ACTOUT      TWO OPERANDS                         01-IF
 001FA6 A784 0005            01FB0  4513+         JE    $NEXT317            BRANCH IF CC INDICATES FAIL          01-IF
 001FAA D209 D4F7 D498 04277 04218  4514            MVC   ERROR,=C'<=== ERROR'                                   15280007
                                    4515          ENDIF                                                          15290007
 001FB0                             4517+$NEXT317 DC    0H'0'                                                    01-ENDIF
                                    4518          PUT   SYSPRINT,OUTPUT                                          15300007
 001FB0 4110 D548            042C8  4522+         LA    1,SYSPRINT                        LOAD PARAMETER REG 1   02-IHBIN
 001FB4 4100 D4BD            0423D  4523+         LA    0,OUTPUT                          LOAD PARAMETER REG 0   02-IHBIN
 001FB8 1FFF                        4524+         SLR   15,15               CLEAR REGISTER FOR ICM          @L1A 01-PUT
 001FBA BFF7 1031            00031  4525+         ICM   15,7,49(1)          LOAD PUT ROUTINE ADDRESS        @L1C 01-PUT
 001FBE 0DEF                        4526+         BASR  14,15               LINK TO PUT ROUTINE             @L3C 01-PUT
 001FC0 D209 D4F7 D4A2 04277 04222  4527          MVC   ERROR,=CL10' '                                           15310007
                                    4528 *=*=*=*=*=*=*=*=*=*=*=*=*=*=*=*=*=*=*=*=*=*=*=*=*=*=*=*=*=*=*=*=*=*=*=* 15320007
 001FC6 92C1 D542      042C2        4529          MVI   VARBL1,C'A'         SET TO PASS                          15330007
 001FCA 41F0 0004            00004  4530          LA    R15,4               SET TO FAIL                          15340007
 001FCE 9200 D544      042C4        4531          MVI   VARBL3,X'00'        SET TO PASS                          15350007
 001FD2 F230 D4B9 D4B6 04239 04236  4532          PACK  PACK1,=Z'1'         SET TO PASS                          15360007
 001FD8 D204 D4DA D4AC 0425A 0422C  4533          MVC   PREDOUT,=C'TRUE '                                        15370007
 001FDE D207 D4BE D2A8 0423E 04028  4534          MVC   TESTNBR,=C'TEST110C'                                     15380007
                                    4535 *                                                                       15390007
                                    4536 TEST110C IF    (CLI,VARBL1,C'A',E),OR,(LTR,R15,R15,Z),AND,             C15400007
                                                        (TM,VARBL3,X'01',Z),OR,(SP,PACK1,=P'1',Z)                15410007
 001FE4 95C1 D542      042C2        4538+TEST110C CLI   VARBL1,C'A'         TWO OPERANDS                         01-IF
 001FE8 A784 000E            02004  4541+         JE    $MDT318             TRUE RESULT - POSSIBLE PASS          01-IF
 001FEC 12FF                        4543+         LTR   R15,R15             TWO OPERANDS                         01-IF
 001FEE A774 0006            01FFA  4546+         JNZ   $MDF319             FALSE RESULT - POSSIBLE FAIL         01-IF
 001FF2 9101 D544      042C4        4548+         TM    VARBL3,X'01'        TWO OPERANDS                         01-IF
 001FF6 A784 0007            02004  4551+         JZ    $MDT318             TRUE RESULT - POSSIBLE PASS          01-IF
 001FFA FB30 D4B9 D4B7 04239 04237  4553+$MDF319  SP    PACK1,=P'1'         TWO OPERANDS                         01-IF
 002000 A774 0007            0200E  4557+         JNZ   $NEXT320            BRANCH IF CC INDICATES FAIL          01-IF
 002004                             4558+$MDT318  DC    0H'0'               END RESULT WAS PASS - DO THE EXECUTE 01-IF
 002004 D204 D4F1 D4AC 04271 0422C  4559            MVC   ACTOUT,=C'TRUE '                                       15420007
1IFTEST   EXAMPLES OF "IF" LOGIC MACRO INSTRUCTIONS                                                             Page   57
   Active Usings: IFTEST+X'1EDE',R12  $$WA$$,R13
0  Loc  Object Code    Addr1 Addr2  Stmt   Source Statement                                  HLASM R6.0  2021/03/26 12.00
0                                   4560          ELSE                                                           15430007
 00200A A7F4 0005            02014  4562+         J     $FINI321                                                 01-ELSE
 00200E                             4563+$NEXT320 DC    0H'0'                                                    01-ELSE
 00200E D204 D4F1 D4B1 04271 04231  4564            MVC   ACTOUT,=C'FALSE'                                       15440007
                                    4565          ENDIF                                                          15450007
 002014                             4567+$FINI321 DC    0H'0'                                                    01-ENDIF
                                    4568          IF    (CLC,PREDOUT,ACTOUT,NE)                                  15460007
 002014 D504 D4DA D4F1 0425A 04271  4570+         CLC   PREDOUT,ACTOUT      TWO OPERANDS                         01-IF
 00201A A784 0005            02024  4574+         JE    $NEXT322            BRANCH IF CC INDICATES FAIL          01-IF
 00201E D209 D4F7 D498 04277 04218  4575            MVC   ERROR,=C'<=== ERROR'                                   15470007
                                    4576          ENDIF                                                          15480007
 002024                             4578+$NEXT322 DC    0H'0'                                                    01-ENDIF
                                    4579          PUT   SYSPRINT,OUTPUT                                          15490007
 002024 4110 D548            042C8  4583+         LA    1,SYSPRINT                        LOAD PARAMETER REG 1   02-IHBIN
 002028 4100 D4BD            0423D  4584+         LA    0,OUTPUT                          LOAD PARAMETER REG 0   02-IHBIN
 00202C 1FFF                        4585+         SLR   15,15               CLEAR REGISTER FOR ICM          @L1A 01-PUT
 00202E BFF7 1031            00031  4586+         ICM   15,7,49(1)          LOAD PUT ROUTINE ADDRESS        @L1C 01-PUT
 002032 0DEF                        4587+         BASR  14,15               LINK TO PUT ROUTINE             @L3C 01-PUT
 002034 D209 D4F7 D4A2 04277 04222  4588          MVC   ERROR,=CL10' '                                           15500007
                                    4589 *=*=*=*=*=*=*=*=*=*=*=*=*=*=*=*=*=*=*=*=*=*=*=*=*=*=*=*=*=*=*=*=*=*=*=* 15510007
 00203A 92E9 D542      042C2        4590          MVI   VARBL1,C'Z'         SET TO FAIL                          15520007
 00203E 41F0 0004            00004  4591          LA    R15,4               SET TO FAIL                          15530007
 002042 9200 D544      042C4        4592          MVI   VARBL3,X'00'        SET TO PASS                          15540007
 002046 F230 D4B9 D4B6 04239 04236  4593          PACK  PACK1,=Z'1'         SET TO PASS                          15550007
 00204C D204 D4DA D4AC 0425A 0422C  4594          MVC   PREDOUT,=C'TRUE '                                        15560007
 002052 D207 D4BE D2B0 0423E 04030  4595          MVC   TESTNBR,=C'TEST110D'                                     15570007
                                    4596 *                                                                       15580007
                                    4597 TEST110D IF    (CLI,VARBL1,C'A',E),OR,(LTR,R15,R15,Z),AND,             C15590007
                                                        (TM,VARBL3,X'01',Z),OR,(SP,PACK1,=P'1',Z)                15600007
 002058 95C1 D542      042C2        4599+TEST110D CLI   VARBL1,C'A'         TWO OPERANDS                         01-IF
 00205C A784 000E            02078  4602+         JE    $MDT323             TRUE RESULT - POSSIBLE PASS          01-IF
 002060 12FF                        4604+         LTR   R15,R15             TWO OPERANDS                         01-IF
 002062 A774 0006            0206E  4607+         JNZ   $MDF324             FALSE RESULT - POSSIBLE FAIL         01-IF
 002066 9101 D544      042C4        4609+         TM    VARBL3,X'01'        TWO OPERANDS                         01-IF
 00206A A784 0007            02078  4612+         JZ    $MDT323             TRUE RESULT - POSSIBLE PASS          01-IF
 00206E FB30 D4B9 D4B7 04239 04237  4614+$MDF324  SP    PACK1,=P'1'         TWO OPERANDS                         01-IF
 002074 A774 0007            02082  4618+         JNZ   $NEXT325            BRANCH IF CC INDICATES FAIL          01-IF
 002078                             4619+$MDT323  DC    0H'0'               END RESULT WAS PASS - DO THE EXECUTE 01-IF
 002078 D204 D4F1 D4AC 04271 0422C  4620            MVC   ACTOUT,=C'TRUE '                                       15610007
                                    4621          ELSE                                                           15620007
 00207E A7F4 0005            02088  4623+         J     $FINI326                                                 01-ELSE
 002082                             4624+$NEXT325 DC    0H'0'                                                    01-ELSE
 002082 D204 D4F1 D4B1 04271 04231  4625            MVC   ACTOUT,=C'FALSE'                                       15630007
                                    4626          ENDIF                                                          15640007
 002088                             4628+$FINI326 DC    0H'0'                                                    01-ENDIF
                                    4629          IF    (CLC,PREDOUT,ACTOUT,NE)                                  15650007
 002088 D504 D4DA D4F1 0425A 04271  4631+         CLC   PREDOUT,ACTOUT      TWO OPERANDS                         01-IF
 00208E A784 0005            02098  4635+         JE    $NEXT327            BRANCH IF CC INDICATES FAIL          01-IF
 002092 D209 D4F7 D498 04277 04218  4636            MVC   ERROR,=C'<=== ERROR'                                   15660007
                                    4637          ENDIF                                                          15670007
 002098                             4639+$NEXT327 DC    0H'0'                                                    01-ENDIF
                                    4640          PUT   SYSPRINT,OUTPUT                                          15680007
 002098 4110 D548            042C8  4644+         LA    1,SYSPRINT                        LOAD PARAMETER REG 1   02-IHBIN
 00209C 4100 D4BD            0423D  4645+         LA    0,OUTPUT                          LOAD PARAMETER REG 0   02-IHBIN
 0020A0 1FFF                        4646+         SLR   15,15               CLEAR REGISTER FOR ICM          @L1A 01-PUT
1IFTEST   EXAMPLES OF "IF" LOGIC MACRO INSTRUCTIONS                                                             Page   58
   Active Usings: IFTEST+X'1EDE',R12  $$WA$$,R13
0  Loc  Object Code    Addr1 Addr2  Stmt   Source Statement                                  HLASM R6.0  2021/03/26 12.00
00020A2 BFF7 1031            00031  4647+         ICM   15,7,49(1)          LOAD PUT ROUTINE ADDRESS        @L1C 01-PUT
 0020A6 0DEF                        4648+         BASR  14,15               LINK TO PUT ROUTINE             @L3C 01-PUT
 0020A8 D209 D4F7 D4A2 04277 04222  4649          MVC   ERROR,=CL10' '                                           15690007
                                    4650 *=*=*=*=*=*=*=*=*=*=*=*=*=*=*=*=*=*=*=*=*=*=*=*=*=*=*=*=*=*=*=*=*=*=*=* 15700007
 0020AE 92C1 D542      042C2        4651          MVI   VARBL1,C'A'         SET TO PASS                          15710007
 0020B2 41F0 0000            00000  4652          LA    R15,0               SET TO PASS                          15720007
 0020B6 9201 D544      042C4        4653          MVI   VARBL3,X'01'        SET TO FAIL                          15730007
 0020BA F230 D4B9 D4B6 04239 04236  4654          PACK  PACK1,=Z'1'         SET TO PASS                          15740007
 0020C0 D204 D4DA D4AC 0425A 0422C  4655          MVC   PREDOUT,=C'TRUE '                                        15750007
 0020C6 D207 D4BE D2B8 0423E 04038  4656          MVC   TESTNBR,=C'TEST110E'                                     15760007
                                    4657 *                                                                       15770007
                                    4658 TEST110E IF    (CLI,VARBL1,C'A',E),OR,(LTR,R15,R15,Z),AND,             C15780007
                                                        (TM,VARBL3,X'01',Z),OR,(SP,PACK1,=P'1',Z)                15790007
 0020CC 95C1 D542      042C2        4660+TEST110E CLI   VARBL1,C'A'         TWO OPERANDS                         01-IF
 0020D0 A784 000E            020EC  4663+         JE    $MDT328             TRUE RESULT - POSSIBLE PASS          01-IF
 0020D4 12FF                        4665+         LTR   R15,R15             TWO OPERANDS                         01-IF
 0020D6 A774 0006            020E2  4668+         JNZ   $MDF329             FALSE RESULT - POSSIBLE FAIL         01-IF
 0020DA 9101 D544      042C4        4670+         TM    VARBL3,X'01'        TWO OPERANDS                         01-IF
 0020DE A784 0007            020EC  4673+         JZ    $MDT328             TRUE RESULT - POSSIBLE PASS          01-IF
 0020E2 FB30 D4B9 D4B7 04239 04237  4675+$MDF329  SP    PACK1,=P'1'         TWO OPERANDS                         01-IF
 0020E8 A774 0007            020F6  4679+         JNZ   $NEXT330            BRANCH IF CC INDICATES FAIL          01-IF
 0020EC                             4680+$MDT328  DC    0H'0'               END RESULT WAS PASS - DO THE EXECUTE 01-IF
 0020EC D204 D4F1 D4AC 04271 0422C  4681            MVC   ACTOUT,=C'TRUE '                                       15800007
                                    4682          ELSE                                                           15810007
 0020F2 A7F4 0005            020FC  4684+         J     $FINI331                                                 01-ELSE
 0020F6                             4685+$NEXT330 DC    0H'0'                                                    01-ELSE
 0020F6 D204 D4F1 D4B1 04271 04231  4686            MVC   ACTOUT,=C'FALSE'                                       15820007
                                    4687          ENDIF                                                          15830007
 0020FC                             4689+$FINI331 DC    0H'0'                                                    01-ENDIF
                                    4690          IF    (CLC,PREDOUT,ACTOUT,NE)                                  15840007
 0020FC D504 D4DA D4F1 0425A 04271  4692+         CLC   PREDOUT,ACTOUT      TWO OPERANDS                         01-IF
 002102 A784 0005            0210C  4696+         JE    $NEXT332            BRANCH IF CC INDICATES FAIL          01-IF
 002106 D209 D4F7 D498 04277 04218  4697            MVC   ERROR,=C'<=== ERROR'                                   15850007
                                    4698          ENDIF                                                          15860007
 00210C                             4700+$NEXT332 DC    0H'0'                                                    01-ENDIF
                                    4701          PUT   SYSPRINT,OUTPUT                                          15870007
 00210C 4110 D548            042C8  4705+         LA    1,SYSPRINT                        LOAD PARAMETER REG 1   02-IHBIN
 002110 4100 D4BD            0423D  4706+         LA    0,OUTPUT                          LOAD PARAMETER REG 0   02-IHBIN
 002114 1FFF                        4707+         SLR   15,15               CLEAR REGISTER FOR ICM          @L1A 01-PUT
 002116 BFF7 1031            00031  4708+         ICM   15,7,49(1)          LOAD PUT ROUTINE ADDRESS        @L1C 01-PUT
 00211A 0DEF                        4709+         BASR  14,15               LINK TO PUT ROUTINE             @L3C 01-PUT
 00211C D209 D4F7 D4A2 04277 04222  4710          MVC   ERROR,=CL10' '         PUT   SYSPRINT,OUTPUT             15880007
                                    4711 *=*=*=*=*=*=*=*=*=*=*=*=*=*=*=*=*=*=*=*=*=*=*=*=*=*=*=*=*=*=*=*=*=*=*=* 15890007
 002122 92E9 D542      042C2        4712          MVI   VARBL1,C'Z'         SET TO FAIL                          15900007
 002126 41F0 0000            00000  4713          LA    R15,0               SET TO PASS                          15910007
 00212A 9201 D544      042C4        4714          MVI   VARBL3,X'01'        SET TO FAIL                          15920007
 00212E F230 D4B9 D4B6 04239 04236  4715          PACK  PACK1,=Z'1'         SET TO PASS                          15930007
 002134 D204 D4DA D4AC 0425A 0422C  4716          MVC   PREDOUT,=C'TRUE '                                        15940007
 00213A D207 D4BE D2C0 0423E 04040  4717          MVC   TESTNBR,=C'TEST110F'                                     15950007
                                    4718 *                                                                       15960007
                                    4719 TEST110F IF    (CLI,VARBL1,C'A',E),OR,(LTR,R15,R15,Z),AND,             C15970007
                                                        (TM,VARBL3,X'01',Z),OR,(SP,PACK1,=P'1',Z)                15980007
 002140 95C1 D542      042C2        4721+TEST110F CLI   VARBL1,C'A'         TWO OPERANDS                         01-IF
 002144 A784 000E            02160  4724+         JE    $MDT333             TRUE RESULT - POSSIBLE PASS          01-IF
 002148 12FF                        4726+         LTR   R15,R15             TWO OPERANDS                         01-IF
1IFTEST   EXAMPLES OF "IF" LOGIC MACRO INSTRUCTIONS                                                             Page   59
   Active Usings: IFTEST+X'1EDE',R12  $$WA$$,R13
0  Loc  Object Code    Addr1 Addr2  Stmt   Source Statement                                  HLASM R6.0  2021/03/26 12.00
000214A A774 0006            02156  4729+         JNZ   $MDF334             FALSE RESULT - POSSIBLE FAIL         01-IF
 00214E 9101 D544      042C4        4731+         TM    VARBL3,X'01'        TWO OPERANDS                         01-IF
 002152 A784 0007            02160  4734+         JZ    $MDT333             TRUE RESULT - POSSIBLE PASS          01-IF
 002156 FB30 D4B9 D4B7 04239 04237  4736+$MDF334  SP    PACK1,=P'1'         TWO OPERANDS                         01-IF
 00215C A774 0007            0216A  4740+         JNZ   $NEXT335            BRANCH IF CC INDICATES FAIL          01-IF
 002160                             4741+$MDT333  DC    0H'0'               END RESULT WAS PASS - DO THE EXECUTE 01-IF
 002160 D204 D4F1 D4AC 04271 0422C  4742            MVC   ACTOUT,=C'TRUE '                                       15990007
                                    4743          ELSE                                                           16000007
 002166 A7F4 0005            02170  4745+         J     $FINI336                                                 01-ELSE
 00216A                             4746+$NEXT335 DC    0H'0'                                                    01-ELSE
 00216A D204 D4F1 D4B1 04271 04231  4747            MVC   ACTOUT,=C'FALSE'                                       16010007
                                    4748          ENDIF                                                          16020007
 002170                             4750+$FINI336 DC    0H'0'                                                    01-ENDIF
                                    4751          IF    (CLC,PREDOUT,ACTOUT,NE)                                  16030007
 002170 D504 D4DA D4F1 0425A 04271  4753+         CLC   PREDOUT,ACTOUT      TWO OPERANDS                         01-IF
 002176 A784 0005            02180  4757+         JE    $NEXT337            BRANCH IF CC INDICATES FAIL          01-IF
 00217A D209 D4F7 D498 04277 04218  4758            MVC   ERROR,=C'<=== ERROR'                                   16040007
                                    4759          ENDIF                                                          16050007
 002180                             4761+$NEXT337 DC    0H'0'                                                    01-ENDIF
                                    4762          PUT   SYSPRINT,OUTPUT                                          16060007
 002180 4110 D548            042C8  4766+         LA    1,SYSPRINT                        LOAD PARAMETER REG 1   02-IHBIN
 002184 4100 D4BD            0423D  4767+         LA    0,OUTPUT                          LOAD PARAMETER REG 0   02-IHBIN
 002188 1FFF                        4768+         SLR   15,15               CLEAR REGISTER FOR ICM          @L1A 01-PUT
 00218A BFF7 1031            00031  4769+         ICM   15,7,49(1)          LOAD PUT ROUTINE ADDRESS        @L1C 01-PUT
 00218E 0DEF                        4770+         BASR  14,15               LINK TO PUT ROUTINE             @L3C 01-PUT
 002190 D209 D4F7 D4A2 04277 04222  4771          MVC   ERROR,=CL10' '                                           16070007
                                    4772 *=*=*=*=*=*=*=*=*=*=*=*=*=*=*=*=*=*=*=*=*=*=*=*=*=*=*=*=*=*=*=*=*=*=*=* 16080007
 002196 92C1 D542      042C2        4773          MVI   VARBL1,C'A'         SET TO PASS                          16090007
 00219A 41F0 0004            00004  4774          LA    R15,4               SET TO FAIL                          16100007
 00219E 9201 D544      042C4        4775          MVI   VARBL3,X'01'        SET TO FAIL                          16110007
 0021A2 F230 D4B9 D4B6 04239 04236  4776          PACK  PACK1,=Z'1'         SET TO PASS                          16120007
 0021A8 D204 D4DA D4AC 0425A 0422C  4777          MVC   PREDOUT,=C'TRUE '                                        16130007
 0021AE D207 D4BE D2C8 0423E 04048  4778          MVC   TESTNBR,=C'TEST110G'                                     16140007
                                    4779 *                                                                       16150007
                                    4780 TEST110G IF    (CLI,VARBL1,C'A',E),OR,(LTR,R15,R15,Z),AND,             C16160007
                                                        (TM,VARBL3,X'01',Z),OR,(SP,PACK1,=P'1',Z)                16170007
 0021B4 95C1 D542      042C2        4782+TEST110G CLI   VARBL1,C'A'         TWO OPERANDS                         01-IF
 0021B8 A784 000E            021D4  4785+         JE    $MDT338             TRUE RESULT - POSSIBLE PASS          01-IF
 0021BC 12FF                        4787+         LTR   R15,R15             TWO OPERANDS                         01-IF
 0021BE A774 0006            021CA  4790+         JNZ   $MDF339             FALSE RESULT - POSSIBLE FAIL         01-IF
 0021C2 9101 D544      042C4        4792+         TM    VARBL3,X'01'        TWO OPERANDS                         01-IF
 0021C6 A784 0007            021D4  4795+         JZ    $MDT338             TRUE RESULT - POSSIBLE PASS          01-IF
 0021CA FB30 D4B9 D4B7 04239 04237  4797+$MDF339  SP    PACK1,=P'1'         TWO OPERANDS                         01-IF
 0021D0 A774 0007            021DE  4801+         JNZ   $NEXT340            BRANCH IF CC INDICATES FAIL          01-IF
 0021D4                             4802+$MDT338  DC    0H'0'               END RESULT WAS PASS - DO THE EXECUTE 01-IF
 0021D4 D204 D4F1 D4AC 04271 0422C  4803            MVC   ACTOUT,=C'TRUE '                                       16180007
                                    4804          ELSE                                                           16190007
 0021DA A7F4 0005            021E4  4806+         J     $FINI341                                                 01-ELSE
 0021DE                             4807+$NEXT340 DC    0H'0'                                                    01-ELSE
 0021DE D204 D4F1 D4B1 04271 04231  4808            MVC   ACTOUT,=C'FALSE'                                       16200007
                                    4809          ENDIF                                                          16210007
 0021E4                             4811+$FINI341 DC    0H'0'                                                    01-ENDIF
                                    4812          IF    (CLC,PREDOUT,ACTOUT,NE)                                  16220007
 0021E4 D504 D4DA D4F1 0425A 04271  4814+         CLC   PREDOUT,ACTOUT      TWO OPERANDS                         01-IF
 0021EA A784 0005            021F4  4818+         JE    $NEXT342            BRANCH IF CC INDICATES FAIL          01-IF
1IFTEST   EXAMPLES OF "IF" LOGIC MACRO INSTRUCTIONS                                                             Page   60
   Active Usings: IFTEST+X'1EDE',R12  $$WA$$,R13
0  Loc  Object Code    Addr1 Addr2  Stmt   Source Statement                                  HLASM R6.0  2021/03/26 12.00
00021EE D209 D4F7 D498 04277 04218  4819            MVC   ERROR,=C'<=== ERROR'                                   16230007
                                    4820          ENDIF                                                          16240007
 0021F4                             4822+$NEXT342 DC    0H'0'                                                    01-ENDIF
                                    4823          PUT   SYSPRINT,OUTPUT                                          16250007
 0021F4 4110 D548            042C8  4827+         LA    1,SYSPRINT                        LOAD PARAMETER REG 1   02-IHBIN
 0021F8 4100 D4BD            0423D  4828+         LA    0,OUTPUT                          LOAD PARAMETER REG 0   02-IHBIN
 0021FC 1FFF                        4829+         SLR   15,15               CLEAR REGISTER FOR ICM          @L1A 01-PUT
 0021FE BFF7 1031            00031  4830+         ICM   15,7,49(1)          LOAD PUT ROUTINE ADDRESS        @L1C 01-PUT
 002202 0DEF                        4831+         BASR  14,15               LINK TO PUT ROUTINE             @L3C 01-PUT
 002204 D209 D4F7 D4A2 04277 04222  4832          MVC   ERROR,=CL10' '                                           16260007
                                    4833 *=*=*=*=*=*=*=*=*=*=*=*=*=*=*=*=*=*=*=*=*=*=*=*=*=*=*=*=*=*=*=*=*=*=*=* 16270007
 00220A 92E9 D542      042C2        4834          MVI   VARBL1,C'Z'         SET TO FAIL                          16280007
 00220E 41F0 0004            00004  4835          LA    R15,4               SET TO FAIL                          16290007
 002212 9201 D544      042C4        4836          MVI   VARBL3,X'01'        SET TO FAIL                          16300007
 002216 F230 D4B9 D4B6 04239 04236  4837          PACK  PACK1,=Z'1'         SET TO PASS                          16310007
 00221C D204 D4DA D4AC 0425A 0422C  4838          MVC   PREDOUT,=C'TRUE '                                        16320007
 002222 D207 D4BE D2D0 0423E 04050  4839          MVC   TESTNBR,=C'TEST110H'                                     16330007
                                    4840 *                                                                       16340007
                                    4841 TEST110H IF    (CLI,VARBL1,C'A',E),OR,(LTR,R15,R15,Z),AND,             C16350007
                                                        (TM,VARBL3,X'01',Z),OR,(SP,PACK1,=P'1',Z)                16360007
 002228 95C1 D542      042C2        4843+TEST110H CLI   VARBL1,C'A'         TWO OPERANDS                         01-IF
 00222C A784 000E            02248  4846+         JE    $MDT343             TRUE RESULT - POSSIBLE PASS          01-IF
 002230 12FF                        4848+         LTR   R15,R15             TWO OPERANDS                         01-IF
 002232 A774 0006            0223E  4851+         JNZ   $MDF344             FALSE RESULT - POSSIBLE FAIL         01-IF
 002236 9101 D544      042C4        4853+         TM    VARBL3,X'01'        TWO OPERANDS                         01-IF
 00223A A784 0007            02248  4856+         JZ    $MDT343             TRUE RESULT - POSSIBLE PASS          01-IF
 00223E FB30 D4B9 D4B7 04239 04237  4858+$MDF344  SP    PACK1,=P'1'         TWO OPERANDS                         01-IF
 002244 A774 0007            02252  4862+         JNZ   $NEXT345            BRANCH IF CC INDICATES FAIL          01-IF
 002248                             4863+$MDT343  DC    0H'0'               END RESULT WAS PASS - DO THE EXECUTE 01-IF
 002248 D204 D4F1 D4AC 04271 0422C  4864            MVC   ACTOUT,=C'TRUE '                                       16370007
                                    4865          ELSE                                                           16380007
 00224E A7F4 0005            02258  4867+         J     $FINI346                                                 01-ELSE
 002252                             4868+$NEXT345 DC    0H'0'                                                    01-ELSE
 002252 D204 D4F1 D4B1 04271 04231  4869            MVC   ACTOUT,=C'FALSE'                                       16390007
                                    4870          ENDIF                                                          16400007
 002258                             4872+$FINI346 DC    0H'0'                                                    01-ENDIF
                                    4873          IF    (CLC,PREDOUT,ACTOUT,NE)                                  16410007
 002258 D504 D4DA D4F1 0425A 04271  4875+         CLC   PREDOUT,ACTOUT      TWO OPERANDS                         01-IF
 00225E A784 0005            02268  4879+         JE    $NEXT347            BRANCH IF CC INDICATES FAIL          01-IF
 002262 D209 D4F7 D498 04277 04218  4880            MVC   ERROR,=C'<=== ERROR'                                   16420007
                                    4881          ENDIF                                                          16430007
 002268                             4883+$NEXT347 DC    0H'0'                                                    01-ENDIF
                                    4884          PUT   SYSPRINT,OUTPUT                                          16440007
 002268 4110 D548            042C8  4888+         LA    1,SYSPRINT                        LOAD PARAMETER REG 1   02-IHBIN
 00226C 4100 D4BD            0423D  4889+         LA    0,OUTPUT                          LOAD PARAMETER REG 0   02-IHBIN
 002270 1FFF                        4890+         SLR   15,15               CLEAR REGISTER FOR ICM          @L1A 01-PUT
 002272 BFF7 1031            00031  4891+         ICM   15,7,49(1)          LOAD PUT ROUTINE ADDRESS        @L1C 01-PUT
 002276 0DEF                        4892+         BASR  14,15               LINK TO PUT ROUTINE             @L3C 01-PUT
 002278 D209 D4F7 D4A2 04277 04222  4893          MVC   ERROR,=CL10' '                                           16450007
                                    4894 *=*=*=*=*=*=*=*=*=*=*=*=*=*=*=*=*=*=*=*=*=*=*=*=*=*=*=*=*=*=*=*=*=*=*=* 16460007
 00227E 92C1 D542      042C2        4895          MVI   VARBL1,C'A'         SET TO PASS                          16470007
 002282 41F0 0000            00000  4896          LA    R15,0               SET TO PASS                          16480007
 002286 9200 D544      042C4        4897          MVI   VARBL3,X'00'        SET TO PASS                          16490007
 00228A F230 D4B9 D4B8 04239 04238  4898          PACK  PACK1,=Z'2'         SET TO FAIL                          16500007
 002290 D204 D4DA D4AC 0425A 0422C  4899          MVC   PREDOUT,=C'TRUE '                                        16510007
1IFTEST   EXAMPLES OF "IF" LOGIC MACRO INSTRUCTIONS                                                             Page   61
   Active Usings: IFTEST+X'1EDE',R12  $$WA$$,R13
0  Loc  Object Code    Addr1 Addr2  Stmt   Source Statement                                  HLASM R6.0  2021/03/26 12.00
0002296 D207 D4BE D2D8 0423E 04058  4900          MVC   TESTNBR,=C'TEST110I'                                     16520007
                                    4901 *                                                                       16530007
                                    4902 TEST110I IF    (CLI,VARBL1,C'A',E),OR,(LTR,R15,R15,Z),AND,             C16540007
                                                        (TM,VARBL3,X'01',Z),OR,(SP,PACK1,=P'1',Z)                16550007
 00229C 95C1 D542      042C2        4904+TEST110I CLI   VARBL1,C'A'         TWO OPERANDS                         01-IF
 0022A0 A784 000E            022BC  4907+         JE    $MDT348             TRUE RESULT - POSSIBLE PASS          01-IF
 0022A4 12FF                        4909+         LTR   R15,R15             TWO OPERANDS                         01-IF
 0022A6 A774 0006            022B2  4912+         JNZ   $MDF349             FALSE RESULT - POSSIBLE FAIL         01-IF
 0022AA 9101 D544      042C4        4914+         TM    VARBL3,X'01'        TWO OPERANDS                         01-IF
 0022AE A784 0007            022BC  4917+         JZ    $MDT348             TRUE RESULT - POSSIBLE PASS          01-IF
 0022B2 FB30 D4B9 D4B7 04239 04237  4919+$MDF349  SP    PACK1,=P'1'         TWO OPERANDS                         01-IF
 0022B8 A774 0007            022C6  4923+         JNZ   $NEXT350            BRANCH IF CC INDICATES FAIL          01-IF
 0022BC                             4924+$MDT348  DC    0H'0'               END RESULT WAS PASS - DO THE EXECUTE 01-IF
 0022BC D204 D4F1 D4AC 04271 0422C  4925            MVC   ACTOUT,=C'TRUE '                                       16560007
                                    4926          ELSE                                                           16570007
 0022C2 A7F4 0005            022CC  4928+         J     $FINI351                                                 01-ELSE
 0022C6                             4929+$NEXT350 DC    0H'0'                                                    01-ELSE
 0022C6 D204 D4F1 D4B1 04271 04231  4930            MVC   ACTOUT,=C'FALSE'                                       16580007
                                    4931          ENDIF                                                          16590007
 0022CC                             4933+$FINI351 DC    0H'0'                                                    01-ENDIF
                                    4934          IF    (CLC,PREDOUT,ACTOUT,NE)                                  16600007
 0022CC D504 D4DA D4F1 0425A 04271  4936+         CLC   PREDOUT,ACTOUT      TWO OPERANDS                         01-IF
 0022D2 A784 0005            022DC  4940+         JE    $NEXT352            BRANCH IF CC INDICATES FAIL          01-IF
 0022D6 D209 D4F7 D498 04277 04218  4941            MVC   ERROR,=C'<=== ERROR'                                   16610007
                                    4942          ENDIF                                                          16620007
 0022DC                             4944+$NEXT352 DC    0H'0'                                                    01-ENDIF
                                    4945          PUT   SYSPRINT,OUTPUT                                          16630007
 0022DC 4110 D548            042C8  4949+         LA    1,SYSPRINT                        LOAD PARAMETER REG 1   02-IHBIN
 0022E0 4100 D4BD            0423D  4950+         LA    0,OUTPUT                          LOAD PARAMETER REG 0   02-IHBIN
 0022E4 1FFF                        4951+         SLR   15,15               CLEAR REGISTER FOR ICM          @L1A 01-PUT
 0022E6 BFF7 1031            00031  4952+         ICM   15,7,49(1)          LOAD PUT ROUTINE ADDRESS        @L1C 01-PUT
 0022EA 0DEF                        4953+         BASR  14,15               LINK TO PUT ROUTINE             @L3C 01-PUT
 0022EC D209 D4F7 D4A2 04277 04222  4954          MVC   ERROR,=CL10' '                                           16640007
                                    4955 *=*=*=*=*=*=*=*=*=*=*=*=*=*=*=*=*=*=*=*=*=*=*=*=*=*=*=*=*=*=*=*=*=*=*=* 16650007
 0022F2 92E9 D542      042C2        4956          MVI   VARBL1,C'Z'         SET TO FAIL                          16660007
 0022F6 41F0 0000            00000  4957          LA    R15,0               SET TO PASS                          16670007
 0022FA 9200 D544      042C4        4958          MVI   VARBL3,X'00'        SET TO PASS                          16680007
 0022FE F230 D4B9 D4B8 04239 04238  4959          PACK  PACK1,=Z'2'         SET TO FAIL                          16690007
 002304 D204 D4DA D4AC 0425A 0422C  4960          MVC   PREDOUT,=C'TRUE '                                        16700007
 00230A D207 D4BE D2E0 0423E 04060  4961          MVC   TESTNBR,=C'TEST110J'                                     16710007
                                    4962 *                                                                       16720007
                                    4963 TEST110J IF    (CLI,VARBL1,C'A',E),OR,(LTR,R15,R15,Z),AND,             C16730007
                                                        (TM,VARBL3,X'01',Z),OR,(SP,PACK1,=P'1',Z)                16740007
 002310 95C1 D542      042C2        4965+TEST110J CLI   VARBL1,C'A'         TWO OPERANDS                         01-IF
 002314 A784 000E            02330  4968+         JE    $MDT353             TRUE RESULT - POSSIBLE PASS          01-IF
 002318 12FF                        4970+         LTR   R15,R15             TWO OPERANDS                         01-IF
 00231A A774 0006            02326  4973+         JNZ   $MDF354             FALSE RESULT - POSSIBLE FAIL         01-IF
 00231E 9101 D544      042C4        4975+         TM    VARBL3,X'01'        TWO OPERANDS                         01-IF
 002322 A784 0007            02330  4978+         JZ    $MDT353             TRUE RESULT - POSSIBLE PASS          01-IF
 002326 FB30 D4B9 D4B7 04239 04237  4980+$MDF354  SP    PACK1,=P'1'         TWO OPERANDS                         01-IF
 00232C A774 0007            0233A  4984+         JNZ   $NEXT355            BRANCH IF CC INDICATES FAIL          01-IF
 002330                             4985+$MDT353  DC    0H'0'               END RESULT WAS PASS - DO THE EXECUTE 01-IF
 002330 D204 D4F1 D4AC 04271 0422C  4986            MVC   ACTOUT,=C'TRUE '                                       16750007
                                    4987          ELSE                                                           16760007
 002336 A7F4 0005            02340  4989+         J     $FINI356                                                 01-ELSE
1IFTEST   EXAMPLES OF "IF" LOGIC MACRO INSTRUCTIONS                                                             Page   62
   Active Usings: IFTEST+X'1EDE',R12  $$WA$$,R13
0  Loc  Object Code    Addr1 Addr2  Stmt   Source Statement                                  HLASM R6.0  2021/03/26 12.00
000233A                             4990+$NEXT355 DC    0H'0'                                                    01-ELSE
 00233A D204 D4F1 D4B1 04271 04231  4991            MVC   ACTOUT,=C'FALSE'                                       16770007
                                    4992          ENDIF                                                          16780007
 002340                             4994+$FINI356 DC    0H'0'                                                    01-ENDIF
                                    4995          IF    (CLC,PREDOUT,ACTOUT,NE)                                  16790007
 002340 D504 D4DA D4F1 0425A 04271  4997+         CLC   PREDOUT,ACTOUT      TWO OPERANDS                         01-IF
 002346 A784 0005            02350  5001+         JE    $NEXT357            BRANCH IF CC INDICATES FAIL          01-IF
 00234A D209 D4F7 D498 04277 04218  5002            MVC   ERROR,=C'<=== ERROR'                                   16800007
                                    5003          ENDIF                                                          16810007
 002350                             5005+$NEXT357 DC    0H'0'                                                    01-ENDIF
                                    5006          PUT   SYSPRINT,OUTPUT                                          16820007
 002350 4110 D548            042C8  5010+         LA    1,SYSPRINT                        LOAD PARAMETER REG 1   02-IHBIN
 002354 4100 D4BD            0423D  5011+         LA    0,OUTPUT                          LOAD PARAMETER REG 0   02-IHBIN
 002358 1FFF                        5012+         SLR   15,15               CLEAR REGISTER FOR ICM          @L1A 01-PUT
 00235A BFF7 1031            00031  5013+         ICM   15,7,49(1)          LOAD PUT ROUTINE ADDRESS        @L1C 01-PUT
 00235E 0DEF                        5014+         BASR  14,15               LINK TO PUT ROUTINE             @L3C 01-PUT
 002360 D209 D4F7 D4A2 04277 04222  5015          MVC   ERROR,=CL10' '                                           16830007
                                    5016 *=*=*=*=*=*=*=*=*=*=*=*=*=*=*=*=*=*=*=*=*=*=*=*=*=*=*=*=*=*=*=*=*=*=*=* 16840007
 002366 92C1 D542      042C2        5017          MVI   VARBL1,C'A'         SET TO PASS                          16850007
 00236A 41F0 0004            00004  5018          LA    R15,4               SET TO FAIL                          16860007
 00236E 9200 D544      042C4        5019          MVI   VARBL3,X'00'        SET TO PASS                          16870007
 002372 F230 D4B9 D4B8 04239 04238  5020          PACK  PACK1,=Z'2'         SET TO FAIL                          16880007
 002378 D204 D4DA D4AC 0425A 0422C  5021          MVC   PREDOUT,=C'TRUE '                                        16890007
 00237E D207 D4BE D2E8 0423E 04068  5022          MVC   TESTNBR,=C'TEST110K'                                     16900007
                                    5023 *                                                                       16910007
                                    5024 TEST110K IF    (CLI,VARBL1,C'A',E),OR,(LTR,R15,R15,Z),AND,             C16920007
                                                        (TM,VARBL3,X'01',Z),OR,(SP,PACK1,=P'1',Z)                16930007
 002384 95C1 D542      042C2        5026+TEST110K CLI   VARBL1,C'A'         TWO OPERANDS                         01-IF
 002388 A784 000E            023A4  5029+         JE    $MDT358             TRUE RESULT - POSSIBLE PASS          01-IF
 00238C 12FF                        5031+         LTR   R15,R15             TWO OPERANDS                         01-IF
 00238E A774 0006            0239A  5034+         JNZ   $MDF359             FALSE RESULT - POSSIBLE FAIL         01-IF
 002392 9101 D544      042C4        5036+         TM    VARBL3,X'01'        TWO OPERANDS                         01-IF
 002396 A784 0007            023A4  5039+         JZ    $MDT358             TRUE RESULT - POSSIBLE PASS          01-IF
 00239A FB30 D4B9 D4B7 04239 04237  5041+$MDF359  SP    PACK1,=P'1'         TWO OPERANDS                         01-IF
 0023A0 A774 0007            023AE  5045+         JNZ   $NEXT360            BRANCH IF CC INDICATES FAIL          01-IF
 0023A4                             5046+$MDT358  DC    0H'0'               END RESULT WAS PASS - DO THE EXECUTE 01-IF
 0023A4 D204 D4F1 D4AC 04271 0422C  5047            MVC   ACTOUT,=C'TRUE '                                       16940007
                                    5048          ELSE                                                           16950007
 0023AA A7F4 0005            023B4  5050+         J     $FINI361                                                 01-ELSE
 0023AE                             5051+$NEXT360 DC    0H'0'                                                    01-ELSE
 0023AE D204 D4F1 D4B1 04271 04231  5052            MVC   ACTOUT,=C'FALSE'                                       16960007
                                    5053          ENDIF                                                          16970007
 0023B4                             5055+$FINI361 DC    0H'0'                                                    01-ENDIF
                                    5056          IF    (CLC,PREDOUT,ACTOUT,NE)                                  16980007
 0023B4 D504 D4DA D4F1 0425A 04271  5058+         CLC   PREDOUT,ACTOUT      TWO OPERANDS                         01-IF
 0023BA A784 0005            023C4  5062+         JE    $NEXT362            BRANCH IF CC INDICATES FAIL          01-IF
 0023BE D209 D4F7 D498 04277 04218  5063            MVC   ERROR,=C'<=== ERROR'                                   16990007
                                    5064          ENDIF                                                          17000007
 0023C4                             5066+$NEXT362 DC    0H'0'                                                    01-ENDIF
                                    5067          PUT   SYSPRINT,OUTPUT                                          17010007
 0023C4 4110 D548            042C8  5071+         LA    1,SYSPRINT                        LOAD PARAMETER REG 1   02-IHBIN
 0023C8 4100 D4BD            0423D  5072+         LA    0,OUTPUT                          LOAD PARAMETER REG 0   02-IHBIN
 0023CC 1FFF                        5073+         SLR   15,15               CLEAR REGISTER FOR ICM          @L1A 01-PUT
 0023CE BFF7 1031            00031  5074+         ICM   15,7,49(1)          LOAD PUT ROUTINE ADDRESS        @L1C 01-PUT
 0023D2 0DEF                        5075+         BASR  14,15               LINK TO PUT ROUTINE             @L3C 01-PUT
1IFTEST   EXAMPLES OF "IF" LOGIC MACRO INSTRUCTIONS                                                             Page   63
   Active Usings: IFTEST+X'1EDE',R12  $$WA$$,R13
0  Loc  Object Code    Addr1 Addr2  Stmt   Source Statement                                  HLASM R6.0  2021/03/26 12.00
00023D4 D209 D4F7 D4A2 04277 04222  5076          MVC   ERROR,=CL10' '                                           17020007
                                    5077 *=*=*=*=*=*=*=*=*=*=*=*=*=*=*=*=*=*=*=*=*=*=*=*=*=*=*=*=*=*=*=*=*=*=*=* 17030007
 0023DA 92E9 D542      042C2        5078          MVI   VARBL1,C'Z'         SET TO FAIL                          17040007
 0023DE 41F0 0004            00004  5079          LA    R15,4               SET TO FAIL                          17050007
 0023E2 9200 D544      042C4        5080          MVI   VARBL3,X'00'        SET TO PASS                          17060007
 0023E6 F230 D4B9 D4B8 04239 04238  5081          PACK  PACK1,=Z'2'         SET TO FAIL                          17070007
 0023EC D204 D4DA D4B1 0425A 04231  5082          MVC   PREDOUT,=C'FALSE'                                        17080007
 0023F2 D207 D4BE D2F0 0423E 04070  5083          MVC   TESTNBR,=C'TEST110L'                                     17090007
                                    5084 *                                                                       17100007
                                    5085 TEST110L IF    (CLI,VARBL1,C'A',E),OR,(LTR,R15,R15,Z),AND,             C17110007
                                                        (TM,VARBL3,X'01',Z),OR,(SP,PACK1,=P'1',Z)                17120007
 0023F8 95C1 D542      042C2        5087+TEST110L CLI   VARBL1,C'A'         TWO OPERANDS                         01-IF
 0023FC A784 000E            02418  5090+         JE    $MDT363             TRUE RESULT - POSSIBLE PASS          01-IF
 002400 12FF                        5092+         LTR   R15,R15             TWO OPERANDS                         01-IF
 002402 A774 0006            0240E  5095+         JNZ   $MDF364             FALSE RESULT - POSSIBLE FAIL         01-IF
 002406 9101 D544      042C4        5097+         TM    VARBL3,X'01'        TWO OPERANDS                         01-IF
 00240A A784 0007            02418  5100+         JZ    $MDT363             TRUE RESULT - POSSIBLE PASS          01-IF
 00240E FB30 D4B9 D4B7 04239 04237  5102+$MDF364  SP    PACK1,=P'1'         TWO OPERANDS                         01-IF
 002414 A774 0007            02422  5106+         JNZ   $NEXT365            BRANCH IF CC INDICATES FAIL          01-IF
 002418                             5107+$MDT363  DC    0H'0'               END RESULT WAS PASS - DO THE EXECUTE 01-IF
 002418 D204 D4F1 D4AC 04271 0422C  5108            MVC   ACTOUT,=C'TRUE '                                       17130007
                                    5109          ELSE                                                           17140007
 00241E A7F4 0005            02428  5111+         J     $FINI366                                                 01-ELSE
 002422                             5112+$NEXT365 DC    0H'0'                                                    01-ELSE
 002422 D204 D4F1 D4B1 04271 04231  5113            MVC   ACTOUT,=C'FALSE'                                       17150007
                                    5114          ENDIF                                                          17160007
 002428                             5116+$FINI366 DC    0H'0'                                                    01-ENDIF
                                    5117          IF    (CLC,PREDOUT,ACTOUT,NE)                                  17170007
 002428 D504 D4DA D4F1 0425A 04271  5119+         CLC   PREDOUT,ACTOUT      TWO OPERANDS                         01-IF
 00242E A784 0005            02438  5123+         JE    $NEXT367            BRANCH IF CC INDICATES FAIL          01-IF
 002432 D209 D4F7 D498 04277 04218  5124            MVC   ERROR,=C'<=== ERROR'                                   17180007
                                    5125          ENDIF                                                          17190007
 002438                             5127+$NEXT367 DC    0H'0'                                                    01-ENDIF
                                    5128          PUT   SYSPRINT,OUTPUT                                          17200007
 002438 4110 D548            042C8  5132+         LA    1,SYSPRINT                        LOAD PARAMETER REG 1   02-IHBIN
 00243C 4100 D4BD            0423D  5133+         LA    0,OUTPUT                          LOAD PARAMETER REG 0   02-IHBIN
 002440 1FFF                        5134+         SLR   15,15               CLEAR REGISTER FOR ICM          @L1A 01-PUT
 002442 BFF7 1031            00031  5135+         ICM   15,7,49(1)          LOAD PUT ROUTINE ADDRESS        @L1C 01-PUT
 002446 0DEF                        5136+         BASR  14,15               LINK TO PUT ROUTINE             @L3C 01-PUT
 002448 D209 D4F7 D4A2 04277 04222  5137          MVC   ERROR,=CL10' '                                           17210007
                                    5138 *=*=*=*=*=*=*=*=*=*=*=*=*=*=*=*=*=*=*=*=*=*=*=*=*=*=*=*=*=*=*=*=*=*=*=* 17220007
 00244E 92C1 D542      042C2        5139          MVI   VARBL1,C'A'         SET TO PASS                          17230007
 002452 41F0 0000            00000  5140          LA    R15,0               SET TO PASS                          17240007
 002456 9201 D544      042C4        5141          MVI   VARBL3,X'01'        SET TO FAIL                          17250007
 00245A F230 D4B9 D4B8 04239 04238  5142          PACK  PACK1,=Z'2'         SET TO FAIL                          17260007
 002460 D204 D4DA D4AC 0425A 0422C  5143          MVC   PREDOUT,=C'TRUE '                                        17270007
 002466 D207 D4BE D2F8 0423E 04078  5144          MVC   TESTNBR,=C'TEST110M'                                     17280007
                                    5145 *                                                                       17290007
                                    5146 TEST110M IF    (CLI,VARBL1,C'A',E),OR,(LTR,R15,R15,Z),AND,             C17300007
                                                        (TM,VARBL3,X'01',Z),OR,(SP,PACK1,=P'1',Z)                17310007
 00246C 95C1 D542      042C2        5148+TEST110M CLI   VARBL1,C'A'         TWO OPERANDS                         01-IF
 002470 A784 000E            0248C  5151+         JE    $MDT368             TRUE RESULT - POSSIBLE PASS          01-IF
 002474 12FF                        5153+         LTR   R15,R15             TWO OPERANDS                         01-IF
 002476 A774 0006            02482  5156+         JNZ   $MDF369             FALSE RESULT - POSSIBLE FAIL         01-IF
 00247A 9101 D544      042C4        5158+         TM    VARBL3,X'01'        TWO OPERANDS                         01-IF
1IFTEST   EXAMPLES OF "IF" LOGIC MACRO INSTRUCTIONS                                                             Page   64
   Active Usings: IFTEST+X'1EDE',R12  $$WA$$,R13
0  Loc  Object Code    Addr1 Addr2  Stmt   Source Statement                                  HLASM R6.0  2021/03/26 12.00
000247E A784 0007            0248C  5161+         JZ    $MDT368             TRUE RESULT - POSSIBLE PASS          01-IF
 002482 FB30 D4B9 D4B7 04239 04237  5163+$MDF369  SP    PACK1,=P'1'         TWO OPERANDS                         01-IF
 002488 A774 0007            02496  5167+         JNZ   $NEXT370            BRANCH IF CC INDICATES FAIL          01-IF
 00248C                             5168+$MDT368  DC    0H'0'               END RESULT WAS PASS - DO THE EXECUTE 01-IF
 00248C D204 D4F1 D4AC 04271 0422C  5169            MVC   ACTOUT,=C'TRUE '                                       17320007
                                    5170          ELSE                                                           17330007
 002492 A7F4 0005            0249C  5172+         J     $FINI371                                                 01-ELSE
 002496                             5173+$NEXT370 DC    0H'0'                                                    01-ELSE
 002496 D204 D4F1 D4B1 04271 04231  5174            MVC   ACTOUT,=C'FALSE'                                       17340007
                                    5175          ENDIF                                                          17350007
 00249C                             5177+$FINI371 DC    0H'0'                                                    01-ENDIF
                                    5178          IF    (CLC,PREDOUT,ACTOUT,NE)                                  17360007
 00249C D504 D4DA D4F1 0425A 04271  5180+         CLC   PREDOUT,ACTOUT      TWO OPERANDS                         01-IF
 0024A2 A784 0005            024AC  5184+         JE    $NEXT372            BRANCH IF CC INDICATES FAIL          01-IF
 0024A6 D209 D4F7 D498 04277 04218  5185            MVC   ERROR,=C'<=== ERROR'                                   17370007
                                    5186          ENDIF                                                          17380007
 0024AC                             5188+$NEXT372 DC    0H'0'                                                    01-ENDIF
                                    5189          PUT   SYSPRINT,OUTPUT                                          17390007
 0024AC 4110 D548            042C8  5193+         LA    1,SYSPRINT                        LOAD PARAMETER REG 1   02-IHBIN
 0024B0 4100 D4BD            0423D  5194+         LA    0,OUTPUT                          LOAD PARAMETER REG 0   02-IHBIN
 0024B4 1FFF                        5195+         SLR   15,15               CLEAR REGISTER FOR ICM          @L1A 01-PUT
 0024B6 BFF7 1031            00031  5196+         ICM   15,7,49(1)          LOAD PUT ROUTINE ADDRESS        @L1C 01-PUT
 0024BA 0DEF                        5197+         BASR  14,15               LINK TO PUT ROUTINE             @L3C 01-PUT
 0024BC D209 D4F7 D4A2 04277 04222  5198          MVC   ERROR,=CL10' '                                           17400007
                                    5199 *=*=*=*=*=*=*=*=*=*=*=*=*=*=*=*=*=*=*=*=*=*=*=*=*=*=*=*=*=*=*=*=*=*=*=* 17410007
 0024C2 92E9 D542      042C2        5200          MVI   VARBL1,C'Z'         SET TO FAIL                          17420007
 0024C6 41F0 0000            00000  5201          LA    R15,0               SET TO PASS                          17430007
 0024CA 9201 D544      042C4        5202          MVI   VARBL3,X'01'        SET TO FAIL                          17440007
 0024CE F230 D4B9 D4B8 04239 04238  5203          PACK  PACK1,=Z'2'         SET TO FAIL                          17450007
 0024D4 D204 D4DA D4B1 0425A 04231  5204          MVC   PREDOUT,=C'FALSE'                                        17460007
 0024DA D207 D4BE D300 0423E 04080  5205          MVC   TESTNBR,=C'TEST110N'                                     17470007
                                    5206 *                                                                       17480007
                                    5207 TEST110N IF    (CLI,VARBL1,C'A',E),OR,(LTR,R15,R15,Z),AND,             C17490007
                                                        (TM,VARBL3,X'01',Z),OR,(SP,PACK1,=P'1',Z)                17500007
 0024E0 95C1 D542      042C2        5209+TEST110N CLI   VARBL1,C'A'         TWO OPERANDS                         01-IF
 0024E4 A784 000E            02500  5212+         JE    $MDT373             TRUE RESULT - POSSIBLE PASS          01-IF
 0024E8 12FF                        5214+         LTR   R15,R15             TWO OPERANDS                         01-IF
 0024EA A774 0006            024F6  5217+         JNZ   $MDF374             FALSE RESULT - POSSIBLE FAIL         01-IF
 0024EE 9101 D544      042C4        5219+         TM    VARBL3,X'01'        TWO OPERANDS                         01-IF
 0024F2 A784 0007            02500  5222+         JZ    $MDT373             TRUE RESULT - POSSIBLE PASS          01-IF
 0024F6 FB30 D4B9 D4B7 04239 04237  5224+$MDF374  SP    PACK1,=P'1'         TWO OPERANDS                         01-IF
 0024FC A774 0007            0250A  5228+         JNZ   $NEXT375            BRANCH IF CC INDICATES FAIL          01-IF
 002500                             5229+$MDT373  DC    0H'0'               END RESULT WAS PASS - DO THE EXECUTE 01-IF
 002500 D204 D4F1 D4AC 04271 0422C  5230            MVC   ACTOUT,=C'TRUE '                                       17510007
                                    5231          ELSE                                                           17520007
 002506 A7F4 0005            02510  5233+         J     $FINI376                                                 01-ELSE
 00250A                             5234+$NEXT375 DC    0H'0'                                                    01-ELSE
 00250A D204 D4F1 D4B1 04271 04231  5235            MVC   ACTOUT,=C'FALSE'                                       17530007
                                    5236          ENDIF                                                          17540007
 002510                             5238+$FINI376 DC    0H'0'                                                    01-ENDIF
                                    5239          IF    (CLC,PREDOUT,ACTOUT,NE)                                  17550007
 002510 D504 D4DA D4F1 0425A 04271  5241+         CLC   PREDOUT,ACTOUT      TWO OPERANDS                         01-IF
 002516 A784 0005            02520  5245+         JE    $NEXT377            BRANCH IF CC INDICATES FAIL          01-IF
 00251A D209 D4F7 D498 04277 04218  5246            MVC   ERROR,=C'<=== ERROR'                                   17560007
                                    5247          ENDIF                                                          17570007
1IFTEST   EXAMPLES OF "IF" LOGIC MACRO INSTRUCTIONS                                                             Page   65
   Active Usings: IFTEST+X'1EDE',R12  $$WA$$,R13
0  Loc  Object Code    Addr1 Addr2  Stmt   Source Statement                                  HLASM R6.0  2021/03/26 12.00
0002520                             5249+$NEXT377 DC    0H'0'                                                    01-ENDIF
                                    5250          PUT   SYSPRINT,OUTPUT                                          17580007
 002520 4110 D548            042C8  5254+         LA    1,SYSPRINT                        LOAD PARAMETER REG 1   02-IHBIN
 002524 4100 D4BD            0423D  5255+         LA    0,OUTPUT                          LOAD PARAMETER REG 0   02-IHBIN
 002528 1FFF                        5256+         SLR   15,15               CLEAR REGISTER FOR ICM          @L1A 01-PUT
 00252A BFF7 1031            00031  5257+         ICM   15,7,49(1)          LOAD PUT ROUTINE ADDRESS        @L1C 01-PUT
 00252E 0DEF                        5258+         BASR  14,15               LINK TO PUT ROUTINE             @L3C 01-PUT
 002530 D209 D4F7 D4A2 04277 04222  5259          MVC   ERROR,=CL10' '                                           17590007
                                    5260 *=*=*=*=*=*=*=*=*=*=*=*=*=*=*=*=*=*=*=*=*=*=*=*=*=*=*=*=*=*=*=*=*=*=*=* 17600007
 002536 92C1 D542      042C2        5261          MVI   VARBL1,C'A'         SET TO PASS                          17610007
 00253A 41F0 0004            00004  5262          LA    R15,4               SET TO FAIL                          17620007
 00253E 9201 D544      042C4        5263          MVI   VARBL3,X'01'        SET TO FAIL                          17630007
 002542 F230 D4B9 D4B8 04239 04238  5264          PACK  PACK1,=Z'2'         SET TO FAIL                          17640007
 002548 D204 D4DA D4AC 0425A 0422C  5265          MVC   PREDOUT,=C'TRUE '                                        17650007
 00254E D207 D4BE D308 0423E 04088  5266          MVC   TESTNBR,=C'TEST110O'                                     17660007
                                    5267 *                                                                       17670007
                                    5268 TEST110O IF    (CLI,VARBL1,C'A',E),OR,(LTR,R15,R15,Z),AND,             C17680007
                                                        (TM,VARBL3,X'01',Z),OR,(SP,PACK1,=P'1',Z)                17690007
 002554 95C1 D542      042C2        5270+TEST110O CLI   VARBL1,C'A'         TWO OPERANDS                         01-IF
 002558 A784 000E            02574  5273+         JE    $MDT378             TRUE RESULT - POSSIBLE PASS          01-IF
 00255C 12FF                        5275+         LTR   R15,R15             TWO OPERANDS                         01-IF
 00255E A774 0006            0256A  5278+         JNZ   $MDF379             FALSE RESULT - POSSIBLE FAIL         01-IF
 002562 9101 D544      042C4        5280+         TM    VARBL3,X'01'        TWO OPERANDS                         01-IF
 002566 A784 0007            02574  5283+         JZ    $MDT378             TRUE RESULT - POSSIBLE PASS          01-IF
 00256A FB30 D4B9 D4B7 04239 04237  5285+$MDF379  SP    PACK1,=P'1'         TWO OPERANDS                         01-IF
 002570 A774 0007            0257E  5289+         JNZ   $NEXT380            BRANCH IF CC INDICATES FAIL          01-IF
 002574                             5290+$MDT378  DC    0H'0'               END RESULT WAS PASS - DO THE EXECUTE 01-IF
 002574 D204 D4F1 D4AC 04271 0422C  5291            MVC   ACTOUT,=C'TRUE '                                       17700007
                                    5292          ELSE                                                           17710007
 00257A A7F4 0005            02584  5294+         J     $FINI381                                                 01-ELSE
 00257E                             5295+$NEXT380 DC    0H'0'                                                    01-ELSE
 00257E D204 D4F1 D4B1 04271 04231  5296            MVC   ACTOUT,=C'FALSE'                                       17720007
                                    5297          ENDIF                                                          17730007
 002584                             5299+$FINI381 DC    0H'0'                                                    01-ENDIF
                                    5300          IF    (CLC,PREDOUT,ACTOUT,NE)                                  17740007
 002584 D504 D4DA D4F1 0425A 04271  5302+         CLC   PREDOUT,ACTOUT      TWO OPERANDS                         01-IF
 00258A A784 0005            02594  5306+         JE    $NEXT382            BRANCH IF CC INDICATES FAIL          01-IF
 00258E D209 D4F7 D498 04277 04218  5307            MVC   ERROR,=C'<=== ERROR'                                   17750007
                                    5308          ENDIF                                                          17760007
 002594                             5310+$NEXT382 DC    0H'0'                                                    01-ENDIF
                                    5311          PUT   SYSPRINT,OUTPUT                                          17770007
 002594 4110 D548            042C8  5315+         LA    1,SYSPRINT                        LOAD PARAMETER REG 1   02-IHBIN
 002598 4100 D4BD            0423D  5316+         LA    0,OUTPUT                          LOAD PARAMETER REG 0   02-IHBIN
 00259C 1FFF                        5317+         SLR   15,15               CLEAR REGISTER FOR ICM          @L1A 01-PUT
 00259E BFF7 1031            00031  5318+         ICM   15,7,49(1)          LOAD PUT ROUTINE ADDRESS        @L1C 01-PUT
 0025A2 0DEF                        5319+         BASR  14,15               LINK TO PUT ROUTINE             @L3C 01-PUT
 0025A4 D209 D4F7 D4A2 04277 04222  5320          MVC   ERROR,=CL10' '                                           17780007
                                    5321 *=*=*=*=*=*=*=*=*=*=*=*=*=*=*=*=*=*=*=*=*=*=*=*=*=*=*=*=*=*=*=*=*=*=*=* 17790007
 0025AA 92E9 D542      042C2        5322          MVI   VARBL1,C'Z'         SET TO FAIL                          17800007
 0025AE 41F0 0004            00004  5323          LA    R15,4               SET TO FAIL                          17810007
 0025B2 9201 D544      042C4        5324          MVI   VARBL3,X'01'        SET TO FAIL                          17820007
 0025B6 F230 D4B9 D4B8 04239 04238  5325          PACK  PACK1,=Z'2'         SET TO FAIL                          17830007
 0025BC D204 D4DA D4B1 0425A 04231  5326          MVC   PREDOUT,=C'FALSE'                                        17840007
 0025C2 D207 D4BE D310 0423E 04090  5327          MVC   TESTNBR,=C'TEST110P'                                     17850007
                                    5328 *                                                                       17860007
1IFTEST   EXAMPLES OF "IF" LOGIC MACRO INSTRUCTIONS                                                             Page   66
   Active Usings: IFTEST+X'1EDE',R12  $$WA$$,R13
0  Loc  Object Code    Addr1 Addr2  Stmt   Source Statement                                  HLASM R6.0  2021/03/26 12.00
0                                   5329 TEST110P IF    (CLI,VARBL1,C'A',E),OR,(LTR,R15,R15,Z),AND,             C17870007
                                                        (TM,VARBL3,X'01',Z),OR,(SP,PACK1,=P'1',Z)                17880007
 0025C8 95C1 D542      042C2        5331+TEST110P CLI   VARBL1,C'A'         TWO OPERANDS                         01-IF
 0025CC A784 000E            025E8  5334+         JE    $MDT383             TRUE RESULT - POSSIBLE PASS          01-IF
 0025D0 12FF                        5336+         LTR   R15,R15             TWO OPERANDS                         01-IF
 0025D2 A774 0006            025DE  5339+         JNZ   $MDF384             FALSE RESULT - POSSIBLE FAIL         01-IF
 0025D6 9101 D544      042C4        5341+         TM    VARBL3,X'01'        TWO OPERANDS                         01-IF
 0025DA A784 0007            025E8  5344+         JZ    $MDT383             TRUE RESULT - POSSIBLE PASS          01-IF
 0025DE FB30 D4B9 D4B7 04239 04237  5346+$MDF384  SP    PACK1,=P'1'         TWO OPERANDS                         01-IF
 0025E4 A774 0007            025F2  5350+         JNZ   $NEXT385            BRANCH IF CC INDICATES FAIL          01-IF
 0025E8                             5351+$MDT383  DC    0H'0'               END RESULT WAS PASS - DO THE EXECUTE 01-IF
 0025E8 D204 D4F1 D4AC 04271 0422C  5352            MVC   ACTOUT,=C'TRUE '                                       17890007
                                    5353          ELSE                                                           17900007
 0025EE A7F4 0005            025F8  5355+         J     $FINI386                                                 01-ELSE
 0025F2                             5356+$NEXT385 DC    0H'0'                                                    01-ELSE
 0025F2 D204 D4F1 D4B1 04271 04231  5357            MVC   ACTOUT,=C'FALSE'                                       17910007
                                    5358          ENDIF                                                          17920007
 0025F8                             5360+$FINI386 DC    0H'0'                                                    01-ENDIF
                                    5361          IF    (CLC,PREDOUT,ACTOUT,NE)                                  17930007
 0025F8 D504 D4DA D4F1 0425A 04271  5363+         CLC   PREDOUT,ACTOUT      TWO OPERANDS                         01-IF
 0025FE A784 0005            02608  5367+         JE    $NEXT387            BRANCH IF CC INDICATES FAIL          01-IF
 002602 D209 D4F7 D498 04277 04218  5368            MVC   ERROR,=C'<=== ERROR'                                   17940007
                                    5369          ENDIF                                                          17950007
 002608                             5371+$NEXT387 DC    0H'0'                                                    01-ENDIF
                                    5372          PUT   SYSPRINT,OUTPUT                                          17960007
 002608 4110 D548            042C8  5376+         LA    1,SYSPRINT                        LOAD PARAMETER REG 1   02-IHBIN
 00260C 4100 D4BD            0423D  5377+         LA    0,OUTPUT                          LOAD PARAMETER REG 0   02-IHBIN
 002610 1FFF                        5378+         SLR   15,15               CLEAR REGISTER FOR ICM          @L1A 01-PUT
 002612 BFF7 1031            00031  5379+         ICM   15,7,49(1)          LOAD PUT ROUTINE ADDRESS        @L1C 01-PUT
 002616 0DEF                        5380+         BASR  14,15               LINK TO PUT ROUTINE             @L3C 01-PUT
 002618 D209 D4F7 D4A2 04277 04222  5381          MVC   ERROR,=CL10' '                                           17970007
                                    5382 *=*=*=*=*=*=*=*=*=*=*=*=*=*=*=*=*=*=*=*=*=*=*=*=*=*=*=*=*=*=*=*=*=*=*=* 17980007
                                    5383 *                                                                     * 17990007
                                    5384 * IF ((A) OR (B)) AND ((C) OR (D))                                    * 18000007
                                    5385 *                                                                     * 18010007
                                    5386 *=*=*=*=*=*=*=*=*=*=*=*=*=*=*=*=*=*=*=*=*=*=*=*=*=*=*=*=*=*=*=*=*=*=*=* 18020007
                                    5387 *                                                                       18030007
 00261E 05C0                        5388          BALR  R12,0                                                    18040016
                  R:C  02620        5389          USING *,R12                                                    18050016
 002620 92C1 D542      042C2        5390          MVI   VARBL1,C'A'         SET TO PASS                          18060007
 002624 41F0 0000            00000  5391          LA    R15,0               SET TO PASS                          18070007
 002628 9200 D544      042C4        5392          MVI   VARBL3,X'00'        SET TO PASS                          18080007
 00262C F230 D4B9 D4B6 04239 04236  5393          PACK  PACK1,=Z'1'         SET TO PASS                          18090007
 002632 D204 D4DA D4AC 0425A 0422C  5394          MVC   PREDOUT,=C'TRUE '                                        18100007
 002638 D207 D4BE D318 0423E 04098  5395          MVC   TESTNBR,=C'TEST120A'                                     18110007
                                    5396 *                                                                       18120007
                                    5397 TEST120A IF    ((CLI,VARBL1,C'A',E),OR,(LTR,R15,R15,Z)),AND,           C18130007
                                                        ((TM,VARBL3,X'01',Z),OR,(SP,PACK1,=P'1',Z))              18140007
 00263E 95C1 D542      042C2        5402+TEST120A CLI   VARBL1,C'A'         TWO OPERANDS                         02-IF2
 002642 A784 0005            0264C  5405+         JE    $MDT388             TRUE RESULT - POSSIBLE PASS          02-IF2
 002646 12FF                        5407+         LTR   R15,R15             TWO OPERANDS                         02-IF2
 002648 A774 0010            02668  5412+         JNZ   $MDF389             FALSE RESULT - POSSIBLE FAIL         01-IF
 00264C 9101 D544      042C4        5417+$MDT388  TM    VARBL3,X'01'        TWO OPERANDS                         02-IF2
 002650 A784 0007            0265E  5420+         JZ    $MDT390             TRUE RESULT - POSSIBLE PASS          02-IF2
 002654 FB30 D4B9 D4B7 04239 04237  5422+         SP    PACK1,=P'1'         TWO OPERANDS                         02-IF2
1IFTEST   EXAMPLES OF "IF" LOGIC MACRO INSTRUCTIONS                                                             Page   67
   Active Usings: IFTEST+X'2620',R12  $$WA$$,R13
0  Loc  Object Code    Addr1 Addr2  Stmt   Source Statement                                  HLASM R6.0  2021/03/26 12.00
000265A A774 0007            02668  5428+         JNZ   $MDF389             BRANCH IF CC INDICATES FAIL          01-IF
 00265E                             5429+$MDT390  DC    0H'0'               END RESULT WAS PASS - DO THE EXECUTE 01-IF
 00265E D204 D4F1 D4AC 04271 0422C  5430            MVC   ACTOUT,=C'TRUE '                                       18150007
                                    5431          ELSE                                                           18160007
 002664 A7F4 0005            0266E  5433+         J     $FINI391                                                 01-ELSE
 002668                             5434+$MDF389  DC    0H'0'                                                    01-ELSE
 002668 D204 D4F1 D4B1 04271 04231  5435            MVC   ACTOUT,=C'FALSE'                                       18170007
                                    5436          ENDIF                                                          18180007
 00266E                             5438+$FINI391 DC    0H'0'                                                    01-ENDIF
                                    5439          IF    (CLC,PREDOUT,ACTOUT,NE)                                  18190007
 00266E D504 D4DA D4F1 0425A 04271  5441+         CLC   PREDOUT,ACTOUT      TWO OPERANDS                         01-IF
 002674 A784 0005            0267E  5445+         JE    $NEXT392            BRANCH IF CC INDICATES FAIL          01-IF
 002678 D209 D4F7 D498 04277 04218  5446            MVC   ERROR,=C'<=== ERROR'                                   18200007
                                    5447          ENDIF                                                          18210007
 00267E                             5449+$NEXT392 DC    0H'0'                                                    01-ENDIF
                                    5450          PUT   SYSPRINT,OUTPUT                                          18220007
 00267E 4110 D548            042C8  5454+         LA    1,SYSPRINT                        LOAD PARAMETER REG 1   02-IHBIN
 002682 4100 D4BD            0423D  5455+         LA    0,OUTPUT                          LOAD PARAMETER REG 0   02-IHBIN
 002686 1FFF                        5456+         SLR   15,15               CLEAR REGISTER FOR ICM          @L1A 01-PUT
 002688 BFF7 1031            00031  5457+         ICM   15,7,49(1)          LOAD PUT ROUTINE ADDRESS        @L1C 01-PUT
 00268C 0DEF                        5458+         BASR  14,15               LINK TO PUT ROUTINE             @L3C 01-PUT
 00268E D209 D4F7 D4A2 04277 04222  5459          MVC   ERROR,=CL10' '                                           18230007
                                    5460 *=*=*=*=*=*=*=*=*=*=*=*=*=*=*=*=*=*=*=*=*=*=*=*=*=*=*=*=*=*=*=*=*=*=*=* 18240007
 002694 92E9 D542      042C2        5461          MVI   VARBL1,C'Z'         SET TO FAIL                          18250007
 002698 41F0 0000            00000  5462          LA    R15,0               SET TO PASS                          18260007
 00269C 9200 D544      042C4        5463          MVI   VARBL3,X'00'        SET TO PASS                          18270007
 0026A0 F230 D4B9 D4B6 04239 04236  5464          PACK  PACK1,=Z'1'         SET TO PASS                          18280007
 0026A6 D204 D4DA D4AC 0425A 0422C  5465          MVC   PREDOUT,=C'TRUE '                                        18290007
 0026AC D207 D4BE D320 0423E 040A0  5466          MVC   TESTNBR,=C'TEST120B'                                     18300007
                                    5467 *                                                                       18310007
                                    5468 TEST120B IF    ((CLI,VARBL1,C'A',E),OR,(LTR,R15,R15,Z)),AND,           C18320007
                                                        ((TM,VARBL3,X'01',Z),OR,(SP,PACK1,=P'1',Z))              18330007
 0026B2 95C1 D542      042C2        5473+TEST120B CLI   VARBL1,C'A'         TWO OPERANDS                         02-IF2
 0026B6 A784 0005            026C0  5476+         JE    $MDT393             TRUE RESULT - POSSIBLE PASS          02-IF2
 0026BA 12FF                        5478+         LTR   R15,R15             TWO OPERANDS                         02-IF2
 0026BC A774 0010            026DC  5483+         JNZ   $MDF394             FALSE RESULT - POSSIBLE FAIL         01-IF
 0026C0 9101 D544      042C4        5488+$MDT393  TM    VARBL3,X'01'        TWO OPERANDS                         02-IF2
 0026C4 A784 0007            026D2  5491+         JZ    $MDT395             TRUE RESULT - POSSIBLE PASS          02-IF2
 0026C8 FB30 D4B9 D4B7 04239 04237  5493+         SP    PACK1,=P'1'         TWO OPERANDS                         02-IF2
 0026CE A774 0007            026DC  5499+         JNZ   $MDF394             BRANCH IF CC INDICATES FAIL          01-IF
 0026D2                             5500+$MDT395  DC    0H'0'               END RESULT WAS PASS - DO THE EXECUTE 01-IF
 0026D2 D204 D4F1 D4AC 04271 0422C  5501            MVC   ACTOUT,=C'TRUE '                                       18340007
                                    5502          ELSE                                                           18350007
 0026D8 A7F4 0005            026E2  5504+         J     $FINI396                                                 01-ELSE
 0026DC                             5505+$MDF394  DC    0H'0'                                                    01-ELSE
 0026DC D204 D4F1 D4B1 04271 04231  5506            MVC   ACTOUT,=C'FALSE'                                       18360007
                                    5507          ENDIF                                                          18370007
 0026E2                             5509+$FINI396 DC    0H'0'                                                    01-ENDIF
                                    5510          IF    (CLC,PREDOUT,ACTOUT,NE)                                  18380007
 0026E2 D504 D4DA D4F1 0425A 04271  5512+         CLC   PREDOUT,ACTOUT      TWO OPERANDS                         01-IF
 0026E8 A784 0005            026F2  5516+         JE    $NEXT397            BRANCH IF CC INDICATES FAIL          01-IF
 0026EC D209 D4F7 D498 04277 04218  5517            MVC   ERROR,=C'<=== ERROR'                                   18390007
                                    5518          ENDIF                                                          18400007
 0026F2                             5520+$NEXT397 DC    0H'0'                                                    01-ENDIF
                                    5521          PUT   SYSPRINT,OUTPUT                                          18410007
1IFTEST   EXAMPLES OF "IF" LOGIC MACRO INSTRUCTIONS                                                             Page   68
   Active Usings: IFTEST+X'2620',R12  $$WA$$,R13
0  Loc  Object Code    Addr1 Addr2  Stmt   Source Statement                                  HLASM R6.0  2021/03/26 12.00
00026F2 4110 D548            042C8  5525+         LA    1,SYSPRINT                        LOAD PARAMETER REG 1   02-IHBIN
 0026F6 4100 D4BD            0423D  5526+         LA    0,OUTPUT                          LOAD PARAMETER REG 0   02-IHBIN
 0026FA 1FFF                        5527+         SLR   15,15               CLEAR REGISTER FOR ICM          @L1A 01-PUT
 0026FC BFF7 1031            00031  5528+         ICM   15,7,49(1)          LOAD PUT ROUTINE ADDRESS        @L1C 01-PUT
 002700 0DEF                        5529+         BASR  14,15               LINK TO PUT ROUTINE             @L3C 01-PUT
 002702 D209 D4F7 D4A2 04277 04222  5530          MVC   ERROR,=CL10' '                                           18420007
                                    5531 *=*=*=*=*=*=*=*=*=*=*=*=*=*=*=*=*=*=*=*=*=*=*=*=*=*=*=*=*=*=*=*=*=*=*=* 18430007
 002708 92C1 D542      042C2        5532          MVI   VARBL1,C'A'         SET TO PASS                          18440007
 00270C 41F0 0004            00004  5533          LA    R15,4               SET TO FAIL                          18450007
 002710 9200 D544      042C4        5534          MVI   VARBL3,X'00'        SET TO PASS                          18460007
 002714 F230 D4B9 D4B6 04239 04236  5535          PACK  PACK1,=Z'1'         SET TO PASS                          18470007
 00271A D204 D4DA D4AC 0425A 0422C  5536          MVC   PREDOUT,=C'TRUE '                                        18480007
 002720 D207 D4BE D328 0423E 040A8  5537          MVC   TESTNBR,=C'TEST120C'                                     18490007
                                    5538 *                                                                       18500007
                                    5539 TEST120C IF    ((CLI,VARBL1,C'A',E),OR,(LTR,R15,R15,Z)),AND,           C18510007
                                                        ((TM,VARBL3,X'01',Z),OR,(SP,PACK1,=P'1',Z))              18520007
 002726 95C1 D542      042C2        5544+TEST120C CLI   VARBL1,C'A'         TWO OPERANDS                         02-IF2
 00272A A784 0005            02734  5547+         JE    $MDT398             TRUE RESULT - POSSIBLE PASS          02-IF2
 00272E 12FF                        5549+         LTR   R15,R15             TWO OPERANDS                         02-IF2
 002730 A774 0010            02750  5554+         JNZ   $MDF399             FALSE RESULT - POSSIBLE FAIL         01-IF
 002734 9101 D544      042C4        5559+$MDT398  TM    VARBL3,X'01'        TWO OPERANDS                         02-IF2
 002738 A784 0007            02746  5562+         JZ    $MDT400             TRUE RESULT - POSSIBLE PASS          02-IF2
 00273C FB30 D4B9 D4B7 04239 04237  5564+         SP    PACK1,=P'1'         TWO OPERANDS                         02-IF2
 002742 A774 0007            02750  5570+         JNZ   $MDF399             BRANCH IF CC INDICATES FAIL          01-IF
 002746                             5571+$MDT400  DC    0H'0'               END RESULT WAS PASS - DO THE EXECUTE 01-IF
 002746 D204 D4F1 D4AC 04271 0422C  5572            MVC   ACTOUT,=C'TRUE '                                       18530007
                                    5573          ELSE                                                           18540007
 00274C A7F4 0005            02756  5575+         J     $FINI401                                                 01-ELSE
 002750                             5576+$MDF399  DC    0H'0'                                                    01-ELSE
 002750 D204 D4F1 D4B1 04271 04231  5577            MVC   ACTOUT,=C'FALSE'                                       18550007
                                    5578          ENDIF                                                          18560007
 002756                             5580+$FINI401 DC    0H'0'                                                    01-ENDIF
                                    5581          IF    (CLC,PREDOUT,ACTOUT,NE)                                  18570007
 002756 D504 D4DA D4F1 0425A 04271  5583+         CLC   PREDOUT,ACTOUT      TWO OPERANDS                         01-IF
 00275C A784 0005            02766  5587+         JE    $NEXT402            BRANCH IF CC INDICATES FAIL          01-IF
 002760 D209 D4F7 D498 04277 04218  5588            MVC   ERROR,=C'<=== ERROR'                                   18580007
                                    5589          ENDIF                                                          18590007
 002766                             5591+$NEXT402 DC    0H'0'                                                    01-ENDIF
                                    5592          PUT   SYSPRINT,OUTPUT                                          18600007
 002766 4110 D548            042C8  5596+         LA    1,SYSPRINT                        LOAD PARAMETER REG 1   02-IHBIN
 00276A 4100 D4BD            0423D  5597+         LA    0,OUTPUT                          LOAD PARAMETER REG 0   02-IHBIN
 00276E 1FFF                        5598+         SLR   15,15               CLEAR REGISTER FOR ICM          @L1A 01-PUT
 002770 BFF7 1031            00031  5599+         ICM   15,7,49(1)          LOAD PUT ROUTINE ADDRESS        @L1C 01-PUT
 002774 0DEF                        5600+         BASR  14,15               LINK TO PUT ROUTINE             @L3C 01-PUT
 002776 D209 D4F7 D4A2 04277 04222  5601          MVC   ERROR,=CL10' '                                           18610007
                                    5602 *=*=*=*=*=*=*=*=*=*=*=*=*=*=*=*=*=*=*=*=*=*=*=*=*=*=*=*=*=*=*=*=*=*=*=* 18620007
 00277C 92E9 D542      042C2        5603          MVI   VARBL1,C'Z'         SET TO FAIL                          18630007
 002780 41F0 0004            00004  5604          LA    R15,4               SET TO FAIL                          18640007
 002784 9200 D544      042C4        5605          MVI   VARBL3,X'00'        SET TO PASS                          18650007
 002788 F230 D4B9 D4B6 04239 04236  5606          PACK  PACK1,=Z'1'         SET TO PASS                          18660007
 00278E D204 D4DA D4B1 0425A 04231  5607          MVC   PREDOUT,=C'FALSE'                                        18670007
 002794 D207 D4BE D330 0423E 040B0  5608          MVC   TESTNBR,=C'TEST120D'                                     18680007
                                    5609 *                                                                       18690007
                                    5610 TEST120D IF    ((CLI,VARBL1,C'A',E),OR,(LTR,R15,R15,Z)),AND,           C18700007
                                                        ((TM,VARBL3,X'01',Z),OR,(SP,PACK1,=P'1',Z))              18710007
1IFTEST   EXAMPLES OF "IF" LOGIC MACRO INSTRUCTIONS                                                             Page   69
   Active Usings: IFTEST+X'2620',R12  $$WA$$,R13
0  Loc  Object Code    Addr1 Addr2  Stmt   Source Statement                                  HLASM R6.0  2021/03/26 12.00
000279A 95C1 D542      042C2        5615+TEST120D CLI   VARBL1,C'A'         TWO OPERANDS                         02-IF2
 00279E A784 0005            027A8  5618+         JE    $MDT403             TRUE RESULT - POSSIBLE PASS          02-IF2
 0027A2 12FF                        5620+         LTR   R15,R15             TWO OPERANDS                         02-IF2
 0027A4 A774 0010            027C4  5625+         JNZ   $MDF404             FALSE RESULT - POSSIBLE FAIL         01-IF
 0027A8 9101 D544      042C4        5630+$MDT403  TM    VARBL3,X'01'        TWO OPERANDS                         02-IF2
 0027AC A784 0007            027BA  5633+         JZ    $MDT405             TRUE RESULT - POSSIBLE PASS          02-IF2
 0027B0 FB30 D4B9 D4B7 04239 04237  5635+         SP    PACK1,=P'1'         TWO OPERANDS                         02-IF2
 0027B6 A774 0007            027C4  5641+         JNZ   $MDF404             BRANCH IF CC INDICATES FAIL          01-IF
 0027BA                             5642+$MDT405  DC    0H'0'               END RESULT WAS PASS - DO THE EXECUTE 01-IF
 0027BA D204 D4F1 D4AC 04271 0422C  5643            MVC   ACTOUT,=C'TRUE '                                       18720007
                                    5644          ELSE                                                           18730007
 0027C0 A7F4 0005            027CA  5646+         J     $FINI406                                                 01-ELSE
 0027C4                             5647+$MDF404  DC    0H'0'                                                    01-ELSE
 0027C4 D204 D4F1 D4B1 04271 04231  5648            MVC   ACTOUT,=C'FALSE'                                       18740007
                                    5649          ENDIF                                                          18750007
 0027CA                             5651+$FINI406 DC    0H'0'                                                    01-ENDIF
                                    5652          IF    (CLC,PREDOUT,ACTOUT,NE)                                  18760007
 0027CA D504 D4DA D4F1 0425A 04271  5654+         CLC   PREDOUT,ACTOUT      TWO OPERANDS                         01-IF
 0027D0 A784 0005            027DA  5658+         JE    $NEXT407            BRANCH IF CC INDICATES FAIL          01-IF
 0027D4 D209 D4F7 D498 04277 04218  5659            MVC   ERROR,=C'<=== ERROR'                                   18770007
                                    5660          ENDIF                                                          18780007
 0027DA                             5662+$NEXT407 DC    0H'0'                                                    01-ENDIF
                                    5663          PUT   SYSPRINT,OUTPUT                                          18790007
 0027DA 4110 D548            042C8  5667+         LA    1,SYSPRINT                        LOAD PARAMETER REG 1   02-IHBIN
 0027DE 4100 D4BD            0423D  5668+         LA    0,OUTPUT                          LOAD PARAMETER REG 0   02-IHBIN
 0027E2 1FFF                        5669+         SLR   15,15               CLEAR REGISTER FOR ICM          @L1A 01-PUT
 0027E4 BFF7 1031            00031  5670+         ICM   15,7,49(1)          LOAD PUT ROUTINE ADDRESS        @L1C 01-PUT
 0027E8 0DEF                        5671+         BASR  14,15               LINK TO PUT ROUTINE             @L3C 01-PUT
 0027EA D209 D4F7 D4A2 04277 04222  5672          MVC   ERROR,=CL10' '                                           18800007
                                    5673 *=*=*=*=*=*=*=*=*=*=*=*=*=*=*=*=*=*=*=*=*=*=*=*=*=*=*=*=*=*=*=*=*=*=*=* 18810007
 0027F0 92C1 D542      042C2        5674          MVI   VARBL1,C'A'         SET TO PASS                          18820007
 0027F4 41F0 0000            00000  5675          LA    R15,0               SET TO PASS                          18830007
 0027F8 9201 D544      042C4        5676          MVI   VARBL3,X'01'        SET TO FAIL                          18840007
 0027FC F230 D4B9 D4B6 04239 04236  5677          PACK  PACK1,=Z'1'         SET TO PASS                          18850007
 002802 D204 D4DA D4AC 0425A 0422C  5678          MVC   PREDOUT,=C'TRUE '                                        18860007
 002808 D207 D4BE D338 0423E 040B8  5679          MVC   TESTNBR,=C'TEST120E'                                     18870007
                                    5680 *                                                                       18880007
                                    5681 TEST120E IF    ((CLI,VARBL1,C'A',E),OR,(LTR,R15,R15,Z)),AND,           C18890007
                                                        ((TM,VARBL3,X'01',Z),OR,(SP,PACK1,=P'1',Z))              18900007
 00280E 95C1 D542      042C2        5686+TEST120E CLI   VARBL1,C'A'         TWO OPERANDS                         02-IF2
 002812 A784 0005            0281C  5689+         JE    $MDT408             TRUE RESULT - POSSIBLE PASS          02-IF2
 002816 12FF                        5691+         LTR   R15,R15             TWO OPERANDS                         02-IF2
 002818 A774 0010            02838  5696+         JNZ   $MDF409             FALSE RESULT - POSSIBLE FAIL         01-IF
 00281C 9101 D544      042C4        5701+$MDT408  TM    VARBL3,X'01'        TWO OPERANDS                         02-IF2
 002820 A784 0007            0282E  5704+         JZ    $MDT410             TRUE RESULT - POSSIBLE PASS          02-IF2
 002824 FB30 D4B9 D4B7 04239 04237  5706+         SP    PACK1,=P'1'         TWO OPERANDS                         02-IF2
 00282A A774 0007            02838  5712+         JNZ   $MDF409             BRANCH IF CC INDICATES FAIL          01-IF
 00282E                             5713+$MDT410  DC    0H'0'               END RESULT WAS PASS - DO THE EXECUTE 01-IF
 00282E D204 D4F1 D4AC 04271 0422C  5714            MVC   ACTOUT,=C'TRUE '                                       18910007
                                    5715          ELSE                                                           18920007
 002834 A7F4 0005            0283E  5717+         J     $FINI411                                                 01-ELSE
 002838                             5718+$MDF409  DC    0H'0'                                                    01-ELSE
 002838 D204 D4F1 D4B1 04271 04231  5719            MVC   ACTOUT,=C'FALSE'                                       18930007
                                    5720          ENDIF                                                          18940007
 00283E                             5722+$FINI411 DC    0H'0'                                                    01-ENDIF
1IFTEST   EXAMPLES OF "IF" LOGIC MACRO INSTRUCTIONS                                                             Page   70
   Active Usings: IFTEST+X'2620',R12  $$WA$$,R13
0  Loc  Object Code    Addr1 Addr2  Stmt   Source Statement                                  HLASM R6.0  2021/03/26 12.00
0                                   5723          IF    (CLC,PREDOUT,ACTOUT,NE)                                  18950007
 00283E D504 D4DA D4F1 0425A 04271  5725+         CLC   PREDOUT,ACTOUT      TWO OPERANDS                         01-IF
 002844 A784 0005            0284E  5729+         JE    $NEXT412            BRANCH IF CC INDICATES FAIL          01-IF
 002848 D209 D4F7 D498 04277 04218  5730            MVC   ERROR,=C'<=== ERROR'                                   18960007
                                    5731          ENDIF                                                          18970007
 00284E                             5733+$NEXT412 DC    0H'0'                                                    01-ENDIF
                                    5734          PUT   SYSPRINT,OUTPUT                                          18980007
 00284E 4110 D548            042C8  5738+         LA    1,SYSPRINT                        LOAD PARAMETER REG 1   02-IHBIN
 002852 4100 D4BD            0423D  5739+         LA    0,OUTPUT                          LOAD PARAMETER REG 0   02-IHBIN
 002856 1FFF                        5740+         SLR   15,15               CLEAR REGISTER FOR ICM          @L1A 01-PUT
 002858 BFF7 1031            00031  5741+         ICM   15,7,49(1)          LOAD PUT ROUTINE ADDRESS        @L1C 01-PUT
 00285C 0DEF                        5742+         BASR  14,15               LINK TO PUT ROUTINE             @L3C 01-PUT
 00285E D209 D4F7 D4A2 04277 04222  5743          MVC   ERROR,=CL10' '         PUT   SYSPRINT,OUTPUT             18990007
                                    5744 *=*=*=*=*=*=*=*=*=*=*=*=*=*=*=*=*=*=*=*=*=*=*=*=*=*=*=*=*=*=*=*=*=*=*=* 19000007
 002864 92E9 D542      042C2        5745          MVI   VARBL1,C'Z'         SET TO FAIL                          19010007
 002868 41F0 0000            00000  5746          LA    R15,0               SET TO PASS                          19020007
 00286C 9201 D544      042C4        5747          MVI   VARBL3,X'01'        SET TO FAIL                          19030007
 002870 F230 D4B9 D4B6 04239 04236  5748          PACK  PACK1,=Z'1'         SET TO PASS                          19040007
 002876 D204 D4DA D4AC 0425A 0422C  5749          MVC   PREDOUT,=C'TRUE '                                        19050007
 00287C D207 D4BE D340 0423E 040C0  5750          MVC   TESTNBR,=C'TEST120F'                                     19060007
                                    5751 *                                                                       19070007
                                    5752 TEST120F IF    ((CLI,VARBL1,C'A',E),OR,(LTR,R15,R15,Z)),AND,           C19080007
                                                        ((TM,VARBL3,X'01',Z),OR,(SP,PACK1,=P'1',Z))              19090007
 002882 95C1 D542      042C2        5757+TEST120F CLI   VARBL1,C'A'         TWO OPERANDS                         02-IF2
 002886 A784 0005            02890  5760+         JE    $MDT413             TRUE RESULT - POSSIBLE PASS          02-IF2
 00288A 12FF                        5762+         LTR   R15,R15             TWO OPERANDS                         02-IF2
 00288C A774 0010            028AC  5767+         JNZ   $MDF414             FALSE RESULT - POSSIBLE FAIL         01-IF
 002890 9101 D544      042C4        5772+$MDT413  TM    VARBL3,X'01'        TWO OPERANDS                         02-IF2
 002894 A784 0007            028A2  5775+         JZ    $MDT415             TRUE RESULT - POSSIBLE PASS          02-IF2
 002898 FB30 D4B9 D4B7 04239 04237  5777+         SP    PACK1,=P'1'         TWO OPERANDS                         02-IF2
 00289E A774 0007            028AC  5783+         JNZ   $MDF414             BRANCH IF CC INDICATES FAIL          01-IF
 0028A2                             5784+$MDT415  DC    0H'0'               END RESULT WAS PASS - DO THE EXECUTE 01-IF
 0028A2 D204 D4F1 D4AC 04271 0422C  5785            MVC   ACTOUT,=C'TRUE '                                       19100007
                                    5786          ELSE                                                           19110007
 0028A8 A7F4 0005            028B2  5788+         J     $FINI416                                                 01-ELSE
 0028AC                             5789+$MDF414  DC    0H'0'                                                    01-ELSE
 0028AC D204 D4F1 D4B1 04271 04231  5790            MVC   ACTOUT,=C'FALSE'                                       19120007
                                    5791          ENDIF                                                          19130007
 0028B2                             5793+$FINI416 DC    0H'0'                                                    01-ENDIF
                                    5794          IF    (CLC,PREDOUT,ACTOUT,NE)                                  19140007
 0028B2 D504 D4DA D4F1 0425A 04271  5796+         CLC   PREDOUT,ACTOUT      TWO OPERANDS                         01-IF
 0028B8 A784 0005            028C2  5800+         JE    $NEXT417            BRANCH IF CC INDICATES FAIL          01-IF
 0028BC D209 D4F7 D498 04277 04218  5801            MVC   ERROR,=C'<=== ERROR'                                   19150007
                                    5802          ENDIF                                                          19160007
 0028C2                             5804+$NEXT417 DC    0H'0'                                                    01-ENDIF
                                    5805          PUT   SYSPRINT,OUTPUT                                          19170007
 0028C2 4110 D548            042C8  5809+         LA    1,SYSPRINT                        LOAD PARAMETER REG 1   02-IHBIN
 0028C6 4100 D4BD            0423D  5810+         LA    0,OUTPUT                          LOAD PARAMETER REG 0   02-IHBIN
 0028CA 1FFF                        5811+         SLR   15,15               CLEAR REGISTER FOR ICM          @L1A 01-PUT
 0028CC BFF7 1031            00031  5812+         ICM   15,7,49(1)          LOAD PUT ROUTINE ADDRESS        @L1C 01-PUT
 0028D0 0DEF                        5813+         BASR  14,15               LINK TO PUT ROUTINE             @L3C 01-PUT
 0028D2 D209 D4F7 D4A2 04277 04222  5814          MVC   ERROR,=CL10' '                                           19180007
                                    5815 *=*=*=*=*=*=*=*=*=*=*=*=*=*=*=*=*=*=*=*=*=*=*=*=*=*=*=*=*=*=*=*=*=*=*=* 19190007
 0028D8 92C1 D542      042C2        5816          MVI   VARBL1,C'A'         SET TO PASS                          19200007
 0028DC 41F0 0004            00004  5817          LA    R15,4               SET TO FAIL                          19210007
1IFTEST   EXAMPLES OF "IF" LOGIC MACRO INSTRUCTIONS                                                             Page   71
   Active Usings: IFTEST+X'2620',R12  $$WA$$,R13
0  Loc  Object Code    Addr1 Addr2  Stmt   Source Statement                                  HLASM R6.0  2021/03/26 12.00
00028E0 9201 D544      042C4        5818          MVI   VARBL3,X'01'        SET TO FAIL                          19220007
 0028E4 F230 D4B9 D4B6 04239 04236  5819          PACK  PACK1,=Z'1'         SET TO PASS                          19230007
 0028EA D204 D4DA D4AC 0425A 0422C  5820          MVC   PREDOUT,=C'TRUE '                                        19240007
 0028F0 D207 D4BE D348 0423E 040C8  5821          MVC   TESTNBR,=C'TEST120G'                                     19250007
                                    5822 *                                                                       19260007
                                    5823 TEST120G IF    ((CLI,VARBL1,C'A',E),OR,(LTR,R15,R15,Z)),AND,           C19270007
                                                        ((TM,VARBL3,X'01',Z),OR,(SP,PACK1,=P'1',Z))              19280007
 0028F6 95C1 D542      042C2        5828+TEST120G CLI   VARBL1,C'A'         TWO OPERANDS                         02-IF2
 0028FA A784 0005            02904  5831+         JE    $MDT418             TRUE RESULT - POSSIBLE PASS          02-IF2
 0028FE 12FF                        5833+         LTR   R15,R15             TWO OPERANDS                         02-IF2
 002900 A774 0010            02920  5838+         JNZ   $MDF419             FALSE RESULT - POSSIBLE FAIL         01-IF
 002904 9101 D544      042C4        5843+$MDT418  TM    VARBL3,X'01'        TWO OPERANDS                         02-IF2
 002908 A784 0007            02916  5846+         JZ    $MDT420             TRUE RESULT - POSSIBLE PASS          02-IF2
 00290C FB30 D4B9 D4B7 04239 04237  5848+         SP    PACK1,=P'1'         TWO OPERANDS                         02-IF2
 002912 A774 0007            02920  5854+         JNZ   $MDF419             BRANCH IF CC INDICATES FAIL          01-IF
 002916                             5855+$MDT420  DC    0H'0'               END RESULT WAS PASS - DO THE EXECUTE 01-IF
 002916 D204 D4F1 D4AC 04271 0422C  5856            MVC   ACTOUT,=C'TRUE '                                       19290007
                                    5857          ELSE                                                           19300007
 00291C A7F4 0005            02926  5859+         J     $FINI421                                                 01-ELSE
 002920                             5860+$MDF419  DC    0H'0'                                                    01-ELSE
 002920 D204 D4F1 D4B1 04271 04231  5861            MVC   ACTOUT,=C'FALSE'                                       19310007
                                    5862          ENDIF                                                          19320007
 002926                             5864+$FINI421 DC    0H'0'                                                    01-ENDIF
                                    5865          IF    (CLC,PREDOUT,ACTOUT,NE)                                  19330007
 002926 D504 D4DA D4F1 0425A 04271  5867+         CLC   PREDOUT,ACTOUT      TWO OPERANDS                         01-IF
 00292C A784 0005            02936  5871+         JE    $NEXT422            BRANCH IF CC INDICATES FAIL          01-IF
 002930 D209 D4F7 D498 04277 04218  5872            MVC   ERROR,=C'<=== ERROR'                                   19340007
                                    5873          ENDIF                                                          19350007
 002936                             5875+$NEXT422 DC    0H'0'                                                    01-ENDIF
                                    5876          PUT   SYSPRINT,OUTPUT                                          19360007
 002936 4110 D548            042C8  5880+         LA    1,SYSPRINT                        LOAD PARAMETER REG 1   02-IHBIN
 00293A 4100 D4BD            0423D  5881+         LA    0,OUTPUT                          LOAD PARAMETER REG 0   02-IHBIN
 00293E 1FFF                        5882+         SLR   15,15               CLEAR REGISTER FOR ICM          @L1A 01-PUT
 002940 BFF7 1031            00031  5883+         ICM   15,7,49(1)          LOAD PUT ROUTINE ADDRESS        @L1C 01-PUT
 002944 0DEF                        5884+         BASR  14,15               LINK TO PUT ROUTINE             @L3C 01-PUT
 002946 D209 D4F7 D4A2 04277 04222  5885          MVC   ERROR,=CL10' '                                           19370007
                                    5886 *=*=*=*=*=*=*=*=*=*=*=*=*=*=*=*=*=*=*=*=*=*=*=*=*=*=*=*=*=*=*=*=*=*=*=* 19380007
 00294C 92E9 D542      042C2        5887          MVI   VARBL1,C'Z'         SET TO FAIL                          19390007
 002950 41F0 0004            00004  5888          LA    R15,4               SET TO FAIL                          19400007
 002954 9201 D544      042C4        5889          MVI   VARBL3,X'01'        SET TO FAIL                          19410007
 002958 F230 D4B9 D4B6 04239 04236  5890          PACK  PACK1,=Z'1'         SET TO PASS                          19420007
 00295E D204 D4DA D4B1 0425A 04231  5891          MVC   PREDOUT,=C'FALSE'                                        19430007
 002964 D207 D4BE D350 0423E 040D0  5892          MVC   TESTNBR,=C'TEST120H'                                     19440007
                                    5893 *                                                                       19450007
                                    5894 TEST120H IF    ((CLI,VARBL1,C'A',E),OR,(LTR,R15,R15,Z)),AND,           C19460007
                                                        ((TM,VARBL3,X'01',Z),OR,(SP,PACK1,=P'1',Z))              19470007
 00296A 95C1 D542      042C2        5899+TEST120H CLI   VARBL1,C'A'         TWO OPERANDS                         02-IF2
 00296E A784 0005            02978  5902+         JE    $MDT423             TRUE RESULT - POSSIBLE PASS          02-IF2
 002972 12FF                        5904+         LTR   R15,R15             TWO OPERANDS                         02-IF2
 002974 A774 0010            02994  5909+         JNZ   $MDF424             FALSE RESULT - POSSIBLE FAIL         01-IF
 002978 9101 D544      042C4        5914+$MDT423  TM    VARBL3,X'01'        TWO OPERANDS                         02-IF2
 00297C A784 0007            0298A  5917+         JZ    $MDT425             TRUE RESULT - POSSIBLE PASS          02-IF2
 002980 FB30 D4B9 D4B7 04239 04237  5919+         SP    PACK1,=P'1'         TWO OPERANDS                         02-IF2
 002986 A774 0007            02994  5925+         JNZ   $MDF424             BRANCH IF CC INDICATES FAIL          01-IF
 00298A                             5926+$MDT425  DC    0H'0'               END RESULT WAS PASS - DO THE EXECUTE 01-IF
1IFTEST   EXAMPLES OF "IF" LOGIC MACRO INSTRUCTIONS                                                             Page   72
   Active Usings: IFTEST+X'2620',R12  $$WA$$,R13
0  Loc  Object Code    Addr1 Addr2  Stmt   Source Statement                                  HLASM R6.0  2021/03/26 12.00
000298A D204 D4F1 D4AC 04271 0422C  5927            MVC   ACTOUT,=C'TRUE '                                       19480007
                                    5928          ELSE                                                           19490007
 002990 A7F4 0005            0299A  5930+         J     $FINI426                                                 01-ELSE
 002994                             5931+$MDF424  DC    0H'0'                                                    01-ELSE
 002994 D204 D4F1 D4B1 04271 04231  5932            MVC   ACTOUT,=C'FALSE'                                       19500007
                                    5933          ENDIF                                                          19510007
 00299A                             5935+$FINI426 DC    0H'0'                                                    01-ENDIF
                                    5936          IF    (CLC,PREDOUT,ACTOUT,NE)                                  19520007
 00299A D504 D4DA D4F1 0425A 04271  5938+         CLC   PREDOUT,ACTOUT      TWO OPERANDS                         01-IF
 0029A0 A784 0005            029AA  5942+         JE    $NEXT427            BRANCH IF CC INDICATES FAIL          01-IF
 0029A4 D209 D4F7 D498 04277 04218  5943            MVC   ERROR,=C'<=== ERROR'                                   19530007
                                    5944          ENDIF                                                          19540007
 0029AA                             5946+$NEXT427 DC    0H'0'                                                    01-ENDIF
                                    5947          PUT   SYSPRINT,OUTPUT                                          19550007
 0029AA 4110 D548            042C8  5951+         LA    1,SYSPRINT                        LOAD PARAMETER REG 1   02-IHBIN
 0029AE 4100 D4BD            0423D  5952+         LA    0,OUTPUT                          LOAD PARAMETER REG 0   02-IHBIN
 0029B2 1FFF                        5953+         SLR   15,15               CLEAR REGISTER FOR ICM          @L1A 01-PUT
 0029B4 BFF7 1031            00031  5954+         ICM   15,7,49(1)          LOAD PUT ROUTINE ADDRESS        @L1C 01-PUT
 0029B8 0DEF                        5955+         BASR  14,15               LINK TO PUT ROUTINE             @L3C 01-PUT
 0029BA D209 D4F7 D4A2 04277 04222  5956          MVC   ERROR,=CL10' '                                           19560007
                                    5957 *=*=*=*=*=*=*=*=*=*=*=*=*=*=*=*=*=*=*=*=*=*=*=*=*=*=*=*=*=*=*=*=*=*=*=* 19570007
 0029C0 92C1 D542      042C2        5958          MVI   VARBL1,C'A'         SET TO PASS                          19580007
 0029C4 41F0 0000            00000  5959          LA    R15,0               SET TO PASS                          19590007
 0029C8 9200 D544      042C4        5960          MVI   VARBL3,X'00'        SET TO PASS                          19600007
 0029CC F230 D4B9 D4B8 04239 04238  5961          PACK  PACK1,=Z'2'         SET TO FAIL                          19610007
 0029D2 D204 D4DA D4AC 0425A 0422C  5962          MVC   PREDOUT,=C'TRUE '                                        19620007
 0029D8 D207 D4BE D358 0423E 040D8  5963          MVC   TESTNBR,=C'TEST120I'                                     19630007
                                    5964 *                                                                       19640007
                                    5965 TEST120I IF    ((CLI,VARBL1,C'A',E),OR,(LTR,R15,R15,Z)),AND,           C19650007
                                                        ((TM,VARBL3,X'01',Z),OR,(SP,PACK1,=P'1',Z))              19660007
 0029DE 95C1 D542      042C2        5970+TEST120I CLI   VARBL1,C'A'         TWO OPERANDS                         02-IF2
 0029E2 A784 0005            029EC  5973+         JE    $MDT428             TRUE RESULT - POSSIBLE PASS          02-IF2
 0029E6 12FF                        5975+         LTR   R15,R15             TWO OPERANDS                         02-IF2
 0029E8 A774 0010            02A08  5980+         JNZ   $MDF429             FALSE RESULT - POSSIBLE FAIL         01-IF
 0029EC 9101 D544      042C4        5985+$MDT428  TM    VARBL3,X'01'        TWO OPERANDS                         02-IF2
 0029F0 A784 0007            029FE  5988+         JZ    $MDT430             TRUE RESULT - POSSIBLE PASS          02-IF2
 0029F4 FB30 D4B9 D4B7 04239 04237  5990+         SP    PACK1,=P'1'         TWO OPERANDS                         02-IF2
 0029FA A774 0007            02A08  5996+         JNZ   $MDF429             BRANCH IF CC INDICATES FAIL          01-IF
 0029FE                             5997+$MDT430  DC    0H'0'               END RESULT WAS PASS - DO THE EXECUTE 01-IF
 0029FE D204 D4F1 D4AC 04271 0422C  5998            MVC   ACTOUT,=C'TRUE '                                       19670007
                                    5999          ELSE                                                           19680007
 002A04 A7F4 0005            02A0E  6001+         J     $FINI431                                                 01-ELSE
 002A08                             6002+$MDF429  DC    0H'0'                                                    01-ELSE
 002A08 D204 D4F1 D4B1 04271 04231  6003            MVC   ACTOUT,=C'FALSE'                                       19690007
                                    6004          ENDIF                                                          19700007
 002A0E                             6006+$FINI431 DC    0H'0'                                                    01-ENDIF
                                    6007          IF    (CLC,PREDOUT,ACTOUT,NE)                                  19710007
 002A0E D504 D4DA D4F1 0425A 04271  6009+         CLC   PREDOUT,ACTOUT      TWO OPERANDS                         01-IF
 002A14 A784 0005            02A1E  6013+         JE    $NEXT432            BRANCH IF CC INDICATES FAIL          01-IF
 002A18 D209 D4F7 D498 04277 04218  6014            MVC   ERROR,=C'<=== ERROR'                                   19720007
                                    6015          ENDIF                                                          19730007
 002A1E                             6017+$NEXT432 DC    0H'0'                                                    01-ENDIF
                                    6018          PUT   SYSPRINT,OUTPUT                                          19740007
 002A1E 4110 D548            042C8  6022+         LA    1,SYSPRINT                        LOAD PARAMETER REG 1   02-IHBIN
 002A22 4100 D4BD            0423D  6023+         LA    0,OUTPUT                          LOAD PARAMETER REG 0   02-IHBIN
1IFTEST   EXAMPLES OF "IF" LOGIC MACRO INSTRUCTIONS                                                             Page   73
   Active Usings: IFTEST+X'2620',R12  $$WA$$,R13
0  Loc  Object Code    Addr1 Addr2  Stmt   Source Statement                                  HLASM R6.0  2021/03/26 12.00
0002A26 1FFF                        6024+         SLR   15,15               CLEAR REGISTER FOR ICM          @L1A 01-PUT
 002A28 BFF7 1031            00031  6025+         ICM   15,7,49(1)          LOAD PUT ROUTINE ADDRESS        @L1C 01-PUT
 002A2C 0DEF                        6026+         BASR  14,15               LINK TO PUT ROUTINE             @L3C 01-PUT
 002A2E D209 D4F7 D4A2 04277 04222  6027          MVC   ERROR,=CL10' '                                           19750007
                                    6028 *=*=*=*=*=*=*=*=*=*=*=*=*=*=*=*=*=*=*=*=*=*=*=*=*=*=*=*=*=*=*=*=*=*=*=* 19760007
 002A34 92E9 D542      042C2        6029          MVI   VARBL1,C'Z'         SET TO FAIL                          19770007
 002A38 41F0 0000            00000  6030          LA    R15,0               SET TO PASS                          19780007
 002A3C 9200 D544      042C4        6031          MVI   VARBL3,X'00'        SET TO PASS                          19790007
 002A40 F230 D4B9 D4B8 04239 04238  6032          PACK  PACK1,=Z'2'         SET TO FAIL                          19800007
 002A46 D204 D4DA D4AC 0425A 0422C  6033          MVC   PREDOUT,=C'TRUE '                                        19810007
 002A4C D207 D4BE D360 0423E 040E0  6034          MVC   TESTNBR,=C'TEST120J'                                     19820007
                                    6035 *                                                                       19830007
                                    6036 TEST120J IF    ((CLI,VARBL1,C'A',E),OR,(LTR,R15,R15,Z)),AND,           C19840007
                                                        ((TM,VARBL3,X'01',Z),OR,(SP,PACK1,=P'1',Z))              19850007
 002A52 95C1 D542      042C2        6041+TEST120J CLI   VARBL1,C'A'         TWO OPERANDS                         02-IF2
 002A56 A784 0005            02A60  6044+         JE    $MDT433             TRUE RESULT - POSSIBLE PASS          02-IF2
 002A5A 12FF                        6046+         LTR   R15,R15             TWO OPERANDS                         02-IF2
 002A5C A774 0010            02A7C  6051+         JNZ   $MDF434             FALSE RESULT - POSSIBLE FAIL         01-IF
 002A60 9101 D544      042C4        6056+$MDT433  TM    VARBL3,X'01'        TWO OPERANDS                         02-IF2
 002A64 A784 0007            02A72  6059+         JZ    $MDT435             TRUE RESULT - POSSIBLE PASS          02-IF2
 002A68 FB30 D4B9 D4B7 04239 04237  6061+         SP    PACK1,=P'1'         TWO OPERANDS                         02-IF2
 002A6E A774 0007            02A7C  6067+         JNZ   $MDF434             BRANCH IF CC INDICATES FAIL          01-IF
 002A72                             6068+$MDT435  DC    0H'0'               END RESULT WAS PASS - DO THE EXECUTE 01-IF
 002A72 D204 D4F1 D4AC 04271 0422C  6069            MVC   ACTOUT,=C'TRUE '                                       19860007
                                    6070          ELSE                                                           19870007
 002A78 A7F4 0005            02A82  6072+         J     $FINI436                                                 01-ELSE
 002A7C                             6073+$MDF434  DC    0H'0'                                                    01-ELSE
 002A7C D204 D4F1 D4B1 04271 04231  6074            MVC   ACTOUT,=C'FALSE'                                       19880007
                                    6075          ENDIF                                                          19890007
 002A82                             6077+$FINI436 DC    0H'0'                                                    01-ENDIF
                                    6078          IF    (CLC,PREDOUT,ACTOUT,NE)                                  19900007
 002A82 D504 D4DA D4F1 0425A 04271  6080+         CLC   PREDOUT,ACTOUT      TWO OPERANDS                         01-IF
 002A88 A784 0005            02A92  6084+         JE    $NEXT437            BRANCH IF CC INDICATES FAIL          01-IF
 002A8C D209 D4F7 D498 04277 04218  6085            MVC   ERROR,=C'<=== ERROR'                                   19910007
                                    6086          ENDIF                                                          19920007
 002A92                             6088+$NEXT437 DC    0H'0'                                                    01-ENDIF
                                    6089          PUT   SYSPRINT,OUTPUT                                          19930007
 002A92 4110 D548            042C8  6093+         LA    1,SYSPRINT                        LOAD PARAMETER REG 1   02-IHBIN
 002A96 4100 D4BD            0423D  6094+         LA    0,OUTPUT                          LOAD PARAMETER REG 0   02-IHBIN
 002A9A 1FFF                        6095+         SLR   15,15               CLEAR REGISTER FOR ICM          @L1A 01-PUT
 002A9C BFF7 1031            00031  6096+         ICM   15,7,49(1)          LOAD PUT ROUTINE ADDRESS        @L1C 01-PUT
 002AA0 0DEF                        6097+         BASR  14,15               LINK TO PUT ROUTINE             @L3C 01-PUT
 002AA2 D209 D4F7 D4A2 04277 04222  6098          MVC   ERROR,=CL10' '                                           19940007
                                    6099 *=*=*=*=*=*=*=*=*=*=*=*=*=*=*=*=*=*=*=*=*=*=*=*=*=*=*=*=*=*=*=*=*=*=*=* 19950007
 002AA8 92C1 D542      042C2        6100          MVI   VARBL1,C'A'         SET TO PASS                          19960007
 002AAC 41F0 0004            00004  6101          LA    R15,4               SET TO FAIL                          19970007
 002AB0 9200 D544      042C4        6102          MVI   VARBL3,X'00'        SET TO PASS                          19980007
 002AB4 F230 D4B9 D4B8 04239 04238  6103          PACK  PACK1,=Z'2'         SET TO FAIL                          19990007
 002ABA D204 D4DA D4AC 0425A 0422C  6104          MVC   PREDOUT,=C'TRUE '                                        20000007
 002AC0 D207 D4BE D368 0423E 040E8  6105          MVC   TESTNBR,=C'TEST120K'                                     20010007
                                    6106 *                                                                       20020007
                                    6107 TEST120K IF    ((CLI,VARBL1,C'A',E),OR,(LTR,R15,R15,Z)),AND,           C20030007
                                                        ((TM,VARBL3,X'01',Z),OR,(SP,PACK1,=P'1',Z))              20040007
 002AC6 95C1 D542      042C2        6112+TEST120K CLI   VARBL1,C'A'         TWO OPERANDS                         02-IF2
 002ACA A784 0005            02AD4  6115+         JE    $MDT438             TRUE RESULT - POSSIBLE PASS          02-IF2
1IFTEST   EXAMPLES OF "IF" LOGIC MACRO INSTRUCTIONS                                                             Page   74
   Active Usings: IFTEST+X'2620',R12  $$WA$$,R13
0  Loc  Object Code    Addr1 Addr2  Stmt   Source Statement                                  HLASM R6.0  2021/03/26 12.00
0002ACE 12FF                        6117+         LTR   R15,R15             TWO OPERANDS                         02-IF2
 002AD0 A774 0010            02AF0  6122+         JNZ   $MDF439             FALSE RESULT - POSSIBLE FAIL         01-IF
 002AD4 9101 D544      042C4        6127+$MDT438  TM    VARBL3,X'01'        TWO OPERANDS                         02-IF2
 002AD8 A784 0007            02AE6  6130+         JZ    $MDT440             TRUE RESULT - POSSIBLE PASS          02-IF2
 002ADC FB30 D4B9 D4B7 04239 04237  6132+         SP    PACK1,=P'1'         TWO OPERANDS                         02-IF2
 002AE2 A774 0007            02AF0  6138+         JNZ   $MDF439             BRANCH IF CC INDICATES FAIL          01-IF
 002AE6                             6139+$MDT440  DC    0H'0'               END RESULT WAS PASS - DO THE EXECUTE 01-IF
 002AE6 D204 D4F1 D4AC 04271 0422C  6140            MVC   ACTOUT,=C'TRUE '                                       20050007
                                    6141          ELSE                                                           20060007
 002AEC A7F4 0005            02AF6  6143+         J     $FINI441                                                 01-ELSE
 002AF0                             6144+$MDF439  DC    0H'0'                                                    01-ELSE
 002AF0 D204 D4F1 D4B1 04271 04231  6145            MVC   ACTOUT,=C'FALSE'                                       20070007
                                    6146          ENDIF                                                          20080007
 002AF6                             6148+$FINI441 DC    0H'0'                                                    01-ENDIF
                                    6149          IF    (CLC,PREDOUT,ACTOUT,NE)                                  20090007
 002AF6 D504 D4DA D4F1 0425A 04271  6151+         CLC   PREDOUT,ACTOUT      TWO OPERANDS                         01-IF
 002AFC A784 0005            02B06  6155+         JE    $NEXT442            BRANCH IF CC INDICATES FAIL          01-IF
 002B00 D209 D4F7 D498 04277 04218  6156            MVC   ERROR,=C'<=== ERROR'                                   20100007
                                    6157          ENDIF                                                          20110007
 002B06                             6159+$NEXT442 DC    0H'0'                                                    01-ENDIF
                                    6160          PUT   SYSPRINT,OUTPUT                                          20120007
 002B06 4110 D548            042C8  6164+         LA    1,SYSPRINT                        LOAD PARAMETER REG 1   02-IHBIN
 002B0A 4100 D4BD            0423D  6165+         LA    0,OUTPUT                          LOAD PARAMETER REG 0   02-IHBIN
 002B0E 1FFF                        6166+         SLR   15,15               CLEAR REGISTER FOR ICM          @L1A 01-PUT
 002B10 BFF7 1031            00031  6167+         ICM   15,7,49(1)          LOAD PUT ROUTINE ADDRESS        @L1C 01-PUT
 002B14 0DEF                        6168+         BASR  14,15               LINK TO PUT ROUTINE             @L3C 01-PUT
 002B16 D209 D4F7 D4A2 04277 04222  6169          MVC   ERROR,=CL10' '                                           20130007
                                    6170 *=*=*=*=*=*=*=*=*=*=*=*=*=*=*=*=*=*=*=*=*=*=*=*=*=*=*=*=*=*=*=*=*=*=*=* 20140007
 002B1C 92E9 D542      042C2        6171          MVI   VARBL1,C'Z'         SET TO FAIL                          20150007
 002B20 41F0 0004            00004  6172          LA    R15,4               SET TO FAIL                          20160007
 002B24 9200 D544      042C4        6173          MVI   VARBL3,X'00'        SET TO PASS                          20170007
 002B28 F230 D4B9 D4B8 04239 04238  6174          PACK  PACK1,=Z'2'         SET TO FAIL                          20180007
 002B2E D204 D4DA D4B1 0425A 04231  6175          MVC   PREDOUT,=C'FALSE'                                        20190007
 002B34 D207 D4BE D370 0423E 040F0  6176          MVC   TESTNBR,=C'TEST120L'                                     20200007
                                    6177 *                                                                       20210007
                                    6178 TEST120L IF    ((CLI,VARBL1,C'A',E),OR,(LTR,R15,R15,Z)),AND,           C20220007
                                                        ((TM,VARBL3,X'01',Z),OR,(SP,PACK1,=P'1',Z))              20230007
 002B3A 95C1 D542      042C2        6183+TEST120L CLI   VARBL1,C'A'         TWO OPERANDS                         02-IF2
 002B3E A784 0005            02B48  6186+         JE    $MDT443             TRUE RESULT - POSSIBLE PASS          02-IF2
 002B42 12FF                        6188+         LTR   R15,R15             TWO OPERANDS                         02-IF2
 002B44 A774 0010            02B64  6193+         JNZ   $MDF444             FALSE RESULT - POSSIBLE FAIL         01-IF
 002B48 9101 D544      042C4        6198+$MDT443  TM    VARBL3,X'01'        TWO OPERANDS                         02-IF2
 002B4C A784 0007            02B5A  6201+         JZ    $MDT445             TRUE RESULT - POSSIBLE PASS          02-IF2
 002B50 FB30 D4B9 D4B7 04239 04237  6203+         SP    PACK1,=P'1'         TWO OPERANDS                         02-IF2
 002B56 A774 0007            02B64  6209+         JNZ   $MDF444             BRANCH IF CC INDICATES FAIL          01-IF
 002B5A                             6210+$MDT445  DC    0H'0'               END RESULT WAS PASS - DO THE EXECUTE 01-IF
 002B5A D204 D4F1 D4AC 04271 0422C  6211            MVC   ACTOUT,=C'TRUE '                                       20240007
                                    6212          ELSE                                                           20250007
 002B60 A7F4 0005            02B6A  6214+         J     $FINI446                                                 01-ELSE
 002B64                             6215+$MDF444  DC    0H'0'                                                    01-ELSE
 002B64 D204 D4F1 D4B1 04271 04231  6216            MVC   ACTOUT,=C'FALSE'                                       20260007
                                    6217          ENDIF                                                          20270007
 002B6A                             6219+$FINI446 DC    0H'0'                                                    01-ENDIF
                                    6220          IF    (CLC,PREDOUT,ACTOUT,NE)                                  20280007
 002B6A D504 D4DA D4F1 0425A 04271  6222+         CLC   PREDOUT,ACTOUT      TWO OPERANDS                         01-IF
1IFTEST   EXAMPLES OF "IF" LOGIC MACRO INSTRUCTIONS                                                             Page   75
   Active Usings: IFTEST+X'2620',R12  $$WA$$,R13
0  Loc  Object Code    Addr1 Addr2  Stmt   Source Statement                                  HLASM R6.0  2021/03/26 12.00
0002B70 A784 0005            02B7A  6226+         JE    $NEXT447            BRANCH IF CC INDICATES FAIL          01-IF
 002B74 D209 D4F7 D498 04277 04218  6227            MVC   ERROR,=C'<=== ERROR'                                   20290007
                                    6228          ENDIF                                                          20300007
 002B7A                             6230+$NEXT447 DC    0H'0'                                                    01-ENDIF
                                    6231          PUT   SYSPRINT,OUTPUT                                          20310007
 002B7A 4110 D548            042C8  6235+         LA    1,SYSPRINT                        LOAD PARAMETER REG 1   02-IHBIN
 002B7E 4100 D4BD            0423D  6236+         LA    0,OUTPUT                          LOAD PARAMETER REG 0   02-IHBIN
 002B82 1FFF                        6237+         SLR   15,15               CLEAR REGISTER FOR ICM          @L1A 01-PUT
 002B84 BFF7 1031            00031  6238+         ICM   15,7,49(1)          LOAD PUT ROUTINE ADDRESS        @L1C 01-PUT
 002B88 0DEF                        6239+         BASR  14,15               LINK TO PUT ROUTINE             @L3C 01-PUT
 002B8A D209 D4F7 D4A2 04277 04222  6240          MVC   ERROR,=CL10' '                                           20320007
                                    6241 *=*=*=*=*=*=*=*=*=*=*=*=*=*=*=*=*=*=*=*=*=*=*=*=*=*=*=*=*=*=*=*=*=*=*=* 20330007
 002B90 92C1 D542      042C2        6242          MVI   VARBL1,C'A'         SET TO PASS                          20340007
 002B94 41F0 0000            00000  6243          LA    R15,0               SET TO PASS                          20350007
 002B98 9201 D544      042C4        6244          MVI   VARBL3,X'01'        SET TO FAIL                          20360007
 002B9C F230 D4B9 D4B8 04239 04238  6245          PACK  PACK1,=Z'2'         SET TO FAIL                          20370007
 002BA2 D204 D4DA D4B1 0425A 04231  6246          MVC   PREDOUT,=C'FALSE'                                        20380007
 002BA8 D207 D4BE D378 0423E 040F8  6247          MVC   TESTNBR,=C'TEST120M'                                     20390007
                                    6248 *                                                                       20400007
                                    6249 TEST120M IF    ((CLI,VARBL1,C'A',E),OR,(LTR,R15,R15,Z)),AND,           C20410007
                                                        ((TM,VARBL3,X'01',Z),OR,(SP,PACK1,=P'1',Z))              20420007
 002BAE 95C1 D542      042C2        6254+TEST120M CLI   VARBL1,C'A'         TWO OPERANDS                         02-IF2
 002BB2 A784 0005            02BBC  6257+         JE    $MDT448             TRUE RESULT - POSSIBLE PASS          02-IF2
 002BB6 12FF                        6259+         LTR   R15,R15             TWO OPERANDS                         02-IF2
 002BB8 A774 0010            02BD8  6264+         JNZ   $MDF449             FALSE RESULT - POSSIBLE FAIL         01-IF
 002BBC 9101 D544      042C4        6269+$MDT448  TM    VARBL3,X'01'        TWO OPERANDS                         02-IF2
 002BC0 A784 0007            02BCE  6272+         JZ    $MDT450             TRUE RESULT - POSSIBLE PASS          02-IF2
 002BC4 FB30 D4B9 D4B7 04239 04237  6274+         SP    PACK1,=P'1'         TWO OPERANDS                         02-IF2
 002BCA A774 0007            02BD8  6280+         JNZ   $MDF449             BRANCH IF CC INDICATES FAIL          01-IF
 002BCE                             6281+$MDT450  DC    0H'0'               END RESULT WAS PASS - DO THE EXECUTE 01-IF
 002BCE D204 D4F1 D4AC 04271 0422C  6282            MVC   ACTOUT,=C'TRUE '                                       20430007
                                    6283          ELSE                                                           20440007
 002BD4 A7F4 0005            02BDE  6285+         J     $FINI451                                                 01-ELSE
 002BD8                             6286+$MDF449  DC    0H'0'                                                    01-ELSE
 002BD8 D204 D4F1 D4B1 04271 04231  6287            MVC   ACTOUT,=C'FALSE'                                       20450007
                                    6288          ENDIF                                                          20460007
 002BDE                             6290+$FINI451 DC    0H'0'                                                    01-ENDIF
                                    6291          IF    (CLC,PREDOUT,ACTOUT,NE)                                  20470007
 002BDE D504 D4DA D4F1 0425A 04271  6293+         CLC   PREDOUT,ACTOUT      TWO OPERANDS                         01-IF
 002BE4 A784 0005            02BEE  6297+         JE    $NEXT452            BRANCH IF CC INDICATES FAIL          01-IF
 002BE8 D209 D4F7 D498 04277 04218  6298            MVC   ERROR,=C'<=== ERROR'                                   20480007
                                    6299          ENDIF                                                          20490007
 002BEE                             6301+$NEXT452 DC    0H'0'                                                    01-ENDIF
                                    6302          PUT   SYSPRINT,OUTPUT                                          20500007
 002BEE 4110 D548            042C8  6306+         LA    1,SYSPRINT                        LOAD PARAMETER REG 1   02-IHBIN
 002BF2 4100 D4BD            0423D  6307+         LA    0,OUTPUT                          LOAD PARAMETER REG 0   02-IHBIN
 002BF6 1FFF                        6308+         SLR   15,15               CLEAR REGISTER FOR ICM          @L1A 01-PUT
 002BF8 BFF7 1031            00031  6309+         ICM   15,7,49(1)          LOAD PUT ROUTINE ADDRESS        @L1C 01-PUT
 002BFC 0DEF                        6310+         BASR  14,15               LINK TO PUT ROUTINE             @L3C 01-PUT
 002BFE D209 D4F7 D4A2 04277 04222  6311          MVC   ERROR,=CL10' '                                           20510007
                                    6312 *=*=*=*=*=*=*=*=*=*=*=*=*=*=*=*=*=*=*=*=*=*=*=*=*=*=*=*=*=*=*=*=*=*=*=* 20520007
 002C04 92E9 D542      042C2        6313          MVI   VARBL1,C'Z'         SET TO FAIL                          20530007
 002C08 41F0 0000            00000  6314          LA    R15,0               SET TO PASS                          20540007
 002C0C 9201 D544      042C4        6315          MVI   VARBL3,X'01'        SET TO FAIL                          20550007
 002C10 F230 D4B9 D4B8 04239 04238  6316          PACK  PACK1,=Z'2'         SET TO FAIL                          20560007
1IFTEST   EXAMPLES OF "IF" LOGIC MACRO INSTRUCTIONS                                                             Page   76
   Active Usings: IFTEST+X'2620',R12  $$WA$$,R13
0  Loc  Object Code    Addr1 Addr2  Stmt   Source Statement                                  HLASM R6.0  2021/03/26 12.00
0002C16 D204 D4DA D4B1 0425A 04231  6317          MVC   PREDOUT,=C'FALSE'                                        20570007
 002C1C D207 D4BE D380 0423E 04100  6318          MVC   TESTNBR,=C'TEST120N'                                     20580007
                                    6319 *                                                                       20590007
                                    6320 TEST120N IF    ((CLI,VARBL1,C'A',E),OR,(LTR,R15,R15,Z)),AND,           C20600007
                                                        ((TM,VARBL3,X'01',Z),OR,(SP,PACK1,=P'1',Z))              20610007
 002C22 95C1 D542      042C2        6325+TEST120N CLI   VARBL1,C'A'         TWO OPERANDS                         02-IF2
 002C26 A784 0005            02C30  6328+         JE    $MDT453             TRUE RESULT - POSSIBLE PASS          02-IF2
 002C2A 12FF                        6330+         LTR   R15,R15             TWO OPERANDS                         02-IF2
 002C2C A774 0010            02C4C  6335+         JNZ   $MDF454             FALSE RESULT - POSSIBLE FAIL         01-IF
 002C30 9101 D544      042C4        6340+$MDT453  TM    VARBL3,X'01'        TWO OPERANDS                         02-IF2
 002C34 A784 0007            02C42  6343+         JZ    $MDT455             TRUE RESULT - POSSIBLE PASS          02-IF2
 002C38 FB30 D4B9 D4B7 04239 04237  6345+         SP    PACK1,=P'1'         TWO OPERANDS                         02-IF2
 002C3E A774 0007            02C4C  6351+         JNZ   $MDF454             BRANCH IF CC INDICATES FAIL          01-IF
 002C42                             6352+$MDT455  DC    0H'0'               END RESULT WAS PASS - DO THE EXECUTE 01-IF
 002C42 D204 D4F1 D4AC 04271 0422C  6353            MVC   ACTOUT,=C'TRUE '                                       20620007
                                    6354          ELSE                                                           20630007
 002C48 A7F4 0005            02C52  6356+         J     $FINI456                                                 01-ELSE
 002C4C                             6357+$MDF454  DC    0H'0'                                                    01-ELSE
 002C4C D204 D4F1 D4B1 04271 04231  6358            MVC   ACTOUT,=C'FALSE'                                       20640007
                                    6359          ENDIF                                                          20650007
 002C52                             6361+$FINI456 DC    0H'0'                                                    01-ENDIF
                                    6362          IF    (CLC,PREDOUT,ACTOUT,NE)                                  20660007
 002C52 D504 D4DA D4F1 0425A 04271  6364+         CLC   PREDOUT,ACTOUT      TWO OPERANDS                         01-IF
 002C58 A784 0005            02C62  6368+         JE    $NEXT457            BRANCH IF CC INDICATES FAIL          01-IF
 002C5C D209 D4F7 D498 04277 04218  6369            MVC   ERROR,=C'<=== ERROR'                                   20670007
                                    6370          ENDIF                                                          20680007
 002C62                             6372+$NEXT457 DC    0H'0'                                                    01-ENDIF
                                    6373          PUT   SYSPRINT,OUTPUT                                          20690007
 002C62 4110 D548            042C8  6377+         LA    1,SYSPRINT                        LOAD PARAMETER REG 1   02-IHBIN
 002C66 4100 D4BD            0423D  6378+         LA    0,OUTPUT                          LOAD PARAMETER REG 0   02-IHBIN
 002C6A 1FFF                        6379+         SLR   15,15               CLEAR REGISTER FOR ICM          @L1A 01-PUT
 002C6C BFF7 1031            00031  6380+         ICM   15,7,49(1)          LOAD PUT ROUTINE ADDRESS        @L1C 01-PUT
 002C70 0DEF                        6381+         BASR  14,15               LINK TO PUT ROUTINE             @L3C 01-PUT
 002C72 D209 D4F7 D4A2 04277 04222  6382          MVC   ERROR,=CL10' '                                           20700007
                                    6383 *=*=*=*=*=*=*=*=*=*=*=*=*=*=*=*=*=*=*=*=*=*=*=*=*=*=*=*=*=*=*=*=*=*=*=* 20710007
 002C78 92C1 D542      042C2        6384          MVI   VARBL1,C'A'         SET TO PASS                          20720007
 002C7C 41F0 0004            00004  6385          LA    R15,4               SET TO FAIL                          20730007
 002C80 9201 D544      042C4        6386          MVI   VARBL3,X'01'        SET TO FAIL                          20740007
 002C84 F230 D4B9 D4B8 04239 04238  6387          PACK  PACK1,=Z'2'         SET TO FAIL                          20750007
 002C8A D204 D4DA D4B1 0425A 04231  6388          MVC   PREDOUT,=C'FALSE'                                        20760007
 002C90 D207 D4BE D388 0423E 04108  6389          MVC   TESTNBR,=C'TEST120O'                                     20770007
                                    6390 *                                                                       20780007
                                    6391 TEST120O IF    ((CLI,VARBL1,C'A',E),OR,(LTR,R15,R15,Z)),AND,           C20790007
                                                        ((TM,VARBL3,X'01',Z),OR,(SP,PACK1,=P'1',Z))              20800007
 002C96 95C1 D542      042C2        6396+TEST120O CLI   VARBL1,C'A'         TWO OPERANDS                         02-IF2
 002C9A A784 0005            02CA4  6399+         JE    $MDT458             TRUE RESULT - POSSIBLE PASS          02-IF2
 002C9E 12FF                        6401+         LTR   R15,R15             TWO OPERANDS                         02-IF2
 002CA0 A774 0010            02CC0  6406+         JNZ   $MDF459             FALSE RESULT - POSSIBLE FAIL         01-IF
 002CA4 9101 D544      042C4        6411+$MDT458  TM    VARBL3,X'01'        TWO OPERANDS                         02-IF2
 002CA8 A784 0007            02CB6  6414+         JZ    $MDT460             TRUE RESULT - POSSIBLE PASS          02-IF2
 002CAC FB30 D4B9 D4B7 04239 04237  6416+         SP    PACK1,=P'1'         TWO OPERANDS                         02-IF2
 002CB2 A774 0007            02CC0  6422+         JNZ   $MDF459             BRANCH IF CC INDICATES FAIL          01-IF
 002CB6                             6423+$MDT460  DC    0H'0'               END RESULT WAS PASS - DO THE EXECUTE 01-IF
 002CB6 D204 D4F1 D4AC 04271 0422C  6424            MVC   ACTOUT,=C'TRUE '                                       20810007
                                    6425          ELSE                                                           20820007
1IFTEST   EXAMPLES OF "IF" LOGIC MACRO INSTRUCTIONS                                                             Page   77
   Active Usings: IFTEST+X'2620',R12  $$WA$$,R13
0  Loc  Object Code    Addr1 Addr2  Stmt   Source Statement                                  HLASM R6.0  2021/03/26 12.00
0002CBC A7F4 0005            02CC6  6427+         J     $FINI461                                                 01-ELSE
 002CC0                             6428+$MDF459  DC    0H'0'                                                    01-ELSE
 002CC0 D204 D4F1 D4B1 04271 04231  6429            MVC   ACTOUT,=C'FALSE'                                       20830007
                                    6430          ENDIF                                                          20840007
 002CC6                             6432+$FINI461 DC    0H'0'                                                    01-ENDIF
                                    6433          IF    (CLC,PREDOUT,ACTOUT,NE)                                  20850007
 002CC6 D504 D4DA D4F1 0425A 04271  6435+         CLC   PREDOUT,ACTOUT      TWO OPERANDS                         01-IF
 002CCC A784 0005            02CD6  6439+         JE    $NEXT462            BRANCH IF CC INDICATES FAIL          01-IF
 002CD0 D209 D4F7 D498 04277 04218  6440            MVC   ERROR,=C'<=== ERROR'                                   20860007
                                    6441          ENDIF                                                          20870007
 002CD6                             6443+$NEXT462 DC    0H'0'                                                    01-ENDIF
                                    6444          PUT   SYSPRINT,OUTPUT                                          20880007
 002CD6 4110 D548            042C8  6448+         LA    1,SYSPRINT                        LOAD PARAMETER REG 1   02-IHBIN
 002CDA 4100 D4BD            0423D  6449+         LA    0,OUTPUT                          LOAD PARAMETER REG 0   02-IHBIN
 002CDE 1FFF                        6450+         SLR   15,15               CLEAR REGISTER FOR ICM          @L1A 01-PUT
 002CE0 BFF7 1031            00031  6451+         ICM   15,7,49(1)          LOAD PUT ROUTINE ADDRESS        @L1C 01-PUT
 002CE4 0DEF                        6452+         BASR  14,15               LINK TO PUT ROUTINE             @L3C 01-PUT
 002CE6 D209 D4F7 D4A2 04277 04222  6453          MVC   ERROR,=CL10' '                                           20890007
                                    6454 *=*=*=*=*=*=*=*=*=*=*=*=*=*=*=*=*=*=*=*=*=*=*=*=*=*=*=*=*=*=*=*=*=*=*=* 20900007
 002CEC 92E9 D542      042C2        6455          MVI   VARBL1,C'Z'         SET TO FAIL                          20910007
 002CF0 41F0 0004            00004  6456          LA    R15,4               SET TO FAIL                          20920007
 002CF4 9201 D544      042C4        6457          MVI   VARBL3,X'01'        SET TO FAIL                          20930007
 002CF8 F230 D4B9 D4B8 04239 04238  6458          PACK  PACK1,=Z'2'         SET TO FAIL                          20940007
 002CFE D204 D4DA D4B1 0425A 04231  6459          MVC   PREDOUT,=C'FALSE'                                        20950007
 002D04 D207 D4BE D390 0423E 04110  6460          MVC   TESTNBR,=C'TEST120P'                                     20960007
                                    6461 *                                                                       20970007
                                    6462 TEST120P IF    ((CLI,VARBL1,C'A',E),OR,(LTR,R15,R15,Z)),AND,           C20980007
                                                        ((TM,VARBL3,X'01',Z),OR,(SP,PACK1,=P'1',Z))              20990007
 002D0A 95C1 D542      042C2        6467+TEST120P CLI   VARBL1,C'A'         TWO OPERANDS                         02-IF2
 002D0E A784 0005            02D18  6470+         JE    $MDT463             TRUE RESULT - POSSIBLE PASS          02-IF2
 002D12 12FF                        6472+         LTR   R15,R15             TWO OPERANDS                         02-IF2
 002D14 A774 0010            02D34  6477+         JNZ   $MDF464             FALSE RESULT - POSSIBLE FAIL         01-IF
 002D18 9101 D544      042C4        6482+$MDT463  TM    VARBL3,X'01'        TWO OPERANDS                         02-IF2
 002D1C A784 0007            02D2A  6485+         JZ    $MDT465             TRUE RESULT - POSSIBLE PASS          02-IF2
 002D20 FB30 D4B9 D4B7 04239 04237  6487+         SP    PACK1,=P'1'         TWO OPERANDS                         02-IF2
 002D26 A774 0007            02D34  6493+         JNZ   $MDF464             BRANCH IF CC INDICATES FAIL          01-IF
 002D2A                             6494+$MDT465  DC    0H'0'               END RESULT WAS PASS - DO THE EXECUTE 01-IF
 002D2A D204 D4F1 D4AC 04271 0422C  6495            MVC   ACTOUT,=C'TRUE '                                       21000007
                                    6496          ELSE                                                           21010007
 002D30 A7F4 0005            02D3A  6498+         J     $FINI466                                                 01-ELSE
 002D34                             6499+$MDF464  DC    0H'0'                                                    01-ELSE
 002D34 D204 D4F1 D4B1 04271 04231  6500            MVC   ACTOUT,=C'FALSE'                                       21020007
                                    6501          ENDIF                                                          21030007
 002D3A                             6503+$FINI466 DC    0H'0'                                                    01-ENDIF
                                    6504          IF    (CLC,PREDOUT,ACTOUT,NE)                                  21040007
 002D3A D504 D4DA D4F1 0425A 04271  6506+         CLC   PREDOUT,ACTOUT      TWO OPERANDS                         01-IF
 002D40 A784 0005            02D4A  6510+         JE    $NEXT467            BRANCH IF CC INDICATES FAIL          01-IF
 002D44 D209 D4F7 D498 04277 04218  6511            MVC   ERROR,=C'<=== ERROR'                                   21050007
                                    6512          ENDIF                                                          21060007
 002D4A                             6514+$NEXT467 DC    0H'0'                                                    01-ENDIF
                                    6515          PUT   SYSPRINT,OUTPUT                                          21070007
 002D4A 4110 D548            042C8  6519+         LA    1,SYSPRINT                        LOAD PARAMETER REG 1   02-IHBIN
 002D4E 4100 D4BD            0423D  6520+         LA    0,OUTPUT                          LOAD PARAMETER REG 0   02-IHBIN
 002D52 1FFF                        6521+         SLR   15,15               CLEAR REGISTER FOR ICM          @L1A 01-PUT
 002D54 BFF7 1031            00031  6522+         ICM   15,7,49(1)          LOAD PUT ROUTINE ADDRESS        @L1C 01-PUT
1IFTEST   EXAMPLES OF "IF" LOGIC MACRO INSTRUCTIONS                                                             Page   78
   Active Usings: IFTEST+X'2620',R12  $$WA$$,R13
0  Loc  Object Code    Addr1 Addr2  Stmt   Source Statement                                  HLASM R6.0  2021/03/26 12.00
0002D58 0DEF                        6523+         BASR  14,15               LINK TO PUT ROUTINE             @L3C 01-PUT
 002D5A D209 D4F7 D4A2 04277 04222  6524          MVC   ERROR,=CL10' '                                           21080007
                                    6525 *=*=*=*=*=*=*=*=*=*=*=*=*=*=*=*=*=*=*=*=*=*=*=*=*=*=*=*=*=*=*=*=*=*=*=* 21090007
                                    6526 *                                                                     * 21100007
                                    6527 * TWO LEVELS OF RECURSION ARE REQUIRED:                               * 21110007
                                    6528 *                                                                     * 21120007
                                    6529 * IF (A) AND ((B) OR (C) AND ((D) OR (E)))                            * 21130007
                                    6530 *                                                                     * 21140007
                                    6531 *=*=*=*=*=*=*=*=*=*=*=*=*=*=*=*=*=*=*=*=*=*=*=*=*=*=*=*=*=*=*=*=*=*=*=* 21150007
                                    6532 *                                                                       21160007
 002D60 92C1 D542      042C2        6533          MVI   VARBL1,C'A'         SET TO PASS                          21190007
 002D64 41F0 0000            00000  6534          LA    R15,0               SET TO PASS                          21200007
 002D68 9200 D544      042C4        6535          MVI   VARBL3,X'00'        SET TO PASS                          21210007
 002D6C F230 D4B9 D4B6 04239 04236  6536          PACK  PACK1,=Z'1'         SET TO PASS                          21220007
 002D72 9210 D546      042C6        6537          MVI   TSWITCH,X'10'       SET TO PASS                          21230007
 002D76 D204 D4DA D4AC 0425A 0422C  6538          MVC   PREDOUT,=C'TRUE '                                        21240007
 002D7C D207 D4BE D398 0423E 04118  6539          MVC   TESTNBR,=C'TEST130A'                                     21250007
                                    6540 *                                                                       21260007
                                    6541 TEST130A IF    (CLI,VARBL1,C'A',E),AND,                                C21270007
                                                        ((LTR,R15,R15,Z),OR,(TM,VARBL3,X'01',Z),AND,            C21280007
                                                        ((SP,PACK1,=P'1',Z),OR,(CLI,TSWITCH,X'10',E)))           21290009
 002D82 95C1 D542      042C2        6543+TEST130A CLI   VARBL1,C'A'         TWO OPERANDS                         01-IF
 002D86 A774 0017            02DB4  6546+         JNE   $MDF468             FALSE RESULT - POSSIBLE FAIL         01-IF
 002D8A 12FF                        6551+         LTR   R15,R15             TWO OPERANDS                         02-IF2
 002D8C A784 000F            02DAA  6554+         JZ    $MDT469             TRUE RESULT - POSSIBLE PASS          02-IF2
 002D90 9101 D544      042C4        6556+         TM    VARBL3,X'01'        TWO OPERANDS                         02-IF2
 002D94 A774 0010            02DB4  6559+         JNZ   $MDF470             FALSE RESULT - POSSIBLE FAIL         02-IF2
 002D98 FB30 D4B9 D4B7 04239 04237  6564+         SP    PACK1,=P'1'         TWO OPERANDS                         03-IF2
 002D9E A784 0006            02DAA  6567+         JZ    $MDT471             TRUE RESULT - POSSIBLE PASS          03-IF2
 002DA2 9510 D546      042C6        6569+         CLI   TSWITCH,X'10'       TWO OPERANDS                         03-IF2
                       02DAA        6573+$MDT471  EQU   $MDT469             ANCHOR NESTED TRUE NAME              02-IF2
                       02DB4        6576+$MDF470  EQU   $MDF468             ANCHOR NESTED FALSE NAME             01-IF
 002DA6 A774 0007            02DB4  6579+         JNE   $MDF468             BRANCH IF CC INDICATES FAIL          01-IF
 002DAA                             6580+$MDT469  DC    0H'0'               END RESULT WAS PASS - DO THE EXECUTE 01-IF
 002DAA D204 D4F1 D4AC 04271 0422C  6581            MVC   ACTOUT,=C'TRUE '                                       21300007
                                    6582          ELSE                                                           21310007
 002DB0 A7F4 0005            02DBA  6584+         J     $FINI472                                                 01-ELSE
 002DB4                             6585+$MDF468  DC    0H'0'                                                    01-ELSE
 002DB4 D204 D4F1 D4B1 04271 04231  6586            MVC   ACTOUT,=C'FALSE'                                       21320007
                                    6587          ENDIF                                                          21330007
 002DBA                             6589+$FINI472 DC    0H'0'                                                    01-ENDIF
                                    6590          IF    (CLC,PREDOUT,ACTOUT,NE)                                  21340007
 002DBA D504 D4DA D4F1 0425A 04271  6592+         CLC   PREDOUT,ACTOUT      TWO OPERANDS                         01-IF
 002DC0 A784 0005            02DCA  6596+         JE    $NEXT473            BRANCH IF CC INDICATES FAIL          01-IF
 002DC4 D209 D4F7 D498 04277 04218  6597            MVC   ERROR,=C'<=== ERROR'                                   21350007
                                    6598          ENDIF                                                          21360007
 002DCA                             6600+$NEXT473 DC    0H'0'                                                    01-ENDIF
                                    6601          PUT   SYSPRINT,OUTPUT                                          21370007
 002DCA 4110 D548            042C8  6605+         LA    1,SYSPRINT                        LOAD PARAMETER REG 1   02-IHBIN
 002DCE 4100 D4BD            0423D  6606+         LA    0,OUTPUT                          LOAD PARAMETER REG 0   02-IHBIN
 002DD2 1FFF                        6607+         SLR   15,15               CLEAR REGISTER FOR ICM          @L1A 01-PUT
 002DD4 BFF7 1031            00031  6608+         ICM   15,7,49(1)          LOAD PUT ROUTINE ADDRESS        @L1C 01-PUT
 002DD8 0DEF                        6609+         BASR  14,15               LINK TO PUT ROUTINE             @L3C 01-PUT
 002DDA D209 D4F7 D4A2 04277 04222  6610          MVC   ERROR,=CL10' '                                           21380007
                                    6611 *=*=*=*=*=*=*=*=*=*=*=*=*=*=*=*=*=*=*=*=*=*=*=*=*=*=*=*=*=*=*=*=*=*=*=* 21390007
1IFTEST   EXAMPLES OF "IF" LOGIC MACRO INSTRUCTIONS                                                             Page   79
   Active Usings: IFTEST+X'2620',R12  $$WA$$,R13
0  Loc  Object Code    Addr1 Addr2  Stmt   Source Statement                                  HLASM R6.0  2021/03/26 12.00
0002DE0 92E9 D542      042C2        6612          MVI   VARBL1,C'Z'         SET TO FAIL                          21400007
 002DE4 41F0 0000            00000  6613          LA    R15,0               SET TO PASS                          21410007
 002DE8 9200 D544      042C4        6614          MVI   VARBL3,X'00'        SET TO PASS                          21420007
 002DEC F230 D4B9 D4B6 04239 04236  6615          PACK  PACK1,=Z'1'         SET TO PASS                          21430007
 002DF2 9210 D546      042C6        6616          MVI   TSWITCH,X'10'       SET TO PASS                          21440007
 002DF6 D204 D4DA D4B1 0425A 04231  6617          MVC   PREDOUT,=C'FALSE'                                        21450007
 002DFC D207 D4BE D3A0 0423E 04120  6618          MVC   TESTNBR,=C'TEST130B'                                     21460007
                                    6619 TEST130B IF    (CLI,VARBL1,C'A',E),AND,                                C21480007
                                                        ((LTR,R15,R15,Z),OR,(TM,VARBL3,X'01',Z),AND,            C21490007
                                                        ((SP,PACK1,=P'1',Z),OR,(CLI,TSWITCH,X'10',E)))           21500009
 002E02 95C1 D542      042C2        6621+TEST130B CLI   VARBL1,C'A'         TWO OPERANDS                         01-IF
 002E06 A774 0017            02E34  6624+         JNE   $MDF474             FALSE RESULT - POSSIBLE FAIL         01-IF
 002E0A 12FF                        6629+         LTR   R15,R15             TWO OPERANDS                         02-IF2
 002E0C A784 000F            02E2A  6632+         JZ    $MDT475             TRUE RESULT - POSSIBLE PASS          02-IF2
 002E10 9101 D544      042C4        6634+         TM    VARBL3,X'01'        TWO OPERANDS                         02-IF2
 002E14 A774 0010            02E34  6637+         JNZ   $MDF476             FALSE RESULT - POSSIBLE FAIL         02-IF2
 002E18 FB30 D4B9 D4B7 04239 04237  6642+         SP    PACK1,=P'1'         TWO OPERANDS                         03-IF2
 002E1E A784 0006            02E2A  6645+         JZ    $MDT477             TRUE RESULT - POSSIBLE PASS          03-IF2
 002E22 9510 D546      042C6        6647+         CLI   TSWITCH,X'10'       TWO OPERANDS                         03-IF2
                       02E2A        6651+$MDT477  EQU   $MDT475             ANCHOR NESTED TRUE NAME              02-IF2
                       02E34        6654+$MDF476  EQU   $MDF474             ANCHOR NESTED FALSE NAME             01-IF
 002E26 A774 0007            02E34  6657+         JNE   $MDF474             BRANCH IF CC INDICATES FAIL          01-IF
 002E2A                             6658+$MDT475  DC    0H'0'               END RESULT WAS PASS - DO THE EXECUTE 01-IF
 002E2A D204 D4F1 D4AC 04271 0422C  6659            MVC   ACTOUT,=C'TRUE '                                       21510007
                                    6660          ELSE                                                           21520007
 002E30 A7F4 0005            02E3A  6662+         J     $FINI478                                                 01-ELSE
 002E34                             6663+$MDF474  DC    0H'0'                                                    01-ELSE
 002E34 D204 D4F1 D4B1 04271 04231  6664            MVC   ACTOUT,=C'FALSE'                                       21530007
                                    6665          ENDIF                                                          21540007
 002E3A                             6667+$FINI478 DC    0H'0'                                                    01-ENDIF
                                    6668          IF    (CLC,PREDOUT,ACTOUT,NE)                                  21550007
 002E3A D504 D4DA D4F1 0425A 04271  6670+         CLC   PREDOUT,ACTOUT      TWO OPERANDS                         01-IF
 002E40 A784 0005            02E4A  6674+         JE    $NEXT479            BRANCH IF CC INDICATES FAIL          01-IF
 002E44 D209 D4F7 D498 04277 04218  6675            MVC   ERROR,=C'<=== ERROR'                                   21560007
                                    6676          ENDIF                                                          21570007
 002E4A                             6678+$NEXT479 DC    0H'0'                                                    01-ENDIF
                                    6679          PUT   SYSPRINT,OUTPUT                                          21580007
 002E4A 4110 D548            042C8  6683+         LA    1,SYSPRINT                        LOAD PARAMETER REG 1   02-IHBIN
 002E4E 4100 D4BD            0423D  6684+         LA    0,OUTPUT                          LOAD PARAMETER REG 0   02-IHBIN
 002E52 1FFF                        6685+         SLR   15,15               CLEAR REGISTER FOR ICM          @L1A 01-PUT
 002E54 BFF7 1031            00031  6686+         ICM   15,7,49(1)          LOAD PUT ROUTINE ADDRESS        @L1C 01-PUT
 002E58 0DEF                        6687+         BASR  14,15               LINK TO PUT ROUTINE             @L3C 01-PUT
 002E5A D209 D4F7 D4A2 04277 04222  6688          MVC   ERROR,=CL10' '                                           21590007
                                    6689 *=*=*=*=*=*=*=*=*=*=*=*=*=*=*=*=*=*=*=*=*=*=*=*=*=*=*=*=*=*=*=*=*=*=*=* 21600007
 002E60 92C1 D542      042C2        6690          MVI   VARBL1,C'A'         SET TO PASS                          21610007
 002E64 41F0 0001            00001  6691          LA    R15,1               SET TO FAIL                          21620007
 002E68 9200 D544      042C4        6692          MVI   VARBL3,X'00'        SET TO PASS                          21630007
 002E6C F230 D4B9 D4B6 04239 04236  6693          PACK  PACK1,=Z'1'         SET TO PASS                          21640007
 002E72 9210 D546      042C6        6694          MVI   TSWITCH,X'10'       SET TO PASS                          21650007
 002E76 D204 D4DA D4AC 0425A 0422C  6695          MVC   PREDOUT,=C'TRUE '                                        21660007
 002E7C D207 D4BE D3A8 0423E 04128  6696          MVC   TESTNBR,=C'TEST130C'                                     21670007
                                    6697 *                                                                       21680007
                                    6698 TEST130C IF    (CLI,VARBL1,C'A',E),AND,                                C21690007
                                                        ((LTR,R15,R15,Z),OR,(TM,VARBL3,X'01',Z),AND,            C21700007
                                                        ((SP,PACK1,=P'1',Z),OR,(CLI,TSWITCH,X'10',E)))           21710009
1IFTEST   EXAMPLES OF "IF" LOGIC MACRO INSTRUCTIONS                                                             Page   80
   Active Usings: IFTEST+X'2620',R12  $$WA$$,R13
0  Loc  Object Code    Addr1 Addr2  Stmt   Source Statement                                  HLASM R6.0  2021/03/26 12.00
0002E82 95C1 D542      042C2        6700+TEST130C CLI   VARBL1,C'A'         TWO OPERANDS                         01-IF
 002E86 A774 0017            02EB4  6703+         JNE   $MDF480             FALSE RESULT - POSSIBLE FAIL         01-IF
 002E8A 12FF                        6708+         LTR   R15,R15             TWO OPERANDS                         02-IF2
 002E8C A784 000F            02EAA  6711+         JZ    $MDT481             TRUE RESULT - POSSIBLE PASS          02-IF2
 002E90 9101 D544      042C4        6713+         TM    VARBL3,X'01'        TWO OPERANDS                         02-IF2
 002E94 A774 0010            02EB4  6716+         JNZ   $MDF482             FALSE RESULT - POSSIBLE FAIL         02-IF2
 002E98 FB30 D4B9 D4B7 04239 04237  6721+         SP    PACK1,=P'1'         TWO OPERANDS                         03-IF2
 002E9E A784 0006            02EAA  6724+         JZ    $MDT483             TRUE RESULT - POSSIBLE PASS          03-IF2
 002EA2 9510 D546      042C6        6726+         CLI   TSWITCH,X'10'       TWO OPERANDS                         03-IF2
                       02EAA        6730+$MDT483  EQU   $MDT481             ANCHOR NESTED TRUE NAME              02-IF2
                       02EB4        6733+$MDF482  EQU   $MDF480             ANCHOR NESTED FALSE NAME             01-IF
 002EA6 A774 0007            02EB4  6736+         JNE   $MDF480             BRANCH IF CC INDICATES FAIL          01-IF
 002EAA                             6737+$MDT481  DC    0H'0'               END RESULT WAS PASS - DO THE EXECUTE 01-IF
 002EAA D204 D4F1 D4AC 04271 0422C  6738            MVC   ACTOUT,=C'TRUE '                                       21720007
                                    6739          ELSE                                                           21730007
 002EB0 A7F4 0005            02EBA  6741+         J     $FINI484                                                 01-ELSE
 002EB4                             6742+$MDF480  DC    0H'0'                                                    01-ELSE
 002EB4 D204 D4F1 D4B1 04271 04231  6743            MVC   ACTOUT,=C'FALSE'                                       21740007
                                    6744          ENDIF                                                          21750007
 002EBA                             6746+$FINI484 DC    0H'0'                                                    01-ENDIF
                                    6747          IF    (CLC,PREDOUT,ACTOUT,NE)                                  21760007
 002EBA D504 D4DA D4F1 0425A 04271  6749+         CLC   PREDOUT,ACTOUT      TWO OPERANDS                         01-IF
 002EC0 A784 0005            02ECA  6753+         JE    $NEXT485            BRANCH IF CC INDICATES FAIL          01-IF
 002EC4 D209 D4F7 D498 04277 04218  6754            MVC   ERROR,=C'<=== ERROR'                                   21770007
                                    6755          ENDIF                                                          21780007
 002ECA                             6757+$NEXT485 DC    0H'0'                                                    01-ENDIF
                                    6758          PUT   SYSPRINT,OUTPUT                                          21790007
 002ECA 4110 D548            042C8  6762+         LA    1,SYSPRINT                        LOAD PARAMETER REG 1   02-IHBIN
 002ECE 4100 D4BD            0423D  6763+         LA    0,OUTPUT                          LOAD PARAMETER REG 0   02-IHBIN
 002ED2 1FFF                        6764+         SLR   15,15               CLEAR REGISTER FOR ICM          @L1A 01-PUT
 002ED4 BFF7 1031            00031  6765+         ICM   15,7,49(1)          LOAD PUT ROUTINE ADDRESS        @L1C 01-PUT
 002ED8 0DEF                        6766+         BASR  14,15               LINK TO PUT ROUTINE             @L3C 01-PUT
 002EDA D209 D4F7 D4A2 04277 04222  6767          MVC   ERROR,=CL10' '                                           21800007
                                    6768 *=*=*=*=*=*=*=*=*=*=*=*=*=*=*=*=*=*=*=*=*=*=*=*=*=*=*=*=*=*=*=*=*=*=*=* 21810007
 002EE0 92E9 D542      042C2        6769          MVI   VARBL1,C'Z'         SET TO FAIL                          21820007
 002EE4 41F0 0001            00001  6770          LA    R15,1               SET TO FAIL                          21830007
 002EE8 9200 D544      042C4        6771          MVI   VARBL3,X'00'        SET TO PASS                          21840007
 002EEC F230 D4B9 D4B6 04239 04236  6772          PACK  PACK1,=Z'1'         SET TO PASS                          21850007
 002EF2 9210 D546      042C6        6773          MVI   TSWITCH,X'10'       SET TO PASS                          21860007
 002EF6 D204 D4DA D4B1 0425A 04231  6774          MVC   PREDOUT,=C'FALSE'                                        21870007
 002EFC D207 D4BE D3B0 0423E 04130  6775          MVC   TESTNBR,=C'TEST130D'                                     21880007
                                    6776 *                                                                       21890007
                                    6777 TEST130D IF    (CLI,VARBL1,C'A',E),AND,                                C21900007
                                                        ((LTR,R15,R15,Z),OR,(TM,VARBL3,X'01',Z),AND,            C21910007
                                                        ((SP,PACK1,=P'1',Z),OR,(CLI,TSWITCH,X'10',E)))           21920009
 002F02 95C1 D542      042C2        6779+TEST130D CLI   VARBL1,C'A'         TWO OPERANDS                         01-IF
 002F06 A774 0017            02F34  6782+         JNE   $MDF486             FALSE RESULT - POSSIBLE FAIL         01-IF
 002F0A 12FF                        6787+         LTR   R15,R15             TWO OPERANDS                         02-IF2
 002F0C A784 000F            02F2A  6790+         JZ    $MDT487             TRUE RESULT - POSSIBLE PASS          02-IF2
 002F10 9101 D544      042C4        6792+         TM    VARBL3,X'01'        TWO OPERANDS                         02-IF2
 002F14 A774 0010            02F34  6795+         JNZ   $MDF488             FALSE RESULT - POSSIBLE FAIL         02-IF2
 002F18 FB30 D4B9 D4B7 04239 04237  6800+         SP    PACK1,=P'1'         TWO OPERANDS                         03-IF2
 002F1E A784 0006            02F2A  6803+         JZ    $MDT489             TRUE RESULT - POSSIBLE PASS          03-IF2
 002F22 9510 D546      042C6        6805+         CLI   TSWITCH,X'10'       TWO OPERANDS                         03-IF2
                       02F2A        6809+$MDT489  EQU   $MDT487             ANCHOR NESTED TRUE NAME              02-IF2
1IFTEST   EXAMPLES OF "IF" LOGIC MACRO INSTRUCTIONS                                                             Page   81
   Active Usings: IFTEST+X'2620',R12  $$WA$$,R13
0  Loc  Object Code    Addr1 Addr2  Stmt   Source Statement                                  HLASM R6.0  2021/03/26 12.00
0                      02F34        6812+$MDF488  EQU   $MDF486             ANCHOR NESTED FALSE NAME             01-IF
 002F26 A774 0007            02F34  6815+         JNE   $MDF486             BRANCH IF CC INDICATES FAIL          01-IF
 002F2A                             6816+$MDT487  DC    0H'0'               END RESULT WAS PASS - DO THE EXECUTE 01-IF
 002F2A D204 D4F1 D4AC 04271 0422C  6817            MVC   ACTOUT,=C'TRUE '                                       21930007
                                    6818          ELSE                                                           21940007
 002F30 A7F4 0005            02F3A  6820+         J     $FINI490                                                 01-ELSE
 002F34                             6821+$MDF486  DC    0H'0'                                                    01-ELSE
 002F34 D204 D4F1 D4B1 04271 04231  6822            MVC   ACTOUT,=C'FALSE'                                       21950007
                                    6823          ENDIF                                                          21960007
 002F3A                             6825+$FINI490 DC    0H'0'                                                    01-ENDIF
                                    6826          IF    (CLC,PREDOUT,ACTOUT,NE)                                  21970007
 002F3A D504 D4DA D4F1 0425A 04271  6828+         CLC   PREDOUT,ACTOUT      TWO OPERANDS                         01-IF
 002F40 A784 0005            02F4A  6832+         JE    $NEXT491            BRANCH IF CC INDICATES FAIL          01-IF
 002F44 D209 D4F7 D498 04277 04218  6833            MVC   ERROR,=C'<=== ERROR'                                   21980007
                                    6834          ENDIF                                                          21990007
 002F4A                             6836+$NEXT491 DC    0H'0'                                                    01-ENDIF
                                    6837          PUT   SYSPRINT,OUTPUT                                          22000007
 002F4A 4110 D548            042C8  6841+         LA    1,SYSPRINT                        LOAD PARAMETER REG 1   02-IHBIN
 002F4E 4100 D4BD            0423D  6842+         LA    0,OUTPUT                          LOAD PARAMETER REG 0   02-IHBIN
 002F52 1FFF                        6843+         SLR   15,15               CLEAR REGISTER FOR ICM          @L1A 01-PUT
 002F54 BFF7 1031            00031  6844+         ICM   15,7,49(1)          LOAD PUT ROUTINE ADDRESS        @L1C 01-PUT
 002F58 0DEF                        6845+         BASR  14,15               LINK TO PUT ROUTINE             @L3C 01-PUT
 002F5A D209 D4F7 D4A2 04277 04222  6846          MVC   ERROR,=CL10' '                                           22010007
                                    6847 *=*=*=*=*=*=*=*=*=*=*=*=*=*=*=*=*=*=*=*=*=*=*=*=*=*=*=*=*=*=*=*=*=*=*=* 22020007
 002F60 92C1 D542      042C2        6848          MVI   VARBL1,C'A'         SET TO PASS                          22030007
 002F64 41F0 0000            00000  6849          LA    R15,0               SET TO PASS                          22040007
 002F68 9201 D544      042C4        6850          MVI   VARBL3,X'01'        SET TO FAIL                          22050007
 002F6C F230 D4B9 D4B6 04239 04236  6851          PACK  PACK1,=Z'1'         SET TO PASS                          22060007
 002F72 9210 D546      042C6        6852          MVI   TSWITCH,X'10'       SET TO PASS                          22070007
 002F76 D204 D4DA D4AC 0425A 0422C  6853          MVC   PREDOUT,=C'TRUE '                                        22080007
 002F7C D207 D4BE D3B8 0423E 04138  6854          MVC   TESTNBR,=C'TEST130E'                                     22090007
                                    6855 *                                                                       22100007
                                    6856 TEST130E IF    (CLI,VARBL1,C'A',E),AND,                                C22110007
                                                        ((LTR,R15,R15,Z),OR,(TM,VARBL3,X'01',Z),AND,            C22120007
                                                        ((SP,PACK1,=P'1',Z),OR,(CLI,TSWITCH,X'10',E)))           22130009
 002F82 95C1 D542      042C2        6858+TEST130E CLI   VARBL1,C'A'         TWO OPERANDS                         01-IF
 002F86 A774 0017            02FB4  6861+         JNE   $MDF492             FALSE RESULT - POSSIBLE FAIL         01-IF
 002F8A 12FF                        6866+         LTR   R15,R15             TWO OPERANDS                         02-IF2
 002F8C A784 000F            02FAA  6869+         JZ    $MDT493             TRUE RESULT - POSSIBLE PASS          02-IF2
 002F90 9101 D544      042C4        6871+         TM    VARBL3,X'01'        TWO OPERANDS                         02-IF2
 002F94 A774 0010            02FB4  6874+         JNZ   $MDF494             FALSE RESULT - POSSIBLE FAIL         02-IF2
 002F98 FB30 D4B9 D4B7 04239 04237  6879+         SP    PACK1,=P'1'         TWO OPERANDS                         03-IF2
 002F9E A784 0006            02FAA  6882+         JZ    $MDT495             TRUE RESULT - POSSIBLE PASS          03-IF2
 002FA2 9510 D546      042C6        6884+         CLI   TSWITCH,X'10'       TWO OPERANDS                         03-IF2
                       02FAA        6888+$MDT495  EQU   $MDT493             ANCHOR NESTED TRUE NAME              02-IF2
                       02FB4        6891+$MDF494  EQU   $MDF492             ANCHOR NESTED FALSE NAME             01-IF
 002FA6 A774 0007            02FB4  6894+         JNE   $MDF492             BRANCH IF CC INDICATES FAIL          01-IF
 002FAA                             6895+$MDT493  DC    0H'0'               END RESULT WAS PASS - DO THE EXECUTE 01-IF
 002FAA D204 D4F1 D4AC 04271 0422C  6896            MVC   ACTOUT,=C'TRUE '                                       22140007
                                    6897          ELSE                                                           22150007
 002FB0 A7F4 0005            02FBA  6899+         J     $FINI496                                                 01-ELSE
 002FB4                             6900+$MDF492  DC    0H'0'                                                    01-ELSE
 002FB4 D204 D4F1 D4B1 04271 04231  6901            MVC   ACTOUT,=C'FALSE'                                       22160007
                                    6902          ENDIF                                                          22170007
 002FBA                             6904+$FINI496 DC    0H'0'                                                    01-ENDIF
1IFTEST   EXAMPLES OF "IF" LOGIC MACRO INSTRUCTIONS                                                             Page   82
   Active Usings: IFTEST+X'2620',R12  $$WA$$,R13
0  Loc  Object Code    Addr1 Addr2  Stmt   Source Statement                                  HLASM R6.0  2021/03/26 12.00
0                                   6905          IF    (CLC,PREDOUT,ACTOUT,NE)                                  22180007
 002FBA D504 D4DA D4F1 0425A 04271  6907+         CLC   PREDOUT,ACTOUT      TWO OPERANDS                         01-IF
 002FC0 A784 0005            02FCA  6911+         JE    $NEXT497            BRANCH IF CC INDICATES FAIL          01-IF
 002FC4 D209 D4F7 D498 04277 04218  6912            MVC   ERROR,=C'<=== ERROR'                                   22190007
                                    6913          ENDIF                                                          22200007
 002FCA                             6915+$NEXT497 DC    0H'0'                                                    01-ENDIF
                                    6916          PUT   SYSPRINT,OUTPUT                                          22210007
 002FCA 4110 D548            042C8  6920+         LA    1,SYSPRINT                        LOAD PARAMETER REG 1   02-IHBIN
 002FCE 4100 D4BD            0423D  6921+         LA    0,OUTPUT                          LOAD PARAMETER REG 0   02-IHBIN
 002FD2 1FFF                        6922+         SLR   15,15               CLEAR REGISTER FOR ICM          @L1A 01-PUT
 002FD4 BFF7 1031            00031  6923+         ICM   15,7,49(1)          LOAD PUT ROUTINE ADDRESS        @L1C 01-PUT
 002FD8 0DEF                        6924+         BASR  14,15               LINK TO PUT ROUTINE             @L3C 01-PUT
 002FDA D209 D4F7 D4A2 04277 04222  6925          MVC   ERROR,=CL10' '                                           22220007
                                    6926 *=*=*=*=*=*=*=*=*=*=*=*=*=*=*=*=*=*=*=*=*=*=*=*=*=*=*=*=*=*=*=*=*=*=*=* 22230007
 002FE0 92E9 D542      042C2        6927          MVI   VARBL1,C'Z'         SET TO FAIL                          22240007
 002FE4 41F0 0000            00000  6928          LA    R15,0               SET TO PASS                          22250007
 002FE8 9201 D544      042C4        6929          MVI   VARBL3,X'01'        SET TO FAIL                          22260007
 002FEC F230 D4B9 D4B6 04239 04236  6930          PACK  PACK1,=Z'1'         SET TO PASS                          22270007
 002FF2 9210 D546      042C6        6931          MVI   TSWITCH,X'10'       SET TO PASS                          22280007
 002FF6 D204 D4DA D4B1 0425A 04231  6932          MVC   PREDOUT,=C'FALSE'                                        22290007
 002FFC D207 D4BE D3C0 0423E 04140  6933          MVC   TESTNBR,=C'TEST130F'                                     22300007
                                    6934 *                                                                       22310007
                                    6935 TEST130F IF    (CLI,VARBL1,C'A',E),AND,                                C22320007
                                                        ((LTR,R15,R15,Z),OR,(TM,VARBL3,X'01',Z),AND,            C22330007
                                                        ((SP,PACK1,=P'1',Z),OR,(CLI,TSWITCH,X'10',E)))           22340009
 003002 95C1 D542      042C2        6937+TEST130F CLI   VARBL1,C'A'         TWO OPERANDS                         01-IF
 003006 A774 0017            03034  6940+         JNE   $MDF498             FALSE RESULT - POSSIBLE FAIL         01-IF
 00300A 12FF                        6945+         LTR   R15,R15             TWO OPERANDS                         02-IF2
 00300C A784 000F            0302A  6948+         JZ    $MDT499             TRUE RESULT - POSSIBLE PASS          02-IF2
 003010 9101 D544      042C4        6950+         TM    VARBL3,X'01'        TWO OPERANDS                         02-IF2
 003014 A774 0010            03034  6953+         JNZ   $MDF500             FALSE RESULT - POSSIBLE FAIL         02-IF2
 003018 FB30 D4B9 D4B7 04239 04237  6958+         SP    PACK1,=P'1'         TWO OPERANDS                         03-IF2
 00301E A784 0006            0302A  6961+         JZ    $MDT501             TRUE RESULT - POSSIBLE PASS          03-IF2
 003022 9510 D546      042C6        6963+         CLI   TSWITCH,X'10'       TWO OPERANDS                         03-IF2
                       0302A        6967+$MDT501  EQU   $MDT499             ANCHOR NESTED TRUE NAME              02-IF2
                       03034        6970+$MDF500  EQU   $MDF498             ANCHOR NESTED FALSE NAME             01-IF
 003026 A774 0007            03034  6973+         JNE   $MDF498             BRANCH IF CC INDICATES FAIL          01-IF
 00302A                             6974+$MDT499  DC    0H'0'               END RESULT WAS PASS - DO THE EXECUTE 01-IF
 00302A D204 D4F1 D4AC 04271 0422C  6975            MVC   ACTOUT,=C'TRUE '                                       22350007
                                    6976          ELSE                                                           22360007
 003030 A7F4 0005            0303A  6978+         J     $FINI502                                                 01-ELSE
 003034                             6979+$MDF498  DC    0H'0'                                                    01-ELSE
 003034 D204 D4F1 D4B1 04271 04231  6980            MVC   ACTOUT,=C'FALSE'                                       22370007
                                    6981          ENDIF                                                          22380007
 00303A                             6983+$FINI502 DC    0H'0'                                                    01-ENDIF
                                    6984          IF    (CLC,PREDOUT,ACTOUT,NE)                                  22390007
 00303A D504 D4DA D4F1 0425A 04271  6986+         CLC   PREDOUT,ACTOUT      TWO OPERANDS                         01-IF
 003040 A784 0005            0304A  6990+         JE    $NEXT503            BRANCH IF CC INDICATES FAIL          01-IF
 003044 D209 D4F7 D498 04277 04218  6991            MVC   ERROR,=C'<=== ERROR'                                   22400007
                                    6992          ENDIF                                                          22410007
 00304A                             6994+$NEXT503 DC    0H'0'                                                    01-ENDIF
                                    6995          PUT   SYSPRINT,OUTPUT                                          22420007
 00304A 4110 D548            042C8  6999+         LA    1,SYSPRINT                        LOAD PARAMETER REG 1   02-IHBIN
 00304E 4100 D4BD            0423D  7000+         LA    0,OUTPUT                          LOAD PARAMETER REG 0   02-IHBIN
 003052 1FFF                        7001+         SLR   15,15               CLEAR REGISTER FOR ICM          @L1A 01-PUT
1IFTEST   EXAMPLES OF "IF" LOGIC MACRO INSTRUCTIONS                                                             Page   83
   Active Usings: IFTEST+X'2620',R12  $$WA$$,R13
0  Loc  Object Code    Addr1 Addr2  Stmt   Source Statement                                  HLASM R6.0  2021/03/26 12.00
0003054 BFF7 1031            00031  7002+         ICM   15,7,49(1)          LOAD PUT ROUTINE ADDRESS        @L1C 01-PUT
 003058 0DEF                        7003+         BASR  14,15               LINK TO PUT ROUTINE             @L3C 01-PUT
 00305A D209 D4F7 D4A2 04277 04222  7004          MVC   ERROR,=CL10' '                                           22430007
                                    7005 *=*=*=*=*=*=*=*=*=*=*=*=*=*=*=*=*=*=*=*=*=*=*=*=*=*=*=*=*=*=*=*=*=*=*=* 22440007
 003060 92C1 D542      042C2        7006          MVI   VARBL1,C'A'         SET TO PASS                          22450007
 003064 41F0 0001            00001  7007          LA    R15,1               SET TO FAIL                          22460007
 003068 9201 D544      042C4        7008          MVI   VARBL3,X'01'        SET TO FAIL                          22470007
 00306C F230 D4B9 D4B6 04239 04236  7009          PACK  PACK1,=Z'1'         SET TO PASS                          22480007
 003072 9210 D546      042C6        7010          MVI   TSWITCH,X'10'       SET TO PASS                          22490007
 003076 D204 D4DA D4B1 0425A 04231  7011          MVC   PREDOUT,=C'FALSE'                                        22500007
 00307C D207 D4BE D3C8 0423E 04148  7012          MVC   TESTNBR,=C'TEST130G'                                     22510007
                                    7013 TEST130G IF    (CLI,VARBL1,C'A',E),AND,                                C22520007
                                                        ((LTR,R15,R15,Z),OR,(TM,VARBL3,X'01',Z),AND,            C22530007
                                                        ((SP,PACK1,=P'1',Z),OR,(CLI,TSWITCH,X'10',E)))           22540009
 003082 95C1 D542      042C2        7015+TEST130G CLI   VARBL1,C'A'         TWO OPERANDS                         01-IF
 003086 A774 0017            030B4  7018+         JNE   $MDF504             FALSE RESULT - POSSIBLE FAIL         01-IF
 00308A 12FF                        7023+         LTR   R15,R15             TWO OPERANDS                         02-IF2
 00308C A784 000F            030AA  7026+         JZ    $MDT505             TRUE RESULT - POSSIBLE PASS          02-IF2
 003090 9101 D544      042C4        7028+         TM    VARBL3,X'01'        TWO OPERANDS                         02-IF2
 003094 A774 0010            030B4  7031+         JNZ   $MDF506             FALSE RESULT - POSSIBLE FAIL         02-IF2
 003098 FB30 D4B9 D4B7 04239 04237  7036+         SP    PACK1,=P'1'         TWO OPERANDS                         03-IF2
 00309E A784 0006            030AA  7039+         JZ    $MDT507             TRUE RESULT - POSSIBLE PASS          03-IF2
 0030A2 9510 D546      042C6        7041+         CLI   TSWITCH,X'10'       TWO OPERANDS                         03-IF2
                       030AA        7045+$MDT507  EQU   $MDT505             ANCHOR NESTED TRUE NAME              02-IF2
                       030B4        7048+$MDF506  EQU   $MDF504             ANCHOR NESTED FALSE NAME             01-IF
 0030A6 A774 0007            030B4  7051+         JNE   $MDF504             BRANCH IF CC INDICATES FAIL          01-IF
 0030AA                             7052+$MDT505  DC    0H'0'               END RESULT WAS PASS - DO THE EXECUTE 01-IF
 0030AA D204 D4F1 D4AC 04271 0422C  7053            MVC   ACTOUT,=C'TRUE '                                       22550007
                                    7054          ELSE                                                           22560007
 0030B0 A7F4 0005            030BA  7056+         J     $FINI508                                                 01-ELSE
 0030B4                             7057+$MDF504  DC    0H'0'                                                    01-ELSE
 0030B4 D204 D4F1 D4B1 04271 04231  7058            MVC   ACTOUT,=C'FALSE'                                       22570007
                                    7059          ENDIF                                                          22580007
 0030BA                             7061+$FINI508 DC    0H'0'                                                    01-ENDIF
                                    7062          IF    (CLC,PREDOUT,ACTOUT,NE)                                  22590007
 0030BA D504 D4DA D4F1 0425A 04271  7064+         CLC   PREDOUT,ACTOUT      TWO OPERANDS                         01-IF
 0030C0 A784 0005            030CA  7068+         JE    $NEXT509            BRANCH IF CC INDICATES FAIL          01-IF
 0030C4 D209 D4F7 D498 04277 04218  7069            MVC   ERROR,=C'<=== ERROR'                                   22600007
                                    7070          ENDIF                                                          22610007
 0030CA                             7072+$NEXT509 DC    0H'0'                                                    01-ENDIF
                                    7073          PUT   SYSPRINT,OUTPUT                                          22620007
 0030CA 4110 D548            042C8  7077+         LA    1,SYSPRINT                        LOAD PARAMETER REG 1   02-IHBIN
 0030CE 4100 D4BD            0423D  7078+         LA    0,OUTPUT                          LOAD PARAMETER REG 0   02-IHBIN
 0030D2 1FFF                        7079+         SLR   15,15               CLEAR REGISTER FOR ICM          @L1A 01-PUT
 0030D4 BFF7 1031            00031  7080+         ICM   15,7,49(1)          LOAD PUT ROUTINE ADDRESS        @L1C 01-PUT
 0030D8 0DEF                        7081+         BASR  14,15               LINK TO PUT ROUTINE             @L3C 01-PUT
 0030DA D209 D4F7 D4A2 04277 04222  7082          MVC   ERROR,=CL10' '                                           22630007
                                    7083 *=*=*=*=*=*=*=*=*=*=*=*=*=*=*=*=*=*=*=*=*=*=*=*=*=*=*=*=*=*=*=*=*=*=*=* 22640007
 0030E0 92E9 D542      042C2        7084          MVI   VARBL1,C'Z'         SET TO FAIL                          22650007
 0030E4 41F0 0001            00001  7085          LA    R15,1               SET TO FAIL                          22660007
 0030E8 9201 D544      042C4        7086          MVI   VARBL3,X'01'        SET TO FAIL                          22670007
 0030EC F230 D4B9 D4B6 04239 04236  7087          PACK  PACK1,=Z'1'         SET TO PASS                          22680007
 0030F2 9210 D546      042C6        7088          MVI   TSWITCH,X'10'       SET TO PASS                          22690007
 0030F6 D204 D4DA D4B1 0425A 04231  7089          MVC   PREDOUT,=C'FALSE'                                        22700007
 0030FC D207 D4BE D3D0 0423E 04150  7090          MVC   TESTNBR,=C'TEST130H'                                     22710007
1IFTEST   EXAMPLES OF "IF" LOGIC MACRO INSTRUCTIONS                                                             Page   84
   Active Usings: IFTEST+X'2620',R12  $$WA$$,R13
0  Loc  Object Code    Addr1 Addr2  Stmt   Source Statement                                  HLASM R6.0  2021/03/26 12.00
0                                   7091 *                                                                       22720007
                                    7092 TEST130H IF    (CLI,VARBL1,C'A',E),AND,                                C22730007
                                                        ((LTR,R15,R15,Z),OR,(TM,VARBL3,X'01',Z),AND,            C22740007
                                                        ((SP,PACK1,=P'1',Z),OR,(CLI,TSWITCH,X'10',E)))           22750009
 003102 95C1 D542      042C2        7094+TEST130H CLI   VARBL1,C'A'         TWO OPERANDS                         01-IF
 003106 A774 0017            03134  7097+         JNE   $MDF510             FALSE RESULT - POSSIBLE FAIL         01-IF
 00310A 12FF                        7102+         LTR   R15,R15             TWO OPERANDS                         02-IF2
 00310C A784 000F            0312A  7105+         JZ    $MDT511             TRUE RESULT - POSSIBLE PASS          02-IF2
 003110 9101 D544      042C4        7107+         TM    VARBL3,X'01'        TWO OPERANDS                         02-IF2
 003114 A774 0010            03134  7110+         JNZ   $MDF512             FALSE RESULT - POSSIBLE FAIL         02-IF2
 003118 FB30 D4B9 D4B7 04239 04237  7115+         SP    PACK1,=P'1'         TWO OPERANDS                         03-IF2
 00311E A784 0006            0312A  7118+         JZ    $MDT513             TRUE RESULT - POSSIBLE PASS          03-IF2
 003122 9510 D546      042C6        7120+         CLI   TSWITCH,X'10'       TWO OPERANDS                         03-IF2
                       0312A        7124+$MDT513  EQU   $MDT511             ANCHOR NESTED TRUE NAME              02-IF2
                       03134        7127+$MDF512  EQU   $MDF510             ANCHOR NESTED FALSE NAME             01-IF
 003126 A774 0007            03134  7130+         JNE   $MDF510             BRANCH IF CC INDICATES FAIL          01-IF
 00312A                             7131+$MDT511  DC    0H'0'               END RESULT WAS PASS - DO THE EXECUTE 01-IF
 00312A D204 D4F1 D4AC 04271 0422C  7132            MVC   ACTOUT,=C'TRUE '                                       22760007
                                    7133          ELSE                                                           22770007
 003130 A7F4 0005            0313A  7135+         J     $FINI514                                                 01-ELSE
 003134                             7136+$MDF510  DC    0H'0'                                                    01-ELSE
 003134 D204 D4F1 D4B1 04271 04231  7137            MVC   ACTOUT,=C'FALSE'                                       22780007
                                    7138          ENDIF                                                          22790007
 00313A                             7140+$FINI514 DC    0H'0'                                                    01-ENDIF
                                    7141          IF    (CLC,PREDOUT,ACTOUT,NE)                                  22800007
 00313A D504 D4DA D4F1 0425A 04271  7143+         CLC   PREDOUT,ACTOUT      TWO OPERANDS                         01-IF
 003140 A784 0005            0314A  7147+         JE    $NEXT515            BRANCH IF CC INDICATES FAIL          01-IF
 003144 D209 D4F7 D498 04277 04218  7148            MVC   ERROR,=C'<=== ERROR'                                   22810007
                                    7149          ENDIF                                                          22820007
 00314A                             7151+$NEXT515 DC    0H'0'                                                    01-ENDIF
                                    7152          PUT   SYSPRINT,OUTPUT                                          22830007
 00314A 4110 D548            042C8  7156+         LA    1,SYSPRINT                        LOAD PARAMETER REG 1   02-IHBIN
 00314E 4100 D4BD            0423D  7157+         LA    0,OUTPUT                          LOAD PARAMETER REG 0   02-IHBIN
 003152 1FFF                        7158+         SLR   15,15               CLEAR REGISTER FOR ICM          @L1A 01-PUT
 003154 BFF7 1031            00031  7159+         ICM   15,7,49(1)          LOAD PUT ROUTINE ADDRESS        @L1C 01-PUT
 003158 0DEF                        7160+         BASR  14,15               LINK TO PUT ROUTINE             @L3C 01-PUT
 00315A D209 D4F7 D4A2 04277 04222  7161          MVC   ERROR,=CL10' '                                           22840007
                                    7162 *=*=*=*=*=*=*=*=*=*=*=*=*=*=*=*=*=*=*=*=*=*=*=*=*=*=*=*=*=*=*=*=*=*=*=* 22850007
 003160 92C1 D542      042C2        7163          MVI   VARBL1,C'A'         SET TO PASS                          22860007
 003164 41F0 0000            00000  7164          LA    R15,0               SET TO PASS                          22870007
 003168 9200 D544      042C4        7165          MVI   VARBL3,X'00'        SET TO PASS                          22880007
 00316C F230 D4B9 D4B8 04239 04238  7166          PACK  PACK1,=Z'2'         SET TO FAIL                          22890007
 003172 9210 D546      042C6        7167          MVI   TSWITCH,X'10'       SET TO PASS                          22900007
 003176 D204 D4DA D4AC 0425A 0422C  7168          MVC   PREDOUT,=C'TRUE '                                        22910007
 00317C D207 D4BE D3D8 0423E 04158  7169          MVC   TESTNBR,=C'TEST130I'                                     22920007
                                    7170 *                                                                       22930007
                                    7171 TEST130I IF    (CLI,VARBL1,C'A',E),AND,                                C22940007
                                                        ((LTR,R15,R15,Z),OR,(TM,VARBL3,X'01',Z),AND,            C22950007
                                                        ((SP,PACK1,=P'1',Z),OR,(CLI,TSWITCH,X'10',E)))           22960009
 003182 95C1 D542      042C2        7173+TEST130I CLI   VARBL1,C'A'         TWO OPERANDS                         01-IF
 003186 A774 0017            031B4  7176+         JNE   $MDF516             FALSE RESULT - POSSIBLE FAIL         01-IF
 00318A 12FF                        7181+         LTR   R15,R15             TWO OPERANDS                         02-IF2
 00318C A784 000F            031AA  7184+         JZ    $MDT517             TRUE RESULT - POSSIBLE PASS          02-IF2
 003190 9101 D544      042C4        7186+         TM    VARBL3,X'01'        TWO OPERANDS                         02-IF2
 003194 A774 0010            031B4  7189+         JNZ   $MDF518             FALSE RESULT - POSSIBLE FAIL         02-IF2
1IFTEST   EXAMPLES OF "IF" LOGIC MACRO INSTRUCTIONS                                                             Page   85
   Active Usings: IFTEST+X'2620',R12  $$WA$$,R13
0  Loc  Object Code    Addr1 Addr2  Stmt   Source Statement                                  HLASM R6.0  2021/03/26 12.00
0003198 FB30 D4B9 D4B7 04239 04237  7194+         SP    PACK1,=P'1'         TWO OPERANDS                         03-IF2
 00319E A784 0006            031AA  7197+         JZ    $MDT519             TRUE RESULT - POSSIBLE PASS          03-IF2
 0031A2 9510 D546      042C6        7199+         CLI   TSWITCH,X'10'       TWO OPERANDS                         03-IF2
                       031AA        7203+$MDT519  EQU   $MDT517             ANCHOR NESTED TRUE NAME              02-IF2
                       031B4        7206+$MDF518  EQU   $MDF516             ANCHOR NESTED FALSE NAME             01-IF
 0031A6 A774 0007            031B4  7209+         JNE   $MDF516             BRANCH IF CC INDICATES FAIL          01-IF
 0031AA                             7210+$MDT517  DC    0H'0'               END RESULT WAS PASS - DO THE EXECUTE 01-IF
 0031AA D204 D4F1 D4AC 04271 0422C  7211            MVC   ACTOUT,=C'TRUE '                                       22970007
                                    7212          ELSE                                                           22980007
 0031B0 A7F4 0005            031BA  7214+         J     $FINI520                                                 01-ELSE
 0031B4                             7215+$MDF516  DC    0H'0'                                                    01-ELSE
 0031B4 D204 D4F1 D4B1 04271 04231  7216            MVC   ACTOUT,=C'FALSE'                                       22990007
                                    7217          ENDIF                                                          23000007
 0031BA                             7219+$FINI520 DC    0H'0'                                                    01-ENDIF
                                    7220          IF    (CLC,PREDOUT,ACTOUT,NE)                                  23010007
 0031BA D504 D4DA D4F1 0425A 04271  7222+         CLC   PREDOUT,ACTOUT      TWO OPERANDS                         01-IF
 0031C0 A784 0005            031CA  7226+         JE    $NEXT521            BRANCH IF CC INDICATES FAIL          01-IF
 0031C4 D209 D4F7 D498 04277 04218  7227            MVC   ERROR,=C'<=== ERROR'                                   23020007
                                    7228          ENDIF                                                          23030007
 0031CA                             7230+$NEXT521 DC    0H'0'                                                    01-ENDIF
                                    7231          PUT   SYSPRINT,OUTPUT                                          23040007
 0031CA 4110 D548            042C8  7235+         LA    1,SYSPRINT                        LOAD PARAMETER REG 1   02-IHBIN
 0031CE 4100 D4BD            0423D  7236+         LA    0,OUTPUT                          LOAD PARAMETER REG 0   02-IHBIN
 0031D2 1FFF                        7237+         SLR   15,15               CLEAR REGISTER FOR ICM          @L1A 01-PUT
 0031D4 BFF7 1031            00031  7238+         ICM   15,7,49(1)          LOAD PUT ROUTINE ADDRESS        @L1C 01-PUT
 0031D8 0DEF                        7239+         BASR  14,15               LINK TO PUT ROUTINE             @L3C 01-PUT
 0031DA D209 D4F7 D4A2 04277 04222  7240          MVC   ERROR,=CL10' '                                           23050007
                                    7241 *=*=*=*=*=*=*=*=*=*=*=*=*=*=*=*=*=*=*=*=*=*=*=*=*=*=*=*=*=*=*=*=*=*=*=* 23060007
 0031E0 92E9 D542      042C2        7242          MVI   VARBL1,C'Z'         SET TO FAIL                          23070007
 0031E4 41F0 0000            00000  7243          LA    R15,0               SET TO PASS                          23080007
 0031E8 9200 D544      042C4        7244          MVI   VARBL3,X'00'        SET TO PASS                          23090007
 0031EC F230 D4B9 D4B8 04239 04238  7245          PACK  PACK1,=Z'2'         SET TO FAIL                          23100007
 0031F2 9210 D546      042C6        7246          MVI   TSWITCH,X'10'       SET TO PASS                          23110007
 0031F6 D204 D4DA D4B1 0425A 04231  7247          MVC   PREDOUT,=C'FALSE'                                        23120007
 0031FC D207 D4BE D3E0 0423E 04160  7248          MVC   TESTNBR,=C'TEST130J'                                     23130007
                                    7249 *                                                                       23140007
                                    7250 TEST130J IF    (CLI,VARBL1,C'A',E),AND,                                C23150007
                                                        ((LTR,R15,R15,Z),OR,(TM,VARBL3,X'01',Z),AND,            C23160007
                                                        ((SP,PACK1,=P'1',Z),OR,(CLI,TSWITCH,X'10',E)))           23170009
 003202 95C1 D542      042C2        7252+TEST130J CLI   VARBL1,C'A'         TWO OPERANDS                         01-IF
 003206 A774 0017            03234  7255+         JNE   $MDF522             FALSE RESULT - POSSIBLE FAIL         01-IF
 00320A 12FF                        7260+         LTR   R15,R15             TWO OPERANDS                         02-IF2
 00320C A784 000F            0322A  7263+         JZ    $MDT523             TRUE RESULT - POSSIBLE PASS          02-IF2
 003210 9101 D544      042C4        7265+         TM    VARBL3,X'01'        TWO OPERANDS                         02-IF2
 003214 A774 0010            03234  7268+         JNZ   $MDF524             FALSE RESULT - POSSIBLE FAIL         02-IF2
 003218 FB30 D4B9 D4B7 04239 04237  7273+         SP    PACK1,=P'1'         TWO OPERANDS                         03-IF2
 00321E A784 0006            0322A  7276+         JZ    $MDT525             TRUE RESULT - POSSIBLE PASS          03-IF2
 003222 9510 D546      042C6        7278+         CLI   TSWITCH,X'10'       TWO OPERANDS                         03-IF2
                       0322A        7282+$MDT525  EQU   $MDT523             ANCHOR NESTED TRUE NAME              02-IF2
                       03234        7285+$MDF524  EQU   $MDF522             ANCHOR NESTED FALSE NAME             01-IF
 003226 A774 0007            03234  7288+         JNE   $MDF522             BRANCH IF CC INDICATES FAIL          01-IF
 00322A                             7289+$MDT523  DC    0H'0'               END RESULT WAS PASS - DO THE EXECUTE 01-IF
 00322A D204 D4F1 D4AC 04271 0422C  7290            MVC   ACTOUT,=C'TRUE '                                       23180007
                                    7291          ELSE                                                           23190007
 003230 A7F4 0005            0323A  7293+         J     $FINI526                                                 01-ELSE
1IFTEST   EXAMPLES OF "IF" LOGIC MACRO INSTRUCTIONS                                                             Page   86
   Active Usings: IFTEST+X'2620',R12  $$WA$$,R13
0  Loc  Object Code    Addr1 Addr2  Stmt   Source Statement                                  HLASM R6.0  2021/03/26 12.00
0003234                             7294+$MDF522  DC    0H'0'                                                    01-ELSE
 003234 D204 D4F1 D4B1 04271 04231  7295            MVC   ACTOUT,=C'FALSE'                                       23200007
                                    7296          ENDIF                                                          23210007
 00323A                             7298+$FINI526 DC    0H'0'                                                    01-ENDIF
                                    7299          IF    (CLC,PREDOUT,ACTOUT,NE)                                  23220007
 00323A D504 D4DA D4F1 0425A 04271  7301+         CLC   PREDOUT,ACTOUT      TWO OPERANDS                         01-IF
 003240 A784 0005            0324A  7305+         JE    $NEXT527            BRANCH IF CC INDICATES FAIL          01-IF
 003244 D209 D4F7 D498 04277 04218  7306            MVC   ERROR,=C'<=== ERROR'                                   23230007
                                    7307          ENDIF                                                          23240007
 00324A                             7309+$NEXT527 DC    0H'0'                                                    01-ENDIF
                                    7310          PUT   SYSPRINT,OUTPUT                                          23250007
 00324A 4110 D548            042C8  7314+         LA    1,SYSPRINT                        LOAD PARAMETER REG 1   02-IHBIN
 00324E 4100 D4BD            0423D  7315+         LA    0,OUTPUT                          LOAD PARAMETER REG 0   02-IHBIN
 003252 1FFF                        7316+         SLR   15,15               CLEAR REGISTER FOR ICM          @L1A 01-PUT
 003254 BFF7 1031            00031  7317+         ICM   15,7,49(1)          LOAD PUT ROUTINE ADDRESS        @L1C 01-PUT
 003258 0DEF                        7318+         BASR  14,15               LINK TO PUT ROUTINE             @L3C 01-PUT
 00325A D209 D4F7 D4A2 04277 04222  7319          MVC   ERROR,=CL10' '                                           23260007
                                    7320 *=*=*=*=*=*=*=*=*=*=*=*=*=*=*=*=*=*=*=*=*=*=*=*=*=*=*=*=*=*=*=*=*=*=*=* 23270007
 003260 92C1 D542      042C2        7321          MVI   VARBL1,C'A'         SET TO PASS                          23280007
 003264 41F0 0001            00001  7322          LA    R15,1               SET TO FAIL                          23290007
 003268 9200 D544      042C4        7323          MVI   VARBL3,X'00'        SET TO PASS                          23300007
 00326C F230 D4B9 D4B8 04239 04238  7324          PACK  PACK1,=Z'2'         SET TO FAIL                          23310007
 003272 9210 D546      042C6        7325          MVI   TSWITCH,X'10'       SET TO PASS                          23320007
 003276 D204 D4DA D4AC 0425A 0422C  7326          MVC   PREDOUT,=C'TRUE '                                        23330010
 00327C D207 D4BE D3E8 0423E 04168  7327          MVC   TESTNBR,=C'TEST130K'                                     23340007
                                    7328 *                                                                       23350007
                                    7329 TEST130K IF    (CLI,VARBL1,C'A',E),AND,                                C23360007
                                                        ((LTR,R15,R15,Z),OR,(TM,VARBL3,X'01',Z),AND,            C23370007
                                                        ((SP,PACK1,=P'1',Z),OR,(CLI,TSWITCH,X'10',E)))           23380009
 003282 95C1 D542      042C2        7331+TEST130K CLI   VARBL1,C'A'         TWO OPERANDS                         01-IF
 003286 A774 0017            032B4  7334+         JNE   $MDF528             FALSE RESULT - POSSIBLE FAIL         01-IF
 00328A 12FF                        7339+         LTR   R15,R15             TWO OPERANDS                         02-IF2
 00328C A784 000F            032AA  7342+         JZ    $MDT529             TRUE RESULT - POSSIBLE PASS          02-IF2
 003290 9101 D544      042C4        7344+         TM    VARBL3,X'01'        TWO OPERANDS                         02-IF2
 003294 A774 0010            032B4  7347+         JNZ   $MDF530             FALSE RESULT - POSSIBLE FAIL         02-IF2
 003298 FB30 D4B9 D4B7 04239 04237  7352+         SP    PACK1,=P'1'         TWO OPERANDS                         03-IF2
 00329E A784 0006            032AA  7355+         JZ    $MDT531             TRUE RESULT - POSSIBLE PASS          03-IF2
 0032A2 9510 D546      042C6        7357+         CLI   TSWITCH,X'10'       TWO OPERANDS                         03-IF2
                       032AA        7361+$MDT531  EQU   $MDT529             ANCHOR NESTED TRUE NAME              02-IF2
                       032B4        7364+$MDF530  EQU   $MDF528             ANCHOR NESTED FALSE NAME             01-IF
 0032A6 A774 0007            032B4  7367+         JNE   $MDF528             BRANCH IF CC INDICATES FAIL          01-IF
 0032AA                             7368+$MDT529  DC    0H'0'               END RESULT WAS PASS - DO THE EXECUTE 01-IF
 0032AA D204 D4F1 D4AC 04271 0422C  7369            MVC   ACTOUT,=C'TRUE '                                       23390007
                                    7370          ELSE                                                           23400007
 0032B0 A7F4 0005            032BA  7372+         J     $FINI532                                                 01-ELSE
 0032B4                             7373+$MDF528  DC    0H'0'                                                    01-ELSE
 0032B4 D204 D4F1 D4B1 04271 04231  7374            MVC   ACTOUT,=C'FALSE'                                       23410007
                                    7375          ENDIF                                                          23420007
 0032BA                             7377+$FINI532 DC    0H'0'                                                    01-ENDIF
                                    7378          IF    (CLC,PREDOUT,ACTOUT,NE)                                  23430007
 0032BA D504 D4DA D4F1 0425A 04271  7380+         CLC   PREDOUT,ACTOUT      TWO OPERANDS                         01-IF
 0032C0 A784 0005            032CA  7384+         JE    $NEXT533            BRANCH IF CC INDICATES FAIL          01-IF
 0032C4 D209 D4F7 D498 04277 04218  7385            MVC   ERROR,=C'<=== ERROR'                                   23440007
                                    7386          ENDIF                                                          23450007
 0032CA                             7388+$NEXT533 DC    0H'0'                                                    01-ENDIF
1IFTEST   EXAMPLES OF "IF" LOGIC MACRO INSTRUCTIONS                                                             Page   87
   Active Usings: IFTEST+X'2620',R12  $$WA$$,R13
0  Loc  Object Code    Addr1 Addr2  Stmt   Source Statement                                  HLASM R6.0  2021/03/26 12.00
0                                   7389          PUT   SYSPRINT,OUTPUT                                          23460007
 0032CA 4110 D548            042C8  7393+         LA    1,SYSPRINT                        LOAD PARAMETER REG 1   02-IHBIN
 0032CE 4100 D4BD            0423D  7394+         LA    0,OUTPUT                          LOAD PARAMETER REG 0   02-IHBIN
 0032D2 1FFF                        7395+         SLR   15,15               CLEAR REGISTER FOR ICM          @L1A 01-PUT
 0032D4 BFF7 1031            00031  7396+         ICM   15,7,49(1)          LOAD PUT ROUTINE ADDRESS        @L1C 01-PUT
 0032D8 0DEF                        7397+         BASR  14,15               LINK TO PUT ROUTINE             @L3C 01-PUT
 0032DA D209 D4F7 D4A2 04277 04222  7398          MVC   ERROR,=CL10' '                                           23470007
                                    7399 *=*=*=*=*=*=*=*=*=*=*=*=*=*=*=*=*=*=*=*=*=*=*=*=*=*=*=*=*=*=*=*=*=*=*=* 23480007
 0032E0 92E9 D542      042C2        7400          MVI   VARBL1,C'Z'         SET TO FAIL                          23490007
 0032E4 41F0 0001            00001  7401          LA    R15,1               SET TO FAIL                          23500007
 0032E8 9200 D544      042C4        7402          MVI   VARBL3,X'00'        SET TO PASS                          23510007
 0032EC F230 D4B9 D4B8 04239 04238  7403          PACK  PACK1,=Z'2'         SET TO FAIL                          23520007
 0032F2 9210 D546      042C6        7404          MVI   TSWITCH,X'10'       SET TO PASS                          23530007
 0032F6 D204 D4DA D4B1 0425A 04231  7405          MVC   PREDOUT,=C'FALSE'                                        23540007
 0032FC D207 D4BE D3F0 0423E 04170  7406          MVC   TESTNBR,=C'TEST130L'                                     23550007
                                    7407 *                                                                       23560007
                                    7408 TEST130L IF    (CLI,VARBL1,C'A',E),AND,                                C23570007
                                                        ((LTR,R15,R15,Z),OR,(TM,VARBL3,X'01',Z),AND,            C23580007
                                                        ((SP,PACK1,=P'1',Z),OR,(CLI,TSWITCH,X'10',E)))           23590009
 003302 95C1 D542      042C2        7410+TEST130L CLI   VARBL1,C'A'         TWO OPERANDS                         01-IF
 003306 A774 0017            03334  7413+         JNE   $MDF534             FALSE RESULT - POSSIBLE FAIL         01-IF
 00330A 12FF                        7418+         LTR   R15,R15             TWO OPERANDS                         02-IF2
 00330C A784 000F            0332A  7421+         JZ    $MDT535             TRUE RESULT - POSSIBLE PASS          02-IF2
 003310 9101 D544      042C4        7423+         TM    VARBL3,X'01'        TWO OPERANDS                         02-IF2
 003314 A774 0010            03334  7426+         JNZ   $MDF536             FALSE RESULT - POSSIBLE FAIL         02-IF2
 003318 FB30 D4B9 D4B7 04239 04237  7431+         SP    PACK1,=P'1'         TWO OPERANDS                         03-IF2
 00331E A784 0006            0332A  7434+         JZ    $MDT537             TRUE RESULT - POSSIBLE PASS          03-IF2
 003322 9510 D546      042C6        7436+         CLI   TSWITCH,X'10'       TWO OPERANDS                         03-IF2
                       0332A        7440+$MDT537  EQU   $MDT535             ANCHOR NESTED TRUE NAME              02-IF2
                       03334        7443+$MDF536  EQU   $MDF534             ANCHOR NESTED FALSE NAME             01-IF
 003326 A774 0007            03334  7446+         JNE   $MDF534             BRANCH IF CC INDICATES FAIL          01-IF
 00332A                             7447+$MDT535  DC    0H'0'               END RESULT WAS PASS - DO THE EXECUTE 01-IF
 00332A D204 D4F1 D4AC 04271 0422C  7448            MVC   ACTOUT,=C'TRUE '                                       23600007
                                    7449          ELSE                                                           23610007
 003330 A7F4 0005            0333A  7451+         J     $FINI538                                                 01-ELSE
 003334                             7452+$MDF534  DC    0H'0'                                                    01-ELSE
 003334 D204 D4F1 D4B1 04271 04231  7453            MVC   ACTOUT,=C'FALSE'                                       23620007
                                    7454          ENDIF                                                          23630007
 00333A                             7456+$FINI538 DC    0H'0'                                                    01-ENDIF
                                    7457          IF    (CLC,PREDOUT,ACTOUT,NE)                                  23640007
 00333A D504 D4DA D4F1 0425A 04271  7459+         CLC   PREDOUT,ACTOUT      TWO OPERANDS                         01-IF
 003340 A784 0005            0334A  7463+         JE    $NEXT539            BRANCH IF CC INDICATES FAIL          01-IF
 003344 D209 D4F7 D498 04277 04218  7464            MVC   ERROR,=C'<=== ERROR'                                   23650007
                                    7465          ENDIF                                                          23660007
 00334A                             7467+$NEXT539 DC    0H'0'                                                    01-ENDIF
                                    7468          PUT   SYSPRINT,OUTPUT                                          23670007
 00334A 4110 D548            042C8  7472+         LA    1,SYSPRINT                        LOAD PARAMETER REG 1   02-IHBIN
 00334E 4100 D4BD            0423D  7473+         LA    0,OUTPUT                          LOAD PARAMETER REG 0   02-IHBIN
 003352 1FFF                        7474+         SLR   15,15               CLEAR REGISTER FOR ICM          @L1A 01-PUT
 003354 BFF7 1031            00031  7475+         ICM   15,7,49(1)          LOAD PUT ROUTINE ADDRESS        @L1C 01-PUT
 003358 0DEF                        7476+         BASR  14,15               LINK TO PUT ROUTINE             @L3C 01-PUT
 00335A D209 D4F7 D4A2 04277 04222  7477          MVC   ERROR,=CL10' '                                           23680007
                                    7478 *=*=*=*=*=*=*=*=*=*=*=*=*=*=*=*=*=*=*=*=*=*=*=*=*=*=*=*=*=*=*=*=*=*=*=* 23690007
 003360 92C1 D542      042C2        7479          MVI   VARBL1,C'A'         SET TO PASS                          23700007
 003364 41F0 0000            00000  7480          LA    R15,0               SET TO PASS                          23710007
1IFTEST   EXAMPLES OF "IF" LOGIC MACRO INSTRUCTIONS                                                             Page   88
   Active Usings: IFTEST+X'2620',R12  $$WA$$,R13
0  Loc  Object Code    Addr1 Addr2  Stmt   Source Statement                                  HLASM R6.0  2021/03/26 12.00
0003368 9201 D544      042C4        7481          MVI   VARBL3,X'01'        SET TO FAIL                          23720007
 00336C F230 D4B9 D4B8 04239 04238  7482          PACK  PACK1,=Z'2'         SET TO FAIL                          23730007
 003372 9210 D546      042C6        7483          MVI   TSWITCH,X'10'       SET TO PASS                          23740007
 003376 D204 D4DA D4AC 0425A 0422C  7484          MVC   PREDOUT,=C'TRUE '                                        23750011
 00337C D207 D4BE D3F8 0423E 04178  7485          MVC   TESTNBR,=C'TEST130M'                                     23760007
                                    7486 *                                                                       23770007
                                    7487 TEST130M IF    (CLI,VARBL1,C'A',E),AND,                                C23780007
                                                        ((LTR,R15,R15,Z),OR,(TM,VARBL3,X'01',Z),AND,            C23790007
                                                        ((SP,PACK1,=P'1',Z),OR,(CLI,TSWITCH,X'10',E)))           23800009
 003382 95C1 D542      042C2        7489+TEST130M CLI   VARBL1,C'A'         TWO OPERANDS                         01-IF
 003386 A774 0017            033B4  7492+         JNE   $MDF540             FALSE RESULT - POSSIBLE FAIL         01-IF
 00338A 12FF                        7497+         LTR   R15,R15             TWO OPERANDS                         02-IF2
 00338C A784 000F            033AA  7500+         JZ    $MDT541             TRUE RESULT - POSSIBLE PASS          02-IF2
 003390 9101 D544      042C4        7502+         TM    VARBL3,X'01'        TWO OPERANDS                         02-IF2
 003394 A774 0010            033B4  7505+         JNZ   $MDF542             FALSE RESULT - POSSIBLE FAIL         02-IF2
 003398 FB30 D4B9 D4B7 04239 04237  7510+         SP    PACK1,=P'1'         TWO OPERANDS                         03-IF2
 00339E A784 0006            033AA  7513+         JZ    $MDT543             TRUE RESULT - POSSIBLE PASS          03-IF2
 0033A2 9510 D546      042C6        7515+         CLI   TSWITCH,X'10'       TWO OPERANDS                         03-IF2
                       033AA        7519+$MDT543  EQU   $MDT541             ANCHOR NESTED TRUE NAME              02-IF2
                       033B4        7522+$MDF542  EQU   $MDF540             ANCHOR NESTED FALSE NAME             01-IF
 0033A6 A774 0007            033B4  7525+         JNE   $MDF540             BRANCH IF CC INDICATES FAIL          01-IF
 0033AA                             7526+$MDT541  DC    0H'0'               END RESULT WAS PASS - DO THE EXECUTE 01-IF
 0033AA D204 D4F1 D4AC 04271 0422C  7527            MVC   ACTOUT,=C'TRUE '                                       23810007
                                    7528          ELSE                                                           23820007
 0033B0 A7F4 0005            033BA  7530+         J     $FINI544                                                 01-ELSE
 0033B4                             7531+$MDF540  DC    0H'0'                                                    01-ELSE
 0033B4 D204 D4F1 D4B1 04271 04231  7532            MVC   ACTOUT,=C'FALSE'                                       23830007
                                    7533          ENDIF                                                          23840007
 0033BA                             7535+$FINI544 DC    0H'0'                                                    01-ENDIF
                                    7536          IF    (CLC,PREDOUT,ACTOUT,NE)                                  23850007
 0033BA D504 D4DA D4F1 0425A 04271  7538+         CLC   PREDOUT,ACTOUT      TWO OPERANDS                         01-IF
 0033C0 A784 0005            033CA  7542+         JE    $NEXT545            BRANCH IF CC INDICATES FAIL          01-IF
 0033C4 D209 D4F7 D498 04277 04218  7543            MVC   ERROR,=C'<=== ERROR'                                   23860007
                                    7544          ENDIF                                                          23870007
 0033CA                             7546+$NEXT545 DC    0H'0'                                                    01-ENDIF
                                    7547          PUT   SYSPRINT,OUTPUT                                          23880007
 0033CA 4110 D548            042C8  7551+         LA    1,SYSPRINT                        LOAD PARAMETER REG 1   02-IHBIN
 0033CE 4100 D4BD            0423D  7552+         LA    0,OUTPUT                          LOAD PARAMETER REG 0   02-IHBIN
 0033D2 1FFF                        7553+         SLR   15,15               CLEAR REGISTER FOR ICM          @L1A 01-PUT
 0033D4 BFF7 1031            00031  7554+         ICM   15,7,49(1)          LOAD PUT ROUTINE ADDRESS        @L1C 01-PUT
 0033D8 0DEF                        7555+         BASR  14,15               LINK TO PUT ROUTINE             @L3C 01-PUT
 0033DA D209 D4F7 D4A2 04277 04222  7556          MVC   ERROR,=CL10' '                                           23890007
                                    7557 *=*=*=*=*=*=*=*=*=*=*=*=*=*=*=*=*=*=*=*=*=*=*=*=*=*=*=*=*=*=*=*=*=*=*=* 23900007
 0033E0 05C0                        7558          BALR  R12,0                                                    23901017
                  R:C  033E2        7559          USING *,R12                                                    23902017
 0033E2 92E9 D542      042C2        7560          MVI   VARBL1,C'Z'         SET TO FAIL                          23910007
 0033E6 41F0 0000            00000  7561          LA    R15,0               SET TO PASS                          23920007
 0033EA 9201 D544      042C4        7562          MVI   VARBL3,X'01'        SET TO FAIL                          23930007
 0033EE F230 D4B9 D4B8 04239 04238  7563          PACK  PACK1,=Z'2'         SET TO FAIL                          23940007
 0033F4 9210 D546      042C6        7564          MVI   TSWITCH,X'10'       SET TO PASS                          23950007
 0033F8 D204 D4DA D4B1 0425A 04231  7565          MVC   PREDOUT,=C'FALSE'                                        23960007
 0033FE D207 D4BE D400 0423E 04180  7566          MVC   TESTNBR,=C'TEST130N'                                     23970007
                                    7567 *                                                                       23980007
                                    7568 TEST130N IF    (CLI,VARBL1,C'A',E),AND,                                C23990007
                                                        ((LTR,R15,R15,Z),OR,(TM,VARBL3,X'01',Z),AND,            C24000007
1IFTEST   EXAMPLES OF "IF" LOGIC MACRO INSTRUCTIONS                                                             Page   89
   Active Usings: IFTEST+X'33E2',R12  $$WA$$,R13
0  Loc  Object Code    Addr1 Addr2  Stmt   Source Statement                                  HLASM R6.0  2021/03/26 12.00
0                                                       ((SP,PACK1,=P'1',Z),OR,(CLI,TSWITCH,X'10',E)))           24010009
 003404 95C1 D542      042C2        7570+TEST130N CLI   VARBL1,C'A'         TWO OPERANDS                         01-IF
 003408 A774 0017            03436  7573+         JNE   $MDF546             FALSE RESULT - POSSIBLE FAIL         01-IF
 00340C 12FF                        7578+         LTR   R15,R15             TWO OPERANDS                         02-IF2
 00340E A784 000F            0342C  7581+         JZ    $MDT547             TRUE RESULT - POSSIBLE PASS          02-IF2
 003412 9101 D544      042C4        7583+         TM    VARBL3,X'01'        TWO OPERANDS                         02-IF2
 003416 A774 0010            03436  7586+         JNZ   $MDF548             FALSE RESULT - POSSIBLE FAIL         02-IF2
 00341A FB30 D4B9 D4B7 04239 04237  7591+         SP    PACK1,=P'1'         TWO OPERANDS                         03-IF2
 003420 A784 0006            0342C  7594+         JZ    $MDT549             TRUE RESULT - POSSIBLE PASS          03-IF2
 003424 9510 D546      042C6        7596+         CLI   TSWITCH,X'10'       TWO OPERANDS                         03-IF2
                       0342C        7600+$MDT549  EQU   $MDT547             ANCHOR NESTED TRUE NAME              02-IF2
                       03436        7603+$MDF548  EQU   $MDF546             ANCHOR NESTED FALSE NAME             01-IF
 003428 A774 0007            03436  7606+         JNE   $MDF546             BRANCH IF CC INDICATES FAIL          01-IF
 00342C                             7607+$MDT547  DC    0H'0'               END RESULT WAS PASS - DO THE EXECUTE 01-IF
 00342C D204 D4F1 D4AC 04271 0422C  7608            MVC   ACTOUT,=C'TRUE '                                       24020007
                                    7609          ELSE                                                           24030007
 003432 A7F4 0005            0343C  7611+         J     $FINI550                                                 01-ELSE
 003436                             7612+$MDF546  DC    0H'0'                                                    01-ELSE
 003436 D204 D4F1 D4B1 04271 04231  7613            MVC   ACTOUT,=C'FALSE'                                       24040007
                                    7614          ENDIF                                                          24050007
 00343C                             7616+$FINI550 DC    0H'0'                                                    01-ENDIF
                                    7617          IF    (CLC,PREDOUT,ACTOUT,NE)                                  24060007
 00343C D504 D4DA D4F1 0425A 04271  7619+         CLC   PREDOUT,ACTOUT      TWO OPERANDS                         01-IF
 003442 A784 0005            0344C  7623+         JE    $NEXT551            BRANCH IF CC INDICATES FAIL          01-IF
 003446 D209 D4F7 D498 04277 04218  7624            MVC   ERROR,=C'<=== ERROR'                                   24070007
                                    7625          ENDIF                                                          24080007
 00344C                             7627+$NEXT551 DC    0H'0'                                                    01-ENDIF
                                    7628          PUT   SYSPRINT,OUTPUT                                          24090007
 00344C 4110 D548            042C8  7632+         LA    1,SYSPRINT                        LOAD PARAMETER REG 1   02-IHBIN
 003450 4100 D4BD            0423D  7633+         LA    0,OUTPUT                          LOAD PARAMETER REG 0   02-IHBIN
 003454 1FFF                        7634+         SLR   15,15               CLEAR REGISTER FOR ICM          @L1A 01-PUT
 003456 BFF7 1031            00031  7635+         ICM   15,7,49(1)          LOAD PUT ROUTINE ADDRESS        @L1C 01-PUT
 00345A 0DEF                        7636+         BASR  14,15               LINK TO PUT ROUTINE             @L3C 01-PUT
 00345C D209 D4F7 D4A2 04277 04222  7637          MVC   ERROR,=CL10' '                                           24100007
                                    7638 *=*=*=*=*=*=*=*=*=*=*=*=*=*=*=*=*=*=*=*=*=*=*=*=*=*=*=*=*=*=*=*=*=*=*=* 24110007
 003462 92C1 D542      042C2        7639          MVI   VARBL1,C'A'         SET TO PASS                          24120007
 003466 41F0 0001            00001  7640          LA    R15,1               SET TO FAIL                          24130007
 00346A 9201 D544      042C4        7641          MVI   VARBL3,X'01'        SET TO FAIL                          24140007
 00346E F230 D4B9 D4B8 04239 04238  7642          PACK  PACK1,=Z'2'         SET TO FAIL                          24150007
 003474 9210 D546      042C6        7643          MVI   TSWITCH,X'10'       SET TO PASS                          24160007
 003478 D204 D4DA D4B1 0425A 04231  7644          MVC   PREDOUT,=C'FALSE'                                        24170007
 00347E D207 D4BE D408 0423E 04188  7645          MVC   TESTNBR,=C'TEST130O'                                     24180007
                                    7646 *                                                                       24190007
                                    7647 TEST130O IF    (CLI,VARBL1,C'A',E),AND,                                C24200007
                                                        ((LTR,R15,R15,Z),OR,(TM,VARBL3,X'01',Z),AND,            C24210007
                                                        ((SP,PACK1,=P'1',Z),OR,(CLI,TSWITCH,X'10',E)))           24220009
 003484 95C1 D542      042C2        7649+TEST130O CLI   VARBL1,C'A'         TWO OPERANDS                         01-IF
 003488 A774 0017            034B6  7652+         JNE   $MDF552             FALSE RESULT - POSSIBLE FAIL         01-IF
 00348C 12FF                        7657+         LTR   R15,R15             TWO OPERANDS                         02-IF2
 00348E A784 000F            034AC  7660+         JZ    $MDT553             TRUE RESULT - POSSIBLE PASS          02-IF2
 003492 9101 D544      042C4        7662+         TM    VARBL3,X'01'        TWO OPERANDS                         02-IF2
 003496 A774 0010            034B6  7665+         JNZ   $MDF554             FALSE RESULT - POSSIBLE FAIL         02-IF2
 00349A FB30 D4B9 D4B7 04239 04237  7670+         SP    PACK1,=P'1'         TWO OPERANDS                         03-IF2
 0034A0 A784 0006            034AC  7673+         JZ    $MDT555             TRUE RESULT - POSSIBLE PASS          03-IF2
 0034A4 9510 D546      042C6        7675+         CLI   TSWITCH,X'10'       TWO OPERANDS                         03-IF2
1IFTEST   EXAMPLES OF "IF" LOGIC MACRO INSTRUCTIONS                                                             Page   90
   Active Usings: IFTEST+X'33E2',R12  $$WA$$,R13
0  Loc  Object Code    Addr1 Addr2  Stmt   Source Statement                                  HLASM R6.0  2021/03/26 12.00
0                      034AC        7679+$MDT555  EQU   $MDT553             ANCHOR NESTED TRUE NAME              02-IF2
                       034B6        7682+$MDF554  EQU   $MDF552             ANCHOR NESTED FALSE NAME             01-IF
 0034A8 A774 0007            034B6  7685+         JNE   $MDF552             BRANCH IF CC INDICATES FAIL          01-IF
 0034AC                             7686+$MDT553  DC    0H'0'               END RESULT WAS PASS - DO THE EXECUTE 01-IF
 0034AC D204 D4F1 D4AC 04271 0422C  7687            MVC   ACTOUT,=C'TRUE '                                       24230007
                                    7688          ELSE                                                           24240007
 0034B2 A7F4 0005            034BC  7690+         J     $FINI556                                                 01-ELSE
 0034B6                             7691+$MDF552  DC    0H'0'                                                    01-ELSE
 0034B6 D204 D4F1 D4B1 04271 04231  7692            MVC   ACTOUT,=C'FALSE'                                       24250007
                                    7693          ENDIF                                                          24260007
 0034BC                             7695+$FINI556 DC    0H'0'                                                    01-ENDIF
                                    7696          IF    (CLC,PREDOUT,ACTOUT,NE)                                  24270007
 0034BC D504 D4DA D4F1 0425A 04271  7698+         CLC   PREDOUT,ACTOUT      TWO OPERANDS                         01-IF
 0034C2 A784 0005            034CC  7702+         JE    $NEXT557            BRANCH IF CC INDICATES FAIL          01-IF
 0034C6 D209 D4F7 D498 04277 04218  7703            MVC   ERROR,=C'<=== ERROR'                                   24280007
                                    7704          ENDIF                                                          24290007
 0034CC                             7706+$NEXT557 DC    0H'0'                                                    01-ENDIF
                                    7707          PUT   SYSPRINT,OUTPUT                                          24300007
 0034CC 4110 D548            042C8  7711+         LA    1,SYSPRINT                        LOAD PARAMETER REG 1   02-IHBIN
 0034D0 4100 D4BD            0423D  7712+         LA    0,OUTPUT                          LOAD PARAMETER REG 0   02-IHBIN
 0034D4 1FFF                        7713+         SLR   15,15               CLEAR REGISTER FOR ICM          @L1A 01-PUT
 0034D6 BFF7 1031            00031  7714+         ICM   15,7,49(1)          LOAD PUT ROUTINE ADDRESS        @L1C 01-PUT
 0034DA 0DEF                        7715+         BASR  14,15               LINK TO PUT ROUTINE             @L3C 01-PUT
 0034DC D209 D4F7 D4A2 04277 04222  7716          MVC   ERROR,=CL10' '                                           24310007
                                    7717 *=*=*=*=*=*=*=*=*=*=*=*=*=*=*=*=*=*=*=*=*=*=*=*=*=*=*=*=*=*=*=*=*=*=*=* 24320007
 0034E2 92E9 D542      042C2        7718          MVI   VARBL1,C'Z'         SET TO FAIL                          24330007
 0034E6 41F0 0001            00001  7719          LA    R15,1               SET TO FAIL                          24340007
 0034EA 9201 D544      042C4        7720          MVI   VARBL3,X'01'        SET TO FAIL                          24350007
 0034EE F230 D4B9 D4B8 04239 04238  7721          PACK  PACK1,=Z'2'         SET TO FAIL                          24360007
 0034F4 9210 D546      042C6        7722          MVI   TSWITCH,X'10'       SET TO PASS                          24370007
 0034F8 D204 D4DA D4B1 0425A 04231  7723          MVC   PREDOUT,=C'FALSE'                                        24380007
 0034FE D207 D4BE D410 0423E 04190  7724          MVC   TESTNBR,=C'TEST130P'                                     24390007
                                    7725 *                                                                       24400007
                                    7726 TEST130P IF    (CLI,VARBL1,C'A',E),AND,                                C24410007
                                                        ((LTR,R15,R15,Z),OR,(TM,VARBL3,X'01',Z),AND,            C24420007
                                                        ((SP,PACK1,=P'1',Z),OR,(CLI,TSWITCH,X'10',E)))           24430009
 003504 95C1 D542      042C2        7728+TEST130P CLI   VARBL1,C'A'         TWO OPERANDS                         01-IF
 003508 A774 0017            03536  7731+         JNE   $MDF558             FALSE RESULT - POSSIBLE FAIL         01-IF
 00350C 12FF                        7736+         LTR   R15,R15             TWO OPERANDS                         02-IF2
 00350E A784 000F            0352C  7739+         JZ    $MDT559             TRUE RESULT - POSSIBLE PASS          02-IF2
 003512 9101 D544      042C4        7741+         TM    VARBL3,X'01'        TWO OPERANDS                         02-IF2
 003516 A774 0010            03536  7744+         JNZ   $MDF560             FALSE RESULT - POSSIBLE FAIL         02-IF2
 00351A FB30 D4B9 D4B7 04239 04237  7749+         SP    PACK1,=P'1'         TWO OPERANDS                         03-IF2
 003520 A784 0006            0352C  7752+         JZ    $MDT561             TRUE RESULT - POSSIBLE PASS          03-IF2
 003524 9510 D546      042C6        7754+         CLI   TSWITCH,X'10'       TWO OPERANDS                         03-IF2
                       0352C        7758+$MDT561  EQU   $MDT559             ANCHOR NESTED TRUE NAME              02-IF2
                       03536        7761+$MDF560  EQU   $MDF558             ANCHOR NESTED FALSE NAME             01-IF
 003528 A774 0007            03536  7764+         JNE   $MDF558             BRANCH IF CC INDICATES FAIL          01-IF
 00352C                             7765+$MDT559  DC    0H'0'               END RESULT WAS PASS - DO THE EXECUTE 01-IF
 00352C D204 D4F1 D4AC 04271 0422C  7766            MVC   ACTOUT,=C'TRUE '                                       24440007
                                    7767          ELSE                                                           24450007
 003532 A7F4 0005            0353C  7769+         J     $FINI562                                                 01-ELSE
 003536                             7770+$MDF558  DC    0H'0'                                                    01-ELSE
 003536 D204 D4F1 D4B1 04271 04231  7771            MVC   ACTOUT,=C'FALSE'                                       24460007
                                    7772          ENDIF                                                          24470007
1IFTEST   EXAMPLES OF "IF" LOGIC MACRO INSTRUCTIONS                                                             Page   91
   Active Usings: IFTEST+X'33E2',R12  $$WA$$,R13
0  Loc  Object Code    Addr1 Addr2  Stmt   Source Statement                                  HLASM R6.0  2021/03/26 12.00
000353C                             7774+$FINI562 DC    0H'0'                                                    01-ENDIF
                                    7775          IF    (CLC,PREDOUT,ACTOUT,NE)                                  24480007
 00353C D504 D4DA D4F1 0425A 04271  7777+         CLC   PREDOUT,ACTOUT      TWO OPERANDS                         01-IF
 003542 A784 0005            0354C  7781+         JE    $NEXT563            BRANCH IF CC INDICATES FAIL          01-IF
 003546 D209 D4F7 D498 04277 04218  7782            MVC   ERROR,=C'<=== ERROR'                                   24490007
                                    7783          ENDIF                                                          24500007
 00354C                             7785+$NEXT563 DC    0H'0'                                                    01-ENDIF
                                    7786          PUT   SYSPRINT,OUTPUT                                          24510007
 00354C 4110 D548            042C8  7790+         LA    1,SYSPRINT                        LOAD PARAMETER REG 1   02-IHBIN
 003550 4100 D4BD            0423D  7791+         LA    0,OUTPUT                          LOAD PARAMETER REG 0   02-IHBIN
 003554 1FFF                        7792+         SLR   15,15               CLEAR REGISTER FOR ICM          @L1A 01-PUT
 003556 BFF7 1031            00031  7793+         ICM   15,7,49(1)          LOAD PUT ROUTINE ADDRESS        @L1C 01-PUT
 00355A 0DEF                        7794+         BASR  14,15               LINK TO PUT ROUTINE             @L3C 01-PUT
 00355C D209 D4F7 D4A2 04277 04222  7795          MVC   ERROR,=CL10' '                                           24520007
                                    7796 *=*=*=*=*=*=*=*=*=*=*=*=*=*=*=*=*=*=*=*=*=*=*=*=*=*=*=*=*=*=*=*=*=*=*=* 24530007
 003562 92C1 D542      042C2        7797          MVI   VARBL1,C'A'         SET TO PASS                          24560007
 003566 41F0 0000            00000  7798          LA    R15,0               SET TO PASS                          24570007
 00356A 9200 D544      042C4        7799          MVI   VARBL3,X'00'        SET TO PASS                          24580007
 00356E F230 D4B9 D4B6 04239 04236  7800          PACK  PACK1,=Z'1'         SET TO PASS                          24590007
 003574 9200 D546      042C6        7801          MVI   TSWITCH,X'00'       SET TO FAIL                          24600007
 003578 D204 D4DA D4AC 0425A 0422C  7802          MVC   PREDOUT,=C'TRUE '                                        24610007
 00357E D207 D4BE D418 0423E 04198  7803          MVC   TESTNBR,=C'TEST130Q'                                     24620007
                                    7804 *                                                                       24630007
                                    7805 TEST130Q IF    (CLI,VARBL1,C'A',E),AND,                                C24640007
                                                        ((LTR,R15,R15,Z),OR,(TM,VARBL3,X'01',Z),AND,            C24650007
                                                        ((SP,PACK1,=P'1',Z),OR,(CLI,TSWITCH,X'10',E)))           24660009
 003584 95C1 D542      042C2        7807+TEST130Q CLI   VARBL1,C'A'         TWO OPERANDS                         01-IF
 003588 A774 0017            035B6  7810+         JNE   $MDF564             FALSE RESULT - POSSIBLE FAIL         01-IF
 00358C 12FF                        7815+         LTR   R15,R15             TWO OPERANDS                         02-IF2
 00358E A784 000F            035AC  7818+         JZ    $MDT565             TRUE RESULT - POSSIBLE PASS          02-IF2
 003592 9101 D544      042C4        7820+         TM    VARBL3,X'01'        TWO OPERANDS                         02-IF2
 003596 A774 0010            035B6  7823+         JNZ   $MDF566             FALSE RESULT - POSSIBLE FAIL         02-IF2
 00359A FB30 D4B9 D4B7 04239 04237  7828+         SP    PACK1,=P'1'         TWO OPERANDS                         03-IF2
 0035A0 A784 0006            035AC  7831+         JZ    $MDT567             TRUE RESULT - POSSIBLE PASS          03-IF2
 0035A4 9510 D546      042C6        7833+         CLI   TSWITCH,X'10'       TWO OPERANDS                         03-IF2
                       035AC        7837+$MDT567  EQU   $MDT565             ANCHOR NESTED TRUE NAME              02-IF2
                       035B6        7840+$MDF566  EQU   $MDF564             ANCHOR NESTED FALSE NAME             01-IF
 0035A8 A774 0007            035B6  7843+         JNE   $MDF564             BRANCH IF CC INDICATES FAIL          01-IF
 0035AC                             7844+$MDT565  DC    0H'0'               END RESULT WAS PASS - DO THE EXECUTE 01-IF
 0035AC D204 D4F1 D4AC 04271 0422C  7845            MVC   ACTOUT,=C'TRUE '                                       24670007
                                    7846          ELSE                                                           24680007
 0035B2 A7F4 0005            035BC  7848+         J     $FINI568                                                 01-ELSE
 0035B6                             7849+$MDF564  DC    0H'0'                                                    01-ELSE
 0035B6 D204 D4F1 D4B1 04271 04231  7850            MVC   ACTOUT,=C'FALSE'                                       24690007
                                    7851          ENDIF                                                          24700007
 0035BC                             7853+$FINI568 DC    0H'0'                                                    01-ENDIF
                                    7854          IF    (CLC,PREDOUT,ACTOUT,NE)                                  24710007
 0035BC D504 D4DA D4F1 0425A 04271  7856+         CLC   PREDOUT,ACTOUT      TWO OPERANDS                         01-IF
 0035C2 A784 0005            035CC  7860+         JE    $NEXT569            BRANCH IF CC INDICATES FAIL          01-IF
 0035C6 D209 D4F7 D498 04277 04218  7861            MVC   ERROR,=C'<=== ERROR'                                   24720007
                                    7862          ENDIF                                                          24730007
 0035CC                             7864+$NEXT569 DC    0H'0'                                                    01-ENDIF
                                    7865          PUT   SYSPRINT,OUTPUT                                          24740007
 0035CC 4110 D548            042C8  7869+         LA    1,SYSPRINT                        LOAD PARAMETER REG 1   02-IHBIN
 0035D0 4100 D4BD            0423D  7870+         LA    0,OUTPUT                          LOAD PARAMETER REG 0   02-IHBIN
1IFTEST   EXAMPLES OF "IF" LOGIC MACRO INSTRUCTIONS                                                             Page   92
   Active Usings: IFTEST+X'33E2',R12  $$WA$$,R13
0  Loc  Object Code    Addr1 Addr2  Stmt   Source Statement                                  HLASM R6.0  2021/03/26 12.00
00035D4 1FFF                        7871+         SLR   15,15               CLEAR REGISTER FOR ICM          @L1A 01-PUT
 0035D6 BFF7 1031            00031  7872+         ICM   15,7,49(1)          LOAD PUT ROUTINE ADDRESS        @L1C 01-PUT
 0035DA 0DEF                        7873+         BASR  14,15               LINK TO PUT ROUTINE             @L3C 01-PUT
 0035DC D209 D4F7 D4A2 04277 04222  7874          MVC   ERROR,=CL10' '                                           24750007
                                    7875 *=*=*=*=*=*=*=*=*=*=*=*=*=*=*=*=*=*=*=*=*=*=*=*=*=*=*=*=*=*=*=*=*=*=*=* 24760007
 0035E2 92E9 D542      042C2        7876          MVI   VARBL1,C'Z'         SET TO FAIL                          24770007
 0035E6 41F0 0000            00000  7877          LA    R15,0               SET TO PASS                          24780007
 0035EA 9200 D544      042C4        7878          MVI   VARBL3,X'00'        SET TO PASS                          24790007
 0035EE F230 D4B9 D4B6 04239 04236  7879          PACK  PACK1,=Z'1'         SET TO PASS                          24800007
 0035F4 9200 D546      042C6        7880          MVI   TSWITCH,X'00'       SET TO FAIL                          24810007
 0035F8 D204 D4DA D4B1 0425A 04231  7881          MVC   PREDOUT,=C'FALSE'                                        24820007
 0035FE D207 D4BE D420 0423E 041A0  7882          MVC   TESTNBR,=C'TEST230R'                                     24830007
                                    7883 *                                                                       24840007
                                    7884 TEST130R IF    (CLI,VARBL1,C'A',E),AND,                                C24850007
                                                        ((LTR,R15,R15,Z),OR,(TM,VARBL3,X'01',Z),AND,            C24860007
                                                        ((SP,PACK1,=P'1',Z),OR,(CLI,TSWITCH,X'10',E)))           24870009
 003604 95C1 D542      042C2        7886+TEST130R CLI   VARBL1,C'A'         TWO OPERANDS                         01-IF
 003608 A774 0017            03636  7889+         JNE   $MDF570             FALSE RESULT - POSSIBLE FAIL         01-IF
 00360C 12FF                        7894+         LTR   R15,R15             TWO OPERANDS                         02-IF2
 00360E A784 000F            0362C  7897+         JZ    $MDT571             TRUE RESULT - POSSIBLE PASS          02-IF2
 003612 9101 D544      042C4        7899+         TM    VARBL3,X'01'        TWO OPERANDS                         02-IF2
 003616 A774 0010            03636  7902+         JNZ   $MDF572             FALSE RESULT - POSSIBLE FAIL         02-IF2
 00361A FB30 D4B9 D4B7 04239 04237  7907+         SP    PACK1,=P'1'         TWO OPERANDS                         03-IF2
 003620 A784 0006            0362C  7910+         JZ    $MDT573             TRUE RESULT - POSSIBLE PASS          03-IF2
 003624 9510 D546      042C6        7912+         CLI   TSWITCH,X'10'       TWO OPERANDS                         03-IF2
                       0362C        7916+$MDT573  EQU   $MDT571             ANCHOR NESTED TRUE NAME              02-IF2
                       03636        7919+$MDF572  EQU   $MDF570             ANCHOR NESTED FALSE NAME             01-IF
 003628 A774 0007            03636  7922+         JNE   $MDF570             BRANCH IF CC INDICATES FAIL          01-IF
 00362C                             7923+$MDT571  DC    0H'0'               END RESULT WAS PASS - DO THE EXECUTE 01-IF
 00362C D204 D4F1 D4AC 04271 0422C  7924            MVC   ACTOUT,=C'TRUE '                                       24880007
                                    7925          ELSE                                                           24890007
 003632 A7F4 0005            0363C  7927+         J     $FINI574                                                 01-ELSE
 003636                             7928+$MDF570  DC    0H'0'                                                    01-ELSE
 003636 D204 D4F1 D4B1 04271 04231  7929            MVC   ACTOUT,=C'FALSE'                                       24900007
                                    7930          ENDIF                                                          24910007
 00363C                             7932+$FINI574 DC    0H'0'                                                    01-ENDIF
                                    7933          IF    (CLC,PREDOUT,ACTOUT,NE)                                  24920007
 00363C D504 D4DA D4F1 0425A 04271  7935+         CLC   PREDOUT,ACTOUT      TWO OPERANDS                         01-IF
 003642 A784 0005            0364C  7939+         JE    $NEXT575            BRANCH IF CC INDICATES FAIL          01-IF
 003646 D209 D4F7 D498 04277 04218  7940            MVC   ERROR,=C'<=== ERROR'                                   24930007
                                    7941          ENDIF                                                          24940007
 00364C                             7943+$NEXT575 DC    0H'0'                                                    01-ENDIF
                                    7944          PUT   SYSPRINT,OUTPUT                                          24950007
 00364C 4110 D548            042C8  7948+         LA    1,SYSPRINT                        LOAD PARAMETER REG 1   02-IHBIN
 003650 4100 D4BD            0423D  7949+         LA    0,OUTPUT                          LOAD PARAMETER REG 0   02-IHBIN
 003654 1FFF                        7950+         SLR   15,15               CLEAR REGISTER FOR ICM          @L1A 01-PUT
 003656 BFF7 1031            00031  7951+         ICM   15,7,49(1)          LOAD PUT ROUTINE ADDRESS        @L1C 01-PUT
 00365A 0DEF                        7952+         BASR  14,15               LINK TO PUT ROUTINE             @L3C 01-PUT
 00365C D209 D4F7 D4A2 04277 04222  7953          MVC   ERROR,=CL10' '                                           24960007
                                    7954 *=*=*=*=*=*=*=*=*=*=*=*=*=*=*=*=*=*=*=*=*=*=*=*=*=*=*=*=*=*=*=*=*=*=*=* 24970007
 003662 92C1 D542      042C2        7955          MVI   VARBL1,C'A'         SET TO PASS                          24980007
 003666 41F0 0001            00001  7956          LA    R15,1               SET TO FAIL                          24990007
 00366A 9200 D544      042C4        7957          MVI   VARBL3,X'00'        SET TO PASS                          25000007
 00366E F230 D4B9 D4B6 04239 04236  7958          PACK  PACK1,=Z'1'         SET TO PASS                          25010007
 003674 9200 D546      042C6        7959          MVI   TSWITCH,X'00'       SET TO FAIL                          25020007
1IFTEST   EXAMPLES OF "IF" LOGIC MACRO INSTRUCTIONS                                                             Page   93
   Active Usings: IFTEST+X'33E2',R12  $$WA$$,R13
0  Loc  Object Code    Addr1 Addr2  Stmt   Source Statement                                  HLASM R6.0  2021/03/26 12.00
0003678 D204 D4DA D4AC 0425A 0422C  7960          MVC   PREDOUT,=C'TRUE '                                        25030007
 00367E D207 D4BE D428 0423E 041A8  7961          MVC   TESTNBR,=C'TEST130S'                                     25040007
                                    7962 *                                                                       25050007
                                    7963 TEST130S IF    (CLI,VARBL1,C'A',E),AND,                                C25060007
                                                        ((LTR,R15,R15,Z),OR,(TM,VARBL3,X'01',Z),AND,            C25070007
                                                        ((SP,PACK1,=P'1',Z),OR,(CLI,TSWITCH,X'10',E)))           25080009
 003684 95C1 D542      042C2        7965+TEST130S CLI   VARBL1,C'A'         TWO OPERANDS                         01-IF
 003688 A774 0017            036B6  7968+         JNE   $MDF576             FALSE RESULT - POSSIBLE FAIL         01-IF
 00368C 12FF                        7973+         LTR   R15,R15             TWO OPERANDS                         02-IF2
 00368E A784 000F            036AC  7976+         JZ    $MDT577             TRUE RESULT - POSSIBLE PASS          02-IF2
 003692 9101 D544      042C4        7978+         TM    VARBL3,X'01'        TWO OPERANDS                         02-IF2
 003696 A774 0010            036B6  7981+         JNZ   $MDF578             FALSE RESULT - POSSIBLE FAIL         02-IF2
 00369A FB30 D4B9 D4B7 04239 04237  7986+         SP    PACK1,=P'1'         TWO OPERANDS                         03-IF2
 0036A0 A784 0006            036AC  7989+         JZ    $MDT579             TRUE RESULT - POSSIBLE PASS          03-IF2
 0036A4 9510 D546      042C6        7991+         CLI   TSWITCH,X'10'       TWO OPERANDS                         03-IF2
                       036AC        7995+$MDT579  EQU   $MDT577             ANCHOR NESTED TRUE NAME              02-IF2
                       036B6        7998+$MDF578  EQU   $MDF576             ANCHOR NESTED FALSE NAME             01-IF
 0036A8 A774 0007            036B6  8001+         JNE   $MDF576             BRANCH IF CC INDICATES FAIL          01-IF
 0036AC                             8002+$MDT577  DC    0H'0'               END RESULT WAS PASS - DO THE EXECUTE 01-IF
 0036AC D204 D4F1 D4AC 04271 0422C  8003            MVC   ACTOUT,=C'TRUE '                                       25090007
                                    8004          ELSE                                                           25100007
 0036B2 A7F4 0005            036BC  8006+         J     $FINI580                                                 01-ELSE
 0036B6                             8007+$MDF576  DC    0H'0'                                                    01-ELSE
 0036B6 D204 D4F1 D4B1 04271 04231  8008            MVC   ACTOUT,=C'FALSE'                                       25110007
                                    8009          ENDIF                                                          25120007
 0036BC                             8011+$FINI580 DC    0H'0'                                                    01-ENDIF
                                    8012          IF    (CLC,PREDOUT,ACTOUT,NE)                                  25130007
 0036BC D504 D4DA D4F1 0425A 04271  8014+         CLC   PREDOUT,ACTOUT      TWO OPERANDS                         01-IF
 0036C2 A784 0005            036CC  8018+         JE    $NEXT581            BRANCH IF CC INDICATES FAIL          01-IF
 0036C6 D209 D4F7 D498 04277 04218  8019            MVC   ERROR,=C'<=== ERROR'                                   25140007
                                    8020          ENDIF                                                          25150007
 0036CC                             8022+$NEXT581 DC    0H'0'                                                    01-ENDIF
                                    8023          PUT   SYSPRINT,OUTPUT                                          25160007
 0036CC 4110 D548            042C8  8027+         LA    1,SYSPRINT                        LOAD PARAMETER REG 1   02-IHBIN
 0036D0 4100 D4BD            0423D  8028+         LA    0,OUTPUT                          LOAD PARAMETER REG 0   02-IHBIN
 0036D4 1FFF                        8029+         SLR   15,15               CLEAR REGISTER FOR ICM          @L1A 01-PUT
 0036D6 BFF7 1031            00031  8030+         ICM   15,7,49(1)          LOAD PUT ROUTINE ADDRESS        @L1C 01-PUT
 0036DA 0DEF                        8031+         BASR  14,15               LINK TO PUT ROUTINE             @L3C 01-PUT
 0036DC D209 D4F7 D4A2 04277 04222  8032          MVC   ERROR,=CL10' '                                           25170007
                                    8033 *=*=*=*=*=*=*=*=*=*=*=*=*=*=*=*=*=*=*=*=*=*=*=*=*=*=*=*=*=*=*=*=*=*=*=* 25180007
 0036E2 92E9 D542      042C2        8034          MVI   VARBL1,C'Z'         SET TO FAIL                          25190007
 0036E6 41F0 0001            00001  8035          LA    R15,1               SET TO FAIL                          25200007
 0036EA 9200 D544      042C4        8036          MVI   VARBL3,X'00'        SET TO PASS                          25210007
 0036EE F230 D4B9 D4B6 04239 04236  8037          PACK  PACK1,=Z'1'         SET TO PASS                          25220007
 0036F4 9200 D546      042C6        8038          MVI   TSWITCH,X'00'       SET TO FAIL                          25230007
 0036F8 D204 D4DA D4B1 0425A 04231  8039          MVC   PREDOUT,=C'FALSE'                                        25240007
 0036FE D207 D4BE D430 0423E 041B0  8040          MVC   TESTNBR,=C'TEST130T'                                     25250007
                                    8041 *                                                                       25260007
                                    8042 TEST130T IF    (CLI,VARBL1,C'A',E),AND,                                C25270007
                                                        ((LTR,R15,R15,Z),OR,(TM,VARBL3,X'01',Z),AND,            C25280007
                                                        ((SP,PACK1,=P'1',Z),OR,(CLI,TSWITCH,X'10',E)))           25290009
 003704 95C1 D542      042C2        8044+TEST130T CLI   VARBL1,C'A'         TWO OPERANDS                         01-IF
 003708 A774 0017            03736  8047+         JNE   $MDF582             FALSE RESULT - POSSIBLE FAIL         01-IF
 00370C 12FF                        8052+         LTR   R15,R15             TWO OPERANDS                         02-IF2
 00370E A784 000F            0372C  8055+         JZ    $MDT583             TRUE RESULT - POSSIBLE PASS          02-IF2
1IFTEST   EXAMPLES OF "IF" LOGIC MACRO INSTRUCTIONS                                                             Page   94
   Active Usings: IFTEST+X'33E2',R12  $$WA$$,R13
0  Loc  Object Code    Addr1 Addr2  Stmt   Source Statement                                  HLASM R6.0  2021/03/26 12.00
0003712 9101 D544      042C4        8057+         TM    VARBL3,X'01'        TWO OPERANDS                         02-IF2
 003716 A774 0010            03736  8060+         JNZ   $MDF584             FALSE RESULT - POSSIBLE FAIL         02-IF2
 00371A FB30 D4B9 D4B7 04239 04237  8065+         SP    PACK1,=P'1'         TWO OPERANDS                         03-IF2
 003720 A784 0006            0372C  8068+         JZ    $MDT585             TRUE RESULT - POSSIBLE PASS          03-IF2
 003724 9510 D546      042C6        8070+         CLI   TSWITCH,X'10'       TWO OPERANDS                         03-IF2
                       0372C        8074+$MDT585  EQU   $MDT583             ANCHOR NESTED TRUE NAME              02-IF2
                       03736        8077+$MDF584  EQU   $MDF582             ANCHOR NESTED FALSE NAME             01-IF
 003728 A774 0007            03736  8080+         JNE   $MDF582             BRANCH IF CC INDICATES FAIL          01-IF
 00372C                             8081+$MDT583  DC    0H'0'               END RESULT WAS PASS - DO THE EXECUTE 01-IF
 00372C D204 D4F1 D4AC 04271 0422C  8082            MVC   ACTOUT,=C'TRUE '                                       25300007
                                    8083          ELSE                                                           25310007
 003732 A7F4 0005            0373C  8085+         J     $FINI586                                                 01-ELSE
 003736                             8086+$MDF582  DC    0H'0'                                                    01-ELSE
 003736 D204 D4F1 D4B1 04271 04231  8087            MVC   ACTOUT,=C'FALSE'                                       25320007
                                    8088          ENDIF                                                          25330007
 00373C                             8090+$FINI586 DC    0H'0'                                                    01-ENDIF
                                    8091          IF    (CLC,PREDOUT,ACTOUT,NE)                                  25340007
 00373C D504 D4DA D4F1 0425A 04271  8093+         CLC   PREDOUT,ACTOUT      TWO OPERANDS                         01-IF
 003742 A784 0005            0374C  8097+         JE    $NEXT587            BRANCH IF CC INDICATES FAIL          01-IF
 003746 D209 D4F7 D498 04277 04218  8098            MVC   ERROR,=C'<=== ERROR'                                   25350007
                                    8099          ENDIF                                                          25360007
 00374C                             8101+$NEXT587 DC    0H'0'                                                    01-ENDIF
                                    8102          PUT   SYSPRINT,OUTPUT                                          25370007
 00374C 4110 D548            042C8  8106+         LA    1,SYSPRINT                        LOAD PARAMETER REG 1   02-IHBIN
 003750 4100 D4BD            0423D  8107+         LA    0,OUTPUT                          LOAD PARAMETER REG 0   02-IHBIN
 003754 1FFF                        8108+         SLR   15,15               CLEAR REGISTER FOR ICM          @L1A 01-PUT
 003756 BFF7 1031            00031  8109+         ICM   15,7,49(1)          LOAD PUT ROUTINE ADDRESS        @L1C 01-PUT
 00375A 0DEF                        8110+         BASR  14,15               LINK TO PUT ROUTINE             @L3C 01-PUT
 00375C D209 D4F7 D4A2 04277 04222  8111          MVC   ERROR,=CL10' '                                           25380007
                                    8112 *=*=*=*=*=*=*=*=*=*=*=*=*=*=*=*=*=*=*=*=*=*=*=*=*=*=*=*=*=*=*=*=*=*=*=* 25390007
 003762 92C1 D542      042C2        8113          MVI   VARBL1,C'A'         SET TO PASS                          25400007
 003766 41F0 0000            00000  8114          LA    R15,0               SET TO PASS                          25410007
 00376A 9201 D544      042C4        8115          MVI   VARBL3,X'01'        SET TO FAIL                          25420007
 00376E F230 D4B9 D4B6 04239 04236  8116          PACK  PACK1,=Z'1'         SET TO PASS                          25430007
 003774 9200 D546      042C6        8117          MVI   TSWITCH,X'00'       SET TO FAIL                          25440007
 003778 D204 D4DA D4AC 0425A 0422C  8118          MVC   PREDOUT,=C'TRUE '                                        25450007
 00377E D207 D4BE D438 0423E 041B8  8119          MVC   TESTNBR,=C'TEST130U'                                     25460007
                                    8120 *                                                                       25470007
                                    8121 TEST130U IF    (CLI,VARBL1,C'A',E),AND,                                C25480007
                                                        ((LTR,R15,R15,Z),OR,(TM,VARBL3,X'01',Z),AND,            C25490007
                                                        ((SP,PACK1,=P'1',Z),OR,(CLI,TSWITCH,X'10',E)))           25500009
 003784 95C1 D542      042C2        8123+TEST130U CLI   VARBL1,C'A'         TWO OPERANDS                         01-IF
 003788 A774 0017            037B6  8126+         JNE   $MDF588             FALSE RESULT - POSSIBLE FAIL         01-IF
 00378C 12FF                        8131+         LTR   R15,R15             TWO OPERANDS                         02-IF2
 00378E A784 000F            037AC  8134+         JZ    $MDT589             TRUE RESULT - POSSIBLE PASS          02-IF2
 003792 9101 D544      042C4        8136+         TM    VARBL3,X'01'        TWO OPERANDS                         02-IF2
 003796 A774 0010            037B6  8139+         JNZ   $MDF590             FALSE RESULT - POSSIBLE FAIL         02-IF2
 00379A FB30 D4B9 D4B7 04239 04237  8144+         SP    PACK1,=P'1'         TWO OPERANDS                         03-IF2
 0037A0 A784 0006            037AC  8147+         JZ    $MDT591             TRUE RESULT - POSSIBLE PASS          03-IF2
 0037A4 9510 D546      042C6        8149+         CLI   TSWITCH,X'10'       TWO OPERANDS                         03-IF2
                       037AC        8153+$MDT591  EQU   $MDT589             ANCHOR NESTED TRUE NAME              02-IF2
                       037B6        8156+$MDF590  EQU   $MDF588             ANCHOR NESTED FALSE NAME             01-IF
 0037A8 A774 0007            037B6  8159+         JNE   $MDF588             BRANCH IF CC INDICATES FAIL          01-IF
 0037AC                             8160+$MDT589  DC    0H'0'               END RESULT WAS PASS - DO THE EXECUTE 01-IF
 0037AC D204 D4F1 D4AC 04271 0422C  8161            MVC   ACTOUT,=C'TRUE '                                       25510007
1IFTEST   EXAMPLES OF "IF" LOGIC MACRO INSTRUCTIONS                                                             Page   95
   Active Usings: IFTEST+X'33E2',R12  $$WA$$,R13
0  Loc  Object Code    Addr1 Addr2  Stmt   Source Statement                                  HLASM R6.0  2021/03/26 12.00
0                                   8162          ELSE                                                           25520007
 0037B2 A7F4 0005            037BC  8164+         J     $FINI592                                                 01-ELSE
 0037B6                             8165+$MDF588  DC    0H'0'                                                    01-ELSE
 0037B6 D204 D4F1 D4B1 04271 04231  8166            MVC   ACTOUT,=C'FALSE'                                       25530007
                                    8167          ENDIF                                                          25540007
 0037BC                             8169+$FINI592 DC    0H'0'                                                    01-ENDIF
                                    8170          IF    (CLC,PREDOUT,ACTOUT,NE)                                  25550007
 0037BC D504 D4DA D4F1 0425A 04271  8172+         CLC   PREDOUT,ACTOUT      TWO OPERANDS                         01-IF
 0037C2 A784 0005            037CC  8176+         JE    $NEXT593            BRANCH IF CC INDICATES FAIL          01-IF
 0037C6 D209 D4F7 D498 04277 04218  8177            MVC   ERROR,=C'<=== ERROR'                                   25560007
                                    8178          ENDIF                                                          25570007
 0037CC                             8180+$NEXT593 DC    0H'0'                                                    01-ENDIF
                                    8181          PUT   SYSPRINT,OUTPUT                                          25580007
 0037CC 4110 D548            042C8  8185+         LA    1,SYSPRINT                        LOAD PARAMETER REG 1   02-IHBIN
 0037D0 4100 D4BD            0423D  8186+         LA    0,OUTPUT                          LOAD PARAMETER REG 0   02-IHBIN
 0037D4 1FFF                        8187+         SLR   15,15               CLEAR REGISTER FOR ICM          @L1A 01-PUT
 0037D6 BFF7 1031            00031  8188+         ICM   15,7,49(1)          LOAD PUT ROUTINE ADDRESS        @L1C 01-PUT
 0037DA 0DEF                        8189+         BASR  14,15               LINK TO PUT ROUTINE             @L3C 01-PUT
 0037DC D209 D4F7 D4A2 04277 04222  8190          MVC   ERROR,=CL10' '                                           25590007
                                    8191 *=*=*=*=*=*=*=*=*=*=*=*=*=*=*=*=*=*=*=*=*=*=*=*=*=*=*=*=*=*=*=*=*=*=*=* 25600007
 0037E2 92E9 D542      042C2        8192          MVI   VARBL1,C'Z'         SET TO FAIL                          25610007
 0037E6 41F0 0000            00000  8193          LA    R15,0               SET TO PASS                          25620007
 0037EA 9201 D544      042C4        8194          MVI   VARBL3,X'01'        SET TO FAIL                          25630007
 0037EE F230 D4B9 D4B6 04239 04236  8195          PACK  PACK1,=Z'1'         SET TO PASS                          25640007
 0037F4 9200 D546      042C6        8196          MVI   TSWITCH,X'00'       SET TO FAIL                          25650007
 0037F8 D204 D4DA D4B1 0425A 04231  8197          MVC   PREDOUT,=C'FALSE'                                        25660007
 0037FE D207 D4BE D440 0423E 041C0  8198          MVC   TESTNBR,=C'TEST130V'                                     25670007
                                    8199 *                                                                       25680007
                                    8200 TEST130V IF    (CLI,VARBL1,C'A',E),AND,                                C25690007
                                                        ((LTR,R15,R15,Z),OR,(TM,VARBL3,X'01',Z),AND,            C25700007
                                                        ((SP,PACK1,=P'1',Z),OR,(CLI,TSWITCH,X'10',E)))           25710009
 003804 95C1 D542      042C2        8202+TEST130V CLI   VARBL1,C'A'         TWO OPERANDS                         01-IF
 003808 A774 0017            03836  8205+         JNE   $MDF594             FALSE RESULT - POSSIBLE FAIL         01-IF
 00380C 12FF                        8210+         LTR   R15,R15             TWO OPERANDS                         02-IF2
 00380E A784 000F            0382C  8213+         JZ    $MDT595             TRUE RESULT - POSSIBLE PASS          02-IF2
 003812 9101 D544      042C4        8215+         TM    VARBL3,X'01'        TWO OPERANDS                         02-IF2
 003816 A774 0010            03836  8218+         JNZ   $MDF596             FALSE RESULT - POSSIBLE FAIL         02-IF2
 00381A FB30 D4B9 D4B7 04239 04237  8223+         SP    PACK1,=P'1'         TWO OPERANDS                         03-IF2
 003820 A784 0006            0382C  8226+         JZ    $MDT597             TRUE RESULT - POSSIBLE PASS          03-IF2
 003824 9510 D546      042C6        8228+         CLI   TSWITCH,X'10'       TWO OPERANDS                         03-IF2
                       0382C        8232+$MDT597  EQU   $MDT595             ANCHOR NESTED TRUE NAME              02-IF2
                       03836        8235+$MDF596  EQU   $MDF594             ANCHOR NESTED FALSE NAME             01-IF
 003828 A774 0007            03836  8238+         JNE   $MDF594             BRANCH IF CC INDICATES FAIL          01-IF
 00382C                             8239+$MDT595  DC    0H'0'               END RESULT WAS PASS - DO THE EXECUTE 01-IF
 00382C D204 D4F1 D4AC 04271 0422C  8240            MVC   ACTOUT,=C'TRUE '                                       25720007
                                    8241          ELSE                                                           25730007
 003832 A7F4 0005            0383C  8243+         J     $FINI598                                                 01-ELSE
 003836                             8244+$MDF594  DC    0H'0'                                                    01-ELSE
 003836 D204 D4F1 D4B1 04271 04231  8245            MVC   ACTOUT,=C'FALSE'                                       25740007
                                    8246          ENDIF                                                          25750007
 00383C                             8248+$FINI598 DC    0H'0'                                                    01-ENDIF
                                    8249          IF    (CLC,PREDOUT,ACTOUT,NE)                                  25760007
 00383C D504 D4DA D4F1 0425A 04271  8251+         CLC   PREDOUT,ACTOUT      TWO OPERANDS                         01-IF
 003842 A784 0005            0384C  8255+         JE    $NEXT599            BRANCH IF CC INDICATES FAIL          01-IF
 003846 D209 D4F7 D498 04277 04218  8256            MVC   ERROR,=C'<=== ERROR'                                   25770007
1IFTEST   EXAMPLES OF "IF" LOGIC MACRO INSTRUCTIONS                                                             Page   96
   Active Usings: IFTEST+X'33E2',R12  $$WA$$,R13
0  Loc  Object Code    Addr1 Addr2  Stmt   Source Statement                                  HLASM R6.0  2021/03/26 12.00
0                                   8257          ENDIF                                                          25780007
 00384C                             8259+$NEXT599 DC    0H'0'                                                    01-ENDIF
                                    8260          PUT   SYSPRINT,OUTPUT                                          25790007
 00384C 4110 D548            042C8  8264+         LA    1,SYSPRINT                        LOAD PARAMETER REG 1   02-IHBIN
 003850 4100 D4BD            0423D  8265+         LA    0,OUTPUT                          LOAD PARAMETER REG 0   02-IHBIN
 003854 1FFF                        8266+         SLR   15,15               CLEAR REGISTER FOR ICM          @L1A 01-PUT
 003856 BFF7 1031            00031  8267+         ICM   15,7,49(1)          LOAD PUT ROUTINE ADDRESS        @L1C 01-PUT
 00385A 0DEF                        8268+         BASR  14,15               LINK TO PUT ROUTINE             @L3C 01-PUT
 00385C D209 D4F7 D4A2 04277 04222  8269          MVC   ERROR,=CL10' '                                           25800007
                                    8270 *=*=*=*=*=*=*=*=*=*=*=*=*=*=*=*=*=*=*=*=*=*=*=*=*=*=*=*=*=*=*=*=*=*=*=* 25810007
 003862 92C1 D542      042C2        8271          MVI   VARBL1,C'A'         SET TO PASS                          25820007
 003866 41F0 0001            00001  8272          LA    R15,1               SET TO FAIL                          25830007
 00386A 9201 D544      042C4        8273          MVI   VARBL3,X'01'        SET TO FAIL                          25840007
 00386E F230 D4B9 D4B6 04239 04236  8274          PACK  PACK1,=Z'1'         SET TO PASS                          25850007
 003874 9200 D546      042C6        8275          MVI   TSWITCH,X'00'       SET TO FAIL                          25860007
 003878 D204 D4DA D4B1 0425A 04231  8276          MVC   PREDOUT,=C'FALSE'                                        25870007
 00387E D207 D4BE D448 0423E 041C8  8277          MVC   TESTNBR,=C'TEST230W'                                     25880007
                                    8278 *                                                                       25890007
                                    8279 TEST130W IF    (CLI,VARBL1,C'A',E),AND,                                C25900007
                                                        ((LTR,R15,R15,Z),OR,(TM,VARBL3,X'01',Z),AND,            C25910007
                                                        ((SP,PACK1,=P'1',Z),OR,(CLI,TSWITCH,X'10',E)))           25920009
 003884 95C1 D542      042C2        8281+TEST130W CLI   VARBL1,C'A'         TWO OPERANDS                         01-IF
 003888 A774 0017            038B6  8284+         JNE   $MDF600             FALSE RESULT - POSSIBLE FAIL         01-IF
 00388C 12FF                        8289+         LTR   R15,R15             TWO OPERANDS                         02-IF2
 00388E A784 000F            038AC  8292+         JZ    $MDT601             TRUE RESULT - POSSIBLE PASS          02-IF2
 003892 9101 D544      042C4        8294+         TM    VARBL3,X'01'        TWO OPERANDS                         02-IF2
 003896 A774 0010            038B6  8297+         JNZ   $MDF602             FALSE RESULT - POSSIBLE FAIL         02-IF2
 00389A FB30 D4B9 D4B7 04239 04237  8302+         SP    PACK1,=P'1'         TWO OPERANDS                         03-IF2
 0038A0 A784 0006            038AC  8305+         JZ    $MDT603             TRUE RESULT - POSSIBLE PASS          03-IF2
 0038A4 9510 D546      042C6        8307+         CLI   TSWITCH,X'10'       TWO OPERANDS                         03-IF2
                       038AC        8311+$MDT603  EQU   $MDT601             ANCHOR NESTED TRUE NAME              02-IF2
                       038B6        8314+$MDF602  EQU   $MDF600             ANCHOR NESTED FALSE NAME             01-IF
 0038A8 A774 0007            038B6  8317+         JNE   $MDF600             BRANCH IF CC INDICATES FAIL          01-IF
 0038AC                             8318+$MDT601  DC    0H'0'               END RESULT WAS PASS - DO THE EXECUTE 01-IF
 0038AC D204 D4F1 D4AC 04271 0422C  8319            MVC   ACTOUT,=C'TRUE '                                       25930007
                                    8320          ELSE                                                           25940007
 0038B2 A7F4 0005            038BC  8322+         J     $FINI604                                                 01-ELSE
 0038B6                             8323+$MDF600  DC    0H'0'                                                    01-ELSE
 0038B6 D204 D4F1 D4B1 04271 04231  8324            MVC   ACTOUT,=C'FALSE'                                       25950007
                                    8325          ENDIF                                                          25960007
 0038BC                             8327+$FINI604 DC    0H'0'                                                    01-ENDIF
                                    8328          IF    (CLC,PREDOUT,ACTOUT,NE)                                  25970007
 0038BC D504 D4DA D4F1 0425A 04271  8330+         CLC   PREDOUT,ACTOUT      TWO OPERANDS                         01-IF
 0038C2 A784 0005            038CC  8334+         JE    $NEXT605            BRANCH IF CC INDICATES FAIL          01-IF
 0038C6 D209 D4F7 D498 04277 04218  8335            MVC   ERROR,=C'<=== ERROR'                                   25980007
                                    8336          ENDIF                                                          25990007
 0038CC                             8338+$NEXT605 DC    0H'0'                                                    01-ENDIF
                                    8339          PUT   SYSPRINT,OUTPUT                                          26000007
 0038CC 4110 D548            042C8  8343+         LA    1,SYSPRINT                        LOAD PARAMETER REG 1   02-IHBIN
 0038D0 4100 D4BD            0423D  8344+         LA    0,OUTPUT                          LOAD PARAMETER REG 0   02-IHBIN
 0038D4 1FFF                        8345+         SLR   15,15               CLEAR REGISTER FOR ICM          @L1A 01-PUT
 0038D6 BFF7 1031            00031  8346+         ICM   15,7,49(1)          LOAD PUT ROUTINE ADDRESS        @L1C 01-PUT
 0038DA 0DEF                        8347+         BASR  14,15               LINK TO PUT ROUTINE             @L3C 01-PUT
 0038DC D209 D4F7 D4A2 04277 04222  8348          MVC   ERROR,=CL10' '                                           26010007
                                    8349 *=*=*=*=*=*=*=*=*=*=*=*=*=*=*=*=*=*=*=*=*=*=*=*=*=*=*=*=*=*=*=*=*=*=*=* 26020007
1IFTEST   EXAMPLES OF "IF" LOGIC MACRO INSTRUCTIONS                                                             Page   97
   Active Usings: IFTEST+X'33E2',R12  $$WA$$,R13
0  Loc  Object Code    Addr1 Addr2  Stmt   Source Statement                                  HLASM R6.0  2021/03/26 12.00
00038E2 92E9 D542      042C2        8350          MVI   VARBL1,C'Z'         SET TO FAIL                          26030007
 0038E6 41F0 0001            00001  8351          LA    R15,1               SET TO FAIL                          26040007
 0038EA 9201 D544      042C4        8352          MVI   VARBL3,X'01'        SET TO FAIL                          26050007
 0038EE F230 D4B9 D4B6 04239 04236  8353          PACK  PACK1,=Z'1'         SET TO PASS                          26060007
 0038F4 9200 D546      042C6        8354          MVI   TSWITCH,X'00'       SET TO FAIL                          26070007
 0038F8 D204 D4DA D4B1 0425A 04231  8355          MVC   PREDOUT,=C'FALSE'                                        26080007
 0038FE D207 D4BE D450 0423E 041D0  8356          MVC   TESTNBR,=C'TEST130X'                                     26090007
                                    8357 *                                                                       26100007
                                    8358 TEST130X IF    (CLI,VARBL1,C'A',E),AND,                                C26110007
                                                        ((LTR,R15,R15,Z),OR,(TM,VARBL3,X'01',Z),AND,            C26120007
                                                        ((SP,PACK1,=P'1',Z),OR,(CLI,TSWITCH,X'10',E)))           26130009
 003904 95C1 D542      042C2        8360+TEST130X CLI   VARBL1,C'A'         TWO OPERANDS                         01-IF
 003908 A774 0017            03936  8363+         JNE   $MDF606             FALSE RESULT - POSSIBLE FAIL         01-IF
 00390C 12FF                        8368+         LTR   R15,R15             TWO OPERANDS                         02-IF2
 00390E A784 000F            0392C  8371+         JZ    $MDT607             TRUE RESULT - POSSIBLE PASS          02-IF2
 003912 9101 D544      042C4        8373+         TM    VARBL3,X'01'        TWO OPERANDS                         02-IF2
 003916 A774 0010            03936  8376+         JNZ   $MDF608             FALSE RESULT - POSSIBLE FAIL         02-IF2
 00391A FB30 D4B9 D4B7 04239 04237  8381+         SP    PACK1,=P'1'         TWO OPERANDS                         03-IF2
 003920 A784 0006            0392C  8384+         JZ    $MDT609             TRUE RESULT - POSSIBLE PASS          03-IF2
 003924 9510 D546      042C6        8386+         CLI   TSWITCH,X'10'       TWO OPERANDS                         03-IF2
                       0392C        8390+$MDT609  EQU   $MDT607             ANCHOR NESTED TRUE NAME              02-IF2
                       03936        8393+$MDF608  EQU   $MDF606             ANCHOR NESTED FALSE NAME             01-IF
 003928 A774 0007            03936  8396+         JNE   $MDF606             BRANCH IF CC INDICATES FAIL          01-IF
 00392C                             8397+$MDT607  DC    0H'0'               END RESULT WAS PASS - DO THE EXECUTE 01-IF
 00392C D204 D4F1 D4AC 04271 0422C  8398            MVC   ACTOUT,=C'TRUE '                                       26140007
                                    8399          ELSE                                                           26150007
 003932 A7F4 0005            0393C  8401+         J     $FINI610                                                 01-ELSE
 003936                             8402+$MDF606  DC    0H'0'                                                    01-ELSE
 003936 D204 D4F1 D4B1 04271 04231  8403            MVC   ACTOUT,=C'FALSE'                                       26160007
                                    8404          ENDIF                                                          26170007
 00393C                             8406+$FINI610 DC    0H'0'                                                    01-ENDIF
                                    8407          IF    (CLC,PREDOUT,ACTOUT,NE)                                  26180007
 00393C D504 D4DA D4F1 0425A 04271  8409+         CLC   PREDOUT,ACTOUT      TWO OPERANDS                         01-IF
 003942 A784 0005            0394C  8413+         JE    $NEXT611            BRANCH IF CC INDICATES FAIL          01-IF
 003946 D209 D4F7 D498 04277 04218  8414            MVC   ERROR,=C'<=== ERROR'                                   26190007
                                    8415          ENDIF                                                          26200007
 00394C                             8417+$NEXT611 DC    0H'0'                                                    01-ENDIF
                                    8418          PUT   SYSPRINT,OUTPUT                                          26210007
 00394C 4110 D548            042C8  8422+         LA    1,SYSPRINT                        LOAD PARAMETER REG 1   02-IHBIN
 003950 4100 D4BD            0423D  8423+         LA    0,OUTPUT                          LOAD PARAMETER REG 0   02-IHBIN
 003954 1FFF                        8424+         SLR   15,15               CLEAR REGISTER FOR ICM          @L1A 01-PUT
 003956 BFF7 1031            00031  8425+         ICM   15,7,49(1)          LOAD PUT ROUTINE ADDRESS        @L1C 01-PUT
 00395A 0DEF                        8426+         BASR  14,15               LINK TO PUT ROUTINE             @L3C 01-PUT
 00395C D209 D4F7 D4A2 04277 04222  8427          MVC   ERROR,=CL10' '                                           26220007
                                    8428 *=*=*=*=*=*=*=*=*=*=*=*=*=*=*=*=*=*=*=*=*=*=*=*=*=*=*=*=*=*=*=*=*=*=*=* 26230007
 003962 92C1 D542      042C2        8429          MVI   VARBL1,C'A'         SET TO PASS                          26240007
 003966 41F0 0000            00000  8430          LA    R15,0               SET TO PASS                          26250007
 00396A 9200 D544      042C4        8431          MVI   VARBL3,X'00'        SET TO PASS                          26260007
 00396E F230 D4B9 D4B8 04239 04238  8432          PACK  PACK1,=Z'2'         SET TO FAIL                          26270007
 003974 9200 D546      042C6        8433          MVI   TSWITCH,X'00'       SET TO FAIL                          26280007
 003978 D204 D4DA D4AC 0425A 0422C  8434          MVC   PREDOUT,=C'TRUE '                                        26290007
 00397E D207 D4BE D458 0423E 041D8  8435          MVC   TESTNBR,=C'TEST130Y'                                     26300007
                                    8436 *                                                                       26310007
                                    8437 TEST130Y IF    (CLI,VARBL1,C'A',E),AND,                                C26320007
                                                        ((LTR,R15,R15,Z),OR,(TM,VARBL3,X'01',Z),AND,            C26330007
1IFTEST   EXAMPLES OF "IF" LOGIC MACRO INSTRUCTIONS                                                             Page   98
   Active Usings: IFTEST+X'33E2',R12  $$WA$$,R13
0  Loc  Object Code    Addr1 Addr2  Stmt   Source Statement                                  HLASM R6.0  2021/03/26 12.00
0                                                       ((SP,PACK1,=P'1',Z),OR,(CLI,TSWITCH,X'10',E)))           26340009
 003984 95C1 D542      042C2        8439+TEST130Y CLI   VARBL1,C'A'         TWO OPERANDS                         01-IF
 003988 A774 0017            039B6  8442+         JNE   $MDF612             FALSE RESULT - POSSIBLE FAIL         01-IF
 00398C 12FF                        8447+         LTR   R15,R15             TWO OPERANDS                         02-IF2
 00398E A784 000F            039AC  8450+         JZ    $MDT613             TRUE RESULT - POSSIBLE PASS          02-IF2
 003992 9101 D544      042C4        8452+         TM    VARBL3,X'01'        TWO OPERANDS                         02-IF2
 003996 A774 0010            039B6  8455+         JNZ   $MDF614             FALSE RESULT - POSSIBLE FAIL         02-IF2
 00399A FB30 D4B9 D4B7 04239 04237  8460+         SP    PACK1,=P'1'         TWO OPERANDS                         03-IF2
 0039A0 A784 0006            039AC  8463+         JZ    $MDT615             TRUE RESULT - POSSIBLE PASS          03-IF2
 0039A4 9510 D546      042C6        8465+         CLI   TSWITCH,X'10'       TWO OPERANDS                         03-IF2
                       039AC        8469+$MDT615  EQU   $MDT613             ANCHOR NESTED TRUE NAME              02-IF2
                       039B6        8472+$MDF614  EQU   $MDF612             ANCHOR NESTED FALSE NAME             01-IF
 0039A8 A774 0007            039B6  8475+         JNE   $MDF612             BRANCH IF CC INDICATES FAIL          01-IF
 0039AC                             8476+$MDT613  DC    0H'0'               END RESULT WAS PASS - DO THE EXECUTE 01-IF
 0039AC D204 D4F1 D4AC 04271 0422C  8477            MVC   ACTOUT,=C'TRUE '                                       26350007
                                    8478          ELSE                                                           26360007
 0039B2 A7F4 0005            039BC  8480+         J     $FINI616                                                 01-ELSE
 0039B6                             8481+$MDF612  DC    0H'0'                                                    01-ELSE
 0039B6 D204 D4F1 D4B1 04271 04231  8482            MVC   ACTOUT,=C'FALSE'                                       26370007
                                    8483          ENDIF                                                          26380007
 0039BC                             8485+$FINI616 DC    0H'0'                                                    01-ENDIF
                                    8486          IF    (CLC,PREDOUT,ACTOUT,NE)                                  26390007
 0039BC D504 D4DA D4F1 0425A 04271  8488+         CLC   PREDOUT,ACTOUT      TWO OPERANDS                         01-IF
 0039C2 A784 0005            039CC  8492+         JE    $NEXT617            BRANCH IF CC INDICATES FAIL          01-IF
 0039C6 D209 D4F7 D498 04277 04218  8493            MVC   ERROR,=C'<=== ERROR'                                   26400007
                                    8494          ENDIF                                                          26410007
 0039CC                             8496+$NEXT617 DC    0H'0'                                                    01-ENDIF
                                    8497          PUT   SYSPRINT,OUTPUT                                          26420007
 0039CC 4110 D548            042C8  8501+         LA    1,SYSPRINT                        LOAD PARAMETER REG 1   02-IHBIN
 0039D0 4100 D4BD            0423D  8502+         LA    0,OUTPUT                          LOAD PARAMETER REG 0   02-IHBIN
 0039D4 1FFF                        8503+         SLR   15,15               CLEAR REGISTER FOR ICM          @L1A 01-PUT
 0039D6 BFF7 1031            00031  8504+         ICM   15,7,49(1)          LOAD PUT ROUTINE ADDRESS        @L1C 01-PUT
 0039DA 0DEF                        8505+         BASR  14,15               LINK TO PUT ROUTINE             @L3C 01-PUT
 0039DC D209 D4F7 D4A2 04277 04222  8506          MVC   ERROR,=CL10' '                                           26430007
                                    8507 *=*=*=*=*=*=*=*=*=*=*=*=*=*=*=*=*=*=*=*=*=*=*=*=*=*=*=*=*=*=*=*=*=*=*=* 26440007
 0039E2 92E9 D542      042C2        8508          MVI   VARBL1,C'Z'         SET TO FAIL                          26450007
 0039E6 41F0 0000            00000  8509          LA    R15,0               SET TO PASS                          26460007
 0039EA 9200 D544      042C4        8510          MVI   VARBL3,X'00'        SET TO PASS                          26470007
 0039EE F230 D4B9 D4B8 04239 04238  8511          PACK  PACK1,=Z'2'         SET TO FAIL                          26480007
 0039F4 9200 D546      042C6        8512          MVI   TSWITCH,X'00'       SET TO FAIL                          26490007
 0039F8 D204 D4DA D4B1 0425A 04231  8513          MVC   PREDOUT,=C'FALSE'                                        26500007
 0039FE D207 D4BE D460 0423E 041E0  8514          MVC   TESTNBR,=C'TEST130Z'                                     26510007
                                    8515 *                                                                       26520007
                                    8516 TEST130Z IF    (CLI,VARBL1,C'A',E),AND,                                C26530007
                                                        ((LTR,R15,R15,Z),OR,(TM,VARBL3,X'01',Z),AND,            C26540007
                                                        ((SP,PACK1,=P'1',Z),OR,(CLI,TSWITCH,X'10',E)))           26550009
 003A04 95C1 D542      042C2        8518+TEST130Z CLI   VARBL1,C'A'         TWO OPERANDS                         01-IF
 003A08 A774 0017            03A36  8521+         JNE   $MDF618             FALSE RESULT - POSSIBLE FAIL         01-IF
 003A0C 12FF                        8526+         LTR   R15,R15             TWO OPERANDS                         02-IF2
 003A0E A784 000F            03A2C  8529+         JZ    $MDT619             TRUE RESULT - POSSIBLE PASS          02-IF2
 003A12 9101 D544      042C4        8531+         TM    VARBL3,X'01'        TWO OPERANDS                         02-IF2
 003A16 A774 0010            03A36  8534+         JNZ   $MDF620             FALSE RESULT - POSSIBLE FAIL         02-IF2
 003A1A FB30 D4B9 D4B7 04239 04237  8539+         SP    PACK1,=P'1'         TWO OPERANDS                         03-IF2
 003A20 A784 0006            03A2C  8542+         JZ    $MDT621             TRUE RESULT - POSSIBLE PASS          03-IF2
 003A24 9510 D546      042C6        8544+         CLI   TSWITCH,X'10'       TWO OPERANDS                         03-IF2
1IFTEST   EXAMPLES OF "IF" LOGIC MACRO INSTRUCTIONS                                                             Page   99
   Active Usings: IFTEST+X'33E2',R12  $$WA$$,R13
0  Loc  Object Code    Addr1 Addr2  Stmt   Source Statement                                  HLASM R6.0  2021/03/26 12.00
0                      03A2C        8548+$MDT621  EQU   $MDT619             ANCHOR NESTED TRUE NAME              02-IF2
                       03A36        8551+$MDF620  EQU   $MDF618             ANCHOR NESTED FALSE NAME             01-IF
 003A28 A774 0007            03A36  8554+         JNE   $MDF618             BRANCH IF CC INDICATES FAIL          01-IF
 003A2C                             8555+$MDT619  DC    0H'0'               END RESULT WAS PASS - DO THE EXECUTE 01-IF
 003A2C D204 D4F1 D4AC 04271 0422C  8556            MVC   ACTOUT,=C'TRUE '                                       26560007
                                    8557          ELSE                                                           26570007
 003A32 A7F4 0005            03A3C  8559+         J     $FINI622                                                 01-ELSE
 003A36                             8560+$MDF618  DC    0H'0'                                                    01-ELSE
 003A36 D204 D4F1 D4B1 04271 04231  8561            MVC   ACTOUT,=C'FALSE'                                       26580007
                                    8562          ENDIF                                                          26590007
 003A3C                             8564+$FINI622 DC    0H'0'                                                    01-ENDIF
                                    8565          IF    (CLC,PREDOUT,ACTOUT,NE)                                  26600007
 003A3C D504 D4DA D4F1 0425A 04271  8567+         CLC   PREDOUT,ACTOUT      TWO OPERANDS                         01-IF
 003A42 A784 0005            03A4C  8571+         JE    $NEXT623            BRANCH IF CC INDICATES FAIL          01-IF
 003A46 D209 D4F7 D498 04277 04218  8572            MVC   ERROR,=C'<=== ERROR'                                   26610007
                                    8573          ENDIF                                                          26620007
 003A4C                             8575+$NEXT623 DC    0H'0'                                                    01-ENDIF
                                    8576          PUT   SYSPRINT,OUTPUT                                          26630007
 003A4C 4110 D548            042C8  8580+         LA    1,SYSPRINT                        LOAD PARAMETER REG 1   02-IHBIN
 003A50 4100 D4BD            0423D  8581+         LA    0,OUTPUT                          LOAD PARAMETER REG 0   02-IHBIN
 003A54 1FFF                        8582+         SLR   15,15               CLEAR REGISTER FOR ICM          @L1A 01-PUT
 003A56 BFF7 1031            00031  8583+         ICM   15,7,49(1)          LOAD PUT ROUTINE ADDRESS        @L1C 01-PUT
 003A5A 0DEF                        8584+         BASR  14,15               LINK TO PUT ROUTINE             @L3C 01-PUT
 003A5C D209 D4F7 D4A2 04277 04222  8585          MVC   ERROR,=CL10' '                                           26640007
                                    8586 *=*=*=*=*=*=*=*=*=*=*=*=*=*=*=*=*=*=*=*=*=*=*=*=*=*=*=*=*=*=*=*=*=*=*=* 26650007
 003A62 92C1 D542      042C2        8587          MVI   VARBL1,C'A'         SET TO PASS                          26660007
 003A66 41F0 0001            00001  8588          LA    R15,1               SET TO FAIL                          26670007
 003A6A 9200 D544      042C4        8589          MVI   VARBL3,X'00'        SET TO PASS                          26680007
 003A6E F230 D4B9 D4B8 04239 04238  8590          PACK  PACK1,=Z'2'         SET TO FAIL                          26690007
 003A74 9200 D546      042C6        8591          MVI   TSWITCH,X'00'       SET TO FAIL                          26700007
 003A78 D204 D4DA D4B1 0425A 04231  8592          MVC   PREDOUT,=C'FALSE'                                        26710007
 003A7E D207 D4BE D468 0423E 041E8  8593          MVC   TESTNBR,=C'TEST1300'                                     26720007
                                    8594 *                                                                       26730007
                                    8595 TEST1300 IF    (CLI,VARBL1,C'A',E),AND,                                C26740007
                                                        ((LTR,R15,R15,Z),OR,(TM,VARBL3,X'01',Z),AND,            C26750007
                                                        ((SP,PACK1,=P'1',Z),OR,(CLI,TSWITCH,X'10',E)))           26760009
 003A84 95C1 D542      042C2        8597+TEST1300 CLI   VARBL1,C'A'         TWO OPERANDS                         01-IF
 003A88 A774 0017            03AB6  8600+         JNE   $MDF624             FALSE RESULT - POSSIBLE FAIL         01-IF
 003A8C 12FF                        8605+         LTR   R15,R15             TWO OPERANDS                         02-IF2
 003A8E A784 000F            03AAC  8608+         JZ    $MDT625             TRUE RESULT - POSSIBLE PASS          02-IF2
 003A92 9101 D544      042C4        8610+         TM    VARBL3,X'01'        TWO OPERANDS                         02-IF2
 003A96 A774 0010            03AB6  8613+         JNZ   $MDF626             FALSE RESULT - POSSIBLE FAIL         02-IF2
 003A9A FB30 D4B9 D4B7 04239 04237  8618+         SP    PACK1,=P'1'         TWO OPERANDS                         03-IF2
 003AA0 A784 0006            03AAC  8621+         JZ    $MDT627             TRUE RESULT - POSSIBLE PASS          03-IF2
 003AA4 9510 D546      042C6        8623+         CLI   TSWITCH,X'10'       TWO OPERANDS                         03-IF2
                       03AAC        8627+$MDT627  EQU   $MDT625             ANCHOR NESTED TRUE NAME              02-IF2
                       03AB6        8630+$MDF626  EQU   $MDF624             ANCHOR NESTED FALSE NAME             01-IF
 003AA8 A774 0007            03AB6  8633+         JNE   $MDF624             BRANCH IF CC INDICATES FAIL          01-IF
 003AAC                             8634+$MDT625  DC    0H'0'               END RESULT WAS PASS - DO THE EXECUTE 01-IF
 003AAC D204 D4F1 D4AC 04271 0422C  8635            MVC   ACTOUT,=C'TRUE '                                       26770007
                                    8636          ELSE                                                           26780007
 003AB2 A7F4 0005            03ABC  8638+         J     $FINI628                                                 01-ELSE
 003AB6                             8639+$MDF624  DC    0H'0'                                                    01-ELSE
 003AB6 D204 D4F1 D4B1 04271 04231  8640            MVC   ACTOUT,=C'FALSE'                                       26790007
                                    8641          ENDIF                                                          26800007
1IFTEST   EXAMPLES OF "IF" LOGIC MACRO INSTRUCTIONS                                                             Page  100
   Active Usings: IFTEST+X'33E2',R12  $$WA$$,R13
0  Loc  Object Code    Addr1 Addr2  Stmt   Source Statement                                  HLASM R6.0  2021/03/26 12.00
0003ABC                             8643+$FINI628 DC    0H'0'                                                    01-ENDIF
                                    8644          IF    (CLC,PREDOUT,ACTOUT,NE)                                  26810007
 003ABC D504 D4DA D4F1 0425A 04271  8646+         CLC   PREDOUT,ACTOUT      TWO OPERANDS                         01-IF
 003AC2 A784 0005            03ACC  8650+         JE    $NEXT629            BRANCH IF CC INDICATES FAIL          01-IF
 003AC6 D209 D4F7 D498 04277 04218  8651            MVC   ERROR,=C'<=== ERROR'                                   26820007
                                    8652          ENDIF                                                          26830007
 003ACC                             8654+$NEXT629 DC    0H'0'                                                    01-ENDIF
                                    8655          PUT   SYSPRINT,OUTPUT                                          26840007
 003ACC 4110 D548            042C8  8659+         LA    1,SYSPRINT                        LOAD PARAMETER REG 1   02-IHBIN
 003AD0 4100 D4BD            0423D  8660+         LA    0,OUTPUT                          LOAD PARAMETER REG 0   02-IHBIN
 003AD4 1FFF                        8661+         SLR   15,15               CLEAR REGISTER FOR ICM          @L1A 01-PUT
 003AD6 BFF7 1031            00031  8662+         ICM   15,7,49(1)          LOAD PUT ROUTINE ADDRESS        @L1C 01-PUT
 003ADA 0DEF                        8663+         BASR  14,15               LINK TO PUT ROUTINE             @L3C 01-PUT
 003ADC D209 D4F7 D4A2 04277 04222  8664          MVC   ERROR,=CL10' '                                           26850007
                                    8665 *=*=*=*=*=*=*=*=*=*=*=*=*=*=*=*=*=*=*=*=*=*=*=*=*=*=*=*=*=*=*=*=*=*=*=* 26860007
 003AE2 92E9 D542      042C2        8666          MVI   VARBL1,C'Z'         SET TO FAIL                          26870007
 003AE6 41F0 0001            00001  8667          LA    R15,1               SET TO FAIL                          26880007
 003AEA 9200 D544      042C4        8668          MVI   VARBL3,X'00'        SET TO PASS                          26890007
 003AEE F230 D4B9 D4B8 04239 04238  8669          PACK  PACK1,=Z'2'         SET TO FAIL                          26900007
 003AF4 9200 D546      042C6        8670          MVI   TSWITCH,X'00'       SET TO FAIL                          26910007
 003AF8 D204 D4DA D4B1 0425A 04231  8671          MVC   PREDOUT,=C'FALSE'                                        26920007
 003AFE D207 D4BE D470 0423E 041F0  8672          MVC   TESTNBR,=C'TEST1301'                                     26930007
                                    8673 *                                                                       26940007
                                    8674 TEST1301 IF    (CLI,VARBL1,C'A',E),AND,                                C26950007
                                                        ((LTR,R15,R15,Z),OR,(TM,VARBL3,X'01',Z),AND,            C26960007
                                                        ((SP,PACK1,=P'1',Z),OR,(CLI,TSWITCH,X'10',E)))           26970009
 003B04 95C1 D542      042C2        8676+TEST1301 CLI   VARBL1,C'A'         TWO OPERANDS                         01-IF
 003B08 A774 0017            03B36  8679+         JNE   $MDF630             FALSE RESULT - POSSIBLE FAIL         01-IF
 003B0C 12FF                        8684+         LTR   R15,R15             TWO OPERANDS                         02-IF2
 003B0E A784 000F            03B2C  8687+         JZ    $MDT631             TRUE RESULT - POSSIBLE PASS          02-IF2
 003B12 9101 D544      042C4        8689+         TM    VARBL3,X'01'        TWO OPERANDS                         02-IF2
 003B16 A774 0010            03B36  8692+         JNZ   $MDF632             FALSE RESULT - POSSIBLE FAIL         02-IF2
 003B1A FB30 D4B9 D4B7 04239 04237  8697+         SP    PACK1,=P'1'         TWO OPERANDS                         03-IF2
 003B20 A784 0006            03B2C  8700+         JZ    $MDT633             TRUE RESULT - POSSIBLE PASS          03-IF2
 003B24 9510 D546      042C6        8702+         CLI   TSWITCH,X'10'       TWO OPERANDS                         03-IF2
                       03B2C        8706+$MDT633  EQU   $MDT631             ANCHOR NESTED TRUE NAME              02-IF2
                       03B36        8709+$MDF632  EQU   $MDF630             ANCHOR NESTED FALSE NAME             01-IF
 003B28 A774 0007            03B36  8712+         JNE   $MDF630             BRANCH IF CC INDICATES FAIL          01-IF
 003B2C                             8713+$MDT631  DC    0H'0'               END RESULT WAS PASS - DO THE EXECUTE 01-IF
 003B2C D204 D4F1 D4AC 04271 0422C  8714            MVC   ACTOUT,=C'TRUE '                                       26980007
                                    8715          ELSE                                                           26990007
 003B32 A7F4 0005            03B3C  8717+         J     $FINI634                                                 01-ELSE
 003B36                             8718+$MDF630  DC    0H'0'                                                    01-ELSE
 003B36 D204 D4F1 D4B1 04271 04231  8719            MVC   ACTOUT,=C'FALSE'                                       27000007
                                    8720          ENDIF                                                          27010007
 003B3C                             8722+$FINI634 DC    0H'0'                                                    01-ENDIF
                                    8723          IF    (CLC,PREDOUT,ACTOUT,NE)                                  27020007
 003B3C D504 D4DA D4F1 0425A 04271  8725+         CLC   PREDOUT,ACTOUT      TWO OPERANDS                         01-IF
 003B42 A784 0005            03B4C  8729+         JE    $NEXT635            BRANCH IF CC INDICATES FAIL          01-IF
 003B46 D209 D4F7 D498 04277 04218  8730            MVC   ERROR,=C'<=== ERROR'                                   27030007
                                    8731          ENDIF                                                          27040007
 003B4C                             8733+$NEXT635 DC    0H'0'                                                    01-ENDIF
                                    8734          PUT   SYSPRINT,OUTPUT                                          27050007
 003B4C 4110 D548            042C8  8738+         LA    1,SYSPRINT                        LOAD PARAMETER REG 1   02-IHBIN
 003B50 4100 D4BD            0423D  8739+         LA    0,OUTPUT                          LOAD PARAMETER REG 0   02-IHBIN
1IFTEST   EXAMPLES OF "IF" LOGIC MACRO INSTRUCTIONS                                                             Page  101
   Active Usings: IFTEST+X'33E2',R12  $$WA$$,R13
0  Loc  Object Code    Addr1 Addr2  Stmt   Source Statement                                  HLASM R6.0  2021/03/26 12.00
0003B54 1FFF                        8740+         SLR   15,15               CLEAR REGISTER FOR ICM          @L1A 01-PUT
 003B56 BFF7 1031            00031  8741+         ICM   15,7,49(1)          LOAD PUT ROUTINE ADDRESS        @L1C 01-PUT
 003B5A 0DEF                        8742+         BASR  14,15               LINK TO PUT ROUTINE             @L3C 01-PUT
 003B5C D209 D4F7 D4A2 04277 04222  8743          MVC   ERROR,=CL10' '                                           27060007
                                    8744 *=*=*=*=*=*=*=*=*=*=*=*=*=*=*=*=*=*=*=*=*=*=*=*=*=*=*=*=*=*=*=*=*=*=*=* 27070007
 003B62 92C1 D542      042C2        8745          MVI   VARBL1,C'A'         SET TO PASS                          27080007
 003B66 41F0 0000            00000  8746          LA    R15,0               SET TO PASS                          27090007
 003B6A 9201 D544      042C4        8747          MVI   VARBL3,X'01'        SET TO FAIL                          27100007
 003B6E F230 D4B9 D4B8 04239 04238  8748          PACK  PACK1,=Z'2'         SET TO FAIL                          27110007
 003B74 9200 D546      042C6        8749          MVI   TSWITCH,X'00'       SET TO FAIL                          27120007
 003B78 D204 D4DA D4AC 0425A 0422C  8750          MVC   PREDOUT,=C'TRUE '                                        27130007
 003B7E D207 D4BE D478 0423E 041F8  8751          MVC   TESTNBR,=C'TEST1302'                                     27140007
                                    8752 *                                                                       27150007
                                    8753 TEST1302 IF    (CLI,VARBL1,C'A',E),AND,                                C27160007
                                                        ((LTR,R15,R15,Z),OR,(TM,VARBL3,X'01',Z),AND,            C27170007
                                                        ((SP,PACK1,=P'1',Z),OR,(CLI,TSWITCH,X'10',E)))           27180009
 003B84 95C1 D542      042C2        8755+TEST1302 CLI   VARBL1,C'A'         TWO OPERANDS                         01-IF
 003B88 A774 0017            03BB6  8758+         JNE   $MDF636             FALSE RESULT - POSSIBLE FAIL         01-IF
 003B8C 12FF                        8763+         LTR   R15,R15             TWO OPERANDS                         02-IF2
 003B8E A784 000F            03BAC  8766+         JZ    $MDT637             TRUE RESULT - POSSIBLE PASS          02-IF2
 003B92 9101 D544      042C4        8768+         TM    VARBL3,X'01'        TWO OPERANDS                         02-IF2
 003B96 A774 0010            03BB6  8771+         JNZ   $MDF638             FALSE RESULT - POSSIBLE FAIL         02-IF2
 003B9A FB30 D4B9 D4B7 04239 04237  8776+         SP    PACK1,=P'1'         TWO OPERANDS                         03-IF2
 003BA0 A784 0006            03BAC  8779+         JZ    $MDT639             TRUE RESULT - POSSIBLE PASS          03-IF2
 003BA4 9510 D546      042C6        8781+         CLI   TSWITCH,X'10'       TWO OPERANDS                         03-IF2
                       03BAC        8785+$MDT639  EQU   $MDT637             ANCHOR NESTED TRUE NAME              02-IF2
                       03BB6        8788+$MDF638  EQU   $MDF636             ANCHOR NESTED FALSE NAME             01-IF
 003BA8 A774 0007            03BB6  8791+         JNE   $MDF636             BRANCH IF CC INDICATES FAIL          01-IF
 003BAC                             8792+$MDT637  DC    0H'0'               END RESULT WAS PASS - DO THE EXECUTE 01-IF
 003BAC D204 D4F1 D4AC 04271 0422C  8793            MVC   ACTOUT,=C'TRUE '                                       27190007
                                    8794          ELSE                                                           27200007
 003BB2 A7F4 0005            03BBC  8796+         J     $FINI640                                                 01-ELSE
 003BB6                             8797+$MDF636  DC    0H'0'                                                    01-ELSE
 003BB6 D204 D4F1 D4B1 04271 04231  8798            MVC   ACTOUT,=C'FALSE'                                       27210007
                                    8799          ENDIF                                                          27220007
 003BBC                             8801+$FINI640 DC    0H'0'                                                    01-ENDIF
                                    8802          IF    (CLC,PREDOUT,ACTOUT,NE)                                  27230007
 003BBC D504 D4DA D4F1 0425A 04271  8804+         CLC   PREDOUT,ACTOUT      TWO OPERANDS                         01-IF
 003BC2 A784 0005            03BCC  8808+         JE    $NEXT641            BRANCH IF CC INDICATES FAIL          01-IF
 003BC6 D209 D4F7 D498 04277 04218  8809            MVC   ERROR,=C'<=== ERROR'                                   27240007
                                    8810          ENDIF                                                          27250007
 003BCC                             8812+$NEXT641 DC    0H'0'                                                    01-ENDIF
                                    8813          PUT   SYSPRINT,OUTPUT                                          27260007
 003BCC 4110 D548            042C8  8817+         LA    1,SYSPRINT                        LOAD PARAMETER REG 1   02-IHBIN
 003BD0 4100 D4BD            0423D  8818+         LA    0,OUTPUT                          LOAD PARAMETER REG 0   02-IHBIN
 003BD4 1FFF                        8819+         SLR   15,15               CLEAR REGISTER FOR ICM          @L1A 01-PUT
 003BD6 BFF7 1031            00031  8820+         ICM   15,7,49(1)          LOAD PUT ROUTINE ADDRESS        @L1C 01-PUT
 003BDA 0DEF                        8821+         BASR  14,15               LINK TO PUT ROUTINE             @L3C 01-PUT
 003BDC D209 D4F7 D4A2 04277 04222  8822          MVC   ERROR,=CL10' '                                           27270007
                                    8823 *=*=*=*=*=*=*=*=*=*=*=*=*=*=*=*=*=*=*=*=*=*=*=*=*=*=*=*=*=*=*=*=*=*=*=* 27280007
 003BE2 92E9 D542      042C2        8824          MVI   VARBL1,C'Z'         SET TO FAIL                          27290007
 003BE6 41F0 0000            00000  8825          LA    R15,0               SET TO PASS                          27300007
 003BEA 9201 D544      042C4        8826          MVI   VARBL3,X'01'        SET TO FAIL                          27310007
 003BEE F230 D4B9 D4B8 04239 04238  8827          PACK  PACK1,=Z'2'         SET TO FAIL                          27320007
 003BF4 9200 D546      042C6        8828          MVI   TSWITCH,X'00'       SET TO FAIL                          27330007
1IFTEST   EXAMPLES OF "IF" LOGIC MACRO INSTRUCTIONS                                                             Page  102
   Active Usings: IFTEST+X'33E2',R12  $$WA$$,R13
0  Loc  Object Code    Addr1 Addr2  Stmt   Source Statement                                  HLASM R6.0  2021/03/26 12.00
0003BF8 D204 D4DA D4B1 0425A 04231  8829          MVC   PREDOUT,=C'FALSE'                                        27340007
 003BFE D207 D4BE D480 0423E 04200  8830          MVC   TESTNBR,=C'TEST1303'                                     27350007
                                    8831 *                                                                       27360007
                                    8832 TEST1303 IF    (CLI,VARBL1,C'A',E),AND,                                C27370007
                                                        ((LTR,R15,R15,Z),OR,(TM,VARBL3,X'01',Z),AND,            C27380007
                                                        ((SP,PACK1,=P'1',Z),OR,(CLI,TSWITCH,X'10',E)))           27390009
 003C04 95C1 D542      042C2        8834+TEST1303 CLI   VARBL1,C'A'         TWO OPERANDS                         01-IF
 003C08 A774 0017            03C36  8837+         JNE   $MDF642             FALSE RESULT - POSSIBLE FAIL         01-IF
 003C0C 12FF                        8842+         LTR   R15,R15             TWO OPERANDS                         02-IF2
 003C0E A784 000F            03C2C  8845+         JZ    $MDT643             TRUE RESULT - POSSIBLE PASS          02-IF2
 003C12 9101 D544      042C4        8847+         TM    VARBL3,X'01'        TWO OPERANDS                         02-IF2
 003C16 A774 0010            03C36  8850+         JNZ   $MDF644             FALSE RESULT - POSSIBLE FAIL         02-IF2
 003C1A FB30 D4B9 D4B7 04239 04237  8855+         SP    PACK1,=P'1'         TWO OPERANDS                         03-IF2
 003C20 A784 0006            03C2C  8858+         JZ    $MDT645             TRUE RESULT - POSSIBLE PASS          03-IF2
 003C24 9510 D546      042C6        8860+         CLI   TSWITCH,X'10'       TWO OPERANDS                         03-IF2
                       03C2C        8864+$MDT645  EQU   $MDT643             ANCHOR NESTED TRUE NAME              02-IF2
                       03C36        8867+$MDF644  EQU   $MDF642             ANCHOR NESTED FALSE NAME             01-IF
 003C28 A774 0007            03C36  8870+         JNE   $MDF642             BRANCH IF CC INDICATES FAIL          01-IF
 003C2C                             8871+$MDT643  DC    0H'0'               END RESULT WAS PASS - DO THE EXECUTE 01-IF
 003C2C D204 D4F1 D4AC 04271 0422C  8872            MVC   ACTOUT,=C'TRUE '                                       27400007
                                    8873          ELSE                                                           27410007
 003C32 A7F4 0005            03C3C  8875+         J     $FINI646                                                 01-ELSE
 003C36                             8876+$MDF642  DC    0H'0'                                                    01-ELSE
 003C36 D204 D4F1 D4B1 04271 04231  8877            MVC   ACTOUT,=C'FALSE'                                       27420007
                                    8878          ENDIF                                                          27430007
 003C3C                             8880+$FINI646 DC    0H'0'                                                    01-ENDIF
                                    8881          IF    (CLC,PREDOUT,ACTOUT,NE)                                  27440007
 003C3C D504 D4DA D4F1 0425A 04271  8883+         CLC   PREDOUT,ACTOUT      TWO OPERANDS                         01-IF
 003C42 A784 0005            03C4C  8887+         JE    $NEXT647            BRANCH IF CC INDICATES FAIL          01-IF
 003C46 D209 D4F7 D498 04277 04218  8888            MVC   ERROR,=C'<=== ERROR'                                   27450007
                                    8889          ENDIF                                                          27460007
 003C4C                             8891+$NEXT647 DC    0H'0'                                                    01-ENDIF
                                    8892          PUT   SYSPRINT,OUTPUT                                          27470007
 003C4C 4110 D548            042C8  8896+         LA    1,SYSPRINT                        LOAD PARAMETER REG 1   02-IHBIN
 003C50 4100 D4BD            0423D  8897+         LA    0,OUTPUT                          LOAD PARAMETER REG 0   02-IHBIN
 003C54 1FFF                        8898+         SLR   15,15               CLEAR REGISTER FOR ICM          @L1A 01-PUT
 003C56 BFF7 1031            00031  8899+         ICM   15,7,49(1)          LOAD PUT ROUTINE ADDRESS        @L1C 01-PUT
 003C5A 0DEF                        8900+         BASR  14,15               LINK TO PUT ROUTINE             @L3C 01-PUT
 003C5C D209 D4F7 D4A2 04277 04222  8901          MVC   ERROR,=CL10' '                                           27480007
                                    8902 *=*=*=*=*=*=*=*=*=*=*=*=*=*=*=*=*=*=*=*=*=*=*=*=*=*=*=*=*=*=*=*=*=*=*=* 27490007
 003C62 92C1 D542      042C2        8903          MVI   VARBL1,C'A'         SET TO PASS                          27500007
 003C66 41F0 0001            00001  8904          LA    R15,1               SET TO FAIL                          27510007
 003C6A 9201 D544      042C4        8905          MVI   VARBL3,X'01'        SET TO FAIL                          27520007
 003C6E F230 D4B9 D4B8 04239 04238  8906          PACK  PACK1,=Z'2'         SET TO FAIL                          27530007
 003C74 9200 D546      042C6        8907          MVI   TSWITCH,X'00'       SET TO FAIL                          27540007
 003C78 D204 D4DA D4B1 0425A 04231  8908          MVC   PREDOUT,=C'FALSE'                                        27550007
 003C7E D207 D4BE D488 0423E 04208  8909          MVC   TESTNBR,=C'TEST1304'                                     27560007
                                    8910 *                                                                       27570007
                                    8911 TEST1304 IF    (CLI,VARBL1,C'A',E),AND,                                C27580007
                                                        ((LTR,R15,R15,Z),OR,(TM,VARBL3,X'01',Z),AND,            C27590007
                                                        ((SP,PACK1,=P'1',Z),OR,(CLI,TSWITCH,X'10',E)))           27600009
 003C84 95C1 D542      042C2        8913+TEST1304 CLI   VARBL1,C'A'         TWO OPERANDS                         01-IF
 003C88 A774 0017            03CB6  8916+         JNE   $MDF648             FALSE RESULT - POSSIBLE FAIL         01-IF
 003C8C 12FF                        8921+         LTR   R15,R15             TWO OPERANDS                         02-IF2
 003C8E A784 000F            03CAC  8924+         JZ    $MDT649             TRUE RESULT - POSSIBLE PASS          02-IF2
1IFTEST   EXAMPLES OF "IF" LOGIC MACRO INSTRUCTIONS                                                             Page  103
   Active Usings: IFTEST+X'33E2',R12  $$WA$$,R13
0  Loc  Object Code    Addr1 Addr2  Stmt   Source Statement                                  HLASM R6.0  2021/03/26 12.00
0003C92 9101 D544      042C4        8926+         TM    VARBL3,X'01'        TWO OPERANDS                         02-IF2
 003C96 A774 0010            03CB6  8929+         JNZ   $MDF650             FALSE RESULT - POSSIBLE FAIL         02-IF2
 003C9A FB30 D4B9 D4B7 04239 04237  8934+         SP    PACK1,=P'1'         TWO OPERANDS                         03-IF2
 003CA0 A784 0006            03CAC  8937+         JZ    $MDT651             TRUE RESULT - POSSIBLE PASS          03-IF2
 003CA4 9510 D546      042C6        8939+         CLI   TSWITCH,X'10'       TWO OPERANDS                         03-IF2
                       03CAC        8943+$MDT651  EQU   $MDT649             ANCHOR NESTED TRUE NAME              02-IF2
                       03CB6        8946+$MDF650  EQU   $MDF648             ANCHOR NESTED FALSE NAME             01-IF
 003CA8 A774 0007            03CB6  8949+         JNE   $MDF648             BRANCH IF CC INDICATES FAIL          01-IF
 003CAC                             8950+$MDT649  DC    0H'0'               END RESULT WAS PASS - DO THE EXECUTE 01-IF
 003CAC D204 D4F1 D4AC 04271 0422C  8951            MVC   ACTOUT,=C'TRUE '                                       27610007
                                    8952          ELSE                                                           27620007
 003CB2 A7F4 0005            03CBC  8954+         J     $FINI652                                                 01-ELSE
 003CB6                             8955+$MDF648  DC    0H'0'                                                    01-ELSE
 003CB6 D204 D4F1 D4B1 04271 04231  8956            MVC   ACTOUT,=C'FALSE'                                       27630007
                                    8957          ENDIF                                                          27640007
 003CBC                             8959+$FINI652 DC    0H'0'                                                    01-ENDIF
                                    8960          IF    (CLC,PREDOUT,ACTOUT,NE)                                  27650007
 003CBC D504 D4DA D4F1 0425A 04271  8962+         CLC   PREDOUT,ACTOUT      TWO OPERANDS                         01-IF
 003CC2 A784 0005            03CCC  8966+         JE    $NEXT653            BRANCH IF CC INDICATES FAIL          01-IF
 003CC6 D209 D4F7 D498 04277 04218  8967            MVC   ERROR,=C'<=== ERROR'                                   27660007
                                    8968          ENDIF                                                          27670007
 003CCC                             8970+$NEXT653 DC    0H'0'                                                    01-ENDIF
                                    8971          PUT   SYSPRINT,OUTPUT                                          27680007
 003CCC 4110 D548            042C8  8975+         LA    1,SYSPRINT                        LOAD PARAMETER REG 1   02-IHBIN
 003CD0 4100 D4BD            0423D  8976+         LA    0,OUTPUT                          LOAD PARAMETER REG 0   02-IHBIN
 003CD4 1FFF                        8977+         SLR   15,15               CLEAR REGISTER FOR ICM          @L1A 01-PUT
 003CD6 BFF7 1031            00031  8978+         ICM   15,7,49(1)          LOAD PUT ROUTINE ADDRESS        @L1C 01-PUT
 003CDA 0DEF                        8979+         BASR  14,15               LINK TO PUT ROUTINE             @L3C 01-PUT
 003CDC D209 D4F7 D4A2 04277 04222  8980          MVC   ERROR,=CL10' '                                           27690007
                                    8981 *=*=*=*=*=*=*=*=*=*=*=*=*=*=*=*=*=*=*=*=*=*=*=*=*=*=*=*=*=*=*=*=*=*=*=* 27700007
 003CE2 92E9 D542      042C2        8982          MVI   VARBL1,C'Z'         SET TO FAIL                          27710007
 003CE6 41F0 0001            00001  8983          LA    R15,1               SET TO FAIL                          27720007
 003CEA 9201 D544      042C4        8984          MVI   VARBL3,X'01'        SET TO FAIL                          27730007
 003CEE F230 D4B9 D4B8 04239 04238  8985          PACK  PACK1,=Z'2'         SET TO FAIL                          27740007
 003CF4 9200 D546      042C6        8986          MVI   TSWITCH,X'00'       SET TO FAIL                          27750007
 003CF8 D204 D4DA D4B1 0425A 04231  8987          MVC   PREDOUT,=C'FALSE'                                        27760007
 003CFE D207 D4BE D490 0423E 04210  8988          MVC   TESTNBR,=C'TEST1305'                                     27770007
                                    8989 *                                                                       27780007
                                    8990 TEST1305 IF    (CLI,VARBL1,C'A',E),AND,                                C27790007
                                                        ((LTR,R15,R15,Z),OR,(TM,VARBL3,X'01',Z),AND,            C27800007
                                                        ((SP,PACK1,=P'1',Z),OR,(CLI,TSWITCH,X'10',E)))           27810009
 003D04 95C1 D542      042C2        8992+TEST1305 CLI   VARBL1,C'A'         TWO OPERANDS                         01-IF
 003D08 A774 0017            03D36  8995+         JNE   $MDF654             FALSE RESULT - POSSIBLE FAIL         01-IF
 003D0C 12FF                        9000+         LTR   R15,R15             TWO OPERANDS                         02-IF2
 003D0E A784 000F            03D2C  9003+         JZ    $MDT655             TRUE RESULT - POSSIBLE PASS          02-IF2
 003D12 9101 D544      042C4        9005+         TM    VARBL3,X'01'        TWO OPERANDS                         02-IF2
 003D16 A774 0010            03D36  9008+         JNZ   $MDF656             FALSE RESULT - POSSIBLE FAIL         02-IF2
 003D1A FB30 D4B9 D4B7 04239 04237  9013+         SP    PACK1,=P'1'         TWO OPERANDS                         03-IF2
 003D20 A784 0006            03D2C  9016+         JZ    $MDT657             TRUE RESULT - POSSIBLE PASS          03-IF2
 003D24 9510 D546      042C6        9018+         CLI   TSWITCH,X'10'       TWO OPERANDS                         03-IF2
                       03D2C        9022+$MDT657  EQU   $MDT655             ANCHOR NESTED TRUE NAME              02-IF2
                       03D36        9025+$MDF656  EQU   $MDF654             ANCHOR NESTED FALSE NAME             01-IF
 003D28 A774 0007            03D36  9028+         JNE   $MDF654             BRANCH IF CC INDICATES FAIL          01-IF
 003D2C                             9029+$MDT655  DC    0H'0'               END RESULT WAS PASS - DO THE EXECUTE 01-IF
 003D2C D204 D4F1 D4AC 04271 0422C  9030            MVC   ACTOUT,=C'TRUE '                                       27820007
1IFTEST   EXAMPLES OF "IF" LOGIC MACRO INSTRUCTIONS                                                             Page  104
   Active Usings: IFTEST+X'33E2',R12  $$WA$$,R13
0  Loc  Object Code    Addr1 Addr2  Stmt   Source Statement                                  HLASM R6.0  2021/03/26 12.00
0                                   9031          ELSE                                                           27830007
 003D32 A7F4 0005            03D3C  9033+         J     $FINI658                                                 01-ELSE
 003D36                             9034+$MDF654  DC    0H'0'                                                    01-ELSE
 003D36 D204 D4F1 D4B1 04271 04231  9035            MVC   ACTOUT,=C'FALSE'                                       27840007
                                    9036          ENDIF                                                          27850007
 003D3C                             9038+$FINI658 DC    0H'0'                                                    01-ENDIF
                                    9039          IF    (CLC,PREDOUT,ACTOUT,NE)                                  27860007
 003D3C D504 D4DA D4F1 0425A 04271  9041+         CLC   PREDOUT,ACTOUT      TWO OPERANDS                         01-IF
 003D42 A784 0005            03D4C  9045+         JE    $NEXT659            BRANCH IF CC INDICATES FAIL          01-IF
 003D46 D209 D4F7 D498 04277 04218  9046            MVC   ERROR,=C'<=== ERROR'                                   27870007
                                    9047          ENDIF                                                          27880007
 003D4C                             9049+$NEXT659 DC    0H'0'                                                    01-ENDIF
                                    9050          PUT   SYSPRINT,OUTPUT                                          27890007
 003D4C 4110 D548            042C8  9054+         LA    1,SYSPRINT                        LOAD PARAMETER REG 1   02-IHBIN
 003D50 4100 D4BD            0423D  9055+         LA    0,OUTPUT                          LOAD PARAMETER REG 0   02-IHBIN
 003D54 1FFF                        9056+         SLR   15,15               CLEAR REGISTER FOR ICM          @L1A 01-PUT
 003D56 BFF7 1031            00031  9057+         ICM   15,7,49(1)          LOAD PUT ROUTINE ADDRESS        @L1C 01-PUT
 003D5A 0DEF                        9058+         BASR  14,15               LINK TO PUT ROUTINE             @L3C 01-PUT
 003D5C D209 D4F7 D4A2 04277 04222  9059          MVC   ERROR,=CL10' '                                           27900007
                                    9060 *=*=*=*=*=*=*=*=*=*=*=*=*=*=*=*=*=*=*=*=*=*=*=*=*=*=*=*=*=*=*=*=*=*=*=* 27910007
                                    9061 *                                                                     * 27920007
                                    9062 *      THESE FOLLOWING STATEMENTS ARE NORMAL zOS TERMINATION.         * 27930007
                                    9063 *                                                                     * 27940007
                                    9064 *=*=*=*=*=*=*=*=*=*=*=*=*=*=*=*=*=*=*=*=*=*=*=*=*=*=*=*=*=*=*=*=*=*=*=* 27950007
                                    9065 *                                                                       27960007
 003D62 05C0                        9066          BALR  R12,0                                                    27961015
                  R:C  03D64        9067          USING *,R12                                                    27962015
                                    9068          CLOSE SYSPRINT                                                 27970007
 003D64                             9070+         CNOP  0,4                      ALIGN LIST TO FULLWORD          01-CLOSE
 003D64 4D10 C008            03D6C  9071+         BAS   1,*+8                    LOAD REG1 W/LIST ADDR           01-CLOSE
 003D68 80                          9072+         DC    AL1(128)                 OPTION BYTE                     01-CLOSE
 003D69 0042C8                      9073+         DC    AL3(SYSPRINT)            DCB OR ACB ADDRESS              01-CLOSE
 003D6C 0A14                        9074+         SVC   20                       ISSUE CLOSE SVC                 01-CLOSE
                                    9075 *                                                                       27980007
 003D6E 58D0 D004            03D84  9076          L     R13,SAVEAREA+4      ADDRESS OF CALLER'S SAVE AREA        27990007
                                    9077          DROP  R13                                                      28000007
 003D72 98EC D00C            0000C  9078          LM    R14,R12,12(R13)     RESTORE R14 WRAPPED AROUND TO R12    28010007
                                    9079          DROP  R12                 NO LONGER VALID                      28020007
 003D76 1FFF                        9080          SLR   R15,R15             SET RETURN CODE TO ZERO              28030007
 003D78 07FE                        9081          BR    R14                 RETURN TO CALLER                     28040007
                                    9082 *                                                                       28050007
 003DC8                03D80 005A8  9083 $$WA$$   CSECT                                                          28060007
 003DC8                             9084          LTORG                                                          28070007
 003DC8 E3C5E2E3F0F1F0C1            9085                =C'TEST010A'
 003DD0 E3C5E2E3F0F1F0C2            9086                =C'TEST010B'
 003DD8 E3C5E2E3F0F3F0C1            9087                =C'TEST030A'
 003DE0 E3C5E2E3F0F3F0C2            9088                =C'TEST030B'
 003DE8 E3C5E2E3F0F3F0C3            9089                =C'TEST030C'
 003DF0 E3C5E2E3F0F3F0C4            9090                =C'TEST030D'
 003DF8 E3C5E2E3F0F4F0C1            9091                =C'TEST040A'
 003E00 E3C5E2E3F0F4F0C2            9092                =C'TEST040B'
 003E08 E3C5E2E3F0F4F0C3            9093                =C'TEST040C'
 003E10 E3C5E2E3F0F4F0C4            9094                =C'TEST040D'
 003E18 E3C5E2E3F0F5F0C1            9095                =C'TEST050A'
 003E20 E3C5E2E3F0F5F0C2            9096                =C'TEST050B'
1IFTEST   EXAMPLES OF "IF" LOGIC MACRO INSTRUCTIONS                                                             Page  105
   Active Usings: None
0  Loc  Object Code    Addr1 Addr2  Stmt   Source Statement                                  HLASM R6.0  2021/03/26 12.00
0003E28 E3C5E2E3F0F5F0C3            9097                =C'TEST050C'
 003E30 E3C5E2E3F0F5F0C4            9098                =C'TEST050D'
 003E38 E3C5E2E3F0F5F0C5            9099                =C'TEST050E'
 003E40 E3C5E2E3F0F5F0C6            9100                =C'TEST050F'
 003E48 E3C5E2E3F0F5F0C7            9101                =C'TEST050G'
 003E50 E3C5E2E3F0F5F0C8            9102                =C'TEST050H'
 003E58 E3C5E2E3F0F6F0C1            9103                =C'TEST060A'
 003E60 E3C5E2E3F0F6F0C2            9104                =C'TEST060B'
 003E68 E3C5E2E3F0F6F0C3            9105                =C'TEST060C'
 003E70 E3C5E2E3F0F6F0C4            9106                =C'TEST060D'
 003E78 E3C5E2E3F0F6F0C5            9107                =C'TEST060E'
 003E80 E3C5E2E3F0F6F0C6            9108                =C'TEST060F'
 003E88 E3C5E2E3F0F6F0C7            9109                =C'TEST060G'
 003E90 E3C5E2E3F0F6F0C8            9110                =C'TEST060H'
 003E98 E3C5E2E3F0F7F0C1            9111                =C'TEST070A'
 003EA0 E3C5E2E3F0F7F0C2            9112                =C'TEST070B'
 003EA8 E3C5E2E3F0F7F0C3            9113                =C'TEST070C'
 003EB0 E3C5E2E3F0F7F0C4            9114                =C'TEST070D'
 003EB8 E3C5E2E3F0F7F0C5            9115                =C'TEST070E'
 003EC0 E3C5E2E3F0F7F0C6            9116                =C'TEST070F'
 003EC8 E3C5E2E3F0F7F0C7            9117                =C'TEST070G'
 003ED0 E3C5E2E3F0F7F0C8            9118                =C'TEST070H'
 003ED8 E3C5E2E3F0F8F0C1            9119                =C'TEST080A'
 003EE0 E3C5E2E3F0F8F0C2            9120                =C'TEST080B'
 003EE8 E3C5E2E3F0F8F0C3            9121                =C'TEST080C'
 003EF0 E3C5E2E3F0F8F0C4            9122                =C'TEST080D'
 003EF8 E3C5E2E3F0F8F0C5            9123                =C'TEST080E'
 003F00 E3C5E2E3F0F8F0C6            9124                =C'TEST080F'
 003F08 E3C5E2E3F0F8F0C7            9125                =C'TEST080G'
 003F10 E3C5E2E3F0F8F0C8            9126                =C'TEST080H'
 003F18 E3C5E2E3F0F9F0C1            9127                =C'TEST090A'
 003F20 E3C5E2E3F0F9F0C2            9128                =C'TEST090B'
 003F28 E3C5E2E3F0F9F0C3            9129                =C'TEST090C'
 003F30 E3C5E2E3F0F9F0C4            9130                =C'TEST090D'
 003F38 E3C5E2E3F0F9F0C5            9131                =C'TEST090E'
 003F40 E3C5E2E3F0F9F0C6            9132                =C'TEST090F'
 003F48 E3C5E2E3F0F9F0C7            9133                =C'TEST090G'
 003F50 E3C5E2E3F0F9F0C8            9134                =C'TEST090H'
 003F58 E3C5E2E3F0F9F0C9            9135                =C'TEST090I'
 003F60 E3C5E2E3F0F9F0D1            9136                =C'TEST090J'
 003F68 E3C5E2E3F0F9F0D2            9137                =C'TEST090K'
 003F70 E3C5E2E3F0F9F0D3            9138                =C'TEST090L'
 003F78 E3C5E2E3F0F9F0D4            9139                =C'TEST090M'
 003F80 E3C5E2E3F0F9F0D5            9140                =C'TEST090N'
 003F88 E3C5E2E3F0F9F0D6            9141                =C'TEST090O'
 003F90 E3C5E2E3F0F9F0D7            9142                =C'TEST090P'
 003F98 E3C5E2E3F1F0F0C1            9143                =C'TEST100A'
 003FA0 E3C5E2E3F1F0F0C2            9144                =C'TEST100B'
 003FA8 E3C5E2E3F1F0F0C3            9145                =C'TEST100C'
 003FB0 E3C5E2E3F1F0F0C4            9146                =C'TEST100D'
 003FB8 E3C5E2E3F1F0F0C5            9147                =C'TEST100E'
 003FC0 E3C5E2E3F1F0F0C6            9148                =C'TEST100F'
 003FC8 E3C5E2E3F1F0F0C7            9149                =C'TEST100G'
 003FD0 E3C5E2E3F1F0F0C8            9150                =C'TEST100H'
 003FD8 E3C5E2E3F1F0F0C9            9151                =C'TEST100I'
1IFTEST   EXAMPLES OF "IF" LOGIC MACRO INSTRUCTIONS                                                             Page  106
   Active Usings: None
0  Loc  Object Code    Addr1 Addr2  Stmt   Source Statement                                  HLASM R6.0  2021/03/26 12.00
0003FE0 E3C5E2E3F1F0F0D1            9152                =C'TEST100J'
 003FE8 E3C5E2E3F1F0F0D2            9153                =C'TEST100K'
 003FF0 E3C5E2E3F1F0F0D3            9154                =C'TEST100L'
 003FF8 E3C5E2E3F1F0F0D4            9155                =C'TEST100M'
 004000 E3C5E2E3F1F0F0D5            9156                =C'TEST100N'
 004008 E3C5E2E3F1F0F0D6            9157                =C'TEST100O'
 004010 E3C5E2E3F1F0F0D7            9158                =C'TEST100P'
 004018 E3C5E2E3F1F1F0C1            9159                =C'TEST110A'
 004020 E3C5E2E3F1F1F0C2            9160                =C'TEST110B'
 004028 E3C5E2E3F1F1F0C3            9161                =C'TEST110C'
 004030 E3C5E2E3F1F1F0C4            9162                =C'TEST110D'
 004038 E3C5E2E3F1F1F0C5            9163                =C'TEST110E'
 004040 E3C5E2E3F1F1F0C6            9164                =C'TEST110F'
 004048 E3C5E2E3F1F1F0C7            9165                =C'TEST110G'
 004050 E3C5E2E3F1F1F0C8            9166                =C'TEST110H'
 004058 E3C5E2E3F1F1F0C9            9167                =C'TEST110I'
 004060 E3C5E2E3F1F1F0D1            9168                =C'TEST110J'
 004068 E3C5E2E3F1F1F0D2            9169                =C'TEST110K'
 004070 E3C5E2E3F1F1F0D3            9170                =C'TEST110L'
 004078 E3C5E2E3F1F1F0D4            9171                =C'TEST110M'
 004080 E3C5E2E3F1F1F0D5            9172                =C'TEST110N'
 004088 E3C5E2E3F1F1F0D6            9173                =C'TEST110O'
 004090 E3C5E2E3F1F1F0D7            9174                =C'TEST110P'
 004098 E3C5E2E3F1F2F0C1            9175                =C'TEST120A'
 0040A0 E3C5E2E3F1F2F0C2            9176                =C'TEST120B'
 0040A8 E3C5E2E3F1F2F0C3            9177                =C'TEST120C'
 0040B0 E3C5E2E3F1F2F0C4            9178                =C'TEST120D'
 0040B8 E3C5E2E3F1F2F0C5            9179                =C'TEST120E'
 0040C0 E3C5E2E3F1F2F0C6            9180                =C'TEST120F'
 0040C8 E3C5E2E3F1F2F0C7            9181                =C'TEST120G'
 0040D0 E3C5E2E3F1F2F0C8            9182                =C'TEST120H'
 0040D8 E3C5E2E3F1F2F0C9            9183                =C'TEST120I'
 0040E0 E3C5E2E3F1F2F0D1            9184                =C'TEST120J'
 0040E8 E3C5E2E3F1F2F0D2            9185                =C'TEST120K'
 0040F0 E3C5E2E3F1F2F0D3            9186                =C'TEST120L'
 0040F8 E3C5E2E3F1F2F0D4            9187                =C'TEST120M'
 004100 E3C5E2E3F1F2F0D5            9188                =C'TEST120N'
 004108 E3C5E2E3F1F2F0D6            9189                =C'TEST120O'
 004110 E3C5E2E3F1F2F0D7            9190                =C'TEST120P'
 004118 E3C5E2E3F1F3F0C1            9191                =C'TEST130A'
 004120 E3C5E2E3F1F3F0C2            9192                =C'TEST130B'
 004128 E3C5E2E3F1F3F0C3            9193                =C'TEST130C'
 004130 E3C5E2E3F1F3F0C4            9194                =C'TEST130D'
 004138 E3C5E2E3F1F3F0C5            9195                =C'TEST130E'
 004140 E3C5E2E3F1F3F0C6            9196                =C'TEST130F'
 004148 E3C5E2E3F1F3F0C7            9197                =C'TEST130G'
 004150 E3C5E2E3F1F3F0C8            9198                =C'TEST130H'
 004158 E3C5E2E3F1F3F0C9            9199                =C'TEST130I'
 004160 E3C5E2E3F1F3F0D1            9200                =C'TEST130J'
 004168 E3C5E2E3F1F3F0D2            9201                =C'TEST130K'
 004170 E3C5E2E3F1F3F0D3            9202                =C'TEST130L'
 004178 E3C5E2E3F1F3F0D4            9203                =C'TEST130M'
 004180 E3C5E2E3F1F3F0D5            9204                =C'TEST130N'
 004188 E3C5E2E3F1F3F0D6            9205                =C'TEST130O'
 004190 E3C5E2E3F1F3F0D7            9206                =C'TEST130P'
1IFTEST   EXAMPLES OF "IF" LOGIC MACRO INSTRUCTIONS                                                             Page  107
   Active Usings: None
0  Loc  Object Code    Addr1 Addr2  Stmt   Source Statement                                  HLASM R6.0  2021/03/26 12.00
0004198 E3C5E2E3F1F3F0D8            9207                =C'TEST130Q'
 0041A0 E3C5E2E3F2F3F0D9            9208                =C'TEST230R'
 0041A8 E3C5E2E3F1F3F0E2            9209                =C'TEST130S'
 0041B0 E3C5E2E3F1F3F0E3            9210                =C'TEST130T'
 0041B8 E3C5E2E3F1F3F0E4            9211                =C'TEST130U'
 0041C0 E3C5E2E3F1F3F0E5            9212                =C'TEST130V'
 0041C8 E3C5E2E3F2F3F0E6            9213                =C'TEST230W'
 0041D0 E3C5E2E3F1F3F0E7            9214                =C'TEST130X'
 0041D8 E3C5E2E3F1F3F0E8            9215                =C'TEST130Y'
 0041E0 E3C5E2E3F1F3F0E9            9216                =C'TEST130Z'
 0041E8 E3C5E2E3F1F3F0F0            9217                =C'TEST1300'
 0041F0 E3C5E2E3F1F3F0F1            9218                =C'TEST1301'
 0041F8 E3C5E2E3F1F3F0F2            9219                =C'TEST1302'
 004200 E3C5E2E3F1F3F0F3            9220                =C'TEST1303'
 004208 E3C5E2E3F1F3F0F4            9221                =C'TEST1304'
 004210 E3C5E2E3F1F3F0F5            9222                =C'TEST1305'
 004218 4C7E7E7E40C5D9D9            9223                =C'<=== ERROR'
 004222 4040404040404040            9224                =CL10' '
 00422C E3D9E4C540                  9225                =C'TRUE '
 004231 C6C1D3E2C5                  9226                =C'FALSE'
 004236 C1                          9227                =Z'1'
 004237 1C                          9228                =P'1'
 004238 C2                          9229                =Z'2'
                                    9230 *=*=*=*=*=*=*=*=*=*=*=*=*=*=*=*=*=*=*=*=*=*=*=*=*=*=*=*=*=*=*=*=*=*=*=* 28080007
                                    9231 *                                                                     * 28090007
                                    9232 *      THESE FOLLOWING STATEMENTS DEFINE VARIABLES REQUIRED.          * 28100007
                                    9233 *                                                                     * 28110007
                                    9234 *=*=*=*=*=*=*=*=*=*=*=*=*=*=*=*=*=*=*=*=*=*=*=*=*=*=*=*=*=*=*=*=*=*=*=* 28120007
 004239 0000000C                    9235 PACK1    DC    PL4'0'                                                   28130007
 00423D 4040404040404040            9236 OUTPUT   DC    CL133' '                                                 28140007
 0042C2                042C2 0423D  9237          ORG   OUTPUT                                                   28150007
 00423D 40                          9238          DC    C' '                                                     28160007
 00423E 4040404040404040            9239 TESTNBR  DC    CL8' '                                                   28170007
 004246 40D7D9C5C4C9C3E3            9240          DC    C' PREDICTED OUTCOME: '                                  28180007
 00425A 4040404040                  9241 PREDOUT  DC    CL5' '                                                   28190007
 00425F 5E40C1C3E3E4C1D3            9242          DC    C'; ACTUAL OUTCOME: '                                    28200007
 004271 404040404040                9243 ACTOUT   DC    CL5' ',C' '                                              28210007
 004277 4040404040404040            9244 ERROR    DC    CL10' '                                                  28220007
 004281                04281 042C2  9245          ORG   OUTPUT+133                                               28230007
 0042C2 40                          9246 VARBL1   DC    C' '                                                     28240007
 0042C3 40                          9247 VARBL2   DC    C' '                                                     28250007
 0042C4 40                          9248 VARBL3   DC    C' '                                                     28260007
 0042C5 40                          9249 VARBL4   DC    C' '                                                     28270007
 0042C6 00                          9250 TSWITCH  DC    X'00'                                                    28280007
                                    9251          PUSH  PRINT                                                    28290007
                                    9252          PRINT NOGEN                                                    28300007
                                    9253 SYSPRINT DCB   DDNAME=SYSPRINT,    DEFAULT DDNAME                      C28310007
                                                        LRECL=133,          LOGICAL RECORD LENGTH               C28320007
 0042C8 0000000000000000                                RECFM=FBA,DSORG=PS,MACRF=PM                              28330007
                                    9295          POP   PRINT                                                    28340007
 003D7A                00000 03D7A  9296 IFTEST   CSECT                                                          28350007
 000000                             9297          END   IFTEST                                                   28360007
1IFTEST                                           Relocation Dictionary                                         Page  108
-   Pos.Id   Rel.Id   Address  Type    Length  Action                                        HLASM R6.0  2021/03/26 12.00
0  00000002 00000003 00000014   V         4      ST
   00000002 00000004 00000025   A         3       +
   00000002 00000004 00003D69   A         3       +
1IFTEST                         Ordinary Symbol and Literal Cross Reference                                     Page  109
-Symbol   Length   Value     Id    R Type Asm  Program   Defn References                     HLASM R6.0  2021/03/26 12.00
0$$WA$$        1 00003D80 00000004     J                   49   45U 9083
 $$WA$$        1 00000000 00000003     T                   41   41
 $FINI100      2 00000A9C 00000002     H  H              1529 1524B
 $FINI105      2 00000B02 00000002     H  H              1584 1579B
 $FINI110      2 00000B6A 00000002     H  H              1641 1636B
 $FINI115      2 00000BD0 00000002     H  H              1696 1691B
 $FINI12       2 00000154 00000002     H  H               235  230B
 $FINI120      2 00000C36 00000002     H  H              1751 1746B
 $FINI125      2 00000C9C 00000002     H  H              1806 1801B
 $FINI130      2 00000D02 00000002     H  H              1861 1856B
 $FINI134      2 00000D68 00000002     H  H              1926 1921B
 $FINI138      2 00000DCE 00000002     H  H              1986 1981B
 $FINI142      2 00000E34 00000002     H  H              2046 2041B
 $FINI146      2 00000E9A 00000002     H  H              2106 2101B
 $FINI15       2 000001AE 00000002     H  H               283  278B
 $FINI150      2 00000F00 00000002     H  H              2166 2161B
 $FINI154      2 00000F66 00000002     H  H              2226 2221B
 $FINI158      2 00000FCC 00000002     H  H              2286 2281B
 $FINI162      2 00001032 00000002     H  H              2346 2341B
 $FINI167      2 000010A8 00000002     H  H              2415 2410B
 $FINI172      2 0000111C 00000002     H  H              2476 2471B
 $FINI177      2 00001190 00000002     H  H              2537 2532B
 $FINI18       2 00000208 00000002     H  H               331  326B
 $FINI182      2 00001204 00000002     H  H              2598 2593B
 $FINI187      2 00001278 00000002     H  H              2659 2654B
 $FINI192      2 000012EC 00000002     H  H              2720 2715B
 $FINI197      2 00001360 00000002     H  H              2781 2776B
 $FINI202      2 000013D4 00000002     H  H              2842 2837B
 $FINI207      2 00001448 00000002     H  H              2903 2898B
 $FINI212      2 000014BC 00000002     H  H              2964 2959B
 $FINI217      2 00001530 00000002     H  H              3025 3020B
 $FINI22       2 00000262 00000002     H  H               385  380B
 $FINI222      2 000015A4 00000002     H  H              3086 3081B
 $FINI227      2 00001618 00000002     H  H              3147 3142B
 $FINI232      2 0000168C 00000002     H  H              3208 3203B
 $FINI237      2 00001700 00000002     H  H              3269 3264B
 $FINI242      2 00001774 00000002     H  H              3330 3325B
 $FINI246      2 000017EA 00000002     H  H              3402 3397B
 $FINI250      2 0000185E 00000002     H  H              3467 3462B
 $FINI254      2 000018D2 00000002     H  H              3532 3527B
 $FINI258      2 00001946 00000002     H  H              3597 3592B
 $FINI26       2 000002BC 00000002     H  H               434  429B
 $FINI262      2 000019BA 00000002     H  H              3662 3657B
 $FINI266      2 00001A2E 00000002     H  H              3727 3722B
 $FINI270      2 00001AA2 00000002     H  H              3792 3787B
 $FINI274      2 00001B16 00000002     H  H              3857 3852B
 $FINI278      2 00001B8A 00000002     H  H              3922 3917B
 $FINI282      2 00001BFE 00000002     H  H              3987 3982B
 $FINI286      2 00001C72 00000002     H  H              4052 4047B
 $FINI290      2 00001CE6 00000002     H  H              4117 4112B
 $FINI294      2 00001D5A 00000002     H  H              4182 4177B
 $FINI298      2 00001DCE 00000002     H  H              4247 4242B
 $FINI3        2 00000052 00000002     H  H                87   82B
 $FINI30       2 00000316 00000002     H  H               483  478B
 $FINI302      2 00001E42 00000002     H  H              4312 4307B
1IFTEST                         Ordinary Symbol and Literal Cross Reference                                     Page  110
-Symbol   Length   Value     Id    R Type Asm  Program   Defn References                     HLASM R6.0  2021/03/26 12.00
0$FINI306      2 00001EB6 00000002     H  H              4377 4372B
 $FINI311      2 00001F2C 00000002     H  H              4445 4440B
 $FINI316      2 00001FA0 00000002     H  H              4506 4501B
 $FINI321      2 00002014 00000002     H  H              4567 4562B
 $FINI326      2 00002088 00000002     H  H              4628 4623B
 $FINI331      2 000020FC 00000002     H  H              4689 4684B
 $FINI336      2 00002170 00000002     H  H              4750 4745B
 $FINI34       2 00000370 00000002     H  H               532  527B
 $FINI341      2 000021E4 00000002     H  H              4811 4806B
 $FINI346      2 00002258 00000002     H  H              4872 4867B
 $FINI351      2 000022CC 00000002     H  H              4933 4928B
 $FINI356      2 00002340 00000002     H  H              4994 4989B
 $FINI361      2 000023B4 00000002     H  H              5055 5050B
 $FINI366      2 00002428 00000002     H  H              5116 5111B
 $FINI37       2 000003D6 00000002     H  H               591  586B
 $FINI371      2 0000249C 00000002     H  H              5177 5172B
 $FINI376      2 00002510 00000002     H  H              5238 5233B
 $FINI381      2 00002584 00000002     H  H              5299 5294B
 $FINI386      2 000025F8 00000002     H  H              5360 5355B
 $FINI391      2 0000266E 00000002     H  H              5438 5433B
 $FINI396      2 000026E2 00000002     H  H              5509 5504B
 $FINI40       2 0000043C 00000002     H  H               645  640B
 $FINI401      2 00002756 00000002     H  H              5580 5575B
 $FINI406      2 000027CA 00000002     H  H              5651 5646B
 $FINI411      2 0000283E 00000002     H  H              5722 5717B
 $FINI416      2 000028B2 00000002     H  H              5793 5788B
 $FINI421      2 00002926 00000002     H  H              5864 5859B
 $FINI426      2 0000299A 00000002     H  H              5935 5930B
 $FINI43       2 000004A2 00000002     H  H               699  694B
 $FINI431      2 00002A0E 00000002     H  H              6006 6001B
 $FINI436      2 00002A82 00000002     H  H              6077 6072B
 $FINI441      2 00002AF6 00000002     H  H              6148 6143B
 $FINI446      2 00002B6A 00000002     H  H              6219 6214B
 $FINI451      2 00002BDE 00000002     H  H              6290 6285B
 $FINI456      2 00002C52 00000002     H  H              6361 6356B
 $FINI46       2 00000508 00000002     H  H               753  748B
 $FINI461      2 00002CC6 00000002     H  H              6432 6427B
 $FINI466      2 00002D3A 00000002     H  H              6503 6498B
 $FINI472      2 00002DBA 00000002     H  H              6589 6584B
 $FINI478      2 00002E3A 00000002     H  H              6667 6662B
 $FINI484      2 00002EBA 00000002     H  H              6746 6741B
 $FINI49       2 0000056E 00000002     H  H               807  802B
 $FINI490      2 00002F3A 00000002     H  H              6825 6820B
 $FINI496      2 00002FBA 00000002     H  H              6904 6899B
 $FINI502      2 0000303A 00000002     H  H              6983 6978B
 $FINI508      2 000030BA 00000002     H  H              7061 7056B
 $FINI514      2 0000313A 00000002     H  H              7140 7135B
 $FINI52       2 000005D4 00000002     H  H               861  856B
 $FINI520      2 000031BA 00000002     H  H              7219 7214B
 $FINI526      2 0000323A 00000002     H  H              7298 7293B
 $FINI532      2 000032BA 00000002     H  H              7377 7372B
 $FINI538      2 0000333A 00000002     H  H              7456 7451B
 $FINI544      2 000033BA 00000002     H  H              7535 7530B
 $FINI55       2 0000063A 00000002     H  H               915  910B
 $FINI550      2 0000343C 00000002     H  H              7616 7611B
1IFTEST                         Ordinary Symbol and Literal Cross Reference                                     Page  111
-Symbol   Length   Value     Id    R Type Asm  Program   Defn References                     HLASM R6.0  2021/03/26 12.00
0$FINI556      2 000034BC 00000002     H  H              7695 7690B
 $FINI562      2 0000353C 00000002     H  H              7774 7769B
 $FINI568      2 000035BC 00000002     H  H              7853 7848B
 $FINI574      2 0000363C 00000002     H  H              7932 7927B
 $FINI58       2 000006A0 00000002     H  H               969  964B
 $FINI580      2 000036BC 00000002     H  H              8011 8006B
 $FINI586      2 0000373C 00000002     H  H              8090 8085B
 $FINI592      2 000037BC 00000002     H  H              8169 8164B
 $FINI598      2 0000383C 00000002     H  H              8248 8243B
 $FINI6        2 000000A0 00000002     H  H               129  124B
 $FINI604      2 000038BC 00000002     H  H              8327 8322B
 $FINI610      2 0000393C 00000002     H  H              8406 8401B
 $FINI616      2 000039BC 00000002     H  H              8485 8480B
 $FINI62       2 00000706 00000002     H  H              1029 1024B
 $FINI622      2 00003A3C 00000002     H  H              8564 8559B
 $FINI628      2 00003ABC 00000002     H  H              8643 8638B
 $FINI634      2 00003B3C 00000002     H  H              8722 8717B
 $FINI640      2 00003BBC 00000002     H  H              8801 8796B
 $FINI646      2 00003C3C 00000002     H  H              8880 8875B
 $FINI652      2 00003CBC 00000002     H  H              8959 8954B
 $FINI658      2 00003D3C 00000002     H  H              9038 9033B
 $FINI66       2 0000076C 00000002     H  H              1084 1079B
 $FINI70       2 000007D2 00000002     H  H              1139 1134B
 $FINI74       2 00000838 00000002     H  H              1194 1189B
 $FINI78       2 0000089E 00000002     H  H              1249 1244B
 $FINI82       2 00000904 00000002     H  H              1304 1299B
 $FINI86       2 0000096A 00000002     H  H              1359 1354B
 $FINI9        2 000000FA 00000002     H  H               182  177B
 $FINI90       2 000009D0 00000002     H  H              1414 1409B
 $FINI95       2 00000A36 00000002     H  H              1474 1469B
 $MDF102       4 00000AEA 00000002     I                 1570 1563B
 $MDF107       4 00000B52 00000002     I                 1627 1620B
 $MDF11        2 0000014E 00000002     H  H               231  220B  226B
 $MDF112       4 00000BB8 00000002     I                 1682 1675B
 $MDF117       4 00000C1E 00000002     I                 1737 1730B
 $MDF122       4 00000C84 00000002     I                 1792 1785B
 $MDF127       4 00000CEA 00000002     I                 1847 1840B
 $MDF132       2 00000D62 00000002     H  H              1922 1900B 1916B
 $MDF136       2 00000DC8 00000002     H  H              1982 1960B 1976B
 $MDF14        2 000001A8 00000002     H  H               279  268B  274B
 $MDF140       2 00000E2E 00000002     H  H              2042 2020B 2036B
 $MDF144       2 00000E94 00000002     H  H              2102 2080B 2096B
 $MDF148       2 00000EFA 00000002     H  H              2162 2140B 2156B
 $MDF152       2 00000F60 00000002     H  H              2222 2200B 2216B
 $MDF156       2 00000FC6 00000002     H  H              2282 2260B 2276B
 $MDF160       2 0000102C 00000002     H  H              2342 2320B 2336B
 $MDF164       4 00001086 00000002     I                 2396 2389B
 $MDF166       2 000010A2 00000002     H  H              2411 2399B 2405B
 $MDF169       4 000010FA 00000002     I                 2457 2450B
 $MDF17        2 00000202 00000002     H  H               327  316B  322B
 $MDF171       2 00001116 00000002     H  H              2472 2460B 2466B
 $MDF174       4 0000116E 00000002     I                 2518 2511B
 $MDF176       2 0000118A 00000002     H  H              2533 2521B 2527B
 $MDF179       4 000011E2 00000002     I                 2579 2572B
 $MDF181       2 000011FE 00000002     H  H              2594 2582B 2588B
1IFTEST                         Ordinary Symbol and Literal Cross Reference                                     Page  112
-Symbol   Length   Value     Id    R Type Asm  Program   Defn References                     HLASM R6.0  2021/03/26 12.00
0$MDF184       4 00001256 00000002     I                 2640 2633B
 $MDF186       2 00001272 00000002     H  H              2655 2643B 2649B
 $MDF189       4 000012CA 00000002     I                 2701 2694B
 $MDF191       2 000012E6 00000002     H  H              2716 2704B 2710B
 $MDF194       4 0000133E 00000002     I                 2762 2755B
 $MDF196       2 0000135A 00000002     H  H              2777 2765B 2771B
 $MDF199       4 000013B2 00000002     I                 2823 2816B
 $MDF201       2 000013CE 00000002     H  H              2838 2826B 2832B
 $MDF204       4 00001426 00000002     I                 2884 2877B
 $MDF206       2 00001442 00000002     H  H              2899 2887B 2893B
 $MDF209       4 0000149A 00000002     I                 2945 2938B
 $MDF211       2 000014B6 00000002     H  H              2960 2948B 2954B
 $MDF214       4 0000150E 00000002     I                 3006 2999B
 $MDF216       2 0000152A 00000002     H  H              3021 3009B 3015B
 $MDF219       4 00001582 00000002     I                 3067 3060B
 $MDF221       2 0000159E 00000002     H  H              3082 3070B 3076B
 $MDF224       4 000015F6 00000002     I                 3128 3121B
 $MDF226       2 00001612 00000002     H  H              3143 3131B 3137B
 $MDF229       4 0000166A 00000002     I                 3189 3182B
 $MDF231       2 00001686 00000002     H  H              3204 3192B 3198B
 $MDF234       4 000016DE 00000002     I                 3250 3243B
 $MDF236       2 000016FA 00000002     H  H              3265 3253B 3259B
 $MDF239       4 00001752 00000002     I                 3311 3304B
 $MDF241       2 0000176E 00000002     H  H              3326 3314B 3320B
 $MDF244       2 000017E4 00000002     H  H              3398 3372B 3387B 3393B
 $MDF248       2 00001858 00000002     H  H              3463 3437B 3452B 3458B
 $MDF252       2 000018CC 00000002     H  H              3528 3502B 3517B 3523B
 $MDF256       2 00001940 00000002     H  H              3593 3567B 3582B 3588B
 $MDF260       2 000019B4 00000002     H  H              3658 3632B 3647B 3653B
 $MDF264       2 00001A28 00000002     H  H              3723 3697B 3712B 3718B
 $MDF268       2 00001A9C 00000002     H  H              3788 3762B 3777B 3783B
 $MDF272       2 00001B10 00000002     H  H              3853 3827B 3842B 3848B
 $MDF276       2 00001B84 00000002     H  H              3918 3892B 3907B 3913B
 $MDF280       2 00001BF8 00000002     H  H              3983 3957B 3972B 3978B
 $MDF284       2 00001C6C 00000002     H  H              4048 4022B 4037B 4043B
 $MDF288       2 00001CE0 00000002     H  H              4113 4087B 4102B 4108B
 $MDF292       2 00001D54 00000002     H  H              4178 4152B 4167B 4173B
 $MDF296       2 00001DC8 00000002     H  H              4243 4217B 4232B 4238B
 $MDF300       2 00001E3C 00000002     H  H              4308 4282B 4297B 4303B
 $MDF304       2 00001EB0 00000002     H  H              4373 4347B 4362B 4368B
 $MDF309       6 00001F12 00000002     I                 4431 4424B
 $MDF314       6 00001F86 00000002     I                 4492 4485B
 $MDF319       6 00001FFA 00000002     I                 4553 4546B
 $MDF324       6 0000206E 00000002     I                 4614 4607B
 $MDF329       6 000020E2 00000002     I                 4675 4668B
 $MDF334       6 00002156 00000002     I                 4736 4729B
 $MDF339       6 000021CA 00000002     I                 4797 4790B
 $MDF344       6 0000223E 00000002     I                 4858 4851B
 $MDF349       6 000022B2 00000002     I                 4919 4912B
 $MDF354       6 00002326 00000002     I                 4980 4973B
 $MDF359       6 0000239A 00000002     I                 5041 5034B
 $MDF36        2 000003D0 00000002     H  H               587  571B  576B  582B
 $MDF364       6 0000240E 00000002     I                 5102 5095B
 $MDF369       6 00002482 00000002     I                 5163 5156B
 $MDF374       6 000024F6 00000002     I                 5224 5217B
1IFTEST                         Ordinary Symbol and Literal Cross Reference                                     Page  113
-Symbol   Length   Value     Id    R Type Asm  Program   Defn References                     HLASM R6.0  2021/03/26 12.00
0$MDF379       6 0000256A 00000002     I                 5285 5278B
 $MDF384       6 000025DE 00000002     I                 5346 5339B
 $MDF389       2 00002668 00000002     H  H              5434 5412B 5428B
 $MDF39        2 00000436 00000002     H  H               641  625B  630B  636B
 $MDF394       2 000026DC 00000002     H  H              5505 5483B 5499B
 $MDF399       2 00002750 00000002     H  H              5576 5554B 5570B
 $MDF404       2 000027C4 00000002     H  H              5647 5625B 5641B
 $MDF409       2 00002838 00000002     H  H              5718 5696B 5712B
 $MDF414       2 000028AC 00000002     H  H              5789 5767B 5783B
 $MDF419       2 00002920 00000002     H  H              5860 5838B 5854B
 $MDF42        2 0000049C 00000002     H  H               695  679B  684B  690B
 $MDF424       2 00002994 00000002     H  H              5931 5909B 5925B
 $MDF429       2 00002A08 00000002     H  H              6002 5980B 5996B
 $MDF434       2 00002A7C 00000002     H  H              6073 6051B 6067B
 $MDF439       2 00002AF0 00000002     H  H              6144 6122B 6138B
 $MDF444       2 00002B64 00000002     H  H              6215 6193B 6209B
 $MDF449       2 00002BD8 00000002     H  H              6286 6264B 6280B
 $MDF45        2 00000502 00000002     H  H               749  733B  738B  744B
 $MDF454       2 00002C4C 00000002     H  H              6357 6335B 6351B
 $MDF459       2 00002CC0 00000002     H  H              6428 6406B 6422B
 $MDF464       2 00002D34 00000002     H  H              6499 6477B 6493B
 $MDF468       2 00002DB4 00000002     H  H              6585 6546B 6576  6579B
 $MDF470       2 00002DB4 00000002     U                 6576 6559B
 $MDF474       2 00002E34 00000002     H  H              6663 6624B 6654  6657B
 $MDF476       2 00002E34 00000002     U                 6654 6637B
 $MDF48        2 00000568 00000002     H  H               803  787B  792B  798B
 $MDF480       2 00002EB4 00000002     H  H              6742 6703B 6733  6736B
 $MDF482       2 00002EB4 00000002     U                 6733 6716B
 $MDF486       2 00002F34 00000002     H  H              6821 6782B 6812  6815B
 $MDF488       2 00002F34 00000002     U                 6812 6795B
 $MDF492       2 00002FB4 00000002     H  H              6900 6861B 6891  6894B
 $MDF494       2 00002FB4 00000002     U                 6891 6874B
 $MDF498       2 00003034 00000002     H  H              6979 6940B 6970  6973B
 $MDF500       2 00003034 00000002     U                 6970 6953B
 $MDF504       2 000030B4 00000002     H  H              7057 7018B 7048  7051B
 $MDF506       2 000030B4 00000002     U                 7048 7031B
 $MDF51        2 000005CE 00000002     H  H               857  841B  846B  852B
 $MDF510       2 00003134 00000002     H  H              7136 7097B 7127  7130B
 $MDF512       2 00003134 00000002     U                 7127 7110B
 $MDF516       2 000031B4 00000002     H  H              7215 7176B 7206  7209B
 $MDF518       2 000031B4 00000002     U                 7206 7189B
 $MDF522       2 00003234 00000002     H  H              7294 7255B 7285  7288B
 $MDF524       2 00003234 00000002     U                 7285 7268B
 $MDF528       2 000032B4 00000002     H  H              7373 7334B 7364  7367B
 $MDF530       2 000032B4 00000002     U                 7364 7347B
 $MDF534       2 00003334 00000002     H  H              7452 7413B 7443  7446B
 $MDF536       2 00003334 00000002     U                 7443 7426B
 $MDF54        2 00000634 00000002     H  H               911  895B  900B  906B
 $MDF540       2 000033B4 00000002     H  H              7531 7492B 7522  7525B
 $MDF542       2 000033B4 00000002     U                 7522 7505B
 $MDF546       2 00003436 00000002     H  H              7612 7573B 7603  7606B
 $MDF548       2 00003436 00000002     U                 7603 7586B
 $MDF552       2 000034B6 00000002     H  H              7691 7652B 7682  7685B
 $MDF554       2 000034B6 00000002     U                 7682 7665B
 $MDF558       2 00003536 00000002     H  H              7770 7731B 7761  7764B
1IFTEST                         Ordinary Symbol and Literal Cross Reference                                     Page  114
-Symbol   Length   Value     Id    R Type Asm  Program   Defn References                     HLASM R6.0  2021/03/26 12.00
0$MDF560       2 00003536 00000002     U                 7761 7744B
 $MDF564       2 000035B6 00000002     H  H              7849 7810B 7840  7843B
 $MDF566       2 000035B6 00000002     U                 7840 7823B
 $MDF57        2 0000069A 00000002     H  H               965  949B  954B  960B
 $MDF570       2 00003636 00000002     H  H              7928 7889B 7919  7922B
 $MDF572       2 00003636 00000002     U                 7919 7902B
 $MDF576       2 000036B6 00000002     H  H              8007 7968B 7998  8001B
 $MDF578       2 000036B6 00000002     U                 7998 7981B
 $MDF582       2 00003736 00000002     H  H              8086 8047B 8077  8080B
 $MDF584       2 00003736 00000002     U                 8077 8060B
 $MDF588       2 000037B6 00000002     H  H              8165 8126B 8156  8159B
 $MDF590       2 000037B6 00000002     U                 8156 8139B
 $MDF594       2 00003836 00000002     H  H              8244 8205B 8235  8238B
 $MDF596       2 00003836 00000002     U                 8235 8218B
 $MDF600       2 000038B6 00000002     H  H              8323 8284B 8314  8317B
 $MDF602       2 000038B6 00000002     U                 8314 8297B
 $MDF606       2 00003936 00000002     H  H              8402 8363B 8393  8396B
 $MDF608       2 00003936 00000002     U                 8393 8376B
 $MDF612       2 000039B6 00000002     H  H              8481 8442B 8472  8475B
 $MDF614       2 000039B6 00000002     U                 8472 8455B
 $MDF618       2 00003A36 00000002     H  H              8560 8521B 8551  8554B
 $MDF620       2 00003A36 00000002     U                 8551 8534B
 $MDF624       2 00003AB6 00000002     H  H              8639 8600B 8630  8633B
 $MDF626       2 00003AB6 00000002     U                 8630 8613B
 $MDF630       2 00003B36 00000002     H  H              8718 8679B 8709  8712B
 $MDF632       2 00003B36 00000002     U                 8709 8692B
 $MDF636       2 00003BB6 00000002     H  H              8797 8758B 8788  8791B
 $MDF638       2 00003BB6 00000002     U                 8788 8771B
 $MDF642       2 00003C36 00000002     H  H              8876 8837B 8867  8870B
 $MDF644       2 00003C36 00000002     U                 8867 8850B
 $MDF648       2 00003CB6 00000002     H  H              8955 8916B 8946  8949B
 $MDF650       2 00003CB6 00000002     U                 8946 8929B
 $MDF654       2 00003D36 00000002     H  H              9034 8995B 9025  9028B
 $MDF656       2 00003D36 00000002     U                 9025 9008B
 $MDF8         2 000000F4 00000002     H  H               178  167B  173B
 $MDF92        4 00000A1E 00000002     I                 1460 1453B
 $MDF97        4 00000A84 00000002     I                 1515 1508B
 $MDT103       2 00000AF2 00000002     H  H              1575 1568B
 $MDT108       2 00000B5A 00000002     H  H              1632 1625B
 $MDT113       2 00000BC0 00000002     H  H              1687 1680B
 $MDT118       2 00000C26 00000002     H  H              1742 1735B
 $MDT123       2 00000C8C 00000002     H  H              1797 1790B
 $MDT128       2 00000CF2 00000002     H  H              1852 1845B
 $MDT133       2 00000D58 00000002     H  H              1917 1908B
 $MDT137       2 00000DBE 00000002     H  H              1977 1968B
 $MDT141       2 00000E24 00000002     H  H              2037 2028B
 $MDT145       2 00000E8A 00000002     H  H              2097 2088B
 $MDT149       2 00000EF0 00000002     H  H              2157 2148B
 $MDT153       2 00000F56 00000002     H  H              2217 2208B
 $MDT157       2 00000FBC 00000002     H  H              2277 2268B
 $MDT161       2 00001022 00000002     H  H              2337 2328B
 $MDT165       2 00001098 00000002     H  H              2406 2394B
 $MDT170       2 0000110C 00000002     H  H              2467 2455B
 $MDT175       2 00001180 00000002     H  H              2528 2516B
 $MDT180       2 000011F4 00000002     H  H              2589 2577B
1IFTEST                         Ordinary Symbol and Literal Cross Reference                                     Page  115
-Symbol   Length   Value     Id    R Type Asm  Program   Defn References                     HLASM R6.0  2021/03/26 12.00
0$MDT185       2 00001268 00000002     H  H              2650 2638B
 $MDT190       2 000012DC 00000002     H  H              2711 2699B
 $MDT195       2 00001350 00000002     H  H              2772 2760B
 $MDT20        2 00000252 00000002     H  H               376  369B
 $MDT200       2 000013C4 00000002     H  H              2833 2821B
 $MDT205       2 00001438 00000002     H  H              2894 2882B
 $MDT210       2 000014AC 00000002     H  H              2955 2943B
 $MDT215       2 00001520 00000002     H  H              3016 3004B
 $MDT220       2 00001594 00000002     H  H              3077 3065B
 $MDT225       2 00001608 00000002     H  H              3138 3126B
 $MDT230       2 0000167C 00000002     H  H              3199 3187B
 $MDT235       2 000016F0 00000002     H  H              3260 3248B
 $MDT24        2 000002AC 00000002     H  H               425  418B
 $MDT240       2 00001764 00000002     H  H              3321 3309B
 $MDT245       6 000017D0 00000002     I                 3389 3380B
 $MDT249       6 00001844 00000002     I                 3454 3445B
 $MDT253       6 000018B8 00000002     I                 3519 3510B
 $MDT257       6 0000192C 00000002     I                 3584 3575B
 $MDT261       6 000019A0 00000002     I                 3649 3640B
 $MDT265       6 00001A14 00000002     I                 3714 3705B
 $MDT269       6 00001A88 00000002     I                 3779 3770B
 $MDT273       6 00001AFC 00000002     I                 3844 3835B
 $MDT277       6 00001B70 00000002     I                 3909 3900B
 $MDT28        2 00000306 00000002     H  H               474  467B
 $MDT281       6 00001BE4 00000002     I                 3974 3965B
 $MDT285       6 00001C58 00000002     I                 4039 4030B
 $MDT289       6 00001CCC 00000002     I                 4104 4095B
 $MDT293       6 00001D40 00000002     I                 4169 4160B
 $MDT297       6 00001DB4 00000002     I                 4234 4225B
 $MDT301       6 00001E28 00000002     I                 4299 4290B
 $MDT305       6 00001E9C 00000002     I                 4364 4355B
 $MDT308       2 00001F1C 00000002     H  H              4436 4419B 4429B
 $MDT313       2 00001F90 00000002     H  H              4497 4480B 4490B
 $MDT318       2 00002004 00000002     H  H              4558 4541B 4551B
 $MDT32        2 00000360 00000002     H  H               523  516B
 $MDT323       2 00002078 00000002     H  H              4619 4602B 4612B
 $MDT328       2 000020EC 00000002     H  H              4680 4663B 4673B
 $MDT333       2 00002160 00000002     H  H              4741 4724B 4734B
 $MDT338       2 000021D4 00000002     H  H              4802 4785B 4795B
 $MDT343       2 00002248 00000002     H  H              4863 4846B 4856B
 $MDT348       2 000022BC 00000002     H  H              4924 4907B 4917B
 $MDT353       2 00002330 00000002     H  H              4985 4968B 4978B
 $MDT358       2 000023A4 00000002     H  H              5046 5029B 5039B
 $MDT363       2 00002418 00000002     H  H              5107 5090B 5100B
 $MDT368       2 0000248C 00000002     H  H              5168 5151B 5161B
 $MDT373       2 00002500 00000002     H  H              5229 5212B 5222B
 $MDT378       2 00002574 00000002     H  H              5290 5273B 5283B
 $MDT383       2 000025E8 00000002     H  H              5351 5334B 5344B
 $MDT388       4 0000264C 00000002     I                 5417 5405B
 $MDT390       2 0000265E 00000002     H  H              5429 5420B
 $MDT393       4 000026C0 00000002     I                 5488 5476B
 $MDT395       2 000026D2 00000002     H  H              5500 5491B
 $MDT398       4 00002734 00000002     I                 5559 5547B
 $MDT400       2 00002746 00000002     H  H              5571 5562B
 $MDT403       4 000027A8 00000002     I                 5630 5618B
1IFTEST                         Ordinary Symbol and Literal Cross Reference                                     Page  116
-Symbol   Length   Value     Id    R Type Asm  Program   Defn References                     HLASM R6.0  2021/03/26 12.00
0$MDT405       2 000027BA 00000002     H  H              5642 5633B
 $MDT408       4 0000281C 00000002     I                 5701 5689B
 $MDT410       2 0000282E 00000002     H  H              5713 5704B
 $MDT413       4 00002890 00000002     I                 5772 5760B
 $MDT415       2 000028A2 00000002     H  H              5784 5775B
 $MDT418       4 00002904 00000002     I                 5843 5831B
 $MDT420       2 00002916 00000002     H  H              5855 5846B
 $MDT423       4 00002978 00000002     I                 5914 5902B
 $MDT425       2 0000298A 00000002     H  H              5926 5917B
 $MDT428       4 000029EC 00000002     I                 5985 5973B
 $MDT430       2 000029FE 00000002     H  H              5997 5988B
 $MDT433       4 00002A60 00000002     I                 6056 6044B
 $MDT435       2 00002A72 00000002     H  H              6068 6059B
 $MDT438       4 00002AD4 00000002     I                 6127 6115B
 $MDT440       2 00002AE6 00000002     H  H              6139 6130B
 $MDT443       4 00002B48 00000002     I                 6198 6186B
 $MDT445       2 00002B5A 00000002     H  H              6210 6201B
 $MDT448       4 00002BBC 00000002     I                 6269 6257B
 $MDT450       2 00002BCE 00000002     H  H              6281 6272B
 $MDT453       4 00002C30 00000002     I                 6340 6328B
 $MDT455       2 00002C42 00000002     H  H              6352 6343B
 $MDT458       4 00002CA4 00000002     I                 6411 6399B
 $MDT460       2 00002CB6 00000002     H  H              6423 6414B
 $MDT463       4 00002D18 00000002     I                 6482 6470B
 $MDT465       2 00002D2A 00000002     H  H              6494 6485B
 $MDT469       2 00002DAA 00000002     H  H              6580 6554B 6573
 $MDT471       2 00002DAA 00000002     U                 6573 6567B
 $MDT475       2 00002E2A 00000002     H  H              6658 6632B 6651
 $MDT477       2 00002E2A 00000002     U                 6651 6645B
 $MDT481       2 00002EAA 00000002     H  H              6737 6711B 6730
 $MDT483       2 00002EAA 00000002     U                 6730 6724B
 $MDT487       2 00002F2A 00000002     H  H              6816 6790B 6809
 $MDT489       2 00002F2A 00000002     U                 6809 6803B
 $MDT493       2 00002FAA 00000002     H  H              6895 6869B 6888
 $MDT495       2 00002FAA 00000002     U                 6888 6882B
 $MDT499       2 0000302A 00000002     H  H              6974 6948B 6967
 $MDT501       2 0000302A 00000002     U                 6967 6961B
 $MDT505       2 000030AA 00000002     H  H              7052 7026B 7045
 $MDT507       2 000030AA 00000002     U                 7045 7039B
 $MDT511       2 0000312A 00000002     H  H              7131 7105B 7124
 $MDT513       2 0000312A 00000002     U                 7124 7118B
 $MDT517       2 000031AA 00000002     H  H              7210 7184B 7203
 $MDT519       2 000031AA 00000002     U                 7203 7197B
 $MDT523       2 0000322A 00000002     H  H              7289 7263B 7282
 $MDT525       2 0000322A 00000002     U                 7282 7276B
 $MDT529       2 000032AA 00000002     H  H              7368 7342B 7361
 $MDT531       2 000032AA 00000002     U                 7361 7355B
 $MDT535       2 0000332A 00000002     H  H              7447 7421B 7440
 $MDT537       2 0000332A 00000002     U                 7440 7434B
 $MDT541       2 000033AA 00000002     H  H              7526 7500B 7519
 $MDT543       2 000033AA 00000002     U                 7519 7513B
 $MDT547       2 0000342C 00000002     H  H              7607 7581B 7600
 $MDT549       2 0000342C 00000002     U                 7600 7594B
 $MDT553       2 000034AC 00000002     H  H              7686 7660B 7679
 $MDT555       2 000034AC 00000002     U                 7679 7673B
1IFTEST                         Ordinary Symbol and Literal Cross Reference                                     Page  117
-Symbol   Length   Value     Id    R Type Asm  Program   Defn References                     HLASM R6.0  2021/03/26 12.00
0$MDT559       2 0000352C 00000002     H  H              7765 7739B 7758
 $MDT561       2 0000352C 00000002     U                 7758 7752B
 $MDT565       2 000035AC 00000002     H  H              7844 7818B 7837
 $MDT567       2 000035AC 00000002     U                 7837 7831B
 $MDT571       2 0000362C 00000002     H  H              7923 7897B 7916
 $MDT573       2 0000362C 00000002     U                 7916 7910B
 $MDT577       2 000036AC 00000002     H  H              8002 7976B 7995
 $MDT579       2 000036AC 00000002     U                 7995 7989B
 $MDT583       2 0000372C 00000002     H  H              8081 8055B 8074
 $MDT585       2 0000372C 00000002     U                 8074 8068B
 $MDT589       2 000037AC 00000002     H  H              8160 8134B 8153
 $MDT591       2 000037AC 00000002     U                 8153 8147B
 $MDT595       2 0000382C 00000002     H  H              8239 8213B 8232
 $MDT597       2 0000382C 00000002     U                 8232 8226B
 $MDT60        2 000006F6 00000002     H  H              1020 1008B 1013B
 $MDT601       2 000038AC 00000002     H  H              8318 8292B 8311
 $MDT603       2 000038AC 00000002     U                 8311 8305B
 $MDT607       2 0000392C 00000002     H  H              8397 8371B 8390
 $MDT609       2 0000392C 00000002     U                 8390 8384B
 $MDT613       2 000039AC 00000002     H  H              8476 8450B 8469
 $MDT615       2 000039AC 00000002     U                 8469 8463B
 $MDT619       2 00003A2C 00000002     H  H              8555 8529B 8548
 $MDT621       2 00003A2C 00000002     U                 8548 8542B
 $MDT625       2 00003AAC 00000002     H  H              8634 8608B 8627
 $MDT627       2 00003AAC 00000002     U                 8627 8621B
 $MDT631       2 00003B2C 00000002     H  H              8713 8687B 8706
 $MDT633       2 00003B2C 00000002     U                 8706 8700B
 $MDT637       2 00003BAC 00000002     H  H              8792 8766B 8785
 $MDT639       2 00003BAC 00000002     U                 8785 8779B
 $MDT64        2 0000075C 00000002     H  H              1075 1063B 1068B
 $MDT643       2 00003C2C 00000002     H  H              8871 8845B 8864
 $MDT645       2 00003C2C 00000002     U                 8864 8858B
 $MDT649       2 00003CAC 00000002     H  H              8950 8924B 8943
 $MDT651       2 00003CAC 00000002     U                 8943 8937B
 $MDT655       2 00003D2C 00000002     H  H              9029 9003B 9022
 $MDT657       2 00003D2C 00000002     U                 9022 9016B
 $MDT68        2 000007C2 00000002     H  H              1130 1118B 1123B
 $MDT72        2 00000828 00000002     H  H              1185 1173B 1178B
 $MDT76        2 0000088E 00000002     H  H              1240 1228B 1233B
 $MDT80        2 000008F4 00000002     H  H              1295 1283B 1288B
 $MDT84        2 0000095A 00000002     H  H              1350 1338B 1343B
 $MDT88        2 000009C0 00000002     H  H              1405 1393B 1398B
 $MDT93        2 00000A26 00000002     H  H              1465 1458B
 $MDT98        2 00000A8C 00000002     H  H              1520 1513B
 $NEXT1        2 00000018 00000002     H  H                44   40B
 $NEXT10       2 0000010A 00000002     H  H               193  189B
 $NEXT101      2 00000AAC 00000002     H  H              1540 1536B
 $NEXT104      2 00000AFC 00000002     H  H              1580 1574B
 $NEXT106      2 00000B12 00000002     H  H              1595 1591B
 $NEXT109      2 00000B64 00000002     H  H              1637 1631B
 $NEXT111      2 00000B7A 00000002     H  H              1652 1648B
 $NEXT114      2 00000BCA 00000002     H  H              1692 1686B
 $NEXT116      2 00000BE0 00000002     H  H              1707 1703B
 $NEXT119      2 00000C30 00000002     H  H              1747 1741B
 $NEXT121      2 00000C46 00000002     H  H              1762 1758B
1IFTEST                         Ordinary Symbol and Literal Cross Reference                                     Page  118
-Symbol   Length   Value     Id    R Type Asm  Program   Defn References                     HLASM R6.0  2021/03/26 12.00
0$NEXT124      2 00000C96 00000002     H  H              1802 1796B
 $NEXT126      2 00000CAC 00000002     H  H              1817 1813B
 $NEXT129      2 00000CFC 00000002     H  H              1857 1851B
 $NEXT13       2 00000164 00000002     H  H               246  242B
 $NEXT131      2 00000D12 00000002     H  H              1872 1868B
 $NEXT135      2 00000D78 00000002     H  H              1937 1933B
 $NEXT139      2 00000DDE 00000002     H  H              1997 1993B
 $NEXT143      2 00000E44 00000002     H  H              2057 2053B
 $NEXT147      2 00000EAA 00000002     H  H              2117 2113B
 $NEXT151      2 00000F10 00000002     H  H              2177 2173B
 $NEXT155      2 00000F76 00000002     H  H              2237 2233B
 $NEXT159      2 00000FDC 00000002     H  H              2297 2293B
 $NEXT16       2 000001BE 00000002     H  H               294  290B
 $NEXT163      2 00001042 00000002     H  H              2357 2353B
 $NEXT168      2 000010B8 00000002     H  H              2426 2422B
 $NEXT173      2 0000112C 00000002     H  H              2487 2483B
 $NEXT178      2 000011A0 00000002     H  H              2548 2544B
 $NEXT183      2 00001214 00000002     H  H              2609 2605B
 $NEXT188      2 00001288 00000002     H  H              2670 2666B
 $NEXT19       2 00000218 00000002     H  H               342  338B
 $NEXT193      2 000012FC 00000002     H  H              2731 2727B
 $NEXT198      2 00001370 00000002     H  H              2792 2788B
 $NEXT2        2 0000004C 00000002     H  H                83   78B
 $NEXT203      2 000013E4 00000002     H  H              2853 2849B
 $NEXT208      2 00001458 00000002     H  H              2914 2910B
 $NEXT21       2 0000025C 00000002     H  H               381  375B
 $NEXT213      2 000014CC 00000002     H  H              2975 2971B
 $NEXT218      2 00001540 00000002     H  H              3036 3032B
 $NEXT223      2 000015B4 00000002     H  H              3097 3093B
 $NEXT228      2 00001628 00000002     H  H              3158 3154B
 $NEXT23       2 00000272 00000002     H  H               396  392B
 $NEXT233      2 0000169C 00000002     H  H              3219 3215B
 $NEXT238      2 00001710 00000002     H  H              3280 3276B
 $NEXT243      2 00001784 00000002     H  H              3341 3337B
 $NEXT247      2 000017FA 00000002     H  H              3413 3409B
 $NEXT25       2 000002B6 00000002     H  H               430  424B
 $NEXT251      2 0000186E 00000002     H  H              3478 3474B
 $NEXT255      2 000018E2 00000002     H  H              3543 3539B
 $NEXT259      2 00001956 00000002     H  H              3608 3604B
 $NEXT263      2 000019CA 00000002     H  H              3673 3669B
 $NEXT267      2 00001A3E 00000002     H  H              3738 3734B
 $NEXT27       2 000002CC 00000002     H  H               445  441B
 $NEXT271      2 00001AB2 00000002     H  H              3803 3799B
 $NEXT275      2 00001B26 00000002     H  H              3868 3864B
 $NEXT279      2 00001B9A 00000002     H  H              3933 3929B
 $NEXT283      2 00001C0E 00000002     H  H              3998 3994B
 $NEXT287      2 00001C82 00000002     H  H              4063 4059B
 $NEXT29       2 00000310 00000002     H  H               479  473B
 $NEXT291      2 00001CF6 00000002     H  H              4128 4124B
 $NEXT295      2 00001D6A 00000002     H  H              4193 4189B
 $NEXT299      2 00001DDE 00000002     H  H              4258 4254B
 $NEXT303      2 00001E52 00000002     H  H              4323 4319B
 $NEXT307      2 00001EC6 00000002     H  H              4388 4384B
 $NEXT31       2 00000326 00000002     H  H               494  490B
 $NEXT310      2 00001F26 00000002     H  H              4441 4435B
1IFTEST                         Ordinary Symbol and Literal Cross Reference                                     Page  119
-Symbol   Length   Value     Id    R Type Asm  Program   Defn References                     HLASM R6.0  2021/03/26 12.00
0$NEXT312      2 00001F3C 00000002     H  H              4456 4452B
 $NEXT315      2 00001F9A 00000002     H  H              4502 4496B
 $NEXT317      2 00001FB0 00000002     H  H              4517 4513B
 $NEXT320      2 0000200E 00000002     H  H              4563 4557B
 $NEXT322      2 00002024 00000002     H  H              4578 4574B
 $NEXT325      2 00002082 00000002     H  H              4624 4618B
 $NEXT327      2 00002098 00000002     H  H              4639 4635B
 $NEXT33       2 0000036A 00000002     H  H               528  522B
 $NEXT330      2 000020F6 00000002     H  H              4685 4679B
 $NEXT332      2 0000210C 00000002     H  H              4700 4696B
 $NEXT335      2 0000216A 00000002     H  H              4746 4740B
 $NEXT337      2 00002180 00000002     H  H              4761 4757B
 $NEXT340      2 000021DE 00000002     H  H              4807 4801B
 $NEXT342      2 000021F4 00000002     H  H              4822 4818B
 $NEXT345      2 00002252 00000002     H  H              4868 4862B
 $NEXT347      2 00002268 00000002     H  H              4883 4879B
 $NEXT35       2 00000380 00000002     H  H               543  539B
 $NEXT350      2 000022C6 00000002     H  H              4929 4923B
 $NEXT352      2 000022DC 00000002     H  H              4944 4940B
 $NEXT355      2 0000233A 00000002     H  H              4990 4984B
 $NEXT357      2 00002350 00000002     H  H              5005 5001B
 $NEXT360      2 000023AE 00000002     H  H              5051 5045B
 $NEXT362      2 000023C4 00000002     H  H              5066 5062B
 $NEXT365      2 00002422 00000002     H  H              5112 5106B
 $NEXT367      2 00002438 00000002     H  H              5127 5123B
 $NEXT370      2 00002496 00000002     H  H              5173 5167B
 $NEXT372      2 000024AC 00000002     H  H              5188 5184B
 $NEXT375      2 0000250A 00000002     H  H              5234 5228B
 $NEXT377      2 00002520 00000002     H  H              5249 5245B
 $NEXT38       2 000003E6 00000002     H  H               602  598B
 $NEXT380      2 0000257E 00000002     H  H              5295 5289B
 $NEXT382      2 00002594 00000002     H  H              5310 5306B
 $NEXT385      2 000025F2 00000002     H  H              5356 5350B
 $NEXT387      2 00002608 00000002     H  H              5371 5367B
 $NEXT392      2 0000267E 00000002     H  H              5449 5445B
 $NEXT397      2 000026F2 00000002     H  H              5520 5516B
 $NEXT4        2 00000062 00000002     H  H                98   94B
 $NEXT402      2 00002766 00000002     H  H              5591 5587B
 $NEXT407      2 000027DA 00000002     H  H              5662 5658B
 $NEXT41       2 0000044C 00000002     H  H               656  652B
 $NEXT412      2 0000284E 00000002     H  H              5733 5729B
 $NEXT417      2 000028C2 00000002     H  H              5804 5800B
 $NEXT422      2 00002936 00000002     H  H              5875 5871B
 $NEXT427      2 000029AA 00000002     H  H              5946 5942B
 $NEXT432      2 00002A1E 00000002     H  H              6017 6013B
 $NEXT437      2 00002A92 00000002     H  H              6088 6084B
 $NEXT44       2 000004B2 00000002     H  H               710  706B
 $NEXT442      2 00002B06 00000002     H  H              6159 6155B
 $NEXT447      2 00002B7A 00000002     H  H              6230 6226B
 $NEXT452      2 00002BEE 00000002     H  H              6301 6297B
 $NEXT457      2 00002C62 00000002     H  H              6372 6368B
 $NEXT462      2 00002CD6 00000002     H  H              6443 6439B
 $NEXT467      2 00002D4A 00000002     H  H              6514 6510B
 $NEXT47       2 00000518 00000002     H  H               764  760B
 $NEXT473      2 00002DCA 00000002     H  H              6600 6596B
1IFTEST                         Ordinary Symbol and Literal Cross Reference                                     Page  120
-Symbol   Length   Value     Id    R Type Asm  Program   Defn References                     HLASM R6.0  2021/03/26 12.00
0$NEXT479      2 00002E4A 00000002     H  H              6678 6674B
 $NEXT485      2 00002ECA 00000002     H  H              6757 6753B
 $NEXT491      2 00002F4A 00000002     H  H              6836 6832B
 $NEXT497      2 00002FCA 00000002     H  H              6915 6911B
 $NEXT5        2 0000009A 00000002     H  H               125  120B
 $NEXT50       2 0000057E 00000002     H  H               818  814B
 $NEXT503      2 0000304A 00000002     H  H              6994 6990B
 $NEXT509      2 000030CA 00000002     H  H              7072 7068B
 $NEXT515      2 0000314A 00000002     H  H              7151 7147B
 $NEXT521      2 000031CA 00000002     H  H              7230 7226B
 $NEXT527      2 0000324A 00000002     H  H              7309 7305B
 $NEXT53       2 000005E4 00000002     H  H               872  868B
 $NEXT533      2 000032CA 00000002     H  H              7388 7384B
 $NEXT539      2 0000334A 00000002     H  H              7467 7463B
 $NEXT545      2 000033CA 00000002     H  H              7546 7542B
 $NEXT551      2 0000344C 00000002     H  H              7627 7623B
 $NEXT557      2 000034CC 00000002     H  H              7706 7702B
 $NEXT56       2 0000064A 00000002     H  H               926  922B
 $NEXT563      2 0000354C 00000002     H  H              7785 7781B
 $NEXT569      2 000035CC 00000002     H  H              7864 7860B
 $NEXT575      2 0000364C 00000002     H  H              7943 7939B
 $NEXT581      2 000036CC 00000002     H  H              8022 8018B
 $NEXT587      2 0000374C 00000002     H  H              8101 8097B
 $NEXT59       2 000006B0 00000002     H  H               980  976B
 $NEXT593      2 000037CC 00000002     H  H              8180 8176B
 $NEXT599      2 0000384C 00000002     H  H              8259 8255B
 $NEXT605      2 000038CC 00000002     H  H              8338 8334B
 $NEXT61       2 00000700 00000002     H  H              1025 1019B
 $NEXT611      2 0000394C 00000002     H  H              8417 8413B
 $NEXT617      2 000039CC 00000002     H  H              8496 8492B
 $NEXT623      2 00003A4C 00000002     H  H              8575 8571B
 $NEXT629      2 00003ACC 00000002     H  H              8654 8650B
 $NEXT63       2 00000716 00000002     H  H              1040 1036B
 $NEXT635      2 00003B4C 00000002     H  H              8733 8729B
 $NEXT641      2 00003BCC 00000002     H  H              8812 8808B
 $NEXT647      2 00003C4C 00000002     H  H              8891 8887B
 $NEXT65       2 00000766 00000002     H  H              1080 1074B
 $NEXT653      2 00003CCC 00000002     H  H              8970 8966B
 $NEXT659      2 00003D4C 00000002     H  H              9049 9045B
 $NEXT67       2 0000077C 00000002     H  H              1095 1091B
 $NEXT69       2 000007CC 00000002     H  H              1135 1129B
 $NEXT7        2 000000B0 00000002     H  H               140  136B
 $NEXT71       2 000007E2 00000002     H  H              1150 1146B
 $NEXT73       2 00000832 00000002     H  H              1190 1184B
 $NEXT75       2 00000848 00000002     H  H              1205 1201B
 $NEXT77       2 00000898 00000002     H  H              1245 1239B
 $NEXT79       2 000008AE 00000002     H  H              1260 1256B
 $NEXT81       2 000008FE 00000002     H  H              1300 1294B
 $NEXT83       2 00000914 00000002     H  H              1315 1311B
 $NEXT85       2 00000964 00000002     H  H              1355 1349B
 $NEXT87       2 0000097A 00000002     H  H              1370 1366B
 $NEXT89       2 000009CA 00000002     H  H              1410 1404B
 $NEXT91       2 000009E0 00000002     H  H              1425 1421B
 $NEXT94       2 00000A30 00000002     H  H              1470 1464B
 $NEXT96       2 00000A46 00000002     H  H              1485 1481B
1IFTEST                         Ordinary Symbol and Literal Cross Reference                                     Page  121
-Symbol   Length   Value     Id    R Type Asm  Program   Defn References                     HLASM R6.0  2021/03/26 12.00
0$NEXT99       2 00000A96 00000002     H  H              1525 1519B
 ACTOUT        5 00004271 00000004     C  C              9243   79M   84M   90   121M  126M  132   174M  179M  185   227M
                                                               232M  238   275M  280M  286   323M  328M  334   377M  382M
                                                               388   426M  431M  437   475M  480M  486   524M  529M  535
                                                               583M  588M  594   637M  642M  648   691M  696M  702   745M
                                                               750M  756   799M  804M  810   853M  858M  864   907M  912M
                                                               918   961M  966M  972  1021M 1026M 1032  1076M 1081M 1087
                                                              1131M 1136M 1142  1186M 1191M 1197  1241M 1246M 1252  1296M
                                                              1301M 1307  1351M 1356M 1362  1406M 1411M 1417  1466M 1471M
                                                              1477  1521M 1526M 1532  1576M 1581M 1587  1633M 1638M 1644
                                                              1688M 1693M 1699  1743M 1748M 1754  1798M 1803M 1809  1853M
                                                              1858M 1864  1918M 1923M 1929  1978M 1983M 1989  2038M 2043M
                                                              2049  2098M 2103M 2109  2158M 2163M 2169  2218M 2223M 2229
                                                              2278M 2283M 2289  2338M 2343M 2349  2407M 2412M 2418  2468M
                                                              2473M 2479  2529M 2534M 2540  2590M 2595M 2601  2651M 2656M
                                                              2662  2712M 2717M 2723  2773M 2778M 2784  2834M 2839M 2845
                                                              2895M 2900M 2906  2956M 2961M 2967  3017M 3022M 3028  3078M
                                                              3083M 3089  3139M 3144M 3150  3200M 3205M 3211  3261M 3266M
                                                              3272  3322M 3327M 3333  3394M 3399M 3405  3459M 3464M 3470
                                                              3524M 3529M 3535  3589M 3594M 3600  3654M 3659M 3665  3719M
                                                              3724M 3730  3784M 3789M 3795  3849M 3854M 3860  3914M 3919M
                                                              3925  3979M 3984M 3990  4044M 4049M 4055  4109M 4114M 4120
                                                              4174M 4179M 4185  4239M 4244M 4250  4304M 4309M 4315  4369M
                                                              4374M 4380  4437M 4442M 4448  4498M 4503M 4509  4559M 4564M
                                                              4570  4620M 4625M 4631  4681M 4686M 4692  4742M 4747M 4753
                                                              4803M 4808M 4814  4864M 4869M 4875  4925M 4930M 4936  4986M
                                                              4991M 4997  5047M 5052M 5058  5108M 5113M 5119  5169M 5174M
                                                              5180  5230M 5235M 5241  5291M 5296M 5302  5352M 5357M 5363
                                                              5430M 5435M 5441  5501M 5506M 5512  5572M 5577M 5583  5643M
                                                              5648M 5654  5714M 5719M 5725  5785M 5790M 5796  5856M 5861M
                                                              5867  5927M 5932M 5938  5998M 6003M 6009  6069M 6074M 6080
                                                              6140M 6145M 6151  6211M 6216M 6222  6282M 6287M 6293  6353M
                                                              6358M 6364  6424M 6429M 6435  6495M 6500M 6506  6581M 6586M
                                                              6592  6659M 6664M 6670  6738M 6743M 6749  6817M 6822M 6828
                                                              6896M 6901M 6907  6975M 6980M 6986  7053M 7058M 7064  7132M
                                                              7137M 7143  7211M 7216M 7222  7290M 7295M 7301  7369M 7374M
                                                              7380  7448M 7453M 7459  7527M 7532M 7538  7608M 7613M 7619
                                                              7687M 7692M 7698  7766M 7771M 7777  7845M 7850M 7856  7924M
                                                              7929M 7935  8003M 8008M 8014  8082M 8087M 8093  8161M 8166M
                                                              8172  8240M 8245M 8251  8319M 8324M 8330  8398M 8403M 8409
                                                              8477M 8482M 8488  8556M 8561M 8567  8635M 8640M 8646  8714M
                                                              8719M 8725  8793M 8798M 8804  8872M 8877M 8883  8951M 8956M
                                                              8962  9030M 9035M 9041
 ERROR        10 00004277 00000004     C  C              9244   95M  108M  137M  150M  190M  203M  243M  256M  291M  304M
                                                               339M  352M  393M  406M  442M  455M  491M  504M  540M  553M
                                                               599M  612M  653M  666M  707M  720M  761M  774M  815M  828M
                                                               869M  882M  923M  936M  977M  990M 1037M 1050M 1092M 1105M
                                                              1147M 1160M 1202M 1215M 1257M 1270M 1312M 1325M 1367M 1380M
                                                              1422M 1435M 1482M 1495M 1537M 1550M 1592M 1605M 1649M 1662M
                                                              1704M 1717M 1759M 1772M 1814M 1827M 1869M 1882M 1934M 1947M
                                                              1994M 2007M 2054M 2067M 2114M 2127M 2174M 2187M 2234M 2247M
                                                              2294M 2307M 2354M 2367M 2423M 2436M 2484M 2497M 2545M 2558M
                                                              2606M 2619M 2667M 2680M 2728M 2741M 2789M 2802M 2850M 2863M
                                                              2911M 2924M 2972M 2985M 3033M 3046M 3094M 3107M 3155M 3168M
                                                              3216M 3229M 3277M 3290M 3338M 3351M 3410M 3423M 3475M 3488M
1IFTEST                         Ordinary Symbol and Literal Cross Reference                                     Page  122
-Symbol   Length   Value     Id    R Type Asm  Program   Defn References                     HLASM R6.0  2021/03/26 12.00
0                                                             3540M 3553M 3605M 3618M 3670M 3683M 3735M 3748M 3800M 3813M
                                                              3865M 3878M 3930M 3943M 3995M 4008M 4060M 4073M 4125M 4138M
                                                              4190M 4203M 4255M 4268M 4320M 4333M 4385M 4398M 4453M 4466M
                                                              4514M 4527M 4575M 4588M 4636M 4649M 4697M 4710M 4758M 4771M
                                                              4819M 4832M 4880M 4893M 4941M 4954M 5002M 5015M 5063M 5076M
                                                              5124M 5137M 5185M 5198M 5246M 5259M 5307M 5320M 5368M 5381M
                                                              5446M 5459M 5517M 5530M 5588M 5601M 5659M 5672M 5730M 5743M
                                                              5801M 5814M 5872M 5885M 5943M 5956M 6014M 6027M 6085M 6098M
                                                              6156M 6169M 6227M 6240M 6298M 6311M 6369M 6382M 6440M 6453M
                                                              6511M 6524M 6597M 6610M 6675M 6688M 6754M 6767M 6833M 6846M
                                                              6912M 6925M 6991M 7004M 7069M 7082M 7148M 7161M 7227M 7240M
                                                              7306M 7319M 7385M 7398M 7464M 7477M 7543M 7556M 7624M 7637M
                                                              7703M 7716M 7782M 7795M 7861M 7874M 7940M 7953M 8019M 8032M
                                                              8098M 8111M 8177M 8190M 8256M 8269M 8335M 8348M 8414M 8427M
                                                              8493M 8506M 8572M 8585M 8651M 8664M 8730M 8743M 8809M 8822M
                                                              8888M 8901M 8967M 8980M 9046M 9059M
 IFTEST        1 00000000 00000002     J                   27   31U   51  9296  9297
 OUTPUT      133 0000423D 00000004     C  C              9236  104   146   199   252   300   348   402   451   500   549
                                                               608   662   716   770   824   878   932   986  1046  1101
                                                              1156  1211  1266  1321  1376  1431  1491  1546  1601  1658
                                                              1713  1768  1823  1878  1943  2003  2063  2123  2183  2243
                                                              2303  2363  2432  2493  2554  2615  2676  2737  2798  2859
                                                              2920  2981  3042  3103  3164  3225  3286  3347  3419  3484
                                                              3549  3614  3679  3744  3809  3874  3939  4004  4069  4134
                                                              4199  4264  4329  4394  4462  4523  4584  4645  4706  4767
                                                              4828  4889  4950  5011  5072  5133  5194  5255  5316  5377
                                                              5455  5526  5597  5668  5739  5810  5881  5952  6023  6094
                                                              6165  6236  6307  6378  6449  6520  6606  6684  6763  6842
                                                              6921  7000  7078  7157  7236  7315  7394  7473  7552  7633
                                                              7712  7791  7870  7949  8028  8107  8186  8265  8344  8423
                                                              8502  8581  8660  8739  8818  8897  8976  9055  9237  9245
 PACK1         4 00004239 00000004     P  P              9235 2380M 2401M 2441M 2462M 2502M 2523M 2563M 2584M 2624M 2645M
                                                              2685M 2706M 2746M 2767M 2807M 2828M 2868M 2889M 2929M 2950M
                                                              2990M 3011M 3051M 3072M 3112M 3133M 3173M 3194M 3234M 3255M
                                                              3295M 3316M 3363M 3389M 3428M 3454M 3493M 3519M 3558M 3584M
                                                              3623M 3649M 3688M 3714M 3753M 3779M 3818M 3844M 3883M 3909M
                                                              3948M 3974M 4013M 4039M 4078M 4104M 4143M 4169M 4208M 4234M
                                                              4273M 4299M 4338M 4364M 4410M 4431M 4471M 4492M 4532M 4553M
                                                              4593M 4614M 4654M 4675M 4715M 4736M 4776M 4797M 4837M 4858M
                                                              4898M 4919M 4959M 4980M 5020M 5041M 5081M 5102M 5142M 5163M
                                                              5203M 5224M 5264M 5285M 5325M 5346M 5393M 5422M 5464M 5493M
                                                              5535M 5564M 5606M 5635M 5677M 5706M 5748M 5777M 5819M 5848M
                                                              5890M 5919M 5961M 5990M 6032M 6061M 6103M 6132M 6174M 6203M
                                                              6245M 6274M 6316M 6345M 6387M 6416M 6458M 6487M 6536M 6564M
                                                              6615M 6642M 6693M 6721M 6772M 6800M 6851M 6879M 6930M 6958M
                                                              7009M 7036M 7087M 7115M 7166M 7194M 7245M 7273M 7324M 7352M
                                                              7403M 7431M 7482M 7510M 7563M 7591M 7642M 7670M 7721M 7749M
                                                              7800M 7828M 7879M 7907M 7958M 7986M 8037M 8065M 8116M 8144M
                                                              8195M 8223M 8274M 8302M 8353M 8381M 8432M 8460M 8511M 8539M
                                                              8590M 8618M 8669M 8697M 8748M 8776M 8827M 8855M 8906M 8934M
                                                              8985M 9013M
 PREDOUT       5 0000425A 00000004     C  C              9241   69M   90   111M  132   159M  185   212M  238   260M  286
                                                               308M  334   361M  388   410M  437   459M  486   508M  535
                                                               563M  594   617M  648   671M  702   725M  756   779M  810
                                                               833M  864   887M  918   941M  972  1000M 1032  1055M 1087
1IFTEST                         Ordinary Symbol and Literal Cross Reference                                     Page  123
-Symbol   Length   Value     Id    R Type Asm  Program   Defn References                     HLASM R6.0  2021/03/26 12.00
0                                                             1110M 1142  1165M 1197  1220M 1252  1275M 1307  1330M 1362
                                                              1385M 1417  1445M 1477  1500M 1532  1555M 1587  1612M 1644
                                                              1667M 1699  1722M 1754  1777M 1809  1832M 1864  1892M 1929
                                                              1952M 1989  2012M 2049  2072M 2109  2132M 2169  2192M 2229
                                                              2252M 2289  2312M 2349  2381M 2418  2442M 2479  2503M 2540
                                                              2564M 2601  2625M 2662  2686M 2723  2747M 2784  2808M 2845
                                                              2869M 2906  2930M 2967  2991M 3028  3052M 3089  3113M 3150
                                                              3174M 3211  3235M 3272  3296M 3333  3364M 3405  3429M 3470
                                                              3494M 3535  3559M 3600  3624M 3665  3689M 3730  3754M 3795
                                                              3819M 3860  3884M 3925  3949M 3990  4014M 4055  4079M 4120
                                                              4144M 4185  4209M 4250  4274M 4315  4339M 4380  4411M 4448
                                                              4472M 4509  4533M 4570  4594M 4631  4655M 4692  4716M 4753
                                                              4777M 4814  4838M 4875  4899M 4936  4960M 4997  5021M 5058
                                                              5082M 5119  5143M 5180  5204M 5241  5265M 5302  5326M 5363
                                                              5394M 5441  5465M 5512  5536M 5583  5607M 5654  5678M 5725
                                                              5749M 5796  5820M 5867  5891M 5938  5962M 6009  6033M 6080
                                                              6104M 6151  6175M 6222  6246M 6293  6317M 6364  6388M 6435
                                                              6459M 6506  6538M 6592  6617M 6670  6695M 6749  6774M 6828
                                                              6853M 6907  6932M 6986  7011M 7064  7089M 7143  7168M 7222
                                                              7247M 7301  7326M 7380  7405M 7459  7484M 7538  7565M 7619
                                                              7644M 7698  7723M 7777  7802M 7856  7881M 7935  7960M 8014
                                                              8039M 8093  8118M 8172  8197M 8251  8276M 8330  8355M 8409
                                                              8434M 8488  8513M 8567  8592M 8646  8671M 8725  8750M 8804
                                                              8829M 8883  8908M 8962  8987M 9041
 R1            1 00000001 00000001 A   U                   11   32M   36    36    46    47
 R12           1 0000000C 00000001 A   U                   22   29    30M   31U 1607M 1608U 2375M 2376U 3358M 3359U 4405M
                                                              4406U 5388M 5389U 7558M 7559U 9066M 9067U 9078M 9079D
 R13           1 0000000D 00000001 A   U                   23   29    32    33M   45U   47  9076M 9077D 9078
 R14           1 0000000E 00000001 A   U                   24   29  9078M 9081B
 R15           1 0000000F 00000001 A   U                   25   30  2378M 2391M 2391  2439M 2452M 2452  2500M 2513M 2513
                                                              2561M 2574M 2574  2622M 2635M 2635  2683M 2696M 2696  2744M
                                                              2757M 2757  2805M 2818M 2818  2866M 2879M 2879  2927M 2940M
                                                              2940  2988M 3001M 3001  3049M 3062M 3062  3110M 3123M 3123
                                                              3171M 3184M 3184  3232M 3245M 3245  3293M 3306M 3306  3361M
                                                              3377M 3377  3426M 3442M 3442  3491M 3507M 3507  3556M 3572M
                                                              3572  3621M 3637M 3637  3686M 3702M 3702  3751M 3767M 3767
                                                              3816M 3832M 3832  3881M 3897M 3897  3946M 3962M 3962  4011M
                                                              4027M 4027  4076M 4092M 4092  4141M 4157M 4157  4206M 4222M
                                                              4222  4271M 4287M 4287  4336M 4352M 4352  4408M 4421M 4421
                                                              4469M 4482M 4482  4530M 4543M 4543  4591M 4604M 4604  4652M
                                                              4665M 4665  4713M 4726M 4726  4774M 4787M 4787  4835M 4848M
                                                              4848  4896M 4909M 4909  4957M 4970M 4970  5018M 5031M 5031
                                                              5079M 5092M 5092  5140M 5153M 5153  5201M 5214M 5214  5262M
                                                              5275M 5275  5323M 5336M 5336  5391M 5407M 5407  5462M 5478M
                                                              5478  5533M 5549M 5549  5604M 5620M 5620  5675M 5691M 5691
                                                              5746M 5762M 5762  5817M 5833M 5833  5888M 5904M 5904  5959M
                                                              5975M 5975  6030M 6046M 6046  6101M 6117M 6117  6172M 6188M
                                                              6188  6243M 6259M 6259  6314M 6330M 6330  6385M 6401M 6401
                                                              6456M 6472M 6472  6534M 6551M 6551  6613M 6629M 6629  6691M
                                                              6708M 6708  6770M 6787M 6787  6849M 6866M 6866  6928M 6945M
                                                              6945  7007M 7023M 7023  7085M 7102M 7102  7164M 7181M 7181
                                                              7243M 7260M 7260  7322M 7339M 7339  7401M 7418M 7418  7480M
                                                              7497M 7497  7561M 7578M 7578  7640M 7657M 7657  7719M 7736M
                                                              7736  7798M 7815M 7815  7877M 7894M 7894  7956M 7973M 7973
                                                              8035M 8052M 8052  8114M 8131M 8131  8193M 8210M 8210  8272M
1IFTEST                         Ordinary Symbol and Literal Cross Reference                                     Page  124
-Symbol   Length   Value     Id    R Type Asm  Program   Defn References                     HLASM R6.0  2021/03/26 12.00
0                                                             8289M 8289  8351M 8368M 8368  8430M 8447M 8447  8509M 8526M
                                                              8526  8588M 8605M 8605  8667M 8684M 8684  8746M 8763M 8763
                                                              8825M 8842M 8842  8904M 8921M 8921  8983M 9000M 9000  9080M
                                                              9080
 SAVEAREA      4 00003D80 00000004     F  F                50   46M 9076
 SYSPRINT      4 000042C8 00000004     F  F              9258   58   103   145   198   251   299   347   401   450   499
                                                               548   607   661   715   769   823   877   931   985  1045
                                                              1100  1155  1210  1265  1320  1375  1430  1490  1545  1600
                                                              1657  1712  1767  1822  1877  1942  2002  2062  2122  2182
                                                              2242  2302  2362  2431  2492  2553  2614  2675  2736  2797
                                                              2858  2919  2980  3041  3102  3163  3224  3285  3346  3418
                                                              3483  3548  3613  3678  3743  3808  3873  3938  4003  4068
                                                              4133  4198  4263  4328  4393  4461  4522  4583  4644  4705
                                                              4766  4827  4888  4949  5010  5071  5132  5193  5254  5315
                                                              5376  5454  5525  5596  5667  5738  5809  5880  5951  6022
                                                              6093  6164  6235  6306  6377  6448  6519  6605  6683  6762
                                                              6841  6920  6999  7077  7156  7235  7314  7393  7472  7551
                                                              7632  7711  7790  7869  7948  8027  8106  8185  8264  8343
                                                              8422  8501  8580  8659  8738  8817  8896  8975  9054  9073
 TESTNBR       8 0000423E 00000004     C  C              9239   70M  112M  160M  213M  261M  309M  362M  411M  460M  509M
                                                               564M  618M  672M  726M  780M  834M  888M  942M 1001M 1056M
                                                              1111M 1166M 1221M 1276M 1331M 1386M 1446M 1501M 1556M 1613M
                                                              1668M 1723M 1778M 1833M 1893M 1953M 2013M 2073M 2133M 2193M
                                                              2253M 2313M 2382M 2443M 2504M 2565M 2626M 2687M 2748M 2809M
                                                              2870M 2931M 2992M 3053M 3114M 3175M 3236M 3297M 3365M 3430M
                                                              3495M 3560M 3625M 3690M 3755M 3820M 3885M 3950M 4015M 4080M
                                                              4145M 4210M 4275M 4340M 4412M 4473M 4534M 4595M 4656M 4717M
                                                              4778M 4839M 4900M 4961M 5022M 5083M 5144M 5205M 5266M 5327M
                                                              5395M 5466M 5537M 5608M 5679M 5750M 5821M 5892M 5963M 6034M
                                                              6105M 6176M 6247M 6318M 6389M 6460M 6539M 6618M 6696M 6775M
                                                              6854M 6933M 7012M 7090M 7169M 7248M 7327M 7406M 7485M 7566M
                                                              7645M 7724M 7803M 7882M 7961M 8040M 8119M 8198M 8277M 8356M
                                                              8435M 8514M 8593M 8672M 8751M 8830M 8909M 8988M
 TSWITCH       1 000042C6 00000004     X  X              9250 6537M 6569  6616M 6647  6694M 6726  6773M 6805  6852M 6884
                                                              6931M 6963  7010M 7041  7088M 7120  7167M 7199  7246M 7278
                                                              7325M 7357  7404M 7436  7483M 7515  7564M 7596  7643M 7675
                                                              7722M 7754  7801M 7833  7880M 7912  7959M 7991  8038M 8070
                                                              8117M 8149  8196M 8228  8275M 8307  8354M 8386  8433M 8465
                                                              8512M 8544  8591M 8623  8670M 8702  8749M 8781  8828M 8860
                                                              8907M 8939  8986M 9018
 VARBL1        1 000042C2 00000004     C  C              9246   68M   74   110M  116   157M  164   210M  217   258M  265
                                                               306M  313   359M  366   408M  415   457M  464   506M  513
                                                               560M  568   614M  622   668M  676   722M  730   776M  784
                                                               830M  838   884M  892   938M  946   997M 1005  1052M 1060
                                                              1107M 1115  1162M 1170  1217M 1225  1272M 1280  1327M 1335
                                                              1382M 1390  1442M 1450  1497M 1505  1552M 1560  1609M 1617
                                                              1664M 1672  1719M 1727  1774M 1782  1829M 1837  1889M 1897
                                                              1949M 1957  2009M 2017  2069M 2077  2129M 2137  2189M 2197
                                                              2249M 2257  2309M 2317  2377M 2386  2438M 2447  2499M 2508
                                                              2560M 2569  2621M 2630  2682M 2691  2743M 2752  2804M 2813
                                                              2865M 2874  2926M 2935  2987M 2996  3048M 3057  3109M 3118
                                                              3170M 3179  3231M 3240  3292M 3301  3360M 3369  3425M 3434
                                                              3490M 3499  3555M 3564  3620M 3629  3685M 3694  3750M 3759
                                                              3815M 3824  3880M 3889  3945M 3954  4010M 4019  4075M 4084
                                                              4140M 4149  4205M 4214  4270M 4279  4335M 4344  4407M 4416
1IFTEST                         Ordinary Symbol and Literal Cross Reference                                     Page  125
-Symbol   Length   Value     Id    R Type Asm  Program   Defn References                     HLASM R6.0  2021/03/26 12.00
0                                                             4468M 4477  4529M 4538  4590M 4599  4651M 4660  4712M 4721
                                                              4773M 4782  4834M 4843  4895M 4904  4956M 4965  5017M 5026
                                                              5078M 5087  5139M 5148  5200M 5209  5261M 5270  5322M 5331
                                                              5390M 5402  5461M 5473  5532M 5544  5603M 5615  5674M 5686
                                                              5745M 5757  5816M 5828  5887M 5899  5958M 5970  6029M 6041
                                                              6100M 6112  6171M 6183  6242M 6254  6313M 6325  6384M 6396
                                                              6455M 6467  6533M 6543  6612M 6621  6690M 6700  6769M 6779
                                                              6848M 6858  6927M 6937  7006M 7015  7084M 7094  7163M 7173
                                                              7242M 7252  7321M 7331  7400M 7410  7479M 7489  7560M 7570
                                                              7639M 7649  7718M 7728  7797M 7807  7876M 7886  7955M 7965
                                                              8034M 8044  8113M 8123  8192M 8202  8271M 8281  8350M 8360
                                                              8429M 8439  8508M 8518  8587M 8597  8666M 8676  8745M 8755
                                                              8824M 8834  8903M 8913  8982M 8992
 VARBL2        1 000042C3 00000004     C  C              9247  158M  169   211M  222   259M  270   307M  318   360M  371
                                                               409M  420   458M  469   507M  518   561M  573   615M  627
                                                               669M  681   723M  735   777M  789   831M  843   885M  897
                                                               939M  951   998M 1010  1053M 1065  1108M 1120  1163M 1175
                                                              1218M 1230  1273M 1285  1328M 1340  1383M 1395  1443M 1455
                                                              1498M 1510  1553M 1565  1610M 1622  1665M 1677  1720M 1732
                                                              1775M 1787  1830M 1842  1890M 1905  1950M 1965  2010M 2025
                                                              2070M 2085  2130M 2145  2190M 2205  2250M 2265  2310M 2325
 VARBL3        1 000042C4 00000004     C  C              9248  562M  578   616M  632   670M  686   724M  740   778M  794
                                                               832M  848   886M  902   940M  956   999M 1015  1054M 1070
                                                              1109M 1125  1164M 1180  1219M 1235  1274M 1290  1329M 1345
                                                              1384M 1400  1444M 1460  1499M 1515  1554M 1570  1611M 1627
                                                              1666M 1682  1721M 1737  1776M 1792  1831M 1847  1891M 1910
                                                              1951M 1970  2011M 2030  2071M 2090  2131M 2150  2191M 2210
                                                              2251M 2270  2311M 2330  2379M 2396  2440M 2457  2501M 2518
                                                              2562M 2579  2623M 2640  2684M 2701  2745M 2762  2806M 2823
                                                              2867M 2884  2928M 2945  2989M 3006  3050M 3067  3111M 3128
                                                              3172M 3189  3233M 3250  3294M 3311  3362M 3382  3427M 3447
                                                              3492M 3512  3557M 3577  3622M 3642  3687M 3707  3752M 3772
                                                              3817M 3837  3882M 3902  3947M 3967  4012M 4032  4077M 4097
                                                              4142M 4162  4207M 4227  4272M 4292  4337M 4357  4409M 4426
                                                              4470M 4487  4531M 4548  4592M 4609  4653M 4670  4714M 4731
                                                              4775M 4792  4836M 4853  4897M 4914  4958M 4975  5019M 5036
                                                              5080M 5097  5141M 5158  5202M 5219  5263M 5280  5324M 5341
                                                              5392M 5417  5463M 5488  5534M 5559  5605M 5630  5676M 5701
                                                              5747M 5772  5818M 5843  5889M 5914  5960M 5985  6031M 6056
                                                              6102M 6127  6173M 6198  6244M 6269  6315M 6340  6386M 6411
                                                              6457M 6482  6535M 6556  6614M 6634  6692M 6713  6771M 6792
                                                              6850M 6871  6929M 6950  7008M 7028  7086M 7107  7165M 7186
                                                              7244M 7265  7323M 7344  7402M 7423  7481M 7502  7562M 7583
                                                              7641M 7662  7720M 7741  7799M 7820  7878M 7899  7957M 7978
                                                              8036M 8057  8115M 8136  8194M 8215  8273M 8294  8352M 8373
                                                              8431M 8452  8510M 8531  8589M 8610  8668M 8689  8747M 8768
                                                              8826M 8847  8905M 8926  8984M 9005
 VCON$WA$      4 00000014 00000002     V  V                41   33
 =C'<=== ERROR'
              10 00004218 00000004     C                 9223   95   137   190   243   291   339   393   442   491   540
                                                               599   653   707   761   815   869   923   977  1037  1092
                                                              1147  1202  1257  1312  1367  1422  1482  1537  1592  1649
                                                              1704  1759  1814  1869  1934  1994  2054  2114  2174  2234
                                                              2294  2354  2423  2484  2545  2606  2667  2728  2789  2850
                                                              2911  2972  3033  3094  3155  3216  3277  3338  3410  3475
1IFTEST                         Ordinary Symbol and Literal Cross Reference                                     Page  126
-Symbol   Length   Value     Id    R Type Asm  Program   Defn References                     HLASM R6.0  2021/03/26 12.00
0                                                             3540  3605  3670  3735  3800  3865  3930  3995  4060  4125
                                                              4190  4255  4320  4385  4453  4514  4575  4636  4697  4758
                                                              4819  4880  4941  5002  5063  5124  5185  5246  5307  5368
                                                              5446  5517  5588  5659  5730  5801  5872  5943  6014  6085
                                                              6156  6227  6298  6369  6440  6511  6597  6675  6754  6833
                                                              6912  6991  7069  7148  7227  7306  7385  7464  7543  7624
                                                              7703  7782  7861  7940  8019  8098  8177  8256  8335  8414
                                                              8493  8572  8651  8730  8809  8888  8967  9046
 =C'FALSE'
               5 00004231 00000004     C                 9226   84   111   126   179   212   232   260   280   308   328
                                                               382   431   480   508   529   588   617   642   671   696
                                                               725   750   779   804   833   858   887   912   941   966
                                                              1026  1081  1136  1191  1246  1301  1356  1385  1411  1471
                                                              1526  1581  1638  1693  1722  1748  1777  1803  1832  1858
                                                              1923  1952  1983  2043  2072  2103  2163  2192  2223  2252
                                                              2283  2312  2343  2412  2473  2534  2595  2656  2686  2717
                                                              2747  2778  2808  2839  2900  2930  2961  2991  3022  3052
                                                              3083  3144  3174  3205  3235  3266  3296  3327  3399  3429
                                                              3464  3529  3559  3594  3659  3689  3724  3754  3789  3819
                                                              3854  3884  3919  3949  3984  4014  4049  4079  4114  4144
                                                              4179  4209  4244  4274  4309  4339  4374  4442  4503  4564
                                                              4625  4686  4747  4808  4869  4930  4991  5052  5082  5113
                                                              5174  5204  5235  5296  5326  5357  5435  5506  5577  5607
                                                              5648  5719  5790  5861  5891  5932  6003  6074  6145  6175
                                                              6216  6246  6287  6317  6358  6388  6429  6459  6500  6586
                                                              6617  6664  6743  6774  6822  6901  6932  6980  7011  7058
                                                              7089  7137  7216  7247  7295  7374  7405  7453  7532  7565
                                                              7613  7644  7692  7723  7771  7850  7881  7929  8008  8039
                                                              8087  8166  8197  8245  8276  8324  8355  8403  8482  8513
                                                              8561  8592  8640  8671  8719  8798  8829  8877  8908  8956
                                                              8987  9035
 =C'TEST010A'
               8 00003DC8 00000004     C                 9085   70
 =C'TEST010B'
               8 00003DD0 00000004     C                 9086  112
 =C'TEST030A'
               8 00003DD8 00000004     C                 9087  160
 =C'TEST030B'
               8 00003DE0 00000004     C                 9088  213
 =C'TEST030C'
               8 00003DE8 00000004     C                 9089  261
 =C'TEST030D'
               8 00003DF0 00000004     C                 9090  309
 =C'TEST040A'
               8 00003DF8 00000004     C                 9091  362
 =C'TEST040B'
               8 00003E00 00000004     C                 9092  411
 =C'TEST040C'
               8 00003E08 00000004     C                 9093  460
 =C'TEST040D'
               8 00003E10 00000004     C                 9094  509
 =C'TEST050A'
               8 00003E18 00000004     C                 9095  564
 =C'TEST050B'
               8 00003E20 00000004     C                 9096  618
1IFTEST                         Ordinary Symbol and Literal Cross Reference                                     Page  127
-Symbol   Length   Value     Id    R Type Asm  Program   Defn References                     HLASM R6.0  2021/03/26 12.00
0=C'TEST050C'
               8 00003E28 00000004     C                 9097  672
 =C'TEST050D'
               8 00003E30 00000004     C                 9098  726
 =C'TEST050E'
               8 00003E38 00000004     C                 9099  780
 =C'TEST050F'
               8 00003E40 00000004     C                 9100  834
 =C'TEST050G'
               8 00003E48 00000004     C                 9101  888
 =C'TEST050H'
               8 00003E50 00000004     C                 9102  942
 =C'TEST060A'
               8 00003E58 00000004     C                 9103 1001
 =C'TEST060B'
               8 00003E60 00000004     C                 9104 1056
 =C'TEST060C'
               8 00003E68 00000004     C                 9105 1111
 =C'TEST060D'
               8 00003E70 00000004     C                 9106 1166
 =C'TEST060E'
               8 00003E78 00000004     C                 9107 1221
 =C'TEST060F'
               8 00003E80 00000004     C                 9108 1276
 =C'TEST060G'
               8 00003E88 00000004     C                 9109 1331
 =C'TEST060H'
               8 00003E90 00000004     C                 9110 1386
 =C'TEST070A'
               8 00003E98 00000004     C                 9111 1446
 =C'TEST070B'
               8 00003EA0 00000004     C                 9112 1501
 =C'TEST070C'
               8 00003EA8 00000004     C                 9113 1556
 =C'TEST070D'
               8 00003EB0 00000004     C                 9114 1613
 =C'TEST070E'
               8 00003EB8 00000004     C                 9115 1668
 =C'TEST070F'
               8 00003EC0 00000004     C                 9116 1723
 =C'TEST070G'
               8 00003EC8 00000004     C                 9117 1778
 =C'TEST070H'
               8 00003ED0 00000004     C                 9118 1833
 =C'TEST080A'
               8 00003ED8 00000004     C                 9119 1893
 =C'TEST080B'
               8 00003EE0 00000004     C                 9120 1953
 =C'TEST080C'
               8 00003EE8 00000004     C                 9121 2013
 =C'TEST080D'
               8 00003EF0 00000004     C                 9122 2073
 =C'TEST080E'
               8 00003EF8 00000004     C                 9123 2133
 =C'TEST080F'
1IFTEST                         Ordinary Symbol and Literal Cross Reference                                     Page  128
-Symbol   Length   Value     Id    R Type Asm  Program   Defn References                     HLASM R6.0  2021/03/26 12.00
0              8 00003F00 00000004     C                 9124 2193
 =C'TEST080G'
               8 00003F08 00000004     C                 9125 2253
 =C'TEST080H'
               8 00003F10 00000004     C                 9126 2313
 =C'TEST090A'
               8 00003F18 00000004     C                 9127 2382
 =C'TEST090B'
               8 00003F20 00000004     C                 9128 2443
 =C'TEST090C'
               8 00003F28 00000004     C                 9129 2504
 =C'TEST090D'
               8 00003F30 00000004     C                 9130 2565
 =C'TEST090E'
               8 00003F38 00000004     C                 9131 2626
 =C'TEST090F'
               8 00003F40 00000004     C                 9132 2687
 =C'TEST090G'
               8 00003F48 00000004     C                 9133 2748
 =C'TEST090H'
               8 00003F50 00000004     C                 9134 2809
 =C'TEST090I'
               8 00003F58 00000004     C                 9135 2870
 =C'TEST090J'
               8 00003F60 00000004     C                 9136 2931
 =C'TEST090K'
               8 00003F68 00000004     C                 9137 2992
 =C'TEST090L'
               8 00003F70 00000004     C                 9138 3053
 =C'TEST090M'
               8 00003F78 00000004     C                 9139 3114
 =C'TEST090N'
               8 00003F80 00000004     C                 9140 3175
 =C'TEST090O'
               8 00003F88 00000004     C                 9141 3236
 =C'TEST090P'
               8 00003F90 00000004     C                 9142 3297
 =C'TEST100A'
               8 00003F98 00000004     C                 9143 3365
 =C'TEST100B'
               8 00003FA0 00000004     C                 9144 3430
 =C'TEST100C'
               8 00003FA8 00000004     C                 9145 3495
 =C'TEST100D'
               8 00003FB0 00000004     C                 9146 3560
 =C'TEST100E'
               8 00003FB8 00000004     C                 9147 3625
 =C'TEST100F'
               8 00003FC0 00000004     C                 9148 3690
 =C'TEST100G'
               8 00003FC8 00000004     C                 9149 3755
 =C'TEST100H'
               8 00003FD0 00000004     C                 9150 3820
 =C'TEST100I'
               8 00003FD8 00000004     C                 9151 3885
1IFTEST                         Ordinary Symbol and Literal Cross Reference                                     Page  129
-Symbol   Length   Value     Id    R Type Asm  Program   Defn References                     HLASM R6.0  2021/03/26 12.00
0=C'TEST100J'
               8 00003FE0 00000004     C                 9152 3950
 =C'TEST100K'
               8 00003FE8 00000004     C                 9153 4015
 =C'TEST100L'
               8 00003FF0 00000004     C                 9154 4080
 =C'TEST100M'
               8 00003FF8 00000004     C                 9155 4145
 =C'TEST100N'
               8 00004000 00000004     C                 9156 4210
 =C'TEST100O'
               8 00004008 00000004     C                 9157 4275
 =C'TEST100P'
               8 00004010 00000004     C                 9158 4340
 =C'TEST110A'
               8 00004018 00000004     C                 9159 4412
 =C'TEST110B'
               8 00004020 00000004     C                 9160 4473
 =C'TEST110C'
               8 00004028 00000004     C                 9161 4534
 =C'TEST110D'
               8 00004030 00000004     C                 9162 4595
 =C'TEST110E'
               8 00004038 00000004     C                 9163 4656
 =C'TEST110F'
               8 00004040 00000004     C                 9164 4717
 =C'TEST110G'
               8 00004048 00000004     C                 9165 4778
 =C'TEST110H'
               8 00004050 00000004     C                 9166 4839
 =C'TEST110I'
               8 00004058 00000004     C                 9167 4900
 =C'TEST110J'
               8 00004060 00000004     C                 9168 4961
 =C'TEST110K'
               8 00004068 00000004     C                 9169 5022
 =C'TEST110L'
               8 00004070 00000004     C                 9170 5083
 =C'TEST110M'
               8 00004078 00000004     C                 9171 5144
 =C'TEST110N'
               8 00004080 00000004     C                 9172 5205
 =C'TEST110O'
               8 00004088 00000004     C                 9173 5266
 =C'TEST110P'
               8 00004090 00000004     C                 9174 5327
 =C'TEST120A'
               8 00004098 00000004     C                 9175 5395
 =C'TEST120B'
               8 000040A0 00000004     C                 9176 5466
 =C'TEST120C'
               8 000040A8 00000004     C                 9177 5537
 =C'TEST120D'
               8 000040B0 00000004     C                 9178 5608
 =C'TEST120E'
1IFTEST                         Ordinary Symbol and Literal Cross Reference                                     Page  130
-Symbol   Length   Value     Id    R Type Asm  Program   Defn References                     HLASM R6.0  2021/03/26 12.00
0              8 000040B8 00000004     C                 9179 5679
 =C'TEST120F'
               8 000040C0 00000004     C                 9180 5750
 =C'TEST120G'
               8 000040C8 00000004     C                 9181 5821
 =C'TEST120H'
               8 000040D0 00000004     C                 9182 5892
 =C'TEST120I'
               8 000040D8 00000004     C                 9183 5963
 =C'TEST120J'
               8 000040E0 00000004     C                 9184 6034
 =C'TEST120K'
               8 000040E8 00000004     C                 9185 6105
 =C'TEST120L'
               8 000040F0 00000004     C                 9186 6176
 =C'TEST120M'
               8 000040F8 00000004     C                 9187 6247
 =C'TEST120N'
               8 00004100 00000004     C                 9188 6318
 =C'TEST120O'
               8 00004108 00000004     C                 9189 6389
 =C'TEST120P'
               8 00004110 00000004     C                 9190 6460
 =C'TEST130A'
               8 00004118 00000004     C                 9191 6539
 =C'TEST130B'
               8 00004120 00000004     C                 9192 6618
 =C'TEST130C'
               8 00004128 00000004     C                 9193 6696
 =C'TEST130D'
               8 00004130 00000004     C                 9194 6775
 =C'TEST130E'
               8 00004138 00000004     C                 9195 6854
 =C'TEST130F'
               8 00004140 00000004     C                 9196 6933
 =C'TEST130G'
               8 00004148 00000004     C                 9197 7012
 =C'TEST130H'
               8 00004150 00000004     C                 9198 7090
 =C'TEST130I'
               8 00004158 00000004     C                 9199 7169
 =C'TEST130J'
               8 00004160 00000004     C                 9200 7248
 =C'TEST130K'
               8 00004168 00000004     C                 9201 7327
 =C'TEST130L'
               8 00004170 00000004     C                 9202 7406
 =C'TEST130M'
               8 00004178 00000004     C                 9203 7485
 =C'TEST130N'
               8 00004180 00000004     C                 9204 7566
 =C'TEST130O'
               8 00004188 00000004     C                 9205 7645
 =C'TEST130P'
               8 00004190 00000004     C                 9206 7724
1IFTEST                         Ordinary Symbol and Literal Cross Reference                                     Page  131
-Symbol   Length   Value     Id    R Type Asm  Program   Defn References                     HLASM R6.0  2021/03/26 12.00
0=C'TEST130Q'
               8 00004198 00000004     C                 9207 7803
 =C'TEST130S'
               8 000041A8 00000004     C                 9209 7961
 =C'TEST130T'
               8 000041B0 00000004     C                 9210 8040
 =C'TEST130U'
               8 000041B8 00000004     C                 9211 8119
 =C'TEST130V'
               8 000041C0 00000004     C                 9212 8198
 =C'TEST130X'
               8 000041D0 00000004     C                 9214 8356
 =C'TEST130Y'
               8 000041D8 00000004     C                 9215 8435
 =C'TEST130Z'
               8 000041E0 00000004     C                 9216 8514
 =C'TEST1300'
               8 000041E8 00000004     C                 9217 8593
 =C'TEST1301'
               8 000041F0 00000004     C                 9218 8672
 =C'TEST1302'
               8 000041F8 00000004     C                 9219 8751
 =C'TEST1303'
               8 00004200 00000004     C                 9220 8830
 =C'TEST1304'
               8 00004208 00000004     C                 9221 8909
 =C'TEST1305'
               8 00004210 00000004     C                 9222 8988
 =C'TEST230R'
               8 000041A0 00000004     C                 9208 7882
 =C'TEST230W'
               8 000041C8 00000004     C                 9213 8277
 =C'TRUE '
               5 0000422C 00000004     C                 9225   69    79   121   159   174   227   275   323   361   377
                                                               410   426   459   475   524   563   583   637   691   745
                                                               799   853   907   961  1000  1021  1055  1076  1110  1131
                                                              1165  1186  1220  1241  1275  1296  1330  1351  1406  1445
                                                              1466  1500  1521  1555  1576  1612  1633  1667  1688  1743
                                                              1798  1853  1892  1918  1978  2012  2038  2098  2132  2158
                                                              2218  2278  2338  2381  2407  2442  2468  2503  2529  2564
                                                              2590  2625  2651  2712  2773  2834  2869  2895  2956  3017
                                                              3078  3113  3139  3200  3261  3322  3364  3394  3459  3494
                                                              3524  3589  3624  3654  3719  3784  3849  3914  3979  4044
                                                              4109  4174  4239  4304  4369  4411  4437  4472  4498  4533
                                                              4559  4594  4620  4655  4681  4716  4742  4777  4803  4838
                                                              4864  4899  4925  4960  4986  5021  5047  5108  5143  5169
                                                              5230  5265  5291  5352  5394  5430  5465  5501  5536  5572
                                                              5643  5678  5714  5749  5785  5820  5856  5927  5962  5998
                                                              6033  6069  6104  6140  6211  6282  6353  6424  6495  6538
                                                              6581  6659  6695  6738  6817  6853  6896  6975  7053  7132
                                                              7168  7211  7290  7326  7369  7448  7484  7527  7608  7687
                                                              7766  7802  7845  7924  7960  8003  8082  8118  8161  8240
                                                              8319  8398  8434  8477  8556  8635  8714  8750  8793  8872
                                                              8951  9030
 =CL10' '     10 00004222 00000004     C                 9224  108   150   203   256   304   352   406   455   504   553
1IFTEST                         Ordinary Symbol and Literal Cross Reference                                     Page  132
-Symbol   Length   Value     Id    R Type Asm  Program   Defn References                     HLASM R6.0  2021/03/26 12.00
0                                                              612   666   720   774   828   882   936   990  1050  1105
                                                              1160  1215  1270  1325  1380  1435  1495  1550  1605  1662
                                                              1717  1772  1827  1882  1947  2007  2067  2127  2187  2247
                                                              2307  2367  2436  2497  2558  2619  2680  2741  2802  2863
                                                              2924  2985  3046  3107  3168  3229  3290  3351  3423  3488
                                                              3553  3618  3683  3748  3813  3878  3943  4008  4073  4138
                                                              4203  4268  4333  4398  4466  4527  4588  4649  4710  4771
                                                              4832  4893  4954  5015  5076  5137  5198  5259  5320  5381
                                                              5459  5530  5601  5672  5743  5814  5885  5956  6027  6098
                                                              6169  6240  6311  6382  6453  6524  6610  6688  6767  6846
                                                              6925  7004  7082  7161  7240  7319  7398  7477  7556  7637
                                                              7716  7795  7874  7953  8032  8111  8190  8269  8348  8427
                                                              8506  8585  8664  8743  8822  8901  8980  9059
 =P'1'         1 00004237 00000004     P                 9228 2401  2462  2523  2584  2645  2706  2767  2828  2889  2950
                                                              3011  3072  3133  3194  3255  3316  3389  3454  3519  3584
                                                              3649  3714  3779  3844  3909  3974  4039  4104  4169  4234
                                                              4299  4364  4431  4492  4553  4614  4675  4736  4797  4858
                                                              4919  4980  5041  5102  5163  5224  5285  5346  5422  5493
                                                              5564  5635  5706  5777  5848  5919  5990  6061  6132  6203
                                                              6274  6345  6416  6487  6564  6642  6721  6800  6879  6958
                                                              7036  7115  7194  7273  7352  7431  7510  7591  7670  7749
                                                              7828  7907  7986  8065  8144  8223  8302  8381  8460  8539
                                                              8618  8697  8776  8855  8934  9013
 =Z'1'         1 00004236 00000004     Z                 9227 2380  2441  2502  2563  2624  2685  2746  2807  3363  3428
                                                              3493  3558  3623  3688  3753  3818  4410  4471  4532  4593
                                                              4654  4715  4776  4837  5393  5464  5535  5606  5677  5748
                                                              5819  5890  6536  6615  6693  6772  6851  6930  7009  7087
                                                              7800  7879  7958  8037  8116  8195  8274  8353
 =Z'2'         1 00004238 00000004     Z                 9229 2868  2929  2990  3051  3112  3173  3234  3295  3883  3948
                                                              4013  4078  4143  4208  4273  4338  4898  4959  5020  5081
                                                              5142  5203  5264  5325  5961  6032  6103  6174  6245  6316
                                                              6387  6458  7166  7245  7324  7403  7482  7563  7642  7721
                                                              8432  8511  8590  8669  8748  8827  8906  8985
1IFTEST                            Unreferenced Symbols Defined in CSECTs                                       Page  133
-  Defn  Symbol                                                                              HLASM R6.0  2021/03/26 12.00
0    10  R0
     20  R10
     21  R11
     12  R2
     13  R3
     14  R4
     15  R5
     16  R6
     17  R7
     18  R8
     19  R9
     74  TEST010A
    116  TEST010B
    164  TEST030A
    217  TEST030B
    265  TEST030C
    313  TEST030D
    366  TEST040A
    415  TEST040B
    464  TEST040C
    513  TEST040D
    568  TEST050A
    622  TEST050B
    676  TEST050C
    730  TEST050D
    784  TEST050E
    838  TEST050F
    892  TEST050G
    946  TEST050H
   1005  TEST060A
   1060  TEST060B
   1115  TEST060C
   1170  TEST060D
   1225  TEST060E
   1280  TEST060F
   1335  TEST060G
   1390  TEST060H
   1450  TEST070A
   1505  TEST070B
   1560  TEST070C
   1617  TEST070D
   1672  TEST070E
   1727  TEST070F
   1782  TEST070G
   1837  TEST070H
   1897  TEST080A
   1957  TEST080B
   2017  TEST080C
   2077  TEST080D
   2137  TEST080E
   2197  TEST080F
   2257  TEST080G
   2317  TEST080H
   2386  TEST090A
   2447  TEST090B
1IFTEST                            Unreferenced Symbols Defined in CSECTs                                       Page  134
-  Defn  Symbol                                                                              HLASM R6.0  2021/03/26 12.00
0  2508  TEST090C
   2569  TEST090D
   2630  TEST090E
   2691  TEST090F
   2752  TEST090G
   2813  TEST090H
   2874  TEST090I
   2935  TEST090J
   2996  TEST090K
   3057  TEST090L
   3118  TEST090M
   3179  TEST090N
   3240  TEST090O
   3301  TEST090P
   3369  TEST100A
   3434  TEST100B
   3499  TEST100C
   3564  TEST100D
   3629  TEST100E
   3694  TEST100F
   3759  TEST100G
   3824  TEST100H
   3889  TEST100I
   3954  TEST100J
   4019  TEST100K
   4084  TEST100L
   4149  TEST100M
   4214  TEST100N
   4279  TEST100O
   4344  TEST100P
   4416  TEST110A
   4477  TEST110B
   4538  TEST110C
   4599  TEST110D
   4660  TEST110E
   4721  TEST110F
   4782  TEST110G
   4843  TEST110H
   4904  TEST110I
   4965  TEST110J
   5026  TEST110K
   5087  TEST110L
   5148  TEST110M
   5209  TEST110N
   5270  TEST110O
   5331  TEST110P
   5402  TEST120A
   5473  TEST120B
   5544  TEST120C
   5615  TEST120D
   5686  TEST120E
   5757  TEST120F
   5828  TEST120G
   5899  TEST120H
   5970  TEST120I
1IFTEST                            Unreferenced Symbols Defined in CSECTs                                       Page  135
-  Defn  Symbol                                                                              HLASM R6.0  2021/03/26 12.00
0  6041  TEST120J
   6112  TEST120K
   6183  TEST120L
   6254  TEST120M
   6325  TEST120N
   6396  TEST120O
   6467  TEST120P
   6543  TEST130A
   6621  TEST130B
   6700  TEST130C
   6779  TEST130D
   6858  TEST130E
   6937  TEST130F
   7015  TEST130G
   7094  TEST130H
   7173  TEST130I
   7252  TEST130J
   7331  TEST130K
   7410  TEST130L
   7489  TEST130M
   7570  TEST130N
   7649  TEST130O
   7728  TEST130P
   7807  TEST130Q
   7886  TEST130R
   7965  TEST130S
   8044  TEST130T
   8123  TEST130U
   8202  TEST130V
   8281  TEST130W
   8360  TEST130X
   8439  TEST130Y
   8518  TEST130Z
   8597  TEST1300
   8676  TEST1301
   8755  TEST1302
   8834  TEST1303
   8913  TEST1304
   8992  TEST1305
   9249  VARBL4
1IFTEST                                    Macro and Copy Code Source Summary                                   Page  136
- Con Source                                        Volume    Members                        HLASM R6.0  2021/03/26 12.00
0  L1 IBMUSER.DHSNYDER.MACLIB                       A24SYS    $MGBLDEF ELSE     ENDIF    IF       IFCOPY   IF2      TRD
   L2 SYS1.MACLIB                                   A24RES    CLOSE    DCB      IHBINNRA IHB01    OPEN     PUT
                                                              SYSSTATE
1IFTEST                                                Using Map                                                Page  137
-                                                                                            HLASM R6.0  2021/03/26 12.00
   Stmt  -----Location----- Action ----------------Using----------------- Reg Max     Last Label and Using Text
           Count      Id           Type          Value    Range     Id        Disp    Stmt
0    31  00000006  00000002 USING  ORDINARY    00000000 00001000 00000002  12 00028     56 IFTEST,R12
     45  00000018  00000002 USING  ORDINARY    00003D80 00001000 00000004  13 00548   9076 $$WA$$,R13
   1608  00000B2A  00000002 USING  ORDINARY    00000B2A 00001000 00000002  12 00000        *,R12
   2376  0000105A  00000002 USING  ORDINARY    0000105A 00001000 00000002  12 00000        *,R12
   3359  0000179C  00000002 USING  ORDINARY    0000179C 00001000 00000002  12 00000        *,R12
   4406  00001EDE  00000002 USING  ORDINARY    00001EDE 00001000 00000002  12 00000        *,R12
   5389  00002620  00000002 USING  ORDINARY    00002620 00001000 00000002  12 00000        *,R12
   7559  000033E2  00000002 USING  ORDINARY    000033E2 00001000 00000002  12 00000        *,R12
   9067  00003D64  00000002 USING  ORDINARY    00003D64 00001000 00000002  12 00008   9071 *,R12
   9077  00003D72  00000002 DROP                                           13              R13
   9079  00003D76  00000002 DROP                                           12              R12
1                                   General Purpose Register Cross Reference                                    Page  138
- Register  References (M=modified, B=branch, U=USING, D=DROP, N=index)                      HLASM R6.0  2021/03/26 12.00
0    0(0)      29   104M  146M  199M  252M  300M  348M  402M  451M  500M  549M  608M  662M  716M  770M  824M  878M  932M
              986M 1046M 1101M 1156M 1211M 1266M 1321M 1376M 1431M 1491M 1546M 1601M 1658M 1713M 1768M 1823M 1878M 1943M
             2003M 2063M 2123M 2183M 2243M 2303M 2363M 2432M 2493M 2554M 2615M 2676M 2737M 2798M 2859M 2920M 2981M 3042M
             3103M 3164M 3225M 3286M 3347M 3419M 3484M 3549M 3614M 3679M 3744M 3809M 3874M 3939M 4004M 4069M 4134M 4199M
             4264M 4329M 4394M 4462M 4523M 4584M 4645M 4706M 4767M 4828M 4889M 4950M 5011M 5072M 5133M 5194M 5255M 5316M
             5377M 5455M 5526M 5597M 5668M 5739M 5810M 5881M 5952M 6023M 6094M 6165M 6236M 6307M 6378M 6449M 6520M 6606M
             6684M 6763M 6842M 6921M 7000M 7078M 7157M 7236M 7315M 7394M 7473M 7552M 7633M 7712M 7791M 7870M 7949M 8028M
             8107M 8186M 8265M 8344M 8423M 8502M 8581M 8660M 8739M 8818M 8897M 8976M 9055M 9078M
     1(1)      29    32M   36    36    46    47    56M  103M  106   145M  148   198M  201   251M  254   299M  302   347M
              350   401M  404   450M  453   499M  502   548M  551   607M  610   661M  664   715M  718   769M  772   823M
              826   877M  880   931M  934   985M  988  1045M 1048  1100M 1103  1155M 1158  1210M 1213  1265M 1268  1320M
             1323  1375M 1378  1430M 1433  1490M 1493  1545M 1548  1600M 1603  1657M 1660  1712M 1715  1767M 1770  1822M
             1825  1877M 1880  1942M 1945  2002M 2005  2062M 2065  2122M 2125  2182M 2185  2242M 2245  2302M 2305  2362M
             2365  2431M 2434  2492M 2495  2553M 2556  2614M 2617  2675M 2678  2736M 2739  2797M 2800  2858M 2861  2919M
             2922  2980M 2983  3041M 3044  3102M 3105  3163M 3166  3224M 3227  3285M 3288  3346M 3349  3418M 3421  3483M
             3486  3548M 3551  3613M 3616  3678M 3681  3743M 3746  3808M 3811  3873M 3876  3938M 3941  4003M 4006  4068M
             4071  4133M 4136  4198M 4201  4263M 4266  4328M 4331  4393M 4396  4461M 4464  4522M 4525  4583M 4586  4644M
             4647  4705M 4708  4766M 4769  4827M 4830  4888M 4891  4949M 4952  5010M 5013  5071M 5074  5132M 5135  5193M
             5196  5254M 5257  5315M 5318  5376M 5379  5454M 5457  5525M 5528  5596M 5599  5667M 5670  5738M 5741  5809M
             5812  5880M 5883  5951M 5954  6022M 6025  6093M 6096  6164M 6167  6235M 6238  6306M 6309  6377M 6380  6448M
             6451  6519M 6522  6605M 6608  6683M 6686  6762M 6765  6841M 6844  6920M 6923  6999M 7002  7077M 7080  7156M
             7159  7235M 7238  7314M 7317  7393M 7396  7472M 7475  7551M 7554  7632M 7635  7711M 7714  7790M 7793  7869M
             7872  7948M 7951  8027M 8030  8106M 8109  8185M 8188  8264M 8267  8343M 8346  8422M 8425  8501M 8504  8580M
             8583  8659M 8662  8738M 8741  8817M 8820  8896M 8899  8975M 8978  9054M 9057  9071M 9078M
     2(2)      29  9078M
     3(3)      29  9078M
     4(4)      29  9078M
     5(5)      29  9078M
     6(6)      29  9078M
     7(7)      29  9078M
     8(8)      29  9078M
     9(9)      29  9078M
    10(A)      29  9078M
    11(B)      29  9078M
    12(C)      29    30M   31U 1607M 1608U 2375M 2376U 3358M 3359U 4405M 4406U 5388M 5389U 7558M 7559U 9066M 9067U 9078M
             9079D
    13(D)      29    32    33M   45U   47  9076M 9077D 9078
    14(E)      29   107M  149M  202M  255M  303M  351M  405M  454M  503M  552M  611M  665M  719M  773M  827M  881M  935M
              989M 1049M 1104M 1159M 1214M 1269M 1324M 1379M 1434M 1494M 1549M 1604M 1661M 1716M 1771M 1826M 1881M 1946M
             2006M 2066M 2126M 2186M 2246M 2306M 2366M 2435M 2496M 2557M 2618M 2679M 2740M 2801M 2862M 2923M 2984M 3045M
             3106M 3167M 3228M 3289M 3350M 3422M 3487M 3552M 3617M 3682M 3747M 3812M 3877M 3942M 4007M 4072M 4137M 4202M
             4267M 4332M 4397M 4465M 4526M 4587M 4648M 4709M 4770M 4831M 4892M 4953M 5014M 5075M 5136M 5197M 5258M 5319M
             5380M 5458M 5529M 5600M 5671M 5742M 5813M 5884M 5955M 6026M 6097M 6168M 6239M 6310M 6381M 6452M 6523M 6609M
             6687M 6766M 6845M 6924M 7003M 7081M 7160M 7239M 7318M 7397M 7476M 7555M 7636M 7715M 7794M 7873M 7952M 8031M
             8110M 8189M 8268M 8347M 8426M 8505M 8584M 8663M 8742M 8821M 8900M 8979M 9058M 9078M 9081B
    15(F)      29    30   105M  105   106M  107B  147M  147   148M  149B  200M  200   201M  202B  253M  253   254M  255B
              301M  301   302M  303B  349M  349   350M  351B  403M  403   404M  405B  452M  452   453M  454B  501M  501
              502M  503B  550M  550   551M  552B  609M  609   610M  611B  663M  663   664M  665B  717M  717   718M  719B
              771M  771   772M  773B  825M  825   826M  827B  879M  879   880M  881B  933M  933   934M  935B  987M  987
              988M  989B 1047M 1047  1048M 1049B 1102M 1102  1103M 1104B 1157M 1157  1158M 1159B 1212M 1212  1213M 1214B
             1267M 1267  1268M 1269B 1322M 1322  1323M 1324B 1377M 1377  1378M 1379B 1432M 1432  1433M 1434B 1492M 1492
             1493M 1494B 1547M 1547  1548M 1549B 1602M 1602  1603M 1604B 1659M 1659  1660M 1661B 1714M 1714  1715M 1716B
             1769M 1769  1770M 1771B 1824M 1824  1825M 1826B 1879M 1879  1880M 1881B 1944M 1944  1945M 1946B 2004M 2004
             2005M 2006B 2064M 2064  2065M 2066B 2124M 2124  2125M 2126B 2184M 2184  2185M 2186B 2244M 2244  2245M 2246B
             2304M 2304  2305M 2306B 2364M 2364  2365M 2366B 2378M 2391M 2391  2433M 2433  2434M 2435B 2439M 2452M 2452
1                                   General Purpose Register Cross Reference                                    Page  139
- Register  References (M=modified, B=branch, U=USING, D=DROP, N=index)                      HLASM R6.0  2021/03/26 12.00
0            2494M 2494  2495M 2496B 2500M 2513M 2513  2555M 2555  2556M 2557B 2561M 2574M 2574  2616M 2616  2617M 2618B
             2622M 2635M 2635  2677M 2677  2678M 2679B 2683M 2696M 2696  2738M 2738  2739M 2740B 2744M 2757M 2757  2799M
             2799  2800M 2801B 2805M 2818M 2818  2860M 2860  2861M 2862B 2866M 2879M 2879  2921M 2921  2922M 2923B 2927M
             2940M 2940  2982M 2982  2983M 2984B 2988M 3001M 3001  3043M 3043  3044M 3045B 3049M 3062M 3062  3104M 3104
             3105M 3106B 3110M 3123M 3123  3165M 3165  3166M 3167B 3171M 3184M 3184  3226M 3226  3227M 3228B 3232M 3245M
             3245  3287M 3287  3288M 3289B 3293M 3306M 3306  3348M 3348  3349M 3350B 3361M 3377M 3377  3420M 3420  3421M
             3422B 3426M 3442M 3442  3485M 3485  3486M 3487B 3491M 3507M 3507  3550M 3550  3551M 3552B 3556M 3572M 3572
             3615M 3615  3616M 3617B 3621M 3637M 3637  3680M 3680  3681M 3682B 3686M 3702M 3702  3745M 3745  3746M 3747B
             3751M 3767M 3767  3810M 3810  3811M 3812B 3816M 3832M 3832  3875M 3875  3876M 3877B 3881M 3897M 3897  3940M
             3940  3941M 3942B 3946M 3962M 3962  4005M 4005  4006M 4007B 4011M 4027M 4027  4070M 4070  4071M 4072B 4076M
             4092M 4092  4135M 4135  4136M 4137B 4141M 4157M 4157  4200M 4200  4201M 4202B 4206M 4222M 4222  4265M 4265
             4266M 4267B 4271M 4287M 4287  4330M 4330  4331M 4332B 4336M 4352M 4352  4395M 4395  4396M 4397B 4408M 4421M
             4421  4463M 4463  4464M 4465B 4469M 4482M 4482  4524M 4524  4525M 4526B 4530M 4543M 4543  4585M 4585  4586M
             4587B 4591M 4604M 4604  4646M 4646  4647M 4648B 4652M 4665M 4665  4707M 4707  4708M 4709B 4713M 4726M 4726
             4768M 4768  4769M 4770B 4774M 4787M 4787  4829M 4829  4830M 4831B 4835M 4848M 4848  4890M 4890  4891M 4892B
             4896M 4909M 4909  4951M 4951  4952M 4953B 4957M 4970M 4970  5012M 5012  5013M 5014B 5018M 5031M 5031  5073M
             5073  5074M 5075B 5079M 5092M 5092  5134M 5134  5135M 5136B 5140M 5153M 5153  5195M 5195  5196M 5197B 5201M
             5214M 5214  5256M 5256  5257M 5258B 5262M 5275M 5275  5317M 5317  5318M 5319B 5323M 5336M 5336  5378M 5378
             5379M 5380B 5391M 5407M 5407  5456M 5456  5457M 5458B 5462M 5478M 5478  5527M 5527  5528M 5529B 5533M 5549M
             5549  5598M 5598  5599M 5600B 5604M 5620M 5620  5669M 5669  5670M 5671B 5675M 5691M 5691  5740M 5740  5741M
             5742B 5746M 5762M 5762  5811M 5811  5812M 5813B 5817M 5833M 5833  5882M 5882  5883M 5884B 5888M 5904M 5904
             5953M 5953  5954M 5955B 5959M 5975M 5975  6024M 6024  6025M 6026B 6030M 6046M 6046  6095M 6095  6096M 6097B
             6101M 6117M 6117  6166M 6166  6167M 6168B 6172M 6188M 6188  6237M 6237  6238M 6239B 6243M 6259M 6259  6308M
             6308  6309M 6310B 6314M 6330M 6330  6379M 6379  6380M 6381B 6385M 6401M 6401  6450M 6450  6451M 6452B 6456M
             6472M 6472  6521M 6521  6522M 6523B 6534M 6551M 6551  6607M 6607  6608M 6609B 6613M 6629M 6629  6685M 6685
             6686M 6687B 6691M 6708M 6708  6764M 6764  6765M 6766B 6770M 6787M 6787  6843M 6843  6844M 6845B 6849M 6866M
             6866  6922M 6922  6923M 6924B 6928M 6945M 6945  7001M 7001  7002M 7003B 7007M 7023M 7023  7079M 7079  7080M
             7081B 7085M 7102M 7102  7158M 7158  7159M 7160B 7164M 7181M 7181  7237M 7237  7238M 7239B 7243M 7260M 7260
             7316M 7316  7317M 7318B 7322M 7339M 7339  7395M 7395  7396M 7397B 7401M 7418M 7418  7474M 7474  7475M 7476B
             7480M 7497M 7497  7553M 7553  7554M 7555B 7561M 7578M 7578  7634M 7634  7635M 7636B 7640M 7657M 7657  7713M
             7713  7714M 7715B 7719M 7736M 7736  7792M 7792  7793M 7794B 7798M 7815M 7815  7871M 7871  7872M 7873B 7877M
             7894M 7894  7950M 7950  7951M 7952B 7956M 7973M 7973  8029M 8029  8030M 8031B 8035M 8052M 8052  8108M 8108
             8109M 8110B 8114M 8131M 8131  8187M 8187  8188M 8189B 8193M 8210M 8210  8266M 8266  8267M 8268B 8272M 8289M
             8289  8345M 8345  8346M 8347B 8351M 8368M 8368  8424M 8424  8425M 8426B 8430M 8447M 8447  8503M 8503  8504M
             8505B 8509M 8526M 8526  8582M 8582  8583M 8584B 8588M 8605M 8605  8661M 8661  8662M 8663B 8667M 8684M 8684
             8740M 8740  8741M 8742B 8746M 8763M 8763  8819M 8819  8820M 8821B 8825M 8842M 8842  8898M 8898  8899M 8900B
             8904M 8921M 8921  8977M 8977  8978M 8979B 8983M 9000M 9000  9056M 9056  9057M 9058B 9078M 9080M 9080
1IFTEST                            Diagnostic Cross Reference and Assembler Summary                             Page  140
-                                                                                            HLASM R6.0  2021/03/26 12.00
0     No Statements Flagged in this Assembly
 HIGH LEVEL ASSEMBLER, 5696-234, RELEASE 6.0, PTF UI64093
0SYSTEM: z/OS 02.04.00              JOBNAME: IBMUSERA    STEPNAME: C          PROCSTEP: (NOPROC)
0Unicode Module:   ASMA047C   From Page     1148   To Page    17584           ECECP: International 1
 Data Sets Allocated for this Assembly
  Con DDname   Data Set Name                                Volume  Member
   P1 SYSIN    IBMUSER.DHSNYDER.SRCLIB                      A24SYS  IFTEST
   L1 SYSLIB   IBMUSER.DHSNYDER.MACLIB                      A24SYS
   L2          SYS1.MACLIB                                  A24RES
      SYSLIN   SYS21085.T120026.RA000.IBMUSERA.OBJ.H01      A24SYS
      SYSPRINT IBMUSER.DHSNYDER.SYSPRINT                    A24RES

   26812K allocated to Buffer Pool       Storage required    1956K
    2829 Primary Input Records Read         4416 Library Records Read                  0 Work File Reads
       0 ASMAOPT Records Read               7738 Primary Print Records Written         0 Work File Writes
     315 Object Records Written                0 ADATA Records Written
0Assembly Start Time: 12.00.27 Stop Time: 12.00.29 Processor Time: 00.00.01.8318
 Return Code 000
 TEST010A PREDICTED OUTCOME: TRUE ; ACTUAL OUTCOME: TRUE
 TEST010B PREDICTED OUTCOME: FALSE; ACTUAL OUTCOME: FALSE
 TEST030A PREDICTED OUTCOME: TRUE ; ACTUAL OUTCOME: TRUE
 TEST030B PREDICTED OUTCOME: FALSE; ACTUAL OUTCOME: FALSE
 TEST030C PREDICTED OUTCOME: FALSE; ACTUAL OUTCOME: FALSE
 TEST030D PREDICTED OUTCOME: FALSE; ACTUAL OUTCOME: FALSE
 TEST040A PREDICTED OUTCOME: TRUE ; ACTUAL OUTCOME: TRUE
 TEST040B PREDICTED OUTCOME: TRUE ; ACTUAL OUTCOME: TRUE
 TEST040C PREDICTED OUTCOME: TRUE ; ACTUAL OUTCOME: TRUE
 TEST040D PREDICTED OUTCOME: FALSE; ACTUAL OUTCOME: FALSE
 TEST050A PREDICTED OUTCOME: TRUE ; ACTUAL OUTCOME: TRUE
 TEST050B PREDICTED OUTCOME: FALSE; ACTUAL OUTCOME: FALSE
 TEST050C PREDICTED OUTCOME: FALSE; ACTUAL OUTCOME: FALSE
 TEST050D PREDICTED OUTCOME: FALSE; ACTUAL OUTCOME: FALSE
 TEST050E PREDICTED OUTCOME: FALSE; ACTUAL OUTCOME: FALSE
 TEST050F PREDICTED OUTCOME: FALSE; ACTUAL OUTCOME: FALSE
 TEST050G PREDICTED OUTCOME: FALSE; ACTUAL OUTCOME: FALSE
 TEST050H PREDICTED OUTCOME: FALSE; ACTUAL OUTCOME: FALSE
 TEST060A PREDICTED OUTCOME: TRUE ; ACTUAL OUTCOME: TRUE
 TEST060B PREDICTED OUTCOME: TRUE ; ACTUAL OUTCOME: TRUE
 TEST060C PREDICTED OUTCOME: TRUE ; ACTUAL OUTCOME: TRUE
 TEST060D PREDICTED OUTCOME: TRUE ; ACTUAL OUTCOME: TRUE
 TEST060E PREDICTED OUTCOME: TRUE ; ACTUAL OUTCOME: TRUE
 TEST060F PREDICTED OUTCOME: TRUE ; ACTUAL OUTCOME: TRUE
 TEST060G PREDICTED OUTCOME: TRUE ; ACTUAL OUTCOME: TRUE
 TEST060H PREDICTED OUTCOME: FALSE; ACTUAL OUTCOME: FALSE
 TEST070A PREDICTED OUTCOME: TRUE ; ACTUAL OUTCOME: TRUE
 TEST070B PREDICTED OUTCOME: TRUE ; ACTUAL OUTCOME: TRUE
 TEST070C PREDICTED OUTCOME: TRUE ; ACTUAL OUTCOME: TRUE
 TEST070D PREDICTED OUTCOME: TRUE ; ACTUAL OUTCOME: TRUE
 TEST070E PREDICTED OUTCOME: TRUE ; ACTUAL OUTCOME: TRUE
 TEST070F PREDICTED OUTCOME: FALSE; ACTUAL OUTCOME: FALSE
 TEST070G PREDICTED OUTCOME: FALSE; ACTUAL OUTCOME: FALSE
 TEST070H PREDICTED OUTCOME: FALSE; ACTUAL OUTCOME: FALSE
 TEST080A PREDICTED OUTCOME: TRUE ; ACTUAL OUTCOME: TRUE
 TEST080B PREDICTED OUTCOME: FALSE; ACTUAL OUTCOME: FALSE
 TEST080C PREDICTED OUTCOME: TRUE ; ACTUAL OUTCOME: TRUE
 TEST080D PREDICTED OUTCOME: FALSE; ACTUAL OUTCOME: FALSE
 TEST080E PREDICTED OUTCOME: TRUE ; ACTUAL OUTCOME: TRUE
 TEST080F PREDICTED OUTCOME: FALSE; ACTUAL OUTCOME: FALSE
 TEST080G PREDICTED OUTCOME: FALSE; ACTUAL OUTCOME: FALSE
 TEST080H PREDICTED OUTCOME: FALSE; ACTUAL OUTCOME: FALSE
 TEST090A PREDICTED OUTCOME: TRUE ; ACTUAL OUTCOME: TRUE
 TEST090B PREDICTED OUTCOME: TRUE ; ACTUAL OUTCOME: TRUE
 TEST090C PREDICTED OUTCOME: TRUE ; ACTUAL OUTCOME: TRUE
 TEST090D PREDICTED OUTCOME: TRUE ; ACTUAL OUTCOME: TRUE
 TEST090E PREDICTED OUTCOME: TRUE ; ACTUAL OUTCOME: TRUE
 TEST090F PREDICTED OUTCOME: FALSE; ACTUAL OUTCOME: FALSE
 TEST090G PREDICTED OUTCOME: FALSE; ACTUAL OUTCOME: FALSE
 TEST090H PREDICTED OUTCOME: FALSE; ACTUAL OUTCOME: FALSE
 TEST090I PREDICTED OUTCOME: TRUE ; ACTUAL OUTCOME: TRUE
 TEST090J PREDICTED OUTCOME: FALSE; ACTUAL OUTCOME: FALSE
 TEST090K PREDICTED OUTCOME: FALSE; ACTUAL OUTCOME: FALSE
 TEST090L PREDICTED OUTCOME: FALSE; ACTUAL OUTCOME: FALSE
 TEST090M PREDICTED OUTCOME: TRUE ; ACTUAL OUTCOME: TRUE
 TEST090N PREDICTED OUTCOME: FALSE; ACTUAL OUTCOME: FALSE
 TEST090O PREDICTED OUTCOME: FALSE; ACTUAL OUTCOME: FALSE
 TEST090P PREDICTED OUTCOME: FALSE; ACTUAL OUTCOME: FALSE
 TEST100A PREDICTED OUTCOME: TRUE ; ACTUAL OUTCOME: TRUE
 TEST100B PREDICTED OUTCOME: FALSE; ACTUAL OUTCOME: FALSE
 TEST100C PREDICTED OUTCOME: TRUE ; ACTUAL OUTCOME: TRUE
 TEST100D PREDICTED OUTCOME: FALSE; ACTUAL OUTCOME: FALSE
 TEST100E PREDICTED OUTCOME: TRUE ; ACTUAL OUTCOME: TRUE
 TEST100F PREDICTED OUTCOME: FALSE; ACTUAL OUTCOME: FALSE
 TEST100G PREDICTED OUTCOME: FALSE; ACTUAL OUTCOME: FALSE
 TEST100H PREDICTED OUTCOME: FALSE; ACTUAL OUTCOME: FALSE
 TEST100I PREDICTED OUTCOME: FALSE; ACTUAL OUTCOME: FALSE
 TEST100J PREDICTED OUTCOME: FALSE; ACTUAL OUTCOME: FALSE
 TEST100K PREDICTED OUTCOME: FALSE; ACTUAL OUTCOME: FALSE
 TEST100L PREDICTED OUTCOME: FALSE; ACTUAL OUTCOME: FALSE
 TEST100M PREDICTED OUTCOME: FALSE; ACTUAL OUTCOME: FALSE
 TEST100N PREDICTED OUTCOME: FALSE; ACTUAL OUTCOME: FALSE
 TEST100O PREDICTED OUTCOME: FALSE; ACTUAL OUTCOME: FALSE
 TEST100P PREDICTED OUTCOME: FALSE; ACTUAL OUTCOME: FALSE
 TEST110A PREDICTED OUTCOME: TRUE ; ACTUAL OUTCOME: TRUE
 TEST110B PREDICTED OUTCOME: TRUE ; ACTUAL OUTCOME: TRUE
 TEST110C PREDICTED OUTCOME: TRUE ; ACTUAL OUTCOME: TRUE
 TEST110D PREDICTED OUTCOME: TRUE ; ACTUAL OUTCOME: TRUE
 TEST110E PREDICTED OUTCOME: TRUE ; ACTUAL OUTCOME: TRUE
 TEST110F PREDICTED OUTCOME: TRUE ; ACTUAL OUTCOME: TRUE
 TEST110G PREDICTED OUTCOME: TRUE ; ACTUAL OUTCOME: TRUE
 TEST110H PREDICTED OUTCOME: TRUE ; ACTUAL OUTCOME: TRUE
 TEST110I PREDICTED OUTCOME: TRUE ; ACTUAL OUTCOME: TRUE
 TEST110J PREDICTED OUTCOME: TRUE ; ACTUAL OUTCOME: TRUE
 TEST110K PREDICTED OUTCOME: TRUE ; ACTUAL OUTCOME: TRUE
 TEST110L PREDICTED OUTCOME: FALSE; ACTUAL OUTCOME: FALSE
 TEST110M PREDICTED OUTCOME: TRUE ; ACTUAL OUTCOME: TRUE
 TEST110N PREDICTED OUTCOME: FALSE; ACTUAL OUTCOME: FALSE
 TEST110O PREDICTED OUTCOME: TRUE ; ACTUAL OUTCOME: TRUE
 TEST110P PREDICTED OUTCOME: FALSE; ACTUAL OUTCOME: FALSE
 TEST120A PREDICTED OUTCOME: TRUE ; ACTUAL OUTCOME: TRUE
 TEST120B PREDICTED OUTCOME: TRUE ; ACTUAL OUTCOME: TRUE
 TEST120C PREDICTED OUTCOME: TRUE ; ACTUAL OUTCOME: TRUE
 TEST120D PREDICTED OUTCOME: FALSE; ACTUAL OUTCOME: FALSE
 TEST120E PREDICTED OUTCOME: TRUE ; ACTUAL OUTCOME: TRUE
 TEST120F PREDICTED OUTCOME: TRUE ; ACTUAL OUTCOME: TRUE
 TEST120G PREDICTED OUTCOME: TRUE ; ACTUAL OUTCOME: TRUE
 TEST120H PREDICTED OUTCOME: FALSE; ACTUAL OUTCOME: FALSE
 TEST120I PREDICTED OUTCOME: TRUE ; ACTUAL OUTCOME: TRUE
 TEST120J PREDICTED OUTCOME: TRUE ; ACTUAL OUTCOME: TRUE
 TEST120K PREDICTED OUTCOME: TRUE ; ACTUAL OUTCOME: TRUE
 TEST120L PREDICTED OUTCOME: FALSE; ACTUAL OUTCOME: FALSE
 TEST120M PREDICTED OUTCOME: FALSE; ACTUAL OUTCOME: FALSE
 TEST120N PREDICTED OUTCOME: FALSE; ACTUAL OUTCOME: FALSE
 TEST120O PREDICTED OUTCOME: FALSE; ACTUAL OUTCOME: FALSE
 TEST120P PREDICTED OUTCOME: FALSE; ACTUAL OUTCOME: FALSE
 TEST130A PREDICTED OUTCOME: TRUE ; ACTUAL OUTCOME: TRUE
 TEST130B PREDICTED OUTCOME: FALSE; ACTUAL OUTCOME: FALSE
 TEST130C PREDICTED OUTCOME: TRUE ; ACTUAL OUTCOME: TRUE
 TEST130D PREDICTED OUTCOME: FALSE; ACTUAL OUTCOME: FALSE
 TEST130E PREDICTED OUTCOME: TRUE ; ACTUAL OUTCOME: TRUE
 TEST130F PREDICTED OUTCOME: FALSE; ACTUAL OUTCOME: FALSE
 TEST130G PREDICTED OUTCOME: FALSE; ACTUAL OUTCOME: FALSE
 TEST130H PREDICTED OUTCOME: FALSE; ACTUAL OUTCOME: FALSE
 TEST130I PREDICTED OUTCOME: TRUE ; ACTUAL OUTCOME: TRUE
 TEST130J PREDICTED OUTCOME: FALSE; ACTUAL OUTCOME: FALSE
 TEST130K PREDICTED OUTCOME: TRUE ; ACTUAL OUTCOME: TRUE
 TEST130L PREDICTED OUTCOME: FALSE; ACTUAL OUTCOME: FALSE
 TEST130M PREDICTED OUTCOME: TRUE ; ACTUAL OUTCOME: TRUE
 TEST130N PREDICTED OUTCOME: FALSE; ACTUAL OUTCOME: FALSE
 TEST130O PREDICTED OUTCOME: FALSE; ACTUAL OUTCOME: FALSE
 TEST130P PREDICTED OUTCOME: FALSE; ACTUAL OUTCOME: FALSE
 TEST130Q PREDICTED OUTCOME: TRUE ; ACTUAL OUTCOME: TRUE
 TEST230R PREDICTED OUTCOME: FALSE; ACTUAL OUTCOME: FALSE
 TEST130S PREDICTED OUTCOME: TRUE ; ACTUAL OUTCOME: TRUE
 TEST130T PREDICTED OUTCOME: FALSE; ACTUAL OUTCOME: FALSE
 TEST130U PREDICTED OUTCOME: TRUE ; ACTUAL OUTCOME: TRUE
 TEST130V PREDICTED OUTCOME: FALSE; ACTUAL OUTCOME: FALSE
 TEST230W PREDICTED OUTCOME: FALSE; ACTUAL OUTCOME: FALSE
 TEST130X PREDICTED OUTCOME: FALSE; ACTUAL OUTCOME: FALSE
 TEST130Y PREDICTED OUTCOME: TRUE ; ACTUAL OUTCOME: TRUE
 TEST130Z PREDICTED OUTCOME: FALSE; ACTUAL OUTCOME: FALSE
 TEST1300 PREDICTED OUTCOME: FALSE; ACTUAL OUTCOME: FALSE
 TEST1301 PREDICTED OUTCOME: FALSE; ACTUAL OUTCOME: FALSE
 TEST1302 PREDICTED OUTCOME: TRUE ; ACTUAL OUTCOME: TRUE
 TEST1303 PREDICTED OUTCOME: FALSE; ACTUAL OUTCOME: FALSE
 TEST1304 PREDICTED OUTCOME: FALSE; ACTUAL OUTCOME: FALSE
 TEST1305 PREDICTED OUTCOME: FALSE; ACTUAL OUTCOME: FALSE
